:1040000000100020394E0000817D0000857D0000F9
:10401000D3F00200897D0000917D0000D3F0020002
:10402000D3F00200D3F00200D3F00200D3F002007C
:10403000957D0000A8780300D3F00200D3F00200C1
:10404000D3F00200D3F00200D3F00200814D000053
:10405000D3F00200D3F00200D3F00200D3F002004C
:10406000D3F00200D3F00200F1990000BDC40000BB
:10407000831A0300D3F00200D3F00200D3F0020051
:10408000D3F00200D3F00200D3F00200D3F002001C
:10409000D3F00200B5550000D3F00200D3F00200C7
:1040A000D3F00200D3F00200D3F00200D3F00200FC
:1040B000D3F00200C5310300D3F00200054D01002A
:1040C000CB310300C7310300F5440100D7310300B1
:1040D000CF310300C94C0100D3310300B9320100D4
:1040E000454D0100D3F00200D3F00200A17E000094
:1040F000D3F0020099F80200D3F00200D3F00200DE
:10410000D3F00200D3F00200D3F00200D3F002009B
:10411000D3F00200D3F00200D3F00200D3F002008B
:10412000D3F00200D3F00200D3F00200D3F002007B
:10413000D3F00200000000002DE9F04F2DED088BB8
:104140008DB09DED1E7B09EE903ADDE920430A9388
:10415000229B09EE100A8A460792069351EC170B30
:1041600053EC172BB0EE478AF0EE678A08F0F4FDA7
:1041700080B14FF0FF3251EC180BCF4B08F014FE1A
:1041800040B94FF0FF326FF4801351EC180B08F078
:10419000EDFD98B1069B514622930A9B19EE100A39
:1041A000CDE9204319EE903A079A8DED1E8B0DB0A4
:1041B000BDEC088BBDE8F04F00F0A2B9002200234F
:1041C00051EC180B08F0D2FD002800F0448118EEE5
:1041D000903A18EE108A03F10049069BC9F30A5081
:1041E00013F48063A0F2FF3008BF06240B9308F09D
:1041F000E1FAA1A3D3E9002308F046FBA0A3D3E989
:10420000002308F08BF9C9F313050F4645F07F51E1
:1042100006460022A94B404641F4401108F07CF9C3
:1042200099A3D3E9002308F02FFB02460B46304642
:10423000394608F073F908F0C1FD834608F0BAFA70
:1042400093A3D3E9002306460F4608F01DFB002286
:104250009B4B08F063F908F0B1FD8FA3D3E900236D
:1042600005463946304608F00FFB064628460F46FD
:1042700008F0A0FA8AA3D3E9002308F005FB024660
:104280000B463046394608F047F902460B460646CB
:104290000F4608F0F9FA324641EC1A0B3B4630461D
:1042A000394608F03BF9002241EC1B0B854B51ECE1
:1042B0001A0B08F013FC0022834B08F02FF902467A
:1042C0000B4651EC1A0B08F009FC00227F4B08F05A
:1042D00025F902460B4651EC1A0B08F0FFFB32465B
:1042E00041EC1A0B3B4600204FF0804108F014F9D6
:1042F00002460B4651EC1A0B08F010F902460B4629
:1043000051EC1B0B08F0EAFB05F2FF350022704B65
:1043100008F004F900222B0508F0B6FA42464B4695
:1043200006460F4608F040FD002840F09780CDE992
:1043300008670BF16303C72B069B34BF04250525D3
:10434000190521D558A3D3E900234046494608F072
:1043500021FD002800F0BE8055A3D3E9002340468C
:10436000494608F003FD002800F0B48000255C45B4
:10437000CCBFA4EB0B000024AB46069BC8BF00F1EA
:10438000FF3443F4806306930A9B9D4238BF5E1B53
:10439000069B28BF002613F0020702D0002D18BF8D
:1043A0000026BBF1000F07D0DDE90823404649464F
:1043B00008F094FB804689460022002351EC180B3C
:1043C00008F0D4FC10B109F100439946069B514610
:1043D00023F40063CDE9036319EE100A19EE903A55
:1043E000CDE90089079A029400F08AF875B3069B1C
:1043F000024613F0200F00F1010619EE903A14BFA7
:1044000045206520514619EE104AA0470523002299
:1044100005930A238BEAEB70CDE90232A0EBEB7037
:104420004FEADB73013D0193009019EE903A32465A
:10443000514619EE100A04952DF031FA37B1079B59
:10444000C51A079B58190A9BAB424CD80DB0BDEC5E
:10445000088BBDE8F08F59EC188BBEE60022304681
:104460003946194B08F03AFB0BF1FF3BCDE9080147
:104470005FE700BFAFF30080FB799F501344D33F49
:10448000B3C8608B288AC63F61436F63A787D23F5A
:1044900071A379094F930A401655B5BBB16B024021
:1044A000EF39FAFE422EE63F2D431CEBE2361A3F6F
:1044B0000000000080842E41FFFFEF7F0000F83FE6
:1044C0000000E03F00002C400000244000001840A5
:1044D0000000F03F002C3FF457AF0B9B002B3FF444
:1044E00053AF013C50E7024619EE903A5146202066
:1044F00019EE104AA0470135A3E700BF00000000F5
:104500002DE9F04F2DED088B8FB0DDE920AB08EEE3
:10451000100A0F4608EE902A09EE103ADDE9225300
:104520005246049350465B465946249E08F014FCBC
:10453000A0B9049B2396229303232193B84B209385
:1045400018EE902A19EE103A394618EE100A0FB0FC
:10455000BDEC088BBDE8F04F2DF0D9B84FF0FF321D
:104560006FF480135046594608F000FC30B1049BAC
:104570002396229304232193AA4BE0E74FF0FF32C6
:1045800050465946A84B08F00FFC70B1A74A06F0F8
:104590000403002B08BF0322A54B1CBF13460422B3
:1045A00004992396CDE92121C9E7504698A3D3E980
:1045B0000023594608F0F8FB38B997A3D3E9002344
:1045C0005046594608F0D2FB98B1049B18EE902A49
:1045D000CDE92253394619EE103A18EE100ACDE90A
:1045E00020AB24960FB0BDEC088BBDE8F04FFFF771
:1045F000A3BD002200235046594608F0B7FB00280F
:1046000000F081805B4652460020002107F084FFC5
:10461000012382468B46059316F4806F08BF06255A
:104620003021A94606ABA5F12002B9F1090FA5EB8F
:10463000090406D909F1FF394A4503F8011BF4D1F1
:1046400020245946504608F0B9FB7A4B054603EB47
:10465000C90393ED007BB0EE47AAF0EE67AA08F01D
:10466000A9F802460B465046594607F055FF53EC51
:104670001A2B08F009F902460B4643EC1B2B08F0F5
:10468000C5FB804608F086F802460B4651EC1B0B32
:1046900007F042FF02460B4643EC1B2B0022664B01
:1046A00008F082FB88B308F10108404608F072F870
:1046B00002460B4651EC1A0B08F062FB10B14FF0AA
:1046C00000080135B9F1000F51D1284608F072F801
:1046D00002460B465046594607F01EFF0022564B35
:1046E0008046894608F042FB30B1002240464946E8
:1046F000514B08F059FB10B1E80700D5013506AB66
:104700000A2223445AE0059086E7002251EC1B0B55
:10471000494B08F02BFB0028D4D1B8F1000F02D090
:1047200018F0010FCED008F10108CBE7B8FBF1F08B
:1047300001FB1082B8F1090F02F1300209F1FF39D3
:1047400004F1010403F8012B28D83021A14406AA62
:10475000202C11D04C4504F1010321D104F1380281
:104760000DEB02042E2204F8202C1C46C7E70A2178
:1047700006AB2344202CD9D106F00303012B06AB52
:1047800039D1049A002A36D0059A12B916F00C0FC6
:1047900002D0049A013A0492302214E08046E9E7FC
:1047A000A1541C46D4E795FBF2F102FB11553035BC
:1047B00003F8015B01340D460029DDD0202CF2D135
:1047C000DAE71A5501340499A14214D9202CF8D102
:1047D000049A0093CDE9014219EE103A18EE902A9E
:1047E000394618EE100A03962CF091FF0FB0BDEC7D
:1047F000088BBDE8F08F202CEAD0059AF2B12D216C
:1048000004F138026A4402F8201C0134E0E700BFDA
:104810000000000065CDCD410000000065CDCDC198
:10482000F1800300F5800300FFFFEF7FEC800300C1
:10483000E8800300008103000000E03F710704D519
:1048400004F138022B216A44DDE73207C0D504F1B8
:10485000380220216A44D6E770B58EB02C220021A0
:1048600003A82DF074FA64234FF00232012108935B
:104870008DF81010CDE905230B238DF83430504B03
:104880001B88D80700F1958008464E4C17F0A0FA17
:104890004D4B0A224D494E481A704FF42873ADF81B
:1048A00012300AF0DFFA206020B940F22221494894
:1048B00003F064F9052120682DF065FF20B140F276
:1048C0002921444803F05AF920680C2507F008FE16
:1048D000414B206819682DF0DDFF18F053F968434B
:1048E000099018F04FF968430DEB05010790206817
:1048F0000AF0E2FD20B140F23E21364803F03EF9D5
:104900000022364920682EF04FF820B14FF4107184
:10491000304803F033F9324E40F20353314D96F9EB
:1049200000002B8005237F28AB7001D117F04AFBD4
:104930003378EB7018F026F900EB80008000A88037
:1049400018F020F90023C0004FF0FF31E8804FF04D
:10495000FF30AB6018A3D3E9002317F00BFC22490A
:1049600020682EF09CFC02A920682DF0FCFF20B1ED
:1049700040F27321174803F001F9042220680DEB7F
:1049800002010AF0A5FA042804D040F27621114869
:1049900003F0F4F801A901202FF0CAFD03F034FA66
:1049A000012018F063FB2AF03FFD18F097FB17F089
:1049B0007BFB0EB070BD00BF0A0020FF4203000069
:1049C000E4670020545C0020916D0020FDBD0100D3
:1049D000FC120020D29E030004110020A06D0020D4
:1049E00078160020405C0020DDBE010010B5054CAB
:1049F000237833B9044B13B1044800E000BF01230E
:104A0000237010BD202A00200000000010A7030022
:104A100008B5034B1BB10349034800E000BF08BDC4
:104A200000000000242A002010A70300A3F5803A0C
:104A3000704700BF174B002B08BF134B9D46FFF775
:104A4000F5FF00218B460F461348144A121A2DF029
:104A50007EF90E4B002B00D098470D4B002B00D059
:104A600098470020002104000D000D48002802D0C6
:104A70000C4800E000BF08F095FB200029002DF055
:104A800027F908F07BFB00BF0000080000000000D1
:104A90000000000000100020A8240020106E00205C
:104AA0000000000000000000BFF34F8F0549064BD7
:104AB000CA6802F4E0621343CB60BFF34F8F00BFBC
:104AC000FDE700BF00ED00E00400FA0500239B6A4B
:104AD000B3F5804F03D21968064A914203D00023F0
:104AE000037083607047012202709A689B6942607C
:104AF000F7E700BF07B0CD5E73B5494B04461A789F
:104B00001AB102221A7002B070BDCDE9002200284D
:104B1000F9D001261E702AF088FB424D424B1860E6
:104B20000DF068FB2B785BB900F07EFD40B93F4883
:104B300008233F4A3F49006809F094FE00B92E70EF
:104B40003D4B5A68E2603D4A9A601A6E22605A6E86
:104B50006260D3F87021A2601B6E5C0440D5384AB5
:104B6000D368D807FCD4374B1A68531C3DD04FF498
:104B700080139340344A13660423334C23664FF466
:104B8000806323662AF075FA01300ED02AF071FA9C
:104B900040F20113984208D04FF4804323664FF44B
:104BA000004323661023C4F870311023264C4FF0C5
:104BB000804223664FF400536846236601A92266AB
:104BC00063662AF03BFA009B2366019B63662B78A1
:104BD000002B98D0164B1A6822665B68636692E7D2
:104BE0001A4AD368D907FCD4BDE7194B1B78002BB0
:104BF000C2D1184B5A68144B12B94FF480121A667E
:104C0000154A526812B94FF400121A66134B5B68CA
:104C1000002BB1D14FF480020B4B1A66ACE700BFFA
:104C20008668002084680020542A0020B0100020EC
:104C30004C2A0020007108000080004455CEAC00D2
:104C40000000044098100020009000440000045030
:104C5000856800200080055000C005500000065007
:104C600038B5224D04462B78012B02D001232B703E
:104C700038BD0028FCD02AF0FCF9013009D02AF018
:104C8000F8F940F20113984203D0194AD368DB07C0
:104C9000FCD42268174B1A6662685A66A268C3F889
:104CA0007021E268D40744BF00229A60124B1A6850
:104CB000013213D1114A127882B911494968C807E3
:104CC00048BF1A600F4A5268D10744BF01221A60D8
:104CD0000D4A5268D20744BF02221A600DF092FAC0
:104CE0000A4B18682AF0A7FA0023C0E7866800205C
:104CF00000000440008000449810002085680020D7
:104D00000080055000C0055000000650542A0020C5
:104D100070B50024A36AB3F5804F22D21A68124BF3
:104D20009A421ED1114E337813F0FD0517D1104869
:104D3000FFF7E2FE08214FF480330E4A0E48C2F816
:104D40008011C36011600D4A1361AB6ADB6998473B
:104D500004460748FFF784FF0CB90123337020464F
:104D600070BD4FF48174FAE707B0CD5E856800200E
:104D70003C2A002000E100E000A000440090004434
:104D800013B51F4B1B7803B9FEE700231D4CCDE97B
:104D900000336A4608231C49206809F063FDF0B916
:104DA0001A4AD2F84031D2F840211F2B4FF00103AC
:104DB00010D9203A9340019A1343019308236A467D
:104DC0001149206809F004FD4FF00053104A1A60A1
:104DD000FFF76AFE9340009A13430093EEE70D4BF2
:104DE0009842F1D1094AD2F84031D2F840211F2B24
:104DF0004FF0010302D9203A9340DEE79340ECE7FD
:104E000086680020B0100020007108000080004477
:104E10000B020FF00BE000F005490A681318054873
:104E200083428CBF4FF0FF320B601046704700BFCB
:104E30009C1000200080012008B500F02DF8124BD6
:104E400012498B4212D30020114B12498B4218D3C6
:104E5000FFF7F0FD186850F82240586840F82240EB
:104E6000013298688242F5D30C33EAE70022F8E772
:104E70001C6844F8220001325C68A242F8D308336F
:104E8000E4E70022F8E700BF18A7030024A7030007
:104E900024A7030024A703006FF00100104B114A60
:104EA00010B59A60D3F888200F4942F47002C3F815
:104EB000882001F50052106641F2FF705066022012
:104EC000C3F8D000BFF34F8FBFF36F8F08244FF4A8
:104ED00040330648C0F88041D36004600B6110BDC8
:104EE00000ED00E0004000000080004400E100E030
:104EF000014B1868704700BFA4100020014B1860D8
:104F0000704700BFA4100020084B1B6F03F007037D
:104F1000022B04D0032B05D0012B05D0FEE7044B58
:104F200018687047034BFBE7034870470080005048
:104F3000A4100020A8100020002D310108B5FFF7B3
:104F4000E3FF054B1B6FC3F301330133B0FBF3F0F9
:104F5000024B186008BD00BF00800050A010002068
:104F60000048704700B4C404014B1868704700BF84
:104F7000A8100020054B1860054B1B6F03F00703BA
:104F8000032B01D1FFF7DABF704700BFA810002044
:104F90000080005000487047002D3101174B986881
:104FA000C0F304400C2822D8DFE800F009212121B9
:104FB0002121071719211B1D1F00114870479B68ED
:104FC00003F04073B3F1807F13D0B3F1007F12D0B0
:104FD0000C4A002B08BF104670470B4870470B481F
:104FE00070470B4870470B4870470B4870470020CC
:104FF00070470A4870470A48704700BF0040015A8E
:10500000405DC60000093D000024F400C0EA210113
:1050100080BA8C010048E801005A620280841E00B8
:1050200040420F00014B1868704700BFAC100020D1
:1050300008B5032101230422002001F04FF80020CD
:105040002AF011F90122244B0C20C3F84424234AEE
:10505000D2F8803043F00303C2F8803000F06CFDDA
:105060001F4B00F5D520D3F8F02000F2FC4042F0B1
:105070000102C3F8F020D3F8FC2042F08072C3F89C
:10508000FC20184AA3F55D431A60174B0222B0FBBF
:10509000F3F0164B01381861C3F8F0204FF480721A
:1050A000C3F804234FF06043114A0020C3F8B02F27
:1050B000104AC3F8802ED3F8002E42F48072C3F851
:1050C000002EFF2283F82020D3F8002E22F48072D5
:1050D000C3F8002E08BD00BF00D003500080005070
:1050E00000ED00E0FF030040F8590D00000004E06F
:1050F00055CEACC5090001004FF06043D3F8802EB7
:1051000030B5D20715D501240B4D8440D5F8FC20CD
:1051100042F08072C5F8FC20D3F8002E2243C3F879
:10512000002E53F82020002AF0D003F82010002091
:1051300030BD1120FCE700BF00ED00E010B50122FA
:1051400043780178847830209A40054B00FB013386
:105150001CB942F210015A5010BD41F21001FAE799
:1051600000C0035010B501224378017884783020C4
:105170009A40054B00FB01331CB941F210015A5013
:1051800010BD42F21001FAE700C003502DE9F04FC4
:105190009A46564B85B01B7806460F461546DDF8F5
:1051A0003C909DF844B0DDF85080002B00F08D80DD
:1051B000072A00F28C800E9B002B00F08880B9F14A
:1051C000000F00F08480129BB3F5006F7FDC012894
:1051D00002D1109B002B7AD0454B03EB05131B7BB0
:1051E000002B76D0434C1022002168462CF0AFFDF6
:1051F00004EB45141022002F59D1394620462CF0DB
:10520000A6FD43F210036380BBF1000F03D1E378E6
:1052100043F00303E370374A0E9B02EB451CCCE9D5
:105220000193129B6901013BC3F30A009DF84C30C6
:10523000012E03F003034FEA836343EA001E535831
:105240002D48CDF800A000EA03004EEA00035350B9
:1052500041D113230CF1100ECCF80C309CE80F0058
:105260008EE80F006FF00301DCF81C20109B61F347
:105270009F02012FCCF81C20CCF8143003D1CCF8BD
:105280001890CCF804300027194A290102EB0513C5
:1052900042F80180159A28465A60694622469F6066
:1052A0005E7300F0A9FF384605B0BDE8F08F00211D
:1052B00020462CF04CFD4FF444736380BBF1000F8B
:1052C000A9D1E37843F03003A4E70C48ECE70C489D
:1052D000EAE70C48E8E7B8F1000FD4D19CF80230B7
:1052E00068F304138CF80230CDE700BF8768002014
:1052F000582A0020D82A00200F80FFF3028000F0F7
:10530000018000F0078000F038B5124B05461B788D
:10531000DBB1E0B129F089FF0F4A00231146147B6D
:1053200054B92B6001251A0101EB03131D738C5036
:1053300029F081FF204638BD0133082B02F110020D
:10534000EDD129F078FF0548F5E70548F3E7054872
:10535000F1E700BF87680020582A0020048000F091
:10536000028000F0018000F013B529F05EFF0023F9
:105370000B4A147B7CB90133082B02F11002F8D1DF
:10538000019000F0EDFE074B01981C7029F053FFCF
:10539000204602B010BD29F04EFF0348F9E700BFD8
:1053A000582A002087680020058000F00D4B10B5BA
:1053B0001B78044693B1072812D829F036FF0A4B10
:1053C00003EB04131A7B2AB100241C7329F033FF6A
:1053D000204610BD29F02FFF0448FAE70448F8E7FB
:1053E0000448F6E787680020582A0020068000F06D
:1053F000028000F0018000F0154B13B518680023FF
:1054000001908DF8043029F010FF124B1C7824B164
:1054100029F011FF104802B010BD01221A7029F0C6
:105420000AFF0E4B01A81C731C7783F82C4083F8ED
:105430003C4083F84C4083F85C4083F86C4083F830
:105440007C4008238DF8073000F0ACFE2046E2E7F0
:10545000F878030087680020038000F0582A0020B5
:105460000A4A08B512785AB107280BD8084A02EB45
:1054700000131B7B43B1002100F086FE002008BD15
:105480000448FCE70448FAE70448F8E78768002086
:10549000582A0020028000F0018000F0078000F010
:1054A0000A4A08B512785AB107280BD8084A02EB05
:1054B00000131B7B43B1012100F066FE002008BDF4
:1054C0000448FCE70448FAE70448F8E78768002046
:1054D000582A0020028000F0018000F0078000F0D0
:1054E0000A4A08B5127852B107280AD8084A02EBCE
:1054F00000131B7B3BB100F0CDFE002008BD05482A
:10550000FCE70548FAE70548F8E700BF8768002090
:10551000582A0020028000F0018000F0078000F08F
:105520000D4B1B7893B1072812D889B10B4B03EBB5
:1055300000131B7B73B10A4B1A6D012303FA00F0B1
:1055400010401ABF00200B70087070470548704764
:10555000054870470548704787680020582A002092
:1055600000000450028000F0018000F0078000F08D
:105570000B4A10B512780C4662B107280CD859B105
:10558000084A02EB00131B7B43B100F095FE20702C
:10559000002010BD0448FCE70448FAE70448F8E797
:1055A00087680020582A0020028000F0018000F067
:1055B000078000F02DE9F843174B1F6D5B6D1F400E
:1055C00000D5FEE701260025144CDFF85480DFF8F3
:1055D0005490374217D02368C8F850609BB1A16837
:1055E000284601316268A1609847637B012B0AD18C
:1055F00048B909EB45131A7B60F341021A731A7F0D
:1056000060F341021A770135082D4FEA460604F18E
:105610001004DED1BDE8F88300000450582A0020B1
:1056200000200450D82A0020024B1968024B186849
:1056300008F0F8BFB4100020B010002037B5920079
:1056400004460D46019232F027F9431C0BD060B995
:1056500029462046019A2CF043FB0028044808BF45
:10566000002003B030BD0348FBE70348F9E700BF63
:1056700010E000F021E000F024E000F013B5044653
:1056800001A800F0BBFE9DF80630012223804FF4F4
:10569000807300206380054B9B680A3303F01F036F
:1056A00002FA03F3636002B010BD00BF0080E00F98
:1056B00010B5044632F0E8F8431C15D0B0B90C4BD5
:1056C00020469B680A3303F01F020123934023F016
:1056D00003032344984201D1002010BD50F8042B4D
:1056E0000132F7D00348F8E70348F6E70348F4E748
:1056F0000080E00F0EE000F021E000F024E000F078
:1057000008B529F083FD014B186008BD1832002050
:10571000014B186829F07EBD1832002041F6713324
:1057200010B5104C104AA0428CBF4FF480140024D6
:10573000D169D363936801F4803123F44013234388
:1057400093600A4B98420A4BD3F818228CBF42F060
:10575000020222F00202C3F8182211B10022024B09
:10576000DA6310BD005A62020000035080F0FA02B2
:1057700000C007502E4B98424AD022D82D4B984259
:1057800040D014D82C4B984239D00AD82B4B984291
:1057900032D02B4B98422FD02A4B98422CD000204D
:1057A0007047294B9842FAD1284B186F7047284B05
:1057B00098422AD0274B9842F1D1244BD3F880004D
:1057C0007047254B98422BD009D8244B984223D0C0
:1057D000234B9842E3D11D4BD3F88C007047214BEB
:1057E000984221D003F5740303F510539842D6D1A3
:1057F000164BD3F898007047144B986D7047134BB5
:10580000586E7047114B586F7047104B986F704728
:105810000E4BD3F8840070470C4BD3F888007047C8
:105820000A4BD3F890007047084BD3F894007047A8
:105830000048E8010024F400C0CF6A0080841E0004
:1058400000093D0040420F00405DC6000080E00FAF
:10585000C0EA210180BA8C01007E560380D5430244
:10586000006CDC020090D00338B5124B0546D3F82B
:1058700020310C4603F00703013B032B17D8DFE868
:1058800003F0020A0E12FFF733FB042305B1286070
:1058900004B1236038BDFFF767FB0323F6E7FFF78A
:1058A0007DFB0523F2E7FFF775FB0223EEE70023FC
:1058B0001846EBE70080005037B50C460021124A2D
:1058C0000191D2F88021054602F00302022A0ED08F
:1058D000032A11D0012A14D101A8FFF7C5FF0D2317
:1058E0000DB1019A2A6004B1236003B030BDFFF707
:1058F00055FB05230190F3E7FFF74CFB02230190D2
:10590000EEE70B46ECE700BF0080005038B5104BC7
:105910000546D3F840310C4603F00303022B0BD0AD
:10592000032B0DD0012B0FD129F0D6FB082305B195
:10593000286004B1236038BDFFF774FB0723F6E746
:1059400029F0CDFB0923F2E700231846EFE700BF5B
:105950000080005038B5104B0546D3F860310C4636
:1059600003F00303022B0BD0032B0DD0012B0FD11F
:1059700029F0B2FB082305B1286004B1236038BDCB
:10598000FFF750FB0723F6E729F0A9FB0923F2E70D
:1059900000231846EFE700BF0080005038B5134BD6
:1059A0000546D3F800320C4603F00703013B032BF6
:1059B00018D8DFE803F0020A0E1229F08DFB082345
:1059C00005B1286004B1236038BDFFF72BFB072326
:1059D000F6E729F084FB0923F2E7FFF7AFFA0C237F
:1059E000800AEDE700231846EAE700BF0080005078
:1059F00038B5134B0546D3F808320C4603F00703BD
:105A0000013B032B18D8DFE803F0020A0E1229F03D
:105A100063FB082305B1286004B1236038BDFFF79C
:105A200001FB0723F6E729F05AFB0923F2E7FFF70A
:105A300085FA0C23800AEDE700231846EAE700BF49
:105A40000080005038B5104B0546D3F840320C4664
:105A500003F00303022B0BD0032B0DD0012B0FD12E
:105A600029F03AFB082305B1286004B1236038BD52
:105A7000FFF7D8FA0723F6E729F031FB0923F2E70D
:105A800000231846EFE700BF0080005038B5104BE8
:105A90000546D3F800310C4603F00303022B0BD06C
:105AA000032B0DD0012B0FD1FFF75EFA032305B1B5
:105AB000286004B1236038BDFFF7B4FA0723F6E786
:105AC00029F008FB0623F2E701230020EFE700BFDF
:105AD0000080005038B50C46054629F097FB064B70
:105AE0009A6A82EA040101EA050454409C62BDE816
:105AF000384029F08FBB00BF00C00050032814D0ED
:105B000005D8012805D0022809D0002005E00F287B
:105B1000FBD1084B186FC0F3013001307047054BC3
:105B2000D3F89000C0F30460F7E7024B186FC0F39E
:105B30008020F2E7008000501FB500230193252844
:105B400017D8DFE800F0131A1D262B353A50555AA6
:105B50005F646977161A3F1616551A262B26351AD2
:105B60005026773A3A3A3A2626265A5FFFF7CCF97A
:105B70000190019805B05DF804FBFFF7DFF9F7E746
:105B8000FFF7C2F902460220FFF7B8FFB2FBF0F0C0
:105B9000EEE7FFF7D3F902460320F5E7FFF7CEF96A
:105BA00002460320FFF7AAFFB2FBF0F04008DFE750
:105BB000002101A8FFF780FEDBE7002101A8FFF725
:105BC00053FED6E702934FF0E0231B695B0705D530
:105BD000FFF7B4F90290029B0193CAE703A902A858
:105BE000FFF794FEF7E7002101A8FFF78FFEC0E75B
:105BF000002101A8FFF7AEFEBBE7002101A8FFF7D7
:105C0000CDFEB6E7002101A8FFF7F2FEB1E70021C3
:105C100001A8FFF73BFFACE7094BD3F8803003F056
:105C20000303022BA9D0032B01D00020A0E7FFF72C
:105C3000B5F99DE7002101A8FFF704FF99E700BF30
:105C40000080005008B50120FFF776FFBDE808404E
:105C5000034988428CBF02210121032000F002B8D1
:105C600080F0FA02032810B50C4627D004D801288A
:105C700004D0022817D010BD0F28FCD129F0A9FAB2
:105C800029F0AFFA124B013C196F21F4405141EA5F
:105C900004341C67FFF752F90021FFF73FFDBDE810
:105CA0001040FFF7CFBF0A4B013CD3F8901021F012
:105CB000F85141EA0464C3F89040DCE7044B013C2E
:105CC000196F21F4806141EA84241C67D3E700BF87
:105CD000008000501FB500230193252821D8DFE85C
:105CE00000F013202020202A2F454A4F54595E717E
:105CF00020203420204A202020202A204520712FD7
:105D00002F2F2F2020204F54314B1B6F03F0070300
:105D1000013B032B05D8DFE803F00C02080A04233B
:105D20000193019805B05DF804FB0323F8E706230F
:105D3000F6E70223F4E7002001A9FFF7BDFDF0E735
:105D4000002001A9FFF790FDEBE702934FF0E0235D
:105D50001B695B0705D5FFF7F1F80B230393039B42
:105D6000DEE703A902A8FFF7D1FDF8E7002001A9AB
:105D7000FFF7CCFDD5E7002001A9FFF7EBFDD0E749
:105D8000002001A9FFF70AFECBE7002001A9FFF7D9
:105D90002FFEC6E7002001A9FFF778FEC1E70C4BF4
:105DA000D3F8803003F00303022B03D0032B05D07C
:105DB0000023B5E7FFF7C2F80B23B1E7FFF7EEF8D2
:105DC0000523ADE7002001A9FFF73CFEA9E700BFCE
:105DD0000080005038B50546FFF7CCFC214B044647
:105DE0005A68012A04D120494A609A699207FCD175
:105DF0000020FFF76FFF042803D129F0EAF929F00A
:105E0000F0F91A4A24F04073954221D0184A95427D
:105E100021D0184AD16811F0060FFBD19068936029
:105E2000916803F4F81301F4F8118B4216D1284657
:105E3000FFF764F80020FFF74DFF042810D1FFF7AB
:105E40007DF80021FFF76AFCBDE83840FFF7FABE95
:105E500043F00073DDE743F08073DAE79060E9E731
:105E600038BD00BF00C0015000E0015040420F00AB
:105E700080841E000000015070B504460020FFF72A
:105E800029FF03287CD045F60E030221414AC2F8BF
:105E90008030414B9962012103F580539962936DE3
:105EA000D903FCD4D4E900131B0543EA0163E17B69
:105EB00094F822500B43217B94F8236043EA01437A
:105EC000617B43EA0133A17B43EA8113136191694A
:105ED000D4E904031B0643EA806301F000410B434D
:105EE000A17EE07E0B43217E43EA0143617E43EACB
:105EF00001239361136AE26923F00D03002A0CBFAA
:105F00000021082143EA020343EA8003214A43EACD
:105F10000103136294F820304FEA431331D1906AA1
:105F200094F8211020F0330043EA0113034343F0B7
:105F300001039362194B916D33EA0101FBD10221F8
:105F4000154B9962936D5B00FCD41069A36820F433
:105F5000700040EA035010614FF000420E4B9A610E
:105F60001DB9022203F580539A6216B901220C4B27
:105F70009A6294F824301BB1064B0A4AC3F8802079
:105F800070BD916A21F0330131430B4343EA45036D
:105F90009362EEE700C0005000D0005003000140C3
:105FA00000E00050F1A7FFFF13B5184CA16AA36DE4
:105FB00013F4803F18BF0122154B18BF9A620222CA
:105FC0009A62A36D5B00FCD4124BA26993F9003076
:105FD00022F47F020344000222F47F4280B283F362
:105FE0000803104340EA0340A06102200191FFF73B
:105FF00071FDA36D019913F4803F05D0012002B01B
:10600000BDE81040FFF766BD02B010BD00C00050F3
:1060100000D000508868002037B5104CA16AA36DED
:1060200013F4803F18BF01220D4B18BF9A62022261
:106030009A62A36D5B00FCD40220A5690191FFF771
:1060400049FDA36D019913F4803FC5F3072502D0E4
:106050000120FFF73FFD284603B030BD00C00050CF
:1060600000D00050014B93F9000070478868002071
:106070000A4A10B51369044643F00403136103F0A0
:10608000AFF829F0DBF830BF29F0D9F803F0BCF8FD
:106090001CB9BDE81040FEF751BF10BD00ED00E097
:1060A000084A10B51369044643F00403136103F072
:1060B00097F830BF03F0A8F81CB9BDE81040FEF710
:1060C0003DBF10BD00ED00E0034A0179D36E23F01F
:1060D00030030B43D366704700400050F8B50446C8
:1060E0000D461F4616464AB101238B403021194AFE
:1060F00001FB0022FFB141F21001535004EB4403B5
:10610000072D4FF00F014FEA031317D8A80006FA26
:1061100000F281401048184429F094F856B9012142
:1061200030230C4801FA05F503FB040077B141F276
:106130001003C550F8BD42F21001DEE7A5F10800DA
:10614000800006FA00F281400448E4E742F21003BE
:10615000EFE700BF00C0035004C003500CC0035061
:106160004FF40012064BC3F88020BFF34F8FBFF3EC
:106170006F8F0022FF21034B5A6599625A60704766
:1061800000E100E000000450044A054B002918BF5C
:106190001346012202FA00F01860704740200450B4
:1061A0004010045030B5047845788178C2780120D9
:1061B0000F4B41EA0541240658609C609961FF211C
:1061C00099620021996319644FF0004159654FF0BD
:1061D000FF314FF4001003F5005319650549130111
:1061E000DBB2C1F8800181F81533086030BD00BF13
:1061F0000000045000E100E02DE9F04101250C46CB
:10620000C3B2DFF888E0D1F800809D408F7ACB7A66
:1062100094F80DC0097BCEF850500EF5005E4EF894
:1062200020804FF0300E184E1B050EFB006043EA35
:10623000074343EA415322F00302C0F860C0C3653C
:10624000026728F0F2FF736D2B437365237A13B155
:10625000336C2B433364637A13B1B36B2B43B36357
:106260002279A37943EA0243084A93616179E37989
:1062700043EA014306498B61034B55639D64BDE8C6
:10628000F04128F0D8BF00BF0000045000200450A7
:106290000010045010B50124C0B2844028F0C5FF9E
:1062A000044B5A6D22EA04025A659C62BDE8104014
:1062B00028F0C1BF0000045010B50124C0B28440D2
:1062C00028F0B3FF074BDA6A224209D15B6B34EA4C
:1062D00003030CBF0124002428F0ADFF204610BDAD
:1062E0000024F9E70000045041F67132034BDA63F1
:1062F000012203F50053DA60704700BF000003502D
:1063000041F671320121044BDA6303F50052D1608A
:106310000022DA63704700BF00000350014BD3F83E
:106320009400704700400050CB784A7810B55B016C
:106330000C7843EA82030A79234343EA02130C22CE
:10634000424302F1B0421363012C02BF8A78024B30
:1063500043F8202010BD00BFD080035008B54FF097
:10636000B0435A6802B960B15B680BB128F082FF94
:106370004FF0B04130B10120074B586028F07AFF50
:10638000C86008BD28F076FF0223CB6028F072FFBA
:106390000122024B5A60F4E7001000580020005818
:1063A0004FF0B0435B6870B50BB128F063FF01217B
:1063B000104B4578596083780679002BC37814BF59
:1063C00002240024002B14BF042200224379DB00A6
:1063D00043EA06132B43234313434FF0B042936029
:1063E000054B59600378002B14BF0B460223D36082
:1063F00070BD00BF0020005800100058054B5B69BD
:10640000C3F38512827003F03F021B0B42700370CE
:10641000704700BF00C007500D4B984208D1A3F54C
:106420000033C3F88411C36D43F08003C365704724
:10643000084B984204D1A3F51033C3F89411F2E746
:10644000054B984204BFA3F52033C3F8A411EAE733
:106450000080055000C005500000065070B505468C
:1064600016461C4619B90320FFF766FB0146402C6F
:106470001BD003D8DCB1202C1BD070BD602CFCD10C
:10648000042303FB06F2560806EB4113B3FBF2F3B9
:10649000094A203B02EAC303AA6822F06002AA600C
:1064A000AA681443AC60EB61E7E70623E9E7102331
:1064B000E7E70823E5E700BFF8FF7F00012200F5CA
:1064C000805310B55A6040F6AA6341F20502436159
:1064D000002312498360C365C26000F50052036166
:1064E000C361C36491640E498365884206D00D4C34
:1064F000A04203D004F58044A0420BD1884203653A
:1065000006D0084B984203D003F58043984201D14E
:10651000002343650123536010BD00BFFFFF01004E
:106520000080055000C0055070B50D46FFF7C6FF4E
:10653000012300F580567360AB7C04461BB1836871
:1065400043F080438360EB7C1BB12046297DFFF73D
:1065500063FF2A8A6B7B20461343EA891343E36077
:106560002B7BD5E90112FFF779FF6B7D1BB1A36887
:1065700043F48033A360AB7D1BB1A36843F40043B5
:10658000A360EB7D2A7E1B07120502F4E00203F0F4
:10659000E0431343A3656A7E931E012B214B20D851
:1065A0009C421AD003F580439C4218D003F58043E7
:1065B0009C420CBF02234FF0FF3341F2AC5102204A
:1065C0005B0103F1A04303F570335850032A23D134
:1065D0000423F3652B78636170BD0023EDE701238D
:1065E000EBE79C4214D0104B9C4213D003F5804340
:1065F0009C420CBF02234FF0FF3342F2AC51022009
:106600005B0103F1A04303F570335850012ADEE724
:106610000023F2E70123F0E7042204F50053DA65D2
:10662000D8E700BF0080055000C0055038B50446CB
:10663000054D2CF040F90FCC0FC594E80F0085E80C
:106640000F00002038BD00BFCC32002047F6FF739A
:106650009A42F0B567D0022967D8354DCF0015F8BA
:10666000313005EBC100012B847813D10025C378AC
:106670001B1B9D4202D3E018C0B2F0BD591B4668F7
:10668000A3EB510136F911609642D4BF0D4601F1DA
:10669000FF33EEE740680028EFD0B0F900309342B6
:1066A00004DBB0F902309342B8BF134682883D4400
:1066B000FF2A19BFC8214FF0280CB0F90610B0F915
:1066C00008C0A1EB03020CBF0126002692FBFCF2DE
:1066D0006D78324412B2954201DD002A01DA6A1E59
:1066E00012B24FF47A7700EBC206F188B668013235
:1066F00013FB016112B221EAE17101F5FA719542D1
:10670000B1FBF7F104DD00EBC206B6888E42EAD297
:1067100000EBC20232F8040C884228BF0846A042AF
:1067200038BF2046A8E7FF20A7E70020A5E700BF65
:10673000CC3200200229F0B553D82B4800EBC1041D
:1067400010F83110636801290FD1E078A4789042E5
:1067500094BFC4EB0001C4EB0201001BCAB2824229
:10676000C8BF002233F91200F0BD002B39D0A17848
:10677000914202D3B3F90200F6E7E178B3F90000E1
:106780009142F1D999886478A1F1FF06013C7142E8
:1067900003F10405E4B2714103F10C071FFA82FC16
:1067A000CEB2B44216D805EBC1014FF47A756A43F4
:1067B000B1F902404968521A04EBD47102EB61024C
:1067C00092FBF4F29042CFDBB3F902009042CBDCB3
:1067D00010B2C9E737F831E04E1CE645E3D3314645
:1067E000DEE70248C0E700BFCC3200200080FFFF98
:1067F00008B50448FFF71AFFBDE8084001202CF057
:106800007EB800BF848203007FB51422002101A856
:106810002BF09DFA044B01A94FF0FF3002932CF0AE
:10682000AFF807B05DF804FB006A18002DE9F041ED
:106830008CB08846DDE912761D460446002847D014
:10684000002945D0002F43D0002E41D013F00F0374
:106850003ED120482049A360002A18BF0146E361C9
:10686000C4E90013404609A928F0B8FE68BB2046D9
:10687000099928F01BFD2946204628F017FD694696
:10688000404628F04AFF00BB6946204628F0FAFC43
:10689000404603A928F04CFFB8B9204603A928F0C8
:1068A000F1FC06970127204645F0005506A90797F9
:1068B000089528F0E7FC204609A909960A970B9548
:1068C00028F0EAFC204628F013FE0CB0BDE8F08169
:1068D0002120FAE700010104000100047FB50E4603
:1068E0001D460446F0B102B9E3B9012301920293B7
:1068F00045F00053039300230B4AA360C4E900232F
:10690000E361204601A928F0BDFC3146204628F06D
:10691000CDFC2046294628F0C9FC204628F0E8FD99
:1069200004B070BD2120FBE7000009430F4B9842E3
:1069300009D010D80E4B984205D020F48070A3F5F2
:10694000806398420FD10B88B3F5105F0CBF002015
:106950006FF085007047074B9842F4D020F4007028
:10696000A3F58073EDE76FF0850070470010C00459
:10697000004440040012C0042DE9F04F93B0934648
:10698000DDE91E759846DDE91C2381468A46209E76
:1069900029B96FF08604204613B0BDE8F08FBBF133
:1069A000000FF6D00FB9002DF3D10AB9002BF0D1AA
:1069B00016B9219B002BECD1229B002BE9D0494634
:1069C0004046FFF7B3FF04460028E4D101462022E9
:1069D00002A82BF0BCF9202221460AA82BF0B7F917
:1069E00002A828F098FD00283DD15A465146484655
:1069F0000AAB28F00BFF04460028CCD10A9828F0F7
:106A0000C1FE04460028C6D115B9229B1860C2E712
:106A1000B74210D27B199E420DD2219B9D42B8D81D
:106A20002A46394630462BF078F9174B984518D04E
:106A30006FF08504AFE7144B9845F9D1219B9D4237
:106A4000A7D815F00F08A4D1CDE900762B46424611
:106A50000AA902A8FFF7EAFE074638B9229B1D6083
:106A600099E73746EDE76FF0920494E741463046E8
:106A7000219A2BF06CF9229B012FC3F80080F2D1F0
:106A80006FF08B0487E700BF004440042DE9F04F0E
:106A900093B08146DDE91C75934698468A461E9E52
:106AA00029B96FF08604204613B0BDE8F08F002AA4
:106AB000F7D00FB9002DF4D116B91F9B002BF0D1E0
:106AC000209B002BEDD049464046FFF72FFF0446A0
:106AD0000028E8D10146202202A82BF038F9202214
:106AE00021460AA82BF033F902A828F014FD00284B
:106AF00049D15A46514648460AAB28F087FE04461B
:106B00000028D0D10A9828F03DFE04460028CAD1BA
:106B100015B9209B1860C6E7B74210D27B199E4278
:106B20000DD21F9B9D42BCD82A46394630462BF0D9
:106B3000F4F8184B98450BD06FF08504B3E7154B6C
:106B40009845F9D11F9B9D4203D96FF08904AAE7AC
:106B5000374615F00F08A4D12B460122CDE9007667
:106B60000AA902A8FFF762FE209B1D6005460028C7
:106B700099D0414630461F9A2BF0E9F8209B012D11
:106B8000C3F8008002D06FF092048CE76FF08B04A2
:106B900089E700BF0044400413B50024064A684654
:106BA000536F43F00103536700948DF80440FFF7DF
:106BB0008BFA204602B010BD0040005008B50248D4
:106BC000FFF708F9002008BD00B4C40430B58BB04D
:106BD0006C46154D0FCD0FC40FCD0FC495E80300C3
:106BE00084E80300114BD3F84C21120314D4D3F8DA
:106BF0005041E4B28DF81940FFF734FA204480F395
:106C000008008DF818000A48FEF7B4F96846FFF747
:106C100033F900200BB030BD064B1C884FF6FF73D4
:106C20009C4208BF8C24E5E7207903000080E00F38
:106C300000F049020001E00F6FF00402502110B58E
:106C40000A480B4C12F0800FD3B21BBF03F00F03A6
:106C5000043BA3181B1802F101020CBF83F80013B8
:106C600019763D2AEED1002010BD00BF00ED00E0F6
:106C700000E100E038B502F031FC0446E0B902F072
:106C8000FDFC4FF4167343430C4803F5742303F2E1
:106C90003F23B3FBF0F30A4A0A4913600A220D6846
:106CA0000948013A12F0FF0240F8043BF9D103EB26
:106CB000C3022B4413440B60204638BD40420F00F2
:106CC00020330020F0320020F4320020012208B5E9
:106CD000034B1A7029F0D0F8024B186008BD00BFB2
:106CE000896800201C330020F8B5144C237823B3A6
:106CF00029F0C2F8124B134D1B68134EC01A01281D
:106D000038BF0120114B124F18602B7856F8232002
:106D100046F82300111A3A680E48521A0A213A60BE
:106D20000932B2FBF1F20133DBB20260B3FBF1F2E4
:106D300001FB12332B7000232370F8BD89680020FB
:106D40001C3300208A680020F4320020EC3200203E
:106D5000F032002020330020014B1868704700BF3C
:106D60002033002020230949094A81F82D33094B9B
:106D700003F50050426702674FF40050C1F88401E8
:106D8000486003F580535A67704700BF00E100E098
:106D9000010000A000C00050044B9A6DD20702D43D
:106DA0000028FAD170470120704700BF00C0005092
:106DB0000C4B10B51C6FE20707D5012203F50053F9
:106DC0001A67FFF791FF02F087F914F000521CBF19
:106DD000054B1A67002CBEBF4FF00042024B1A67EA
:106DE00010BD00BF00C0005000E0005010B50446C8
:106DF00028F00CFA024B1C6028F00CFA002010BDA1
:106E00002433002010B528F001FA034B1C6828F049
:106E100001FA204610BD00BF2433002013B51346ED
:106E20000C4618B90192FFF7EDFF019B014622467F
:106E3000044805F06DF90028D4BF3720002002B0C7
:106E400010BD00BF0DF9020010B5002400F024F8B9
:106E50000348044B84604360FFF7C8FF204610BD21
:106E600028330020696E000013B5064C2378009388
:106E7000054B1B8828F067FD10B923780133237078
:106E800002B010BD8B680020F8150020014B18805F
:106E900000207047F815002008B5074B1A6842B962
:106EA000012208201A6028F01DF90449044801F065
:106EB000F5FF002008BD00BF3C330020E810002093
:106EC0003433002030B51446137A3022534303F193
:106ED000A04303F58023DA6ED4E903130B449342F5
:106EE00008BF0A46616987B091422CBF8B1A9B1A72
:106EF00073B11049049403910021CDE901310123BC
:106F00000093D4E9001328F02AF9002007B030BD1F
:106F1000012594F82D206576002AF6D084F83530C6
:106F20001321E3692046984729462046636A98471B
:106F3000EBE700BFC56E00002DE9F04389B00446C1
:106F40000F461646984628F070F98146002E00F04C
:106F50008380237E03F0FF02002B00F0A980302302
:106F6000207A434303F1A04303F58023DD6E636978
:106F70009D4203D10DF11D01FEF7FAFA616994F803
:106F80002D308D429CBFD4E90352AD186D1AB54225
:106F900028BF3546002B70D12A4638462AF0B0FE6D
:106FA00063692E462B44636121E06069037803F036
:106FB000FD0111295ED1216B884205D1A3F1110198
:106FC0004B424B4184F83430013E6369216B0132FE
:106FD0008B4203F1010308BF236363619542E4D14F
:106FE000D4E90323216B1344994200D12263002585
:106FF000207A6576FEF734FA3023207A62694343BB
:1070000003F1A04303F58023DB6E9A4238D1257645
:1070100094F82D30E568656103B1256301212046B0
:10702000636A9847234B2A460393002302932369FC
:10703000216801930123207A00930494636828F067
:107040008EF8207AFEF72CFA04F10C010EC90A44DE
:10705000934228BF0B4663614846C8F8006028F099
:10706000EAF8D8F80030002B0CBF1B20002009B034
:10707000BDE8F08307F8013BA7E72E460022ADE705
:1070800001230DF11E012376FEF772FA9DF81E30E2
:10709000002BD6D00DF11F01207AFEF741FA9DF8A2
:1070A0001F100029CDD12246207AFFF70BFFC8E739
:1070B0001646D1E7C56E0000002808DB012342090F
:1070C00000F01F0003FA00F0014B43F82200704764
:1070D00000E100E0002809DB0122430900F01F0065
:1070E00002FA00F0024A603342F82300704700BF02
:1070F00000E100E070B504460568FFF783FE8442B6
:1071000002D10020FFF772FE95F93600FFF7E2FF8B
:1071100095F93630002B0DDB01215A0903F01F03CE
:1071200001FA03F31849203241F82230BFF34F8FA0
:10713000BFF36F8F95F93700FFF7CCFF95F9373024
:10714000002B0DDB01215A0903F01F0301FA03F3A1
:107150000D49203241F82230BFF34F8FBFF36F8FBC
:10716000287AFEF7BDF9287AFEF720F9FEF7FCF839
:1071700000232846C4E90033C4E90433A360AB6AA2
:10718000BDE87040184700BF00E100E02DE9F8437A
:10719000044616460D4690F82C7028F046F894F8F0
:1071A000382003469AB128F046F894F83B9028F02E
:1071B0002DF880460121484601F0F8FD404628F0B0
:1071C00029F828F032F80022034684F838201846BF
:1071D00028F031F84FF03009DFF8A0802E44B54296
:1071E00004D101212046236A98473DE094F82D30D0
:1071F0003BB328F01AF8237E0BB3237AE16809FB2E
:107200000383DA6ED4F830C0013A8A423EBF226965
:1072100002F1FF32521813469C450FD013F801E9D2
:10722000BEF1110F02D0BEF1130F20D1AEF1110348
:10723000D3F1000E4EEB030E84F834E0226327F006
:10724000FAFF94F83430002BC9D037B12B780A2BD1
:1072500003D10D212046E36998472046E36915F8DC
:10726000011B98470028BAD00020BDE8F883994256
:1072700082BF236903F1FF335B18CDE700000450A0
:107280002DE9F0410C461546064686B04022002105
:1072900020461F462AF05BFD95E8030000232A697B
:1072A0002376EB6884E80300C4E904232A7DE360C5
:1072B00084F82C20AA7D2363012384F8343084F8D9
:1072C00035300C9B84F82D2023620D9BE7616362AF
:1072D0000E9BA3622B7A84F836306B7A84F83730B1
:1072E0002D4B346073602D4BB3602D4B33612D4BB0
:1072F00073612D4BF360FEF77FF838B12B4B98424A
:1073000004D01024204606B0BDE8F081002104F12D
:107310000800FDF7F9FF07460028F2D14FF00108F9
:10732000234B3362234B84F83C80B361224BF361DF
:107330009DF8403084F8390084F83B309DF83C30AB
:10734000204684F83A30697D84F8388028F05AFB6A
:1073500095F90900FFF7BEFE95F90900FFF7ACFEAD
:10736000164B0494CDE902732369CDE90083636869
:10737000E2682168207A27F0F2FE04460028C0D196
:1073800095F90800FFF7A6FE95F90800FFF794FEAF
:107390003046FFF72BFDB5E78D710000396F000017
:1073A000F3F90200F9F90200F5700000038000F023
:1073B000C9F9020005FA0200FFF90200C56E0000DB
:1073C0002DE9F0414FF001081C46574B86B002935F
:1073D000564B0C9D0193564B174600930A46CDE938
:1073E00003882946534BFFF74BFF0646002875D10B
:1073F000236804222B64237985F84430A17985F829
:107400004610607985F84500237A85F84830E3799D
:1074100085F84730A37A85F84A30637A85F8493091
:10742000237B85F84C30E37A85F84B304346FEF7F2
:1074300055FE43460222217AE079FEF74FFE3E7068
:1074400039462068FFF770F81421A27B3A4B03EB12
:107450004210C0F8AC1594F806C061792E3203EBE7
:10746000421341EA0C415960227AE37943EA02432C
:10747000C0F8BC3585F84D607B7E032B52D8DFE821
:1074800003F01F02314C0123002785F84D30002303
:107490000222A17A607AFEF721FEA17A627AA37BAA
:1074A00042EA014241F2B4515B0103F1A04303F50A
:1074B00070335A500422236803F58053DA65A7B964
:1074C0006379052185F84530A37985F84630206831
:1074D000C36C43F00403C36427F00FFF304606B0CB
:1074E000BDE8F081022385F84D3000230422217B82
:1074F000E07AFEF7F3FD41F2AC520221A37B5B017F
:1075000003F1A04303F570339950217BE27A42EAFC
:10751000014241F2B8515A50D2E70323012785F8BE
:107520004D30B4E72326D9E791FA020015FB02009B
:1075300029FB020009FB020000C0035010B51C46E5
:10754000044B18682AF04DFA002820600CBF1B205D
:10755000002010BDF010002013B5064C23780093D6
:10756000112328F0F0F910B923780133237002B009
:1075700010BD00BFAC68002010B5FFF78DFC0F4CAC
:1075800020602AF03CFA20220D4901230D4804F026
:1075900041FE0D4B18600D4B204663600C4BA36001
:1075A000FFF724FC27F032FE01210446084601F0D3
:1075B000FDFB204627F02EFE002010BD40330020AA
:1075C0008C6800204E790300F010002059750000EF
:1075D0003D75000000F0FD03112B05D0182B03D0E2
:1075E000A0F17D03012B07D80122044B80F020007D
:1075F0001A70034B18707D20704700BFB4680020DC
:10760000B5680020F8B50E461446204B00B3204A5A
:107610002049107000221A7022700A704FF6FF7213
:107620001D4B1A801B4D2B78EBB91B4F3046398808
:1076300028F061FB164A38801378013BDBB21370E7
:107640006BB901232B703046BDE8F840FFF7C2BF8D
:107650001A78002AE6D01870104B1878F8BD2378F5
:1076600001332370EFE7012B05D102232B700A4B66
:107670001888000AE8E7022B04D103232B70064B7D
:107680001878E1E7FF237E202370E7E7B468002045
:10769000B3680020B6680020365D0020B568002081
:1076A0002DE9F047394E8846337817465BB9384A9A
:1076B0001370384A1370384A1370384A13704FF6F3
:1076C000FF72374B1A807D284FD02CD8182850D005
:1076D0001A2852D00022314B2D4D1C781A702B786D
:1076E000DFF8B490DF2B9CBF01332B702B78444024
:1076F000022B12D9DFF8A8A099F80000BAF8001000
:1077000028F0F9FA2B78AAF80000DF2B9FBF99F830
:107710000020023B88F800203B701E4B1A781C703A
:1077200089F8002006E07E28D4D1194B1B781BB9BC
:107730001A4A1370202011E0FF2B20D0184A11881C
:10774000154A1078134A127802EB0022914218D1A0
:10775000022B18D9DF2B8CBF7A200020A0F1200249
:10776000534253413370BDE8F08720200B4B187013
:10777000F4E7FF22064B1A70DCE77420EEE777206F
:10778000ECE77620EAE77920E8E700BFAD68002063
:10779000B2680020AF680020B0680020B168002007
:1077A000345D002008B528F02DFA044B08B118808C
:1077B00008BD4FF6FF721A80FAE700BF325D002065
:1077C00010B5074C208850B128F01CFA2388C01A45
:1077D000044B00B21B889842B4BF0020012010BDAA
:1077E000325D0020305D00204FF07E624FF6FF7367
:1077F0002DE9F041B2F84670B2F84460154D9F4251
:1078000008BF4FF448679E4208BF4FF4C8762C88E3
:10781000DFF8448050B164002C802B88BB4215D91E
:107820002F800023A8F80030BDE8F081B8F80030C0
:10783000002BF2D028F0E6F9B8F80030C4EBC4040D
:10784000C01A80B204EB8004E408E5E7B34238BF15
:107850002E80E6E7305D0020325D002008B528F07C
:10786000D1F94FF07E634FF6FF72B3F85430934274
:1078700008BF4FF47A73184410F47F6FC0F30712F7
:1078800008BFFF22014B1A7008BD00BFAE68002080
:1078900010B5084C237843B128F0B4F92378C3EB32
:1078A000101003065CBF002323702078B0FA80F02C
:1078B000400910BDAE68002007B501F0C5FE6A465C
:1078C00001F028FF18B15221034800F057F9DDE913
:1078D000000103B05DF804FB6479030008B501F012
:1078E000FDFD18B17A21024800F048F9002008BDDA
:1078F0006479030008B500F09DF80E4A536A43F41A
:1079000070235362EFF308834FF0CD310A4A043BF2
:1079100093420BD20222094B1A6700F0C9FAFFF713
:10792000DDFFBDE808400648FEF780BE43F80419B5
:10793000EEE700BF00ED00E0000000200040005036
:107940008482030007B5042200200DEB020107F03A
:10795000BFFA042804D04FF4BF71044800F00EF9B8
:10796000019800F051FA03B05DF804FB647903005C
:10797000102870B522D00DD8032801D9002070BD81
:10798000013802281AD8DFE800F002172F00002380
:10799000022215E02038C3B2032BEFD80328EDD81C
:1079A00001A353F820F000BF8F790000B9790000DF
:1079B000E9790000E57900000123E9E700230322CB
:1079C0000B490C4D0C680021C8B28442D6D955F839
:1079D000200028B1067A964202D1467A9E42CED045
:1079E0000131F1E70323D3E702231A46E8E700BF9A
:1079F0006C8103001011002010B5FFF7B9FF044699
:107A000030B1037A022B03D103680BB11B6823B991
:107A100040F24A21064800F0B1F823681B681B6C4D
:107A2000986900F44830A0F500535842584110BD01
:107A30006479030010B5FEF771FC044627F014FCCE
:107A40000022012101FA02F3234018D0204B2149E2
:107A500033F81230062B18D040F20722934211D18E
:107A60004FF000524FF20F00548884420AD1108820
:107A7000984207D14CF23C335380088010BD01324C
:107A8000102ADFD1134A138012E04FF000534FF257
:107A90000F025888904218D11B88B3F5406F28BF59
:107AA0004FF4C0630B804CF23C324FF000535A80CD
:107AB000084B1A8840F201739A4201BF064B074AED
:107AC000D2E90001C3E90001D8E74FF4C063E9E758
:107AD000BA790300385D00204C330020901000205C
:107AE000164B1B881A0A13F0FF03104604D1012A13
:107AF00022D140F080007047072AFAD801A353F83A
:107B000022F000BF3B7B0000F37A0000257B0000E1
:107B1000297B0000297B00002D7B0000317B0000C9
:107B2000357B000009207047022070470320704712
:107B30000B2070470620704718467047385D0020BC
:107B400010B5044627F069FB4FF000534FF20F02C7
:107B50001C805A80BFF35F8FBFF34F8F0549064BE0
:107B6000CA6802F4E0621343CB60BFF34F8F00BFDB
:107B7000FDE700BF00ED00E00400FA0538B504465B
:107B80000D4600F0C7F927F048FB2B462246054971
:107B9000002027F0C4FE29462046BDE8384028F0E2
:107BA000B8B800BFA77903006C4A2DE9F0416C4BCF
:107BB00055686C4C5D65516A99656B49D1F8000256
:107BC000D865D1F80412586B1966916A10F0040F49
:107BD0005966D16A4FF000009966116BD966516BF6
:107BE0001967D26BD8645A67D3E90E2108BF1146D2
:107BF0005E4A91421A655DD301F12000A04259D836
:107C00008869C5F308051864CE69062D5E6455D1F0
:107C1000574DA84252D3574DA8424FD205884DF632
:107C2000426085424AD11868C3F890005868C3F88A
:107C3000940040F20170A242154604D22E6804322C
:107C4000B6F1CD3FF7D00022C3E91E22C3E92022BE
:107C5000C3E92222641B434EDFF814C1DFF814E1AC
:107C60009C648E422DD8D3E91EC7D3E92065D3E9A1
:107C700022414FF0000E013AD2B2FF2A3DD1BEF1AF
:107C8000000F05D0C3E91EC7C3E92065C3E922413F
:107C9000B3F85430C3F308030C2B3CD8022B52D951
:107CA000DA1E092A4FD8DFE802F0553241444E4E21
:107CB0004E4E4E4B0021C3E910112C494FF4206069
:107CC000B9E756F8044D6445CBD37445C9D2E507EE
:107CD000C7D50625284F57F8048BA045C1D0013DD4
:107CE00015F0FF05F7D10AB9052201E0013AD2B239
:107CF00002F11E0543F82540B3E7E0464FF0010EC0
:107D0000BC4637462E4625460C464146B3E740F66C
:107D10000220BDE8F0813B2B15D1184B9B6913F075
:107D2000020F40F2025318BF1846F2E740F6032054
:107D3000EFE740F60423B0F5206F08BF1846E8E7E8
:107D400040F60520E5E740F60722013B4B2B98BFA4
:107D50001046DEE740F60120DBE700BF00ED00E063
:107D6000001000200010002000E100E000000020D2
:107D7000344100006A780300781000200080015A26
:107D800000F00CB800F00AB800F008B800F006B82F
:107D900000F004B800F002B800F000B872B61EF0AF
:107DA000080F09D01EF0040F0DD0DFF850E0AEE848
:107DB000FF1F6FF002000CE0DFF840E0AEE8FF1FAD
:107DC0006FF00E0005E0DFF834E0AEE8FF1F6FF063
:107DD00006006946EFF309828EE8070086460848E8
:107DE000084C854501D3A54501D384F30888FFF7E6
:107DF000DBFE84F30888FFF7A3FE000000100020DC
:107E0000400000200010002082B2074B4AB1000C55
:107E10001A8008BF4FF6CE22044B14BF18801A8078
:107E200070474BF6EF62F2E7FA150020FC150020D0
:107E30000B4BB3F900201888002AB8BF80F062000D
:107E400042001A80074AB2F9001013880029BCBF0B
:107E500083F4805383F00B0359001180584070471E
:107E6000FA150020FC15002008B501F003FE60B1F2
:107E70000A4B0344072B0DD8072B0BD8DFE803F080
:107E800004060A080A0A0A0CC22008BDC320FCE73F
:107E9000C420FAE7C520F8E7C120F6E7FF1FFF0F6F
:107EA000024B9A6903F500539A6170470080015AAA
:107EB0001FB50D2400212246684629F048FF012302
:107EC0008DF800300323104A8DF809408DF80A30F0
:107ED000D2F800320D4C23F0070343F0010369464A
:107EE0002046C2F8003227F03CFA4FF4006102232A
:107EF000074A04F50050C2F884118361516004F50B
:107F00008054E36104B010BD008000500080015A2D
:107F100000E100E0014827F013BA00BF0080015AD9
:107F200010B5094A137813F002040CD10749084828
:107F300009780078884206D0064863F07D03048003
:107F400005481370017010BDBA680020B7680020A2
:107F5000BF680020325D0020BC680020054B064A47
:107F600019881288914202BF0121044A117000222F
:107F70001A8070473C5D00203E5D0020C3680020F1
:107F800007B50346009102223D2003492BF060FA19
:107F900003B05DF804FB00BFE779030007B5064BAB
:107FA00002221B783D200093044981232BF050FAD4
:107FB00003B05DF804FB00BFC1680020E77903004F
:107FC00038B50C4D0C4C2A7823789A4200D138BD34
:107FD00000210A482DF019F9094B1B88834202BF82
:107FE0000122084B1A702378013303F00703237032
:107FF000E9E700BFB7680020BD6800203A5D0020B7
:108000003E5D0020C3680020074B93F90030002B31
:1080100008DB064A137803F04101402904BF43F00E
:1080200005031370704700BFC1680020BA680020C4
:10803000282307B5054A3D20CDE9003204497023C5
:1080400002222BF005FA03B05DF804FB3800E00FC4
:10805000E0790300702807B504D103B05DF804EBA4
:10806000FFF7E6BF074B02221B7807490193074B36
:108070001B78009303463D202BF0EAF903B05DF82E
:1080800004FB00BFC4680020E6790300C16800203B
:1080900008B50A4816F03CFC094816F039FC0948B6
:1080A00016F036FC084816F033FC084816F030FC91
:1080B000BDE80840064816F02BBC00BF3C5D002020
:1080C000425D0020445D00203A5D00203E5D0020BE
:1080D000405D002008B5DC22002104482CF0F6FFAA
:1080E0000122034B1880034B1A7008BDC66800209C
:1080F0003E5D0020C368002030B585B0FFF7EAFF81
:10810000FFF708FF4FF07E634FF6FF72B3F84C3075
:10811000224D934208BF4FF47A732B800023204CEA
:108120002380FFF73FFBFFF74BFB0028FBD04FF00E
:108130007E634FF6FF72B3F84230934208BF4FF4AC
:10814000C8632B8000232380FFF7CAFC431E154D14
:10815000DBB20A2B144C287019D8012202FA03F35F
:1081600040F20352134212D00222C1230290CDE901
:1081700000323D2084230D492BF06AF9FF232B7038
:10818000D023237005B0BDE83040FFF751BFFFF7A3
:108190004FFFA023237005B030BD00BF305D00202D
:1081A000325D0020B9680020BA680020E57903003C
:1081B00037B504460D4616F09DFD022825D840F23D
:1081C00017111B48FFF7DAFC1A4B197801F140032D
:1081D000DBB2022B1FD901F0A003A02B04D00B06A9
:1081E00019D57E20FFF7CCFE4FF07E63B3F8403008
:1081F00013B1204627F0A7FDB5B1002221460E4855
:1082000003B0BDE830402CF099BF204616F072FD57
:10821000DC28D4D8D8E7CDE90014842302223D20FD
:1082200006492BF015F9DFE72A4621460448E7E71F
:10823000EB790300A2690020425D0020297A030047
:10824000445D00202DE9F74FFFF7BAFAAB4C48B375
:108250002378580626D599074CBFA94BA94BAA4AA3
:108260001B7812789A4232D00120FFF7BDFA7320B2
:10827000FFF7F0FEA54A4FF6FF7113780133DBB22A
:1082800013704FF07E62B2F848208A4208BF032282
:10829000934219DD51229E4B72201A70FFF7DAFECD
:1082A000202323709B4D9C4E94F900202378002AB4
:1082B00018DA13F030030ED01A2027F063FD23786C
:1082C00003F07F032370EFE7FFF72AFEEAE70022BF
:1082D000924B1A80E6E72A78022AF0D18F4A2B7057
:1082E0001380E9E72A78012A00F0F7800DD9931E60
:1082F000012BD9D83178FF2900F02481002940F0E2
:10830000F480874B19783246EDE09A0719D57C49FD
:108310007D4A7C4892F800C007780A78ACEB0200EE
:10832000BA1A02F0070200F00700904298BF81F8E5
:1083300000C00A78BA4204D123F002032370FFF789
:108340003FFE237813F0300F1FD013F0200F744F2F
:1083500015D0C2233B706E4B1B78BB7002237B7021
:108360002378032023F03C03237001232B70324633
:108370006B4B1978FFF746F927F004FD94E7C1230A
:108380003B70FFF7ADFBB870E8E713F00C011FD0AE
:10839000644F13F0040F3978614B0FD06039C9B2C4
:1083A00019708020FFF7ECFD237823F00C030120E7
:1083B0003A7823705C4B28701A70D8E781F08001FE
:1083C00019707E20FFF7DCFD237823F00803EEE729
:1083D0009B0737D5DFF82881544A98F80030127887
:1083E00001919B1A03F0070A26F01FFF01998146AD
:1083F0004F482CF09DFE0746DFF834B1BAF1000F6C
:1084000016D1484626F017FF4A4B38461F8016F013
:1084100071FC444B98F800201B78013043EA0213AA
:108420003F4A43F0080313700323C0B22B709EE74A
:10843000394658462CF0CEFE0AF1FF3307465FFA64
:1084400083FADBE7304B4FF6FF7019784FF07E630D
:10845000DB8F2C4F834208BF05233A780B44013B46
:10846000521A5B1A02F0070203F007039A42DFF880
:10847000B48028DC30482CF056FEE0B92E482CF0B1
:1084800052FE2D4A2D4B0021002808BF13462C4ACE
:10849000184613602CF04CFE264B188016F02AFC70
:1084A0003A7898F80030013043EA02131C4AC0B20F
:1084B00013700223BAE721482CF035FE18B9FFF7F4
:1084C000E7F90028DAD1184B1A7898F800309A4268
:1084D0005ED0237843F00803F4E63378FF2B4DD0C9
:1084E00032460F49C95C002044E7124B0139C9B23A
:1084F000188816F001FE014605E700BFBA680020A3
:10850000BC680020BF680020B7680020BB6800205E
:10851000B9680020C5680020C0680020325D0020D6
:10852000A2690020BE680020B8680020BD68002055
:108530003A5D0020405D0020425D0020445D002047
:1085400054330020022A1CD1134A0021137801332E
:1085500003F007031370114B18682CF056FE104BF4
:10856000002219880F482CF0E9FD0F4B1B880BB92E
:10857000FFF718F90D4B1A780D4B1A7000232B706A
:1085800092E60C4A1378013303F007031370ECE70B
:1085900003B0BDE8F08F00BFBF6800205433002057
:1085A000405D00203A5D0020325D0020BE68002062
:1085B000B8680020BC6800202DE9F04F8246DFF843
:1085C000FC9285B00023DFF8F882AAF8003098F812
:1085D00000301BB989F80030FFF7C0FCA94DAA4E46
:1085E0000DF10E0027F0D2FB2728044616D04A468C
:1085F0009DF80E000DF10F0199F800B0FFF750F84B
:1086000010F0DF0704461BD0FFF7A8FC7A2827D814
:10861000732807D82028DAD0272821D1204605B092
:10862000BDE8F08FA0F17404062C19D8DFE804F03F
:108630000418444A184C4E007420FFF70BFDC6E79F
:1086400099F800309B4506D0022B0FD89DF80F20DB
:108650008E4B03F80B20202CC2D0002C00F0FD80A4
:1086600040F255118A48FFF789FAB0E7032B10D181
:10867000884B1A786AB12A88012130461F703280EF
:108680002CF072FE012300933A463188824816F09E
:10869000EDFC2B8830889842DDD116F02BFBC7B259
:1086A000791C2846C9B22CF05FFE39469DF80F2090
:1086B000288816F035FDCEE77620FFF7CBFCFFF7D4
:1086C000A3FC84E77720F8E77920F6E77A20F4E73F
:1086D0000A060DD4032B2BD933785B0604D56F4BD8
:1086E0001B78B3EB111F01D0FFF738FC012519E00F
:1086F00001F0E002802A06D1012B19D17D20FFF77D
:108700003FFC02250CE0A02A06D1012B10D17F20CE
:10871000FFF736FC032503E07B20FFF79BFC0025D9
:10872000FFF71CFC3078430604D42023337049E75C
:108730007C20F2E76B1E022B16D85949DFF884B172
:1087400098F800700A789BF8003007F00707A7EB4D
:10875000020C9B1A0CF0070C03F007039C4515D97B
:108760007820FFF777FC0025AB1E012B2ED898F858
:10877000003013F0080326D0FFF770F8032D69D0FE
:10878000002D7FF41FAFFFF73FFC1BE79742EBD0B4
:108790000023444A10F002000F70137008D0424AC0
:1087A0001380424B1B78BB42DED0FEF7FBFFDBE7BA
:1087B000FFF71AF89BF80030BB4201D0FEF7F2FF3A
:1087C000FFF7FEFBD0E73A4A1370D7E7012DD5D16A
:1087D000324998F800200B78C2F3021098422DD14C
:1087E000294D288830B92620FFF70EFC2624FFF7F4
:1087F00031FC13E7013303F007030B704FF07E6386
:10880000170742BF327842F008023270327822F005
:1088100005023270B3F840300BB127F094FA2B8880
:108820000222019398F800303D20009321498523CE
:108830002AF00EFE2B88AAF80030EFE611073378F5
:1088400002D543F0080371E7DA079CD47520FFF7DF
:1088500001FC98E7FFF764FBB4E6DFF8308099F895
:10886000003098F80010144EC0297FF431AF012B6E
:108870007FF45EAFFFF792FB0425FFF78FFB27F035
:10888000D6F94DE73E5D00203C5D0020C168002028
:10889000EB790300C3680020C2680020BE68002096
:1088A000B7680020BB680020325D0020BC68002053
:1088B000AE680020297A0300BA680020C46800204E
:1088C000AD680020BF68002008B5114B1B781BB1B4
:1088D000002000F0010008BD0E4B1A780E4B1B78EB
:1088E0009A42F5D111F034FB0028F1D10B482CF05D
:1088F0001AFC0028ECD00A482CF015FC0028E7D020
:10890000084B1B78002BE3D10120FFF775F8E0E757
:10891000AD680020B8680020BE680020445D0020DB
:10892000425D0020C5680020F0B519B3002820DAA8
:108930002D23B0F1004F137000D04042012119E007
:10894000801B8642ECB205F10105F9D914B9BCF1DE
:10895000000F05D04FF0010C4D1C30345454E9B2D7
:10896000013B13F0FF0309D130305054481CC0B212
:10897000F0BD002109234FF0000C024F002557F8ED
:10898000046BDEE7307A03002DE9F04F002495B048
:108990002146029480461646A1464422274603A853
:1089A00002AC9B46254629F0D2F90DF1480A3178F0
:1089B00059B9641BE4B2224629460020C04700286A
:1089C00040F0AF803C44E0B2ACE025291AD0B9F1C8
:1089D000000F1BD1204600F8011B04465445C0F08F
:1089E000F580641BE4B2294622460020C0470146B8
:1089F000002840F09680274448222846FFB229F0FC
:108A0000A6F9E2E0B9F1000F00D101363278782AF8
:108A100006D8612A07D8252A5DD039D8002AC8D0BF
:108A20004FF00009DAE7A2F162011629F8D801A394
:108A300053F821F0E38A0000758B0000D18B000011
:108A4000218A0000218A0000218A0000218A00007A
:108A5000218A0000218A0000218A0000D18B0000B9
:108A6000218A0000218A0000218A0000878B0000F3
:108A7000218A0000218A0000878B0000218A0000E3
:108A8000D18B0000218A0000218A0000C78A0000E3
:108A9000392A16D82F2AC3D9717801F0DF01582955
:108AA00040F0C380322A06F1010940F0AB805BF848
:108AB000041B2046042289B227F078F904464E466A
:108AC000AEE7582AACD15BF8041B02222046C9B29B
:108AD00027F06CF955E0214601F8022B62700C4634
:108AE0009EE74FF00009DBF800300193DBF804301B
:108AF0000093009B994502D10BF1080B90E7019B75
:108B00002046022213F8091027F050F95045044678
:108B100012D3441BE4B2294622460020C047014636
:108B200018B1002015B0BDE8F08F48222846274430
:108B300029F00DF92C46FFB2009B5A1E4A4581BF11
:108B40002046202200F8012B044654450FD3641B15
:108B5000E4B2294622460020C04701460028E0D161
:108B600048222846274429F0F2F82C46FFB209F1A2
:108B70000109BEE75B4653F8042B20469B4600F8EC
:108B8000012B04464CE7621BD2B2294600205BF859
:108B9000049B0092C04704460028C2D1009A0146B7
:108BA000174428464822FFB229F0D1F8E2B219F85A
:108BB000020001340028F9D149460092C04700283C
:108BC000AFD18146009A1744FFB22C460136EEE63B
:108BD0006C2ADBF800000BF104090ED17378752BB9
:108BE00014BF0121002101D0642B00D1013622469F
:108BF000FFF79AFECB46044412E7752A0CBF00210A
:108C00000121F4E7342A10D15E4656F804BB042251
:108C10004FEA1B41204627F0C9F81FFA8BF10422C6
:108C200027F0C4F8B346044649E74FF00109D5E6FA
:108C3000034B1B78002B14BF01200220704700BF9C
:108C4000AD6900200329F8B598BF124B05460E46C2
:108C50008CBF00245C5C032805D8DFE800F0020824
:108C60000B0E44F002040C4B1F684FB9F8BD44F0E2
:108C70000804F8E744F02004F5E744F08004F2E744
:108C80007B681A68144203D0314628465B689847CF
:108C90003F68EAE7547A03007C33002038B5104D72
:108CA0002B78ABB10F4C23781BB100F0D9FA00231D
:108CB0002370002000F0F6FA0B4C50B100F0FCFAE3
:108CC0000023012120782B70FFF7BCFF01232370C4
:108CD00038BD0122054B1A702278054B1A70F7E750
:108CE000AC690020A7690020A5690020AB690020BD
:108CF000B169002010B526F089FA064B04461B78AE
:108D00001BB1BDE8104026F085BAFFF7C7FF20462B
:108D1000F7E700BFA6690020002814BF0121FF214A
:108D2000074A13780B44137008D0064B1B78012BAD
:108D300004D9054B1B780BB9FFF7B0BF704700BFD4
:108D4000AD690020A5690020AB69002070B526F050
:108D50005DFA114E054633788BB900F0BFFB04462F
:108D600020B1284626F056FA204670BD0B4826F062
:108D7000A9F90B4B1C6000F081FC0A4B186000F055
:108D8000C9F927F034F8084B00241860012328465D
:108D9000337026F03FFAE7E7A86900207C33002013
:108DA00084330020803300207833002000292DE90F
:108DB000F34114BF0121FF21254A00F1FF30135C6C
:108DC0000B4413543AD0234E3278012A36D9FFF798
:108DD0002FFF0128044634D81F4F26F017FA3B789E
:108DE0001BB31E4D2B781BB901222A701C4A13702D
:108DF000DFF8708098F8003033B1019000F030FA5D
:108E00000023019888F8003026F004FA012000F0D1
:108E100049FA26F0FBF92B782BB1019000F04CFABF
:108E2000002301982B7000233B7026F0F3F9307873
:108E3000A04203D02146FFF705FF347002B0BDE821
:108E4000F081032AF3D10228F1D126F0D4FFEEE716
:108E5000AD690020A5690020AC690020A66900204A
:108E6000AB690020A769002068B526F0CFF9094B4F
:108E700006461B78012B04D826F0CCF9002528469D
:108E800068BD054B1D6800F04BFA0544304626F0DE
:108E9000C1F9F4E7A56900208433002038B54160AA
:108EA000044626F0B3F905462146044826F00DF99C
:108EB0002846BDE8384026F0ADB900BF7C3300201D
:108EC000054B1B685843054B00F5742000F23F200A
:108ED000B0FBF3F0704700BF8033002040420F002A
:108EE0002DE9F04385B0EFF3108672B600E000BFC5
:108EF00028F0CDFD002800F08980634D634F2B786A
:108F000023B10020FFF708FF00232B70FFF790FE2E
:108F10000446002800F08180841EE4B2012C40F257
:108F20008380FFF785FE0128804604D9584B1B78C3
:108F30000BB926F05AFF574CDFF87891207840455E
:108F400007D099F8003013B94146FFF77BFE84F84B
:108F50000080B8F1010F0FD9DFF8348198F80030A4
:108F600053B94D4B1B7823B900F074F901224B4BD8
:108F70001A70012388F80030207800F0BBF999F8C6
:108F8000003013B1464B1B78237000E000BF06B9D8
:108F900062B6EFF3108672B6424B1A7852B10022D5
:108FA0001A703F4B20781B78984203D10121217021
:108FB000FFF748FE384600F0CBFA28F07DFD8046EA
:108FC00000289CD1324F3B789BB189F80000DFF834
:108FD000CC9099F800301BB100F042F989F800807C
:108FE000002000F05FF9002844D000F065F900236C
:108FF0003B702B7823B10020FFF78EFE00232B70EF
:1090000000212078FFF71EFE0023237000E000BF40
:1090100006B962B605B0BDE8F0832B78002B80D08E
:10902000FFF77AFE2C707CE7002003A900F0D4FA49
:10903000044600287FF475AF1B4B039A1B689A42C5
:1090400005D80120FFF768FE01232B7069E7174B55
:10905000D3F8008000F064F9039940448842F0D2CC
:109060000223091ACDE9004338462346104A26F068
:10907000C3FE56E7012000F03DF906B962B6EFF3F2
:10908000108672B6ACE700BFB069002058330020EC
:10909000AC690020A5690020AF690020A769002005
:1090A000B1690020AA6900207833002084330020B1
:1090B000F58C0000AB69002010B526F0A7F800225F
:1090C000044B1C781A7026F0A5F800F0F9FB204339
:1090D000C0B210BDA969002010B5094B1B786BB157
:1090E000084C237853B100F0E7F80023064A2370B8
:1090F00013700123054A1370054A137010BD00BF99
:10910000A5690020AB690020AC690020A969002096
:10911000AA6900202C4A2D4B116F2D4801F0070140
:1091200070B51960D2F820318069032900F002007F
:1091300041D003F00703991E4B424B41D2F88012F5
:10914000244D01F001010B4323490B7060B33BB97F
:10915000D2F8003103F003035A1E534253410B70FF
:10916000194BD3F8003103F00303022B25D0032B56
:1091700026D0012B18D1FBF7F7FEA8B1144B411EE6
:10918000DC680023024608461946C4F30B04134E5C
:10919000013404EB8404E4FB060103F057FEFFF7FF
:1091A0008FFE2B68184428606420FFF789FE2B6827
:1091B0001844286070BD0123C0E7FBF733FFDCE7EC
:1091C00025F088FFD9E700BF0080005088330020D9
:1091D00000C001508C330020B469002040420F00D1
:1091E000074B1A7852B100221A70064A136F23F007
:1091F000070343F001031367FBF7A0BE704700BFEE
:10920000B2690020008000500E4B10B51B7883B16E
:10921000022026F050FE60B100F010FA48B10A4B6F
:109220009A6DD20306D5DB6D9B0703D50122074B50
:109230009A6210BD0124064B1C70FDF747FD034BDD
:109240009C62F6E7B469002000C0005000D00050D6
:10925000B36900200122014B1A707047B2690020E7
:1092600038B50C4B1B786BB10B4C23787BB90B4B8F
:109270000B4D9A6D12F4803F05D0DB6D9B0702D534
:109280000123AB6238BDFDF721FD0123AB62002352
:109290002370F7E7B4690020B369002000C00050D4
:1092A00000D00050034B1B780BB1FDF775BD0120BA
:1092B000704700BFB469002008B525F0C2FF094A15
:1092C0000949136F096823F007030B431367074B22
:1092D0001B7813B10122064B9A62BDE80840FBF7E8
:1092E0002DBE00BF0080005088330020B4690020EC
:1092F00000E0005002280AD003280BD001280CD12E
:10930000064A136923F00403136130BF704700203D
:10931000FCF7AEBE0020FCF7C3BE704700ED00E0D6
:1093200008B5054B187818B1FDF716FD00EBD00015
:10933000024B1B68184408BDB46900208C33002020
:109340000122014B1A707047B469002010B526F055
:109350009FFD0A4C0A4B19682368C31A01B10BB967
:10936000206010BD4A699A423ABF9B1A0022D21A65
:109370004A6128BF00238968F0E700BF90330020CE
:109380009C330020C38870B504460D463BB9FFF7F7
:109390006BFD8542064602D226F01AFD35460F497E
:1093A00065610B68ABB90C60A36011E0AD1A9A68F7
:1093B000184665612AB113465A69AA42F6D950B1D6
:1093C0001A4613468460A36013B15969491B596159
:1093D00070BD0020F0E70C60F5E700BF9C33002073
:1093E00038B5134D2B685B6993B1124A022014689B
:1093F0001C4426F054FD204600F0A8FA00230E4934
:109400002A680B70D088800709D501230B7038BDFE
:10941000022026F044FD022000F0E2FAEEE7926816
:10942000002AF4D050690344012BEBD9EFE700BFC9
:109430009C33002090330020B669002070B516469A
:109440009DF81420C0E903360271049ABDF8183063
:1094500002600022C380826004460D4626F018FD9B
:109460003044A0613DB9E368656113B120462168CD
:10947000984796B1354625F0C9FE0646FFF766FFC8
:1094800029462046FFF77EFF054B1B68A34201D10A
:10949000FFF7A6FF304625F0BDFE002070BD00BFDF
:1094A0009C33002000220C490B687BB183420AD117
:1094B00083687AB1936083681BB15A6941690A4431
:1094C0005A61002070471A469B68EEE70028EFD0EB
:1094D000022070470B60EEE79C33002070B525F04A
:1094E000A4FE144E05463478FCB9134B1C60134B94
:1094F0001C60134B1C8000F0EFF9012026F0CFFC1C
:1095000026F0E8FC0F4B0246186020B9284625F0EB
:1095100092FE232070BD234640F2E7310A4803F053
:1095200095FC0A4B186001233370284625F083FE12
:109530000020EFE7B56900209C3300209033002025
:10954000465D00209833002018FCFFFF9433002074
:109550002DE9F0410546F8B125F058FE0F4F0646BB
:10956000FFF7F4FE2846D7F80080FFF79BFF04467C
:1095700028B1304625F04EFE2046BDE8F081A845D2
:109580003B6803D123B1FFF72BFFF2E7002BF0D1AB
:10959000022000F00DFAECE72224EDE79C330020D6
:1095A00038B50C46054698B191B100230B7025F0F3
:1095B0003CFE0121074B1B680BB122781AB125F044
:1095C0003AFE002038BDAB4214BF9B682170F3E720
:1095D0002220F7E79C3300202DE9F041074688461A
:1095E00025F023FE00260546124B1C6824B92846A8
:1095F00025F021FE1B2016E063691E44E388BB4270
:1096000015D126F045FC0C4C2368C01AB0420CD290
:1096100026F03EFC22683244121A2846C8F8002080
:1096200025F009FE0020BDE8F0810022F5E7A468DE
:10963000DCE700BF9C33002090330020014B1878FA
:10964000704700BFB669002070B525F0EEFD0646F4
:1096500026F01EFC084B04461D880120ADB226F002
:109660002AFC18B126F014FC04460135304625F0DA
:10967000E2FD2046294670BD465D0020014B18687A
:10968000704700BF983300200C4B70B51B680D4627
:10969000834211D340F2E73100248C462146084B27
:1096A0004FF47A721E680023E0FB06C1604603F0A7
:1096B000CDFB2860204670BD2120FCE794330020BC
:1096C00098330020014B1868704700BF9433002086
:1096D0000F4B10B51A689AB14FF47A71531E1342AA
:1096E000A0FB01010ED1B2FA82F2C2F11F04531C99
:1096F000D243E04001FA03F3184321FA02F2024395
:10970000104610BD002303F0A1FB0246F8E700BF9E
:1097100098330020164B70B58342164B15468B418B
:1097200024D3154B1A680AB34FF47A76A0FB0603CC
:10973000541E144006FB013111D1B2FA82F3C3F179
:109740001F025E1CDB4301FA06F6D04021FA03F348
:1097500030431843D140C5E90001204670BD0023C5
:1097600003F074FB0024C5E90001F6E72124F4E7C7
:10977000EFA7C64B3789410098330020C2072DE977
:10978000F04704460BD54B4A138801339BB2138034
:10979000FFF7DCFD484B1B680BB1FFF721FEA30769
:1097A00040F1858025F041FD4FF0000980464D468F
:1097B000FFF7CCFD4F46404E34680CB163698BB166
:1097C00000223E4B012D1A7003D1B9F1020F08BFE0
:1097D0001D70002C5BD0FFF703FE4046BDE8F0474C
:1097E00025F029BD23461A792179914288BF1C466C
:1097F0009B6813B15A69002AF5D0404625F01BFD3D
:10980000D4F81090B9F1000F45D026F041FBA269C1
:10981000A0EB02084FEAE873C14577EB03033BDA9C
:1098200023691344A36101232269CAB1C3B9A38B7D
:10983000B9EB080833B1E28B13449BB2B3F57A7FDE
:109840001CD2E38325F0F1FC814641462046FFF718
:1098500099FDA369226948461344A36125F0EBFCF6
:10986000E368B4F80690013513B1204621689847A3
:1098700025F0DBFC8046FFF769FD9DE7A3F57A73D1
:10988000E383A36918F1FF38013BA361DAE7022003
:1098900000F08EF8A1E7C84625F0C7FC82462046B6
:1098A000FFF700FE504625F0C6FC0023BCE7BDE8EC
:1098B000F08700BF465D00209C330020B769002080
:1098C00010B525F0B2FC034B1C7825F0B4FC204603
:1098D00010BD00BFB76900201FB50024184B1868E1
:1098E0009A880290D3F806009B7A009002A8ADF8FF
:1098F0000C208DF804308DF808408DF80C40FCF7F2
:109900004FFD694601208DF80040FCF70DFD4FF03A
:10991000B0431F219A6922F01F029A61094A5161DE
:109920009A6A12F00802FBD11A620120FCF716FDB8
:109930004FF48062044BC3F880211A6004B010BD5C
:10994000587A03000020005800E100E010B50446FA
:1099500025F05CFC4FF0B042936A1907FCD4136AFF
:10996000116C5269120704D4CA1A032A01D8994209
:109970000ED1E21A022A98BFDC1CB4F1FF3F38BFB7
:10998000013C4FF0B0431C649A6942F008029A61AE
:1099900025F040FC054A13783BB14FF0B041CB6B4A
:1099A00043F00203CB630023137010BD3816002070
:1099B000820700F001030AD50121084A43F0080399
:1099C00011704FF0B041CA6B22F00302CA634FF02E
:1099D000B0418A6922EA03038B6170473816002080
:1099E000830742BF0822014B5A617047001000589C
:1099F00010B525F01AFC4FF0B04304465B691A0716
:109A0000074A03F0010003F00D0348BF40F00200D5
:109A10005361FFF7B3FE2046BDE8104025F00BBCB4
:109A20000020005824282DE9F341054604D82C468F
:109A3000204602B0BDE8F08100240B4E0B4FDFF84A
:109A40003080002338681A461946CDF8008028F087
:109A5000CBFC8442EBD2252CE9D056F8043B9D4246
:109A6000E6D00134EDE700BFBC7D0300B01000205C
:109A7000FFFF0F002DE9F04F634E644D31682868F9
:109A800089B004F0CFFD0446002827D033680024B5
:109A9000D3E900019A6912689047336804A89B696A
:109AA0009B689847336802209B69DB689847326857
:109AB00005985368E7B2B3FBF0F3BB42916904F138
:109AC00001044CD8CB680020984733689B695B68D9
:109AD00098473168286804F0A5FD04460026DFF8A1
