:1040000000100020194E000075880000798800001B
:10401000970603007D88000085880000970603004E
:104020009706030097060300970603009706030010
:104030008988000018900300970603009706030084
:10404000970603009706030097060300814D0000C2
:1040500097060300970603009706030097060300E0
:104060009706030097060300EDA50000A9D60000FF
:104070006B320300970603009706030097060300C0
:1040800097060300970603009706030097060300B0
:1040900097060300455500009706030097060300A6
:1040A0009706030097060300970603009706030090
:1040B00097060300A947030097060300315C01003F
:1040C000AF470300AB470300F1530100BB470300B8
:1040D000B3470300F55B0100B74703002942010025
:1040E000715C0100970603009706030095890000A4
:1040F0009706030097060300970603009706030040
:10410000970603009706030097060300970603002F
:10411000970603009706030097060300970603001F
:10412000970603009706030097060300970603000F
:1041300097060300000000002DE9F04F2DED088BDD
:104140008DB09DED1E7B09EE903ADDE920430A9388
:10415000229B09EE100A8A460792069351EC170B30
:1041600053EC172BB0EE478AF0EE678A09F0DCFEBD
:1041700080B14FF0FF3251EC180BCF4B09F0FCFE31
:1041800040B94FF0FF326FF4801351EC180B09F077
:10419000D5FE98B1069B514622930A9B19EE100A50
:1041A000CDE9204319EE903A079A8DED1E8B0DB0A4
:1041B000BDEC088BBDE8F04F00F0A2B9002200234F
:1041C00051EC180B09F0BAFE002800F0448118EEFB
:1041D000903A18EE108A03F10049069BC9F30A5081
:1041E00013F48063A0F2FF3008BF06240B9309F09C
:1041F000C9FBA1A3D3E9002309F02EFCA0A3D3E9B6
:10420000002309F073FAC9F313050F4645F07F51F7
:1042100006460022A94B404641F4401109F064FAD9
:1042200099A3D3E9002309F017FC02460B46304658
:10423000394609F05BFA09F0A9FE834609F0A2FBB2
:1042400093A3D3E9002306460F4609F005FC00229C
:104250009B4B09F04BFA09F099FE8FA3D3E9002399
:1042600005463946304609F0F7FB064628460F4614
:1042700009F088FB8AA3D3E9002309F0EDFB02468D
:104280000B463046394609F02FFA02460B460646E1
:104290000F4609F0E1FB324641EC1A0B3B46304633
:1042A000394609F023FA002241EC1B0B854B51ECF7
:1042B0001A0B09F0FBFC0022834B09F017FA0246A7
:1042C0000B4651EC1A0B09F0F1FC00227F4B09F070
:1042D0000DFA02460B4651EC1A0B09F0E7FC324688
:1042E00041EC1A0B3B4600204FF0804109F0FCF9ED
:1042F00002460B4651EC1A0B09F0F8F902460B4640
:1043000051EC1B0B09F0D2FC05F2FF350022704B7B
:1043100009F0ECF900222B0509F09EFB42464B46C2
:1043200006460F4609F028FE002840F09780CDE9A8
:1043300008670BF16303C72B069B34BF04250525D3
:10434000190521D558A3D3E900234046494609F071
:1043500009FE002800F0BE8055A3D3E900234046A3
:10436000494609F0EBFD002800F0B48000255C45CB
:10437000CCBFA4EB0B000024AB46069BC8BF00F1EA
:10438000FF3443F4806306930A9B9D4238BF5E1B53
:10439000069B28BF002613F0020702D0002D18BF8D
:1043A0000026BBF1000F07D0DDE90823404649464F
:1043B00009F07CFC804689460022002351EC180B52
:1043C00009F0BCFD10B109F100439946069B514626
:1043D00023F40063CDE9036319EE100A19EE903A55
:1043E000CDE90089079A029400F08AF875B3069B1C
:1043F000024613F0200F00F1010619EE903A14BFA7
:1044000045206520514619EE104AA0470523002299
:1044100005930A238BEAEB70CDE90232A0EBEB7037
:104420004FEADB73013D0193009019EE903A32465A
:10443000514619EE100A04952EF016FE37B1079B6F
:10444000C51A079B58190A9BAB424CD80DB0BDEC5E
:10445000088BBDE8F08F59EC188BBEE60022304681
:104460003946194B09F022FC0BF1FF3BCDE908015D
:104470005FE700BFAFF30080FB799F501344D33F49
:10448000B3C8608B288AC63F61436F63A787D23F5A
:1044900071A379094F930A401655B5BBB16B024021
:1044A000EF39FAFE422EE63F2D431CEBE2361A3F6F
:1044B0000000000080842E41FFFFEF7F0000F83FE6
:1044C0000000E03F00002C400000244000001840A5
:1044D0000000F03F002C3FF457AF0B9B002B3FF444
:1044E00053AF013C50E7024619EE903A5146202066
:1044F00019EE104AA0470135A3E700BF00000000F5
:104500002DE9F04F2DED088B8FB0DDE920AB08EEE3
:10451000100A0F4608EE902A09EE103ADDE9225300
:104520005246049350465B465946249E09F0FCFCD3
:10453000A0B9049B2396229303232193B84B209385
:1045400018EE902A19EE103A394618EE100A0FB0FC
:10455000BDEC088BBDE8F04F2EF0BEBC4FF0FF3233
:104560006FF480135046594609F0E8FC30B1049BC3
:104570002396229304232193AA4BE0E74FF0FF32C6
:1045800050465946A84B09F0F7FC70B1A74A06F00F
:104590000403002B08BF0322A54B1CBF13460422B3
:1045A00004992396CDE92121C9E7504698A3D3E980
:1045B0000023594609F0E0FC38B997A3D3E900235A
:1045C0005046594609F0BAFC98B1049B18EE902A5F
:1045D000CDE92253394619EE103A18EE100ACDE90A
:1045E00020AB24960FB0BDEC088BBDE8F04FFFF771
:1045F000A3BD002200235046594609F09FFC002825
:1046000000F081805B4652460020002109F06CF8E2
:10461000012382468B46059316F4806F08BF06255A
:104620003021A94606ABA5F12002B9F1090FA5EB8F
:10463000090406D909F1FF394A4503F8011BF4D1F1
:1046400020245946504609F0A1FC7A4B054603EB5D
:10465000C90393ED007BB0EE47AAF0EE67AA09F01C
:1046600091F902460B465046594609F03DF853EC85
:104670001A2B09F0F1F902460B4643EC1B2B09F00B
:10468000ADFC804609F06EF902460B4651EC1B0B5F
:1046900009F02AF802460B4643EC1B2B0022664B1E
:1046A00009F06AFC88B308F10108404609F05AF99C
:1046B00002460B4651EC1A0B09F04AFC10B14FF0C0
:1046C00000080135B9F1000F51D1284609F05AF917
:1046D00002460B465046594609F006F80022564B52
:1046E0008046894609F02AFC30B1002240464946FE
:1046F000514B09F041FC10B1E80700D5013506AB7C
:104700000A2223445AE0059086E7002251EC1B0B55
:10471000494B09F013FC0028D4D1B8F1000F02D0A6
:1047200018F0010FCED008F10108CBE7B8FBF1F08B
:1047300001FB1082B8F1090F02F1300209F1FF39D3
:1047400004F1010403F8012B28D83021A14406AA62
:10475000202C11D04C4504F1010321D104F1380281
:104760000DEB02042E2204F8202C1C46C7E70A2178
:1047700006AB2344202CD9D106F00303012B06AB52
:1047800039D1049A002A36D0059A12B916F00C0FC6
:1047900002D0049A013A0492302214E08046E9E7FC
:1047A000A1541C46D4E795FBF2F102FB11553035BC
:1047B00003F8015B01340D460029DDD0202CF2D135
:1047C000DAE71A5501340499A14214D9202CF8D102
:1047D000049A0093CDE9014219EE103A18EE902A9E
:1047E000394618EE100A03962EF076FB0FB0BDEC9A
:1047F000088BBDE8F08F202CEAD0059AF2B12D216C
:1048000004F138026A4402F8201C0134E0E700BFDA
:104810000000000065CDCD410000000065CDCDC198
:10482000B9A60300BDA60300FFFFEF7FB4A60300F7
:10483000B0A60300C8A603000000E03F710704D53E
:1048400004F138022B216A44DDE73207C0D504F1B8
:10485000380220216A44D6E770B58EB02C220021A0
:1048600003A82EF05FFE64234FF00232012108936B
:104870008DF81010CDE905230B238DF83430504B03
:104880001B88D80700F1958008464E4C18F006FBAF
:104890004D4B0A224D494E481A704FF42873ADF81B
:1048A000123011F05FFA206020B940F231214948FE
:1048B00003F0DEFE052120682FF00CFB20B14FF441
:1048C0000F71444803F0D4FE20680C2508F0FEFE6A
:1048D000414B206819682FF075FB19F0A5F9684362
:1048E000099019F0A1F968430DEB050107902068C4
:1048F0000BF0DEFD20B140F25121364803F0B8FE46
:104900000022364920682FF0E6FB20B140F2532107
:10491000304803F0ADFE324E40F20353314D96F96C
:1049200000002B8005237F28AB7001D118F016FC06
:104930003378EB7019F078F900EB80008000A880E4
:1049400019F072F90023C0004FF0FF31E8804FF0FA
:10495000FF30AB6018A3D3E9002318F05DFC2249B7
:1049600020682FF0BBFF02A920682FF093FB20B135
:1049700040F28621174803F07BFE042220680DEBED
:1049800002012FF00CFB042804D040F289211148C9
:1049900003F06EFE01A9012031F0B8F803F0AEFF7C
:1049A000012019F0CBFB2CF001F819F0FFFB18F0F7
:1049B000FBFA0EB070BD00BF0A0020FF42030000EA
:1049C000666800207C5C0020106E0020C9CE0100CB
:1049D000E41200201BCA030000110020176E002003
:1049E0009C160020685C002069D0010010B5054CC1
:1049F000237833B9044B13B1044800E000BF01230E
:104A0000237010BD382A00200000000038CD0300BC
:104A100008B5034B1BB10349034800E000BF08BDC4
:104A2000000000003C2A002038CD0300A3F5803AA6
:104A3000704700BF174B002B08BF134B9D46FFF775
:104A4000F5FF00218B460F461348144A121A2EF028
:104A500069FD0E4B002B00D098470D4B002B00D06A
:104A600098470020002104000D000D48002802D0C6
:104A70000C4800E000BF09F075FC200029002EF072
:104A800012FD09F05BFC00BF000008000000000000
:104A90000000000000100020A8240020886E0020E4
:104AA0000000000000000000BFF34F8F0549064BD7
:104AB000CA6802F4E0621343CB60BFF34F8F00BFBC
:104AC000FDE700BF00ED00E00400FA0500239B6A4B
:104AD000B3F5804F03D21968064A914203D00023F0
:104AE000037083607047012202709A689B6942607C
:104AF000F7E700BF07B0CD5E73B5494B04461A789F
:104B00001AB102221A7002B070BDCDE9002200284D
:104B1000F9D001261E702BF04AFE424D424B186020
:104B20000EF05CFA2B785BB900F056FD40B93F48B7
:104B300008233F4A3F4900680AF0D0FE00B92E70B2
:104B40003D4B5A68E2603D4A9A601A6E22605A6E86
:104B50006260D3F87021A2601B6E5C0440D5384AB5
:104B6000D368D807FCD4374B1A68531C3DD04FF498
:104B700080139340344A13660423334C23664FF466
:104B8000806323662BF057FD01300ED02BF053FDD0
:104B900040F20113984208D04FF4804323664FF44B
:104BA000004323661023C4F870311023264C4FF0C5
:104BB000804223664FF400536846236601A92266AB
:104BC00063662BF01DFD009B2366019B63662B78BB
:104BD000002B98D0164B1A6822665B68636692E7D2
:104BE0001A4AD368D907FCD4BDE7194B1B78002BB0
:104BF000C2D1184B5A68144B12B94FF480121A667E
:104C0000154A526812B94FF400121A66134B5B68CA
:104C1000002BB1D14FF480020B4B1A66ACE700BFFA
:104C20000C6900200A6900206C2A0020AC100020CA
:104C3000642A0020007108000080004455CEAC00BA
:104C40000000044098100020009000440000045030
:104C50000B6900200080055000C005500000065080
:104C600038B5224D04462B78012B02D001232B703E
:104C700038BD0028FCD02BF0DEFC013009D02BF031
:104C8000DAFC40F20113984203D0194AD368DB07DB
:104C9000FCD42268174B1A6662685A66A268C3F889
:104CA0007021E268D40744BF00229A60124B1A6850
:104CB000013213D1114A127882B911494968C807E3
:104CC00048BF1A600F4A5268D10744BF01221A60D8
:104CD0000D4A5268D20744BF02221A600EF086F9CC
:104CE0000A4B18682BF069FD0023C0E70C6900200F
:104CF0000000044000800044981000200B69002050
:104D00000080055000C00550000006506C2A0020AD
:104D100070B50024A36AB3F5804F22D21A68124BF3
:104D20009A421ED1114E337813F0FD0517D1104869
:104D3000FFF7E2FE08214FF480330E4A0E48C2F816
:104D40008011C36011600D4A1361AB6ADB6998473B
:104D500004460748FFF784FF0CB90123337020464F
:104D600070BD4FF48174FAE707B0CD5E0B69002087
:104D7000542A002000E100E000A00044009000441C
:104D800013B51F4B1B7803B9FEE700231D4CCDE97B
:104D900000336A4608231C4920680AF09FFDF0B9D9
:104DA0001A4AD2F84031D2F840211F2B4FF00103AC
:104DB00010D9203A9340019A1343019308236A467D
:104DC000114920680AF040FD4FF00053104A1A6064
:104DD000FFF76AFE9340009A13430093EEE70D4BF2
:104DE0009842F1D1094AD2F84031D2F840211F2B24
:104DF0004FF0010302D9203A9340DEE79340ECE7FD
:104E00000C690020AC1000200071080000800044F4
:104E10000B020FF00BE000F008B500F02DF8124B7C
:104E200012498B4212D30020114B12498B4218D3E6
:104E3000FFF700FE186850F82240586840F82240FA
:104E4000013298688242F5D30C33EAE70022F8E792
:104E50001C6844F8220001325C68A242F8D308338F
:104E6000E4E70022F8E700BF40CD03004CCD03008B
:104E70004CCD03004CCD03006FF00100104B114AE4
:104E800010B59A60D3F888200F4942F47002C3F835
:104E9000882001F50052106641F2FF705066022032
:104EA000C3F8D000BFF34F8FBFF36F8F08244FF4C8
:104EB00040330648C0F88041D36004600B6110BDE8
:104EC00000ED00E0004000000080004400E100E050
:104ED000014B1868704700BFA0100020014B1860FC
:104EE000704700BFA0100020084B1B6F03F00703A2
:104EF000022B04D0032B05D0012B05D0FEE7044B79
:104F000018687047034BFBE7034870470080005068
:104F1000A0100020A4100020002D310108B5FFF7DB
:104F2000E3FF054B1B6FC3F301330133B0FBF3F019
:104F3000024B186008BD00BF008000509C1000208C
:104F40000048704700B4C404014B1868704700BFA4
:104F5000A4100020054B1860054B1B6F03F00703DE
:104F6000032B01D1FFF7DABF704700BFA410002068
:104F70000080005000487047002D3101174B9868A1
:104F8000C0F304400C2822D8DFE800F009212121D9
:104F90002121071719211B1D1F00114870479B680D
:104FA00003F04073B3F1807F13D0B3F1007F12D0D0
:104FB0000C4A002B08BF104670470B4870470B483F
:104FC00070470B4870470B4870470B4870470020EC
:104FD00070470A4870470A48704700BF0040015AAE
:104FE000405DC60000093D000024F400C0EA210134
:104FF00080BA8C010048E801005A620280841E00D9
:1050000040420F00014B1868704700BFA8100020F5
:1050100008B5032101230422002001F04FF80020ED
:105020002BF0E3FB0122244B0C20C3F84424234A39
:10503000D2F8803043F00303C2F8803000F03AFD2C
:105040001F4B00F5D520D3F8F02000F2FC4042F0D1
:105050000102C3F8F020D3F8FC2042F08072C3F8BC
:10506000FC20184AA3F55D431A60174B0222B0FBDF
:10507000F3F0164B01381861C3F8F0204FF480723A
:10508000C3F804234FF06043114A0020C3F8B02F47
:10509000104AC3F8802ED3F8002E42F48072C3F871
:1050A000002EFF2283F82020D3F8002E22F48072F5
:1050B000C3F8002E08BD00BF00D003500080005090
:1050C00000ED00E0FF030040F8590D00000004E08F
:1050D00055CEACC5090001004FF06043D3F8802ED7
:1050E00030B5D20715D501240B4D8440D5F8FC20EE
:1050F00042F08072C5F8FC20D3F8002E2243C3F89A
:10510000002E53F82020002AF0D003F820100020B1
:1051100030BD1120FCE700BF00ED00E02DE9F04FAD
:105120009A46564B85B01B7806460F461546DDF865
:105130003C909DF844B0DDF85080002B00F08D804D
:10514000072A00F28C800E9B002B00F08880B9F1BA
:10515000000F00F08480129BB3F5006F7FDC012804
:1051600002D1109B002B7AD0454B03EB05131B7B20
:10517000002B76D0434C1022002168462EF0D2F945
:1051800004EB45141022002F59D1394620462EF049
:10519000C9F943F210036380BBF1000F03D1E37838
:1051A00043F00303E370374A0E9B02EB451CCCE946
:1051B0000193129B6901013BC3F30A009DF84C3037
:1051C000012E03F003034FEA836343EA001E5358A2
:1051D0002D48CDF800A000EA03004EEA000353502A
:1051E00041D113230CF1100ECCF80C309CE80F00C9
:1051F0008EE80F006FF00301DCF81C20109B61F3B8
:105200009F02012FCCF81C20CCF8143003D1CCF82D
:105210001890CCF804300027194A290102EB051335
:1052200042F80180159A28465A60694622469F60D6
:105230005E7300F0D1FF384605B0BDE8F08F002165
:1052400020462EF06FF94FF444736380BBF1000FDA
:10525000A9D1E37843F03003A4E70C48ECE70C480D
:10526000EAE70C48E8E7B8F1000FD4D19CF8023027
:1052700068F304138CF80230CDE700BF0D690020FD
:10528000702A0020F02A00200F80FFF3028000F037
:10529000018000F0078000F038B5124B05461B78FE
:1052A000DBB1E0B12BF083FA0F4A00231146147BE7
:1052B00054B92B6001251A0101EB03131D738C50A7
:1052C0002BF07BFA204638BD0133082B02F1100287
:1052D000EDD12BF072FA0548F5E70548F3E70548EC
:1052E000F1E700BF0D690020702A0020048000F063
:1052F000028000F0018000F013B52BF058FA002373
:105300000B4A147B7CB90133082B02F11002F8D14F
:10531000019000F015FF074B01981C702BF04DFA1F
:10532000204602B010BD2BF048FA0348F9E700BF51
:10533000702A00200D690020058000F00D4B10B58B
:105340001B78044693B1072812D82BF030FA0A4B89
:1053500003EB04131A7B2AB100241C732BF02DFAE3
:10536000204610BD2BF029FA0448FAE70448F8E774
:105370000448F6E70D690020702A0020068000F03E
:10538000028000F0018000F0154B13B5186800236F
:1053900001908DF804302BF00AFA124B1C7824B1DE
:1053A0002BF00BFA104802B010BD01221A702BF03E
:1053B00004FA0E4B01A81C731C7783F82C4083F869
:1053C0003C4083F84C4083F85C4083F86C4083F8A1
:1053D0007C4008238DF8073000F0D4FE2046E2E739
:1053E000689003000D690020038000F0702A0020FF
:1053F0000A4A08B512785AB107280BD8084A02EBB6
:1054000000131B7B43B1002100F0AEFE002008BD5D
:105410000448FCE70448FAE70448F8E70D6900206F
:10542000702A0020028000F0018000F0078000F068
:105430000A4A08B512785AB107280BD8084A02EB75
:1054400000131B7B43B1012100F08EFE002008BD3C
:105450000448FCE70448FAE70448F8E70D6900202F
:10546000702A0020028000F0018000F0078000F028
:105470000A4A08B5127852B107280AD8084A02EB3E
:1054800000131B7B3BB100F0F5FE002008BD054872
:10549000FCE70548FAE70548F8E700BF0D6900207A
:1054A000702A0020028000F0018000F0078000F0E8
:1054B0000D4B1B7893B1072812D889B10B4B03EB26
:1054C00000131B7B73B10A4B1A6D012303FA00F022
:1054D00010401ABF00200B700870704705487047D5
:1054E00005487047054870470D690020702A002064
:1054F00000000450028000F0018000F0078000F0FE
:105500000B4A10B512780C4662B107280CD859B175
:10551000084A02EB00131B7B43B100F0BDFE207074
:10552000002010BD0448FCE70448FAE70448F8E707
:105530000D690020702A0020028000F0018000F038
:10554000078000F0204B2DE9F0471F6D5A6D1F4C6E
:10555000174010D54FF000411D4A1165D868C0F3BF
:1055600004200301E35804EB00125BB3BDE8F047ED
:1055700000215268184701260025DFF85480DFF823
:105580005490374217D02368C8F850609BB1A16887
:10559000284601316268A1609847637B012B0AD1DC
:1055A00048B909EB45131A7B60F341021A731A7F5D
:1055B00060F341021A770135082D4FEA460604F1DF
:1055C0001004DED1BDE8F08700000450702A0020EE
:1055D00000200450F02A0020024B1968024B186882
:1055E0000AF05CB8B0100020AC10002037B5920073
:1055F00004460D46019233F007FD431C0BD060B901
:1056000029462046019A2DF056FF0028044808BF7D
:10561000002003B030BD0348FBE70348F9E700BFB3
:1056200010E000F021E000F024E000F010B50446A6
:1056300033F0E2FC431C10D088B900F0DDFE2346B5
:1056400020F003002044984201D1002010BD53F8FF
:10565000042B0132F7D00348F8E70348F6E7034884
:10566000F4E700BF0EE000F021E000F024E000F0DD
:1056700008B52BF08DF8014B186008BD30320020C2
:10568000014B18682BF088B83032002041F6713396
:1056900010B5104C104AA0428CBF4FF48014002467
:1056A000D169D363936801F4803123F44013234319
:1056B00093600A4B98420A4BD3F818228CBF42F0F1
:1056C000020222F00202C3F8182211B10022024B9A
:1056D000DA6310BD005A62020000035080F0FA0243
:1056E00000C007502E4B98424AD022D82D4B9842EA
:1056F00040D014D82C4B984239D00AD82B4B984222
:1057000032D02B4B98422FD02A4B98422CD00020DD
:105710007047294B9842FAD1284B186F7047284B95
:1057200098422AD0274B9842F1D1244BD3F88000DD
:105730007047254B98422BD009D8244B984223D050
:10574000234B9842E3D11D4BD3F88C007047214B7B
:10575000984221D003F5740303F510539842D6D133
:10576000164BD3F898007047144B986D7047134B45
:10577000586E7047114B586F7047104B986F7047B9
:105780000E4BD3F8840070470C4BD3F88800704759
:105790000A4BD3F890007047084BD3F89400704739
:1057A0000048E8010024F400C0CF6A0080841E0095
:1057B00000093D0040420F00405DC6000080E00F40
:1057C000C0EA210180BA8C01007E560380D54302D5
:1057D000006CDC020090D00338B5134B0546D3F8BB
:1057E00020010C4600F00700042804D8DFE800F090
:1057F0001A0A0E1216000023184605B1286004B1DB
:10580000236038BDFFF764FB0423F6E7FFF79CFB3A
:105810000323F2E7FFF7B2FB0523EEE7FFF7AAFB4E
:105820000223EAE70123E8E70080005037B50C4681
:105830000021124A0191D2F88021054602F00302AC
:10584000022A0ED0032A11D0012A14D101A8FFF791
:10585000C3FF0D230DB1019A2A6004B1236003B088
:1058600030BDFFF78BFB05230190F3E7FFF782FBC9
:1058700002230190EEE70B46ECE700BF00800050EA
:1058800038B5104B0546D3F840310C4603F00303FE
:10589000022B0BD0032B0DD0012B0FD12AF0FEFED3
:1058A000082305B1286004B1236038BDFFF7AAFBC7
:1058B0000723F6E72AF0F5FE0923F2E7012300208B
:1058C000EFE700BF0080005038B5104B0546D3F815
:1058D00060310C4603F00303022B0BD0032B0DD0D9
:1058E000012B0FD12AF0DAFE082305B1286004B19C
:1058F000236038BDFFF786FB0723F6E72AF0D1FEC9
:105900000923F2E701230020EFE700BF00800050E9
:1059100038B5144B0546D3F800020C4600F00700DA
:10592000042804D8DFE800F01B0A0E12160000233A
:10593000184605B1286004B1236038BD2AF0AEFED8
:105940000823F6E7FFF75EFB0723F2E72AF0A9FE3C
:105950000923EEE7FFF7E2FA0C23800AE9E70123C7
:10596000E7E700BF0080005038B5144B0546D3F878
:1059700008020C4600F00700042804D8DFE800F015
:105980001B0A0E1216000023184605B1286004B148
:10599000236038BD2AF082FE0823F6E7FFF732FBCA
:1059A0000723F2E72AF07DFE0923EEE7FFF7B6FAB8
:1059B0000C23800AE9E70123E7E700BF00800050DD
:1059C00038B5104B0546D3F840320C4603F00303BC
:1059D000022B0BD0032B0DD0012B0FD12AF05EFE32
:1059E000082305B1286004B1236038BDFFF70AFB26
:1059F0000723F6E72AF055FE0923F2E700231846AD
:105A0000EFE700BF0080005038B5104B0546D3F8D3
:105A100000310C4603F00303022B0BD0032B0DD0F7
:105A2000012B0FD1FFF790FA032305B1286004B1D1
:105A3000236038BDFFF7E6FA0723F6E72AF02CFECD
:105A40000623F2E701230020EFE700BF00800050AB
:105A500038B50C4605462AF09BFE064B9A6A82EA48
:105A6000040101EA050454409C62BDE838402AF074
:105A700093BE00BF00C00050032814D005D80128F1
:105A800005D0022809D0002005E00F28FBD1084BE3
:105A9000186FC0F3013001307047054BD3F8900008
:105AA000C0F30460F7E7024B186FC0F38020F2E701
:105AB000008000501FB500230193252817D8DFE888
:105AC00000F0131A1D262B353A50555A5F6469773A
:105AD000161A3F1616551A262B26351A5026773ACF
:105AE0003A3A3A2626265A5FFFF7FEF901900198C6
:105AF00005B05DF804FBFFF711FAF7E7FFF7F4F9DB
:105B000002460220FFF7B8FFB2FBF0F0EEE7FFF726
:105B100005FA02460320F5E7FFF700FA02460320E4
:105B2000FFF7AAFFB2FBF0F04008DFE7002101A871
:105B3000FFF77CFEDBE7002101A8FFF74DFED6E76B
:105B400002934FF0E0231B695B0705D5FFF7E6F9E9
:105B50000290029B0193CAE703A902A8FFF790FEF7
:105B6000F7E7002101A8FFF78BFEC0E7002101A89D
:105B7000FFF7AAFEBBE7002101A8FFF7C9FEB6E7C1
:105B8000002101A8FFF7F0FEB1E7002101A8FFF70F
:105B90003BFFACE7094BD3F8803003F00303022B43
:105BA000A9D0032B01D00020A0E7FFF7E7F99DE77C
:105BB000002101A8FFF704FF99E700BF0080005013
:105BC00008B50120FFF776FFBDE808400349884289
:105BD0008CBF02210121032000F002B880F0FA02FC
:105BE000032810B50C4627D004D8012804D0022879
:105BF00017D010BD0F28FCD12AF0ADFD2AF0B3FD5F
:105C0000124B013C196F21F4405141EA04341C67E6
:105C1000FFF784F90021FFF739FDBDE81040FFF7D9
:105C2000CFBF0A4B013CD3F8901021F0F85141EA64
:105C30000464C3F89040DCE7044B013C196F21F485
:105C4000806141EA84241C67D3E700BF00800050D4
:105C50001FB500230193252821D8DFE800F0132089
:105C60002020202A2F454A4F54595E71202034208D
:105C7000204A202020202A204520712F2F2F2F203E
:105C800020204F54314B1B6F03F00703013B032BC4
:105C900005D8DFE803F00C02080A042301930198F9
:105CA00005B05DF804FB0323F8E70623F6E70223BB
:105CB000F4E7002001A9FFF7B9FDF0E7002001A9F2
:105CC000FFF78AFDEBE702934FF0E0231B695B07C8
:105CD00005D5FFF723F90B230393039BDEE703A905
:105CE00002A8FFF7CDFDF8E7002001A9FFF7C8FDE6
:105CF000D5E7002001A9FFF7E7FDD0E7002001A9C3
:105D0000FFF706FECBE7002001A9FFF72DFEC6E74F
:105D1000002001A9FFF778FEC1E70C4BD3F88030D3
:105D200003F00303022B03D0032B05D00023B5E7B8
:105D3000FFF7F4F80B23B1E7FFF720F90523ADE7F0
:105D4000002001A9FFF73CFEA9E700BF008000503A
:105D500038B50546FFF7C6FC214B04465A68012AB0
:105D600004D120494A609A699207FCD10020FFF7CC
:105D70006FFF042803D12AF0EEFC2AF0F4FC1A4A43
:105D800024F04073954221D0184A954221D0184AF8
:105D9000D16811F0060FFBD190689360916803F40D
:105DA000F81301F4F8118B4216D12846FFF796F844
:105DB0000020FFF74DFF042810D1FFF7AFF80021B6
:105DC000FFF764FCBDE83840FFF7FABE43F000730C
:105DD000DDE743F08073DAE79060E9E738BD00BFA4
:105DE00000C0015000E0015040420F0080841E00BE
:105DF0000000015070B504460020FFF729FF03287A
:105E00007CD045F60E030221414AC2F88030414B56
:105E10009962012103F580539962936DD903FCD4F3
:105E2000D4E900131B0543EA0163E17B94F8225097
:105E30000B43217B94F8236043EA0143617B43EAEF
:105E40000133A17B43EA811313619169D4E904030F
:105E50001B0643EA806301F000410B43A17EE07E14
:105E60000B43217E43EA0143617E43EA01239361B0
:105E7000136AE26923F00D03002A0CBF00210821F8
:105E800043EA020343EA8003214A43EA010313621F
:105E900094F820304FEA431331D1906A94F82110DE
:105EA00020F0330043EA0113034343F001039362FC
:105EB000194B916D33EA0101FBD10221154B996217
:105EC000936D5B00FCD41069A36820F4700040EA75
:105ED000035010614FF000420E4B9A611DB902222F
:105EE00003F580539A6216B901220C4B9A6294F81A
:105EF00024301BB1064B0A4AC3F8802070BD916A5A
:105F000021F0330131430B4343EA45039362EEE74B
:105F100000C0005000D000500300014000E00050DD
:105F2000F1A7FFFF13B5184CA16AA36D13F4803FCE
:105F300018BF0122154B18BF9A6202229A62A36D04
:105F40005B00FCD4124BA26993F9003022F47F026B
:105F50000344000222F47F4280B283F3080310431B
:105F600040EA0340A06102200191FFF771FDA36D9B
:105F7000019913F4803F05D0012002B0BDE8104024
:105F8000FFF766BD02B010BD00C0005000D0005049
:105F90000E69002037B5104CA16AA36D13F4803F41
:105FA00018BF01220D4B18BF9A6202229A62A36D9C
:105FB0005B00FCD40220A5690191FFF749FDA36DA8
:105FC000019913F4803FC5F3072502D00120FFF7A4
:105FD0003FFD284603B030BD00C0005000D0005047
:105FE000014B93F9000070470E690020012312480D
:105FF000124A816A9362836D03F00303032BFAD183
:10600000022393620C4B9A6D5000FCD40C4A986D9D
:1060100032EA0000FBD10122084B1A65A3F5805338
:106020009A6D9207FCD49A6D9007FCD59A6D9207F1
:10603000FCD50320FFF70CBD00C0005000D000507D
:1060400003000100014B1880704700BF18160020A4
:106050000A4A10B51369044643F00403136103F0C0
:106060005FFE2AF0ADFB30BF2AF0ABFB03F074FEFD
:106070001CB9BDE81040FEF751BF10BD00ED00E0B7
:10608000084A10B51369044643F00403136103F092
:1060900047FE30BF03F060FE1CB9BDE81040FEF7BC
:1060A0003DBF10BD00ED00E0034A0179D36E23F03F
:1060B00030030B43D366704700400050F8B50446E8
:1060C0000D461F4616464AB101238B403021194A1E
:1060D00001FB0022FFB141F21001535004EB4403D5
:1060E000072D4FF00F014FEA031317D8A80006FA47
:1060F00000F28140104818442AF066FB56B901218D
:1061000030230C4801FA05F503FB040077B141F296
:106110001003C550F8BD42F21001DEE7A5F10800FA
:10612000800006FA00F281400448E4E742F21003DE
:10613000EFE700BF00C0035004C003500CC0035081
:106140004FF40012064BC3F88020BFF34F8FBFF30C
:106150006F8F0022FF21034B5A6599625A60704786
:1061600000E100E000000450044A054B002918BF7C
:106170001346012202FA00F01860704740200450D4
:106180004010045030B5047845788178C2780120F9
:106190000F4B41EA0541240658609C609961FF213C
:1061A00099620021996319644FF0004159654FF0DD
:1061B000FF314FF4001003F5005319650549130131
:1061C000DBB2C1F8800181F81533086030BD00BF33
:1061D0000000045000E100E02DE9F04101250C46EB
:1061E000C3B2DFF888E0D1F800809D408F7ACB7A87
:1061F00094F80DC0097BCEF850500EF5005E4EF8B5
:1062000020804FF0300E184E1B050EFB006043EA55
:10621000074343EA415322F00302C0F860C0C3655C
:1062200002672AF0C4FA736D2B437365237A13B1A6
:10623000336C2B433364637A13B1B36B2B43B36377
:106240002279A37943EA0243084A93616179E379A9
:1062500043EA014306498B61034B55639D64BDE8E6
:10626000F0412AF0AABA00BF0000045000200450F8
:106270000010045010B50124C0B284402AF097FAEF
:10628000044B5A6D22EA04025A659C62BDE8104034
:106290002AF093BA0000045010B50124C0B2844023
:1062A0002AF085FA074BDA6A224209D15B6B34EA9D
:1062B00003030CBF012400242AF07FFA204610BDFE
:1062C0000024F9E70000045041F67132034BDA6311
:1062D000012203F50053DA60704700BF000003504D
:1062E00041F671320121044BDA6303F50052D160AB
:1062F0000022DA63704700BF00000350014BD3F85F
:106300009400704700400050CB784A7810B55B018C
:106310000C7843EA82030A79234343EA02130C22EE
:10632000424302F1B0421363012C02BF8A78024B50
:1063300043F8202010BD00BFD080035008B54FF0B7
:10634000B0435A6802B960B15B680BB12AF054FAE5
:106350004FF0B04130B10120074B58602AF04CFAA1
:10636000C86008BD2AF048FA0223CB602AF044FA3C
:106370000122024B5A60F4E7001000580020005838
:106380004FF0B0435B6870B50BB12AF035FA0121CC
:10639000104B4578596083780679002BC37814BF79
:1063A00002240024002B14BF042200224379DB00C6
:1063B00043EA06132B43234313434FF0B042936049
:1063C000054B59600378002B14BF0B460223D360A2
:1063D00070BD00BF0020005800100058054B5B69DD
:1063E000C3F38512827003F03F021B0B42700370EF
:1063F000704700BF00C007500120034B9B680A3361
:1064000003F01F03984070470080E00F0D4B984247
:1064100008D1A3F50033C3F88411C36D43F08003A2
:10642000C3657047084B984204D1A3F51033C3F8F5
:106430009411F2E7054B984204BFA3F52033C3F84B
:10644000A411EAE70080055000C005500000065086
:1064500070B5054616461C4619B90320FFF72AFBFE
:106460000146402C1BD003D8DCB1202C1BD070BDC2
:10647000602CFCD1042303FB06F2560806EB411303
:10648000B3FBF2F3094A203B02EAC303AA6822F0F5
:106490006002AA60AA681443AC60EB61E7E70623D8
:1064A000E9E71023E7E70823E5E700BFF8FF7F00EF
:1064B000012200F5805310B55A6040F6AA6341F2FC
:1064C00005024361002312498360C365C26000F581
:1064D00000520361C361C36491640E4983658842BD
:1064E00006D00D4CA04203D004F58044A0420BD14D
:1064F0008842036506D0084B984203D003F58043D9
:10650000984201D1002343650123536010BD00BFB1
:10651000FFFF01000080055000C0055070B50D461A
:10652000FFF7C6FF012300F580567360AB7C04467D
:106530001BB1836843F080438360EB7C1BB1204632
:10654000297DFFF763FF2A8A6B7B20461343EA8984
:106550001343E3602B7BD5E90112FFF779FF6B7DD5
:106560001BB1A36843F48033A360AB7D1BB1A36868
:1065700043F40043A360EB7D2A7E1B07120502F45F
:10658000E00203F0E0431343A3656A7E931E012BF0
:10659000214B20D89C421AD003F580439C4218D04E
:1065A00003F580439C420CBF02234FF0FF3341F2BE
:1065B000AC5102205B0103F1A04303F57033585046
:1065C000032A23D10423F3652B78636170BD002374
:1065D000EDE70123EBE79C4214D0104B9C4213D013
:1065E00003F580439C420CBF02234FF0FF3342F27D
:1065F000AC5102205B0103F1A04303F57033585006
:10660000012ADEE70023F2E70123F0E7042204F584
:106610000053DA65D8E700BF0080055000C0055080
:1066200038B50446054D2DF0DEFC0FCC0FC594E8BF
:106630000F0085E80F00002038BD00BFE4320020C5
:1066400047F6FF739A42F0B566D0022966D8344DFA
:10665000CF0015F8313005EBC100012B847813D140
:106660000025C3781B1B9D4202D3E018C0B2F0BDC9
:10667000591B4668A3EB510136F911609642D4BF0D
:106680000D4601F1FF33EEE740680028EFD0B0F986
:106690000030934204DBB0F902309342B8BF134696
:1066A00082883D44FF2A19BFC8214FF0280CB0F959
:1066B0000610B0F908C0A1EB03020CBF01260026AA
:1066C00092FBFCF26D78324412B2954201DD002A51
:1066D00001DA6A1E12B24FF47A7700EBC206F18833
:1066E000B668013213FB016112B221EAE1715C313B
:1066F0009542B1FBF7F104DD00EBC206B6888E428D
:10670000EBD200EBC20232F8040C884228BF0846E4
:10671000A04238BF2046A9E7FF20A8E70020A6E74F
:10672000E43200200229F0B553D82B4800EBC10415
:1067300010F83110636801290FD1E078A4789042F5
:1067400094BFC4EB0001C4EB0201001BCAB2824239
:10675000C8BF002233F91200F0BD002B39D0A17858
:10676000914202D3B3F90200F6E7E178B3F90000F1
:106770009142F1D999886478A1F1FF06013C7142F8
:1067800003F10405E4B2714103F10C071FFA82FC26
:10679000CEB2B44216D805EBC1014FF47A756A4304
:1067A000B1F902404968521A04EBD47102EB61025C
:1067B00092FBF4F29042CFDBB3F902009042CBDCC3
:1067C00010B2C9E737F831E04E1CE645E3D3314655
:1067D000DEE70248C0E700BFE43200200080FFFF90
:1067E00008B50448FFF71CFFBDE8084001202DF064
:1067F0001DBC00BF909003007FB51422002101A8AA
:106800002CF090FE044B01A94FF0FF3002932DF0C5
:106810004EFC07B05DF804FB006A18002DE9F0415A
:106820008CB08846DDE912761D460446002847D024
:10683000002945D0002F43D0002E41D013F00F0384
:106840003ED120482049A360002A18BF0146E361D9
:10685000C4E90013404609A92AF084F968BB204620
:10686000099929F0E5FF2946204629F0E1FF69460C
:1068700040462AF016FA00BB6946204629F0C4FFBC
:10688000404603A92AF018FAB8B9204603A929F00E
:10689000BBFF06970127204645F0005506A907973C
:1068A000089529F0B1FF204609A909960A970B958A
:1068B00029F0B4FF20462AF0DFF80CB0BDE8F081E3
:1068C0002120FAE700010104000100042DE9F04F46
:1068D00097B0894690461F460546DDF880A00028FF
:1068E00000F0BD80002900F0BA803AB1229B002B55
:1068F00000F0B580239B002B00F0B180BAF1000FAF
:1069000000F0AD80219B002B00F0A98077B13C689E
:106910000026229B43440293464509D3002F00F0F2
:10692000A08000203C6017B0BDE8F08F3C46EFE748
:106930005CB1229B219A9B5D125D01345340239AE6
:1069400004F00F0493550136E6E7A8EB060BBBF104
:106950000F0F58D9444B4846C5E90034AC60EC6190
:1069600013A92AF0FFF80028DDD1284613992BF04F
:106970000F0B29F05DFF5946284629F059FF48467C
:1069800004A92AF08EF90028CDD1284604A929F0BF
:106990003BFF484607A92AF08FF90028C3D12846B3
:1069A00007A929F031FF01232299304ACDF828A008
:1069B0000B930C928A190D9228464BF000520AA9AB
:1069C0000E9303920F9229F01FFF28460DA929F07C
:1069D0001BFF239B039A9919012310911193129283
:1069E000224A284610A9CDF84CA01493159229F0FC
:1069F00015FF284613A929F011FF28462AF03CF874
:106A00005E4400288FD1229B03EB060B239B1E4480
:106A1000029B5B4501D146467EE7ACB9219B2246ED
:106A2000CDE900A3494610232846FFF7F7FE0028CA
:106A30007FF479AF0AF1100212F8013D0133DBB2A5
:106A400013700BB99245F7D1219A1BF8013B125DE7
:106A50000134534006F8013B04F00F04D8E721202D
:106A600061E738465FE700BF030300041000002021
:106A70002DE9F04F97B00F46144699468346209E65
:106A8000DDF88880DDF890A0269D002800F09F802A
:106A9000002900F09C801DB1259B002B00F0978001
:106AA000B9F1000F00F09380B8F1000F03D0219BE3
:106AB000002B00F08C803CB1239B002B00F08780E2
:106AC000BAF1000F00F08380C6F10F02D2B2032AA0
:106AD00005D80121D20001FA02F2A24277D9022D93
:106AE00075D0102D73D815F0010270D1F11F062951
:106AF0006DD838490AEB0400884268D236493846D6
:106B0000CBE90012CBF80820CBF81C2013A92AF0FF
:106B100029F8002858D15846139929F089FE58467B
:106B200045EA064129F084FE4146584629F080FE98
:106B30002146584629F07CFE384601A92AF0B1F8D2
:106B4000002841D1584601A929F05EFE384604A923
:106B50002AF0B2F8002837D10127584604A929F0B5
:106B600053FE239B48F000520793219B584644F064
:106B700000540DA946F00056089709940A930B9704
:106B80000C92CDF834900E970F9629F03DFE5846A2
:106B90000AA929F039FE584607A929F035FE259B98
:106BA000584610A945F00055CDF840A01197129411
:106BB00013931497159529F031FE584613A929F01F
:106BC0002DFE584629F058FF17B0BDE8F08F212060
:106BD000FAE700BF00800120000005042DE9F04F16
:106BE00099B00F4614469B468046229EDDF8989049
:106BF000289D002800F0B280002900F0AF80279B7C
:106C0000002B00F0AB80BBF1000F00F0A780249BAD
:106C10001BB1239B002B00F0A1803CB1259B002BD6
:106C200000F09C80B9F1000F00F09880C6F10F03CE
:106C3000DBB2032B06D80121DB0001FA03F3A342E8
:106C400040F28C80022D00F089806B1E0F2B00F229
:106C5000858015F0010A40F08180F31F062B7DD856
:106C60003F4B09EB0401994278D23E4B3846C8E9C4
:106C7000003AC8F808A0C8F81CA015A929F072FFAE
:106C80000346002866D14046159929F0D1FD4046BB
:106C900045EA064129F0CCFD4046249929F0C8FD7B
:106CA0002146404629F0C4FD384603A929F0F9FFE2
:106CB000034600284ED1404603A929F0A5FD3846D9
:106CC00006A929F0F9FF0346002843D101274046D1
:106CD00006A929F099FD259B4046099344F00053ED
:106CE0000A9701930B93239B46F000560C93249B29
:106CF0000D9743F000510E910FA9CDF83CB01097BD
:106D0000119629F081FD40460CA929F07DFD4046F1
:106D100009A929F079FD019B404612A9CDF84890B8
:106D20001397149329F07AFD279B404615A945F047
:106D3000005515931697179529F066FD404629F0E2
:106D40009BFE034630B101902246514648462CF046
:106D5000E9FB019B184619B0BDE8F08F2123F9E744
:106D600000800120000006047FB50E461D46044643
:106D7000F0B102B9E3B901230192029345F0005347
:106D8000039300230B4AA360C4E90023E361204678
:106D900001A929F039FD3146204629F049FD204658
:106DA000294629F045FD204629F066FE04B070BD55
:106DB0002120FBE70000094330B5048804F4E043D8
:106DC000B3F5005F34D1C4F30223042B30D181F03A
:106DD000AA6383F4807333F47E1309D081F0AA632D
:106DE00083F4007333F47E130CBF0123002300E00F
:106DF00001230BB1C1F30543164D21F47E11A942C5
:106E000021D1B4F5105F1ED14188B1F5807F03D048
:106E100021F04001802919D1191F0C2916D8DB0750
:106E200014D4073A062A8CBF6FF08600002030BDCC
:106E300042F204039C4204D181F0052383F48013C1
:106E4000D0E70023D5E76FF08500F0E76FF086000C
:106E5000EDE700BF000140052DE9F04F2DED028B5D
:106E600099B08146DDE9287608EE102A1D468B464A
:106E7000DDF8A880DDF8BCA041B138B1249B2BB16E
:106E8000269B0BB9279B0BB91FB94EB16FF0860437
:106E900086E02EB1B8F1000FF8D02B9B002BF5D077
:106EA0002C9B002BF2D0BAF1000FEFD02E9B002BC1
:106EB000ECD02D9B002BE9D0B9F8003003F4E04270
:106EC000B2F5005F72D1C3F30222042A6ED185F0BD
:106ED000AA6383F4807333F47E1309D085F0AA6328
:106EE00083F4007333F47E130CBF0123002300E00E
:106EF00001230BB1C5F3054329464846259ACAF834
:106F00000030FFF759FF0446002849D120220146EE
:106F10000DEB02002CF006FB2022214610A82CF0DD
:106F200001FB08A829F0BBFD002858D118EE102A53
:106F30005946484610AB29F02DFF044600282FD1B2
:106F40002B9B9E424ED8DAF800302E9A934249D8B5
:106F5000474508D2BB19984505D2394632464046C6
:106F60002CF0C6FA4746214B25F47E159D4228D1C8
:106F7000DAF80030324606932D9B0397CDE904835F
:106F8000279B10A90293269B08A80193259B009399
:106F9000249BFFF76DFD21281BD0E8B92C9B1E60B8
:106FA000204619B0BDEC028BBDE8F08F42F204021E
:106FB000934204D185F0052383F4801392E70023E4
:106FC00097E76FF0880400232C9A1360CAF800300A
:106FD000E6E76FF08604F6E76FF09204F3E76FF0F0
:106FE0009204DDE76FF08904DAE700BF0001400595
:106FF0002DE9F04F99B08A46DDE92665934698461B
:1070000081462A9F28B96FF08604204619B0BDE852
:10701000F08F0029F7D0229B002BF4D0249B13B9CA
:10702000259B002BEFD10EB9002DECD117B92B9B6E
:10703000002BE8D12C9B002BE5D0289B002BE2D025
:1070400041464846239AFFF7B7FE04460028DCD1A4
:10705000202201460DEB02002CF064FA202221468A
:1070600010A82CF05FFA08A829F019FD10B16FF0F4
:107070009204CAE75A465146484610AB29F08AFEA8
:1070800004460028C1D12B9B9D422AD8BE4208D27B
:1070900073199F4205D231462A4638462CF028FA09
:1070A0003E46144B28F47E1898451DD1299B2A464C
:1070B0000693289B0396CDE90473259B10A90293A0
:1070C000249B08A80193239B0093229BFFF786FD36
:1070D000212898D02C280AD00028C8D12C9B1D60CC
:1070E00093E76FF0890490E76FF088048DE76FF005
:1070F00094048AE700014005084B984202D0084BEF
:10710000984207D10B88B3F5105F0CBF00206FF0D9
:10711000850070476FF08500704700BF0044400451
:107120000013C0042DE9F04F98460023A3B0824617
:10713000DDE92E75DDE93069CDE90633CDE90833A7
:10714000CDE90A33CDE90C33DDF8C8B005920491DE
:10715000002900F0E580002A00F0E28017B9002D38
:1071600040F0DE802C9B1BB92D9B002B40F0D8807B
:107170001EB9B9F1000F40F0D380BBF1000F00F051
:10718000CF8051464046FFF7B7FF044678B9014625
:10719000202212A82CF0C6F9202221461AA82CF091
:1071A000C1F912A829F07BFC28B16FF092042046A7
:1071B00023B0BDE8F08F5046DDE904121AAB29F088
:1071C000E9FD04460028F2D11A9829F09FFD0446F3
:1071D0000028ECD115B9CBF80000E8E7B7420BD294
:1071E0007B199E4208D24D4500F29A8039462A46C4
:1071F00030462CF07DF937464F4B98451BD003F5B0
:107200004073984517D04D4B984540F08C804D45C4
:1072100000F2868015F00F0240F082802B46CDE907
:1072200000761AA912A8FFF7F9FA0746002846D1F6
:10723000CBF80050BBE700234D45CDE90E33CDE937
:1072400010336DD83E4B98452D9B46D10D2B67D101
:1072500001238DF838302C9B0DF1390203F10C011C
:1072600053F8040B8B4242F8040BF9D11B781370CE
:1072700001238DF8473015F00F0825F00F0A55D07F
:1072800007EB0A030DF1280C03F1100E6246186893
:107290005968083303C273459446F7D1BAF1000F19
:1072A0002ED006AB01930EABCDE902760093524689
:1072B00000231AA912A8FFF709FB0746E8B14A46BE
:1072C000002130462CF02EF90023012FCBF800309E
:1072D0007FF46BAF6FF08B0469E7102B20D12C9BF0
:1072E0000DF1380C03F1100E624618685968083326
:1072F00003C273459446F7D1BDE7B8F1000F97D0AC
:107300000AAB029306AB06EB0A0201930EAB0392A3
:107310000093424600231AA912A8FFF7D7FA84E780
:107320006FF0860443E76FF0850440E7BAF1000F81
:107330003FF47EAFB5E700BF0010C0040044400436
:107340000013C0042DE9F04F994600239FB08246F8
:10735000DDE92865DDE92A78CDE90633CDE9083392
:10736000CDE90A33CDE90C33DDF8B0B005920491D4
:1073700029B96FF0860420461FB0BDE8F08F059B49
:10738000002BF6D00EB9002DF3D117B9B8F1000FCC
:10739000EFD1BBF1000FECD051464846FFF7ACFEF1
:1073A00004460028E7D1014620220EA82CF0BAF8A6
:1073B0002022214616A82CF0B5F80EA829F06FFB64
:1073C000002844D1DDE90412504616AB29F0E2FC56
:1073D00004460028CFD1169829F098FC04460028CE
:1073E000C9D115B9CBF80000C5E7BE420AD273195E
:1073F0009F4207D24545BCD831462A4638462CF034
:1074000077F83E46344B99454BD003F54073994588
:1074100020D0324B994556D1454557D82B07A8D196
:107420002B460122CDE9006716A90EA8FFF7F6F951
:107430000646CBF8005000289DD042460021384631
:107440002CF070F80023012ECBF8003041D06FF003
:10745000920490E70D3D454538D801238DF828303A
:1074600033460DF1290206F10C0153F8040B8B424F
:1074700042F8040BF9D11B780D36137000238DF8F8
:10748000363001238DF8373006AB01930AAB0093F9
:107490002A460023CDE9026716A90EA8FFF716FABF
:1074A000C6E7103D454511D833460DF1280C06F1CD
:1074B000100E624618685968083303C27345944633
:1074C000F7D11036E0E76FF0850454E76FF08904D8
:1074D00051E76FF08B044EE70010C00400444004F5
:1074E00013B50024064A6846536F43F001035367FF
:1074F00000948DF80440FEF7D7FD204602B010BD81
:107500000040005008B50248FEF722FC002008BDEC
:1075100000B4C40430B58BB06C46174D0FCD0FC40A
:107520000FCD0FC495E8030084E80300134BD3F894
:107530004C21120317D4D3F85041E4B28DF819400E
:10754000FEF74EFD204480F308008DF818000C482B
:10755000FDF700FD6846FEF74DFC3220FEF772FD98
:1075600000200BB030BD074B1C884FF6FF739C42C8
:1075700008BF8C24E2E700BF7C9103000080E00F8D
:1075800000F049020001E00F6FF00402502110B535
:107590000A480B4C12F0800FD3B21BBF03F00F034D
:1075A000043BA3181B1802F101020CBF83F800135F
:1075B00019763D2AEED1002010BD00BF00ED00E09D
:1075C00000E100E010B5044629F0E2F8024B1C602F
:1075D00029F0E2F8002010BD0433002010B529F096
:1075E000D7F8034B1C6829F0D7F8204610BD00BF20
:1075F0000433002013B513460C4618B90192FFF767
:10760000EDFF019B01462246044805F07DFE00285F
:10761000D4BF3720002002B010BD00BF8D0E030084
:1076200010B5002400F024F80348044B8460436044
:10763000FFF7C8FF204610BD083300204176000048
:1076400013B5064C23780093054B1B8829F03BFCAF
:1076500010B923780133237002B010BD0F690020E8
:107660001A160020014B1880002070471A160020BF
:1076700008B5074B1A6842B9012208201A6029F0A0
:1076800013F80449044802F089F9002008BD00BF3E
:107690001C330020E41000201433002030B51446C1
:1076A000054687B0104629F06DFC636902468342A7
:1076B0003CBFD4E903315B181B1A7BB10F49284644
:1076C00003910021CDE90131012304940093D4E911
:1076D000001328F0F5FF002007B030BD01226276CC
:1076E00094F82D20002AF6D084F835301321E36970
:1076F000204698472046636A9847ECE79D7600004D
:107700002DE9F04788B0044688461746994629F087
:107710004EF88246002F7AD0237E03F0FF02002B22
:1077200000F0A280204629F02DFC6669B04205D108
:10773000637ED4E903521544AD1B01E0F9D9851BE2
:10774000BD4228BF3D4629F032F894F82D30064658
:10775000002B6DD12A46404661692BF0BCFE63695F
:107760002F462B44636121E0037803F0FD011129CA
:107770005BD1216B814205D1A3F111014B424B41F9
:1077800084F83430013F6369216B01328B4203F18D
:10779000010308BF2363636195426069E4D1D4E9C2
:1077A0000323216B1344994200D122630025D4E9BD
:1077B000032361691344994208BF6261207A6576A8
:1077C000FDF716FE204629F0DDFB6369834232D1C6
:1077D000257694F82D30E568656103B12563204670
:1077E000636A9847214B2A46039300230293236937
:1077F000216801930123207A00930494636828F0A0
:107800005FFF207AFDF714FE304628F0D6FF504681
:10781000C9F8007028F0D1FFD9F80030002B0CBF58
:107820001B20002008B0BDE8F08708F8013BAAE75C
:107830002F460022B0E70123207A23760DF11E01A6
:10784000FDF75EFE9DF81E30002BDAD00DF11F0112
:10785000207AFDF72DFE9DF81F100029D1D1224678
:10786000207AFFF71BFFCCE71746D0E79D76000094
:10787000002808DB0123420900F01F0003FA00F092
:10788000014B43F82200704700E100E0002809DBCB
:107890000122430900F01F0002FA00F0024A60339F
:1078A00042F82300704700BF00E100E070B50446D5
:1078B0000568FFF793FE844202D10020FFF782FEA5
:1078C00095F93600FFF7E2FF95F93630002B0DDB16
:1078D00001215A0903F01F0301FA03F3184920326A
:1078E00041F82230BFF34F8FBFF36F8F95F9370008
:1078F000FFF7CCFF95F93730002B0DDB01215A093A
:1079000003F01F0301FA03F30D49203241F822303E
:10791000BFF34F8FBFF36F8F287AFDF7A9FD287A49
:10792000FDF70CFDFDF7E8FC00232846C4E9003311
:10793000C4E90433A360AB6ABDE87040184700BFD8
:1079400000E100E02DE9F0410C461546064686B000
:107950004022002120461F462BF0E4FD95E803005D
:1079600000232A692376EB6884E80300C4E9042332
:107970002A7DE36084F82C20AA7D2363012384F808
:10798000343084F835300C9B84F82D2023620D9B15
:10799000E76163620E9BA3622B7A84F836306B7AC0
:1079A00084F837302D4B346073602D4BB3602D4B12
:1079B00033612D4B73612D4BF360FDF7E5FC38B15E
:1079C0002B4B984204D01024204606B0BDE8F0812D
:1079D000002104F10800FDF75FFC07460028F2D102
:1079E0004FF00108234B3362234B84F83C80B36192
:1079F000224BF3619DF8403084F8390084F83B3025
:107A00009DF83C30204684F83A30697D84F838800F
:107A100029F0C8FA95F90900FFF738FF95F9090030
:107A2000FFF726FF164B0494CDE902732369CDE9D5
:107A300000836368E2682168207A28F041FE0446EA
:107A40000028C0D195F90800FFF720FF95F908003C
:107A5000FFF70EFF3046FFF7B5FDB5E7F50F030062
:107A600001770000730F0300790F0300AD78000069
:107A7000038000F0490F0300A50F03007F0F0300F0
:107A80009D7600002DE9F0414FF001081C46584B4F
:107A900086B00293574B0C9D0193574B17460093AA
:107AA0000A46CDE903882946544BFFF74BFF0646AB
:107AB000002876D1236804222B64237985F844308A
:107AC000A17985F84610607985F84500237A85F814
:107AD0004830E37985F84730A37A85F84A30637AED
:107AE00085F84930237B85F84C30E37A85F84B30B4
:107AF0004346FEF7E3FA43460222217AE079FEF795
:107B0000DDFA3E7039462068FEF708FD1421A27B9D
:107B10003B4B03EB4210C0F8AC1594F806C06179FA
:107B20002E3203EB421341EA0C415960227AE37989
:107B300043EA0243C0F8BC3585F84D607B7E032BD9
:107B400053D8DFE803F01F02324D0123002785F8E8
:107B50004D3000230222A17A607AFEF7AFFAA17AB3
:107B6000627AA37B42EA014241F2B4515B0103F124
:107B7000A04303F570335A500422236803F5805361
:107B8000DA65AFB963792A6C85F84530A3790521A8
:107B900085F84630D36C206843F00403D36428F0A2
:107BA0006EFE304606B0BDE8F081022385F84D3008
:107BB00000230422217BE07AFEF780FA41F2AC52E6
:107BC0000221A37B5B0103F1A04303F570339950BD
:107BD000217BE27A42EA014241F2B8515A50D1E7A0
:107BE0000323012785F84D30B3E72326D9E700BFEB
:107BF0001F11030013110300A311030097110300C9
:107C000000C0035010B51C46044B18682BF0E4FA72
:107C1000002820600CBF1B20002010BDEC100020AD
:107C200013B5064C23780093112329F04CF910B9B1
:107C300023780133237002B010BD00BF30690020EB
:107C400010B5FFF715FD0F4C20602BF0D3FA202262
:107C50000D4901230D4805F0D9FB0D4B18600D4B64
:107C6000204663600C4BA360FFF7ACFC28F090FD4E
:107C700001210446084601F019FE204628F08CFD3B
:107C8000002010BD2033002010690020AA910300BD
:107C9000EC100020217C0000057C000000F0FD03BA
:107CA000112B05D0182B03D0A0F17D03012B07D891
:107CB0000122044B80F020001A70034B18707D20C5
:107CC000704700BF3869002039690020F8B50E46BA
:107CD0001446204B00B3204A2049107000221A702D
:107CE00022700A704FF6FF721D4B1A801B4D2B78C5
:107CF000EBB91B4F3046398829F030FB164A3880E3
:107D00001378013BDBB213706BB901232B70304643
:107D1000BDE8F840FFF7C2BF1A78002AE6D0187015
:107D2000104B1878F8BD237801332370EFE7012B4F
:107D300005D102232B700A4B1888000AE8E7022BB2
:107D400004D103232B70064B1878E1E7FF237E2034
:107D50002370E7E738690020376900203A6900207E
:107D60005A5D0020396900202DE9F047394E8846D8
:107D7000337817465BB9384A1370384A1370384A5B
:107D80001370384A13704FF6FF72374B1A807D28F4
:107D90004FD02CD8182850D01A2852D00022314B5E
:107DA0002D4D1C781A702B78DFF8B490DF2B9CBF18
:107DB00001332B702B784440022B12D9DFF8A8A096
:107DC00099F80000BAF8001029F0C8FA2B78AAF840
:107DD0000000DF2B9FBF99F80020023B88F80020AD
:107DE0003B701E4B1A781C7089F8002006E07E2834
:107DF000D4D1194B1B781BB91A4A1370202011E0FB
:107E0000FF2B20D0184A1188154A1078134A12788F
:107E100002EB0022914218D1022B18D9DF2B8CBF24
:107E20007A200020A0F12002534253413370BDE874
:107E3000F08720200B4B1870F4E7FF22064B1A70D6
:107E4000DCE77420EEE77720ECE77620EAE779209C
:107E5000E8E700BF3169002036690020336900205F
:107E60003469002035690020585D002008B529F0EC
:107E700006FA044B08B1188008BD4FF6FF721A804D
:107E8000FAE700BF565D002010B5074C208850B1BE
:107E900029F0F5F92388C01A044B00B21B889842D8
:107EA000B4BF0020012010BD565D0020545D0020AD
:107EB0004FF07E624FF6FF732DE9F041B2F8467045
:107EC000B2F84460154D9F4208BF4FF448679E4288
:107ED00008BF4FF4C8762C88DFF8448050B16400A6
:107EE0002C802B88BB4215D92F800023A8F80030A6
:107EF000BDE8F081B8F80030002BF2D029F0BFF9CE
:107F0000B8F80030C4EBC404C01A80B204EB80049B
:107F1000E408E5E7B34238BF2E80E6E7545D002071
:107F2000565D002008B529F0AAF94FF07E634FF6A0
:107F3000FF72B3F85430934208BF4FF47A73184479
:107F400010F47F6FC0F3071208BFFF22014B1A70B5
:107F500008BD00BF3269002010B5084C237843B13A
:107F600029F08DF92378C3EB101003065CBF0023C2
:107F700023702078B0FA80F0400910BD32690020EB
:107F800007B502F05FF96A4602F0C2F918B1522152
:107F9000034800F06DFBDDE9000103B05DF804FB70
:107FA000C091030008B502F089F818B17A2102489F
:107FB00000F05EFB002008BDC091030008B500F092
:107FC0008BFA0E4A536A43F470235362EFF308832B
:107FD0004FF0CD310A4A043B93420BD20222094BA7
:107FE0001A6700F0DFFCFFF7DDFFBDE80840064838
:107FF000FEF716BB43F80419EEE700BF00ED00E002
:1080000000000020004000509090030007B50422BB
:1080100000200DEB02012BF0C2FF042804D040F237
:108020006711044800F024FB019800F067FC03B0DE
:108030005DF804FBC0910300102870B522D00DD864
:10804000032801D9002070BD013802281AD8DFE8C2
:1080500000F002172F000023022215E02038C3B2DF
:10806000032BEFD80328EDD801A353F820F000BF6D
:108070005780000081800000B1800000AD800000CA
:108080000123E9E7002303220B490C4D0C68002172
:10809000C8B28442D6D955F8200028B1067A964253
:1080A00002D1467A9E42CED00131F1E70323D3E7D5
:1080B00002231A46E8E700BF34A70300101100208E
:1080C00010B5FFF7B9FF044630B1037A022B03D194
:1080D00003680BB11B6823B940F23321064800F056
:1080E000C7FA23681B681B6C986900F44830A0F538
:1080F00000535842584110BDC0910300082310B5E9
:1081000048400A0A0649C0B200F00104400804B120
:108110004840013B13F0FF03F6D1504010BD00BFB3
:108120002083B8ED2DE9F0470025144C144FDFF8FB
:108130005890DFF8588022464946002057F8043B03
:10814000EEB228F0ACFE2378A2460134002BFAD11F
:108150009AF801307BB10B4906F00306032E08BFE5
:108160004146002028F09BFE9AF801300135002B93
:10817000E1D1BDE8F0874146F3E700BF7C9E0300F4
:10818000001000200392030006920300959503005F
:1081900040F605226A4B2DE9F0411B8893420ED828
:1081A000B3F5206F0DD840F20252934218D040F23E
:1081B0000172934220D040F2015293420AD0BDE8AE
:1081C000F081A3F602235F4C032B1ED8DFE803F0F7
:1081D000376396B25C490020BDE8F04128F05FBEED
:1081E00000205A4928F05BFE564B1A6C0020BDE86F
:1081F000F041574928F053BE524A0020D2E92423C7
:10820000BDE8F041534928F04ABE0020524928F009
:1082100046FE94F868309E0703D500204F4928F0A9
:108220003EFE94F86B305D0603D500204C4928F0E3
:1082300036FE94F96B30002BC1DA4A49CBE70020B7
:10824000494928F02CFE94F86430980704D00020A7
:10825000226C3F4928F023FE94F96430002B04DAA5
:108260000020226F414928F01AFE00250126404FC8
:10827000DFF80881626E06FA05F3134207D057F85B
:10828000252013781BB14146002028F008FE013557
:10829000082DEFD193E73749002028F000FE2C4944
:1082A0000020226C28F0FBFD94F86530590703D5B7
:1082B0000020314928F0F3FD94F96530002B04DAF1
:1082C0000020226F294928F0EAFD0825284E2B4F6F
:1082D000636EEB40DA0707D556F8252013781BB1FB
:1082E0003946002028F0DBFD0135102DF0D194F83F
:1082F000640000287FF463AF21496DE72149002025
:1083000028F0CDFD0020226C114928F0C8FD102571
:10831000174E1A4F636EEB40DB0707D556F8252042
:1083200013781BB13946002028F0B9FD01351A2D0C
:10833000F0D144E70020144928F0B1FD226C55E744
:108340005C5D002000100020109203004E9203009C
:108350007F9203009A920300B6920300CF9203002B
:108360000A9303003E9303007B930300A193030051
:10837000F09C0300C8930300E0930300BF93030045
:108380002794030058940300729403002DE9F04FE2
:10839000434C85B0636BD4F83CA05A0744BF002619
:1083A000B046D4F84CB05FBFD4F838A0D4F848B089
:1083B000D4F850803B4E54BFDFF81091DFF8109195
:1083C00013F0080F384B394A18BF1A46B6EB0807A6
:1083D0001FBF64237D0803FB0B55B5FBF7F50CBFEE
:1083E0003D46ADB24B4632490020CDE9016ACDF899
:1083F0000080BFB228F053FD2B460020CDE9009746
:108400002C491FFA8BF228F04AFDB24501D8C2452B
:1084100004D24A460020284928F041FDD4E9170338
:1084200018433AD00020254928F039FD00250126BF
:10843000234FDFF8A080E26D06FA05F3134207D060
:1084400057F8252013781BB14146002028F027FD5E
:108450000135202DEFD100250126194FDFF874805A
:10846000226E06FA05F3134209D007EB8503D3F811
:10847000802013781BB14146002028F010FD013503
:108480001D2DEDD100200F4928F009FD00200D49D8
:1084900005B0BDE8F04F28F002BD0B49F4E700BF7E
:1084A0000010002000100020A1940300A8940300F5
:1084B000B0940300E29403001C9503003B95030075
:1084C000889D0300969503006F9503009494030024
:1084D000999403006B95030010B5FDF70FFF044658
:1084E00028F084F90022012101FA02F3234018D078
:1084F000204B214933F81230062B18D040F20722C6
:10850000934211D14FF000524FF20F005488844231
:108510000AD11088984207D14CF23C33538008802E
:1085200010BD0132102ADFD1134A138012E04FF040
:1085300000534FF20F025888904218D11B88B3F5B0
:10854000406F28BF4FF4C0630B804CF23C324FF0B9
:1085500000535A80084B1A8840F201739A4201BFB7
:10856000064B074AD2E90001C3E90001D8E74FF4FE
:10857000C063E9E7489F03005C5D00202C330020C6
:1085800090100020014B1888704700BF5C5D0020F0
:10859000014B1888000A70475C5D0020164B1B8851
:1085A0001A0A13F0FF03104604D1012A22D140F029
:1085B00080007047072AFAD801A353F822F000BFC1
:1085C000F7850000AF850000E1850000E58500002B
:1085D000E5850000E9850000ED850000F1850000DB
:1085E0000920704702207047032070470B20704716
:1085F00006207047184670475C5D0020044B054814
:108600001B881A0AB3F5406F38BF00EB8200704731
:108610005C5D0020689F0300044B1888044B020A2D
:1086200053F82230C0B203EB800070475C5D00203D
:10863000589D030010B5044628F0B1F84FF00053E0
:108640004FF20F021C805A80BFF35F8FBFF34F8F32
:108650000549064BCA6802F4E0621343CB60BFF3DE
:108660004F8F00BFFDE700BF00ED00E00400FA05FA
:1086700038B504460D4600F0C7F928F090F82B46AF
:1086800022460549002028F00AFC29462046BDE87C
:10869000384028F071BE00BF859503006C4A2DE973
:1086A000F0416C4B55686C4C5D65516A99656B493E
:1086B000D1F80002D865D1F80412586B1966916A96
:1086C00010F0040F5966D16A4FF000009966116BE3
:1086D000D966516B1967D26BD8645A67D3E90E21FA
:1086E00008BF11465E4A91421A655DD301F1200030
:1086F000A04259D88869C5F308051864CE69062DCB
:108700005E6455D1574DA84252D3574DA8424FD21F
:1087100005884DF6426085424AD11868C3F890003A
:108720005868C3F8940040F20170A242154604D282
:108730002E680432B6F1CD3FF7D00022C3E91E22E5
:10874000C3E92022C3E92222641B434EDFF814C18F
:10875000DFF814E19C648E422DD8D3E91EC7D3E91B
:108760002065D3E922414FF0000E013AD2B2FF2A30
:108770003DD1BEF1000F05D0C3E91EC7C3E9206596
:10878000C3E92241B3F85430C3F308030C2B3CD89F
:10879000022B52D9DA1E092A4FD8DFE802F05532EF
:1087A00041444E4E4E4E4E4B0021C3E910112C4910
:1087B0004FF42060B9E756F8044D6445CBD37445B7
:1087C000C9D2E507C7D50625284F57F8048BA04521
:1087D000C1D0013D15F0FF05F7D10AB9052201E02E
:1087E000013AD2B202F11E0543F82540B3E7E04654
:1087F0004FF0010EBC4637462E4625460C464146F4
:10880000B3E740F60220BDE8F0813B2B15D1184BB1
:108810009B6913F0020F40F2025318BF1846F2E7AB
:1088200040F60320EFE740F60423B0F5206F08BFC1
:108830001846E8E740F60520E5E740F60722013B49
:108840004B2B98BF1046DEE740F60120DBE700BF68
:1088500000ED00E0001000200010002000E100E02A
:108860000000002034410000DA8F0300781000205F
:108870000080015A00F00CB800F00AB800F008B807
:1088800000F006B800F004B800F002B800F000B83C
:1088900072B61EF0080F09D01EF0040F0DD0DFF8DD
:1088A00050E0AEE8FF1F6FF002000CE0DFF840E0A0
:1088B000AEE8FF1F6FF00E0005E0DFF834E0AEE831
:1088C000FF1F6FF006006946EFF309828EE807008C
:1088D00086460848084C854501D3A54501D384F355
:1088E0000888FFF7DBFE84F30888FFF7A3FE00008B
:1088F00000100020400000200010002082B2074B32
:108900004AB1000C1A8008BF4FF6CE22044B14BFA8
:1089100018801A8070474BF6EF62F2E71C160020B1
:108920001E1600200B4BB3F900201888002AB8BF90
:1089300080F0620042001A80074AB2F900101388E2
:108940000029BCBF83F4805383F00B0359001180CE
:10895000584070471C1600201E16002008B501F074
:108960009FFE60B10A4B0344072B0DD8072B0BD891
:10897000DFE803F004060A080A0A0A0CC22008BD50
:10898000C320FCE7C420FAE7C520F8E7C120F6E7DA
:10899000FF1FFF0F024B9A6903F500539A6170475E
:1089A0000080015A1FB50D240021224668462AF096
:1089B000B9FD01238DF800300323104A8DF80940DA
:1089C0008DF80A30D2F800320D4C23F0070343F043
:1089D000010369462046C2F8003227F084FF4FF4B5
:1089E00000610223074A04F50050C2F88411836134
:1089F000516004F58054E36104B010BD0080005064
:108A00000080015A00E100E0014827F05BBF00BF91
:108A10000080015A10B5094A137813F002040CD1F2
:108A20000749084809780078884206D0064863F06C
:108A30007D03048005481370017010BD3E6900205D
:108A40003B69002043690020565D002040690020FA
:108A5000054B064A19881288914202BF0121044A37
:108A6000117000221A807047605D0020625D002056
:108A70004769002007B50346009102223D200349C3
:108A80002CF02AF803B05DF804FB00BFA59F03009B
:108A900007B5064B02221B783D2000930449812331
:108AA0002CF01AF803B05DF804FB00BF4569002004
:108AB000A59F030038B50C4D0C4C2A7823789A42B8
:108AC00000D138BD00210A482DF048FE094B1B8813
:108AD000834202BF0122084B1A702378013303F04E
:108AE00007032370E9E700BF3B69002041690020CC
:108AF0005E5D0020625D002047690020074B93F90E
:108B00000030002B08DB064A137803F041014029AE
:108B100004BF43F005031370704700BF4569002090
:108B20003E690020282307B5054A3D20CDE90032E3
:108B30000449702302222BF0CFFF03B05DF804FB41
:108B40003800E00F9E9F0300702807B504D103B0E2
:108B50005DF804EBFFF7E6BF074B02221B780749DD
:108B60000193074B1B78009303463D202BF0B4FF85
:108B700003B05DF804FB00BF48690020A49F030018
:108B80004569002008B50A4816F0CEFF094816F0DE
:108B9000CBFF094816F0C8FF084816F0C5FF084883
:108BA00016F0C2FFBDE80840064816F0BDBF00BF82
:108BB000605D0020665D0020685D00205E5D002035
:108BC000625D0020645D002008B5DC2200210448BD
:108BD0002DF025FD0122034B1880034B1A7008BDB0
:108BE0004A690020625D00204769002030B585B0E9
:108BF000FFF7EAFFFFF708FF4FF07E634FF6FF72C3
:108C0000B3F84C30224D934208BF4FF47A732B8057
:108C10000023204C2380FFF729F9FFF735F90028BE
:108C2000FBD04FF07E634FF6FF72B3F842309342B1
:108C300008BF4FF4C8632B8000232380FFF7AEFCEE
:108C4000431E154DDBB20A2B144C287019D8012293
:108C500002FA03F340F20352134212D00222C1235C
:108C60000290CDE900323D2084230D492BF034FFE2
:108C7000FF232B70D023237005B0BDE83040FFF7F1
:108C800051BFFFF74FFFA023237005B030BD00BFD9
:108C9000545D0020565D00203D6900203E690020A3
:108CA000A39F030037B504460D4617F02DF902289F
:108CB00025D840F217111B48FFF7DAFC1A4B197838
:108CC00001F14003DBB2022B1FD901F0A003A02B5E
:108CD00004D00B0619D57E20FFF7CCFE4FF07E6343
:108CE000B3F8403013B1204628F060FBB5B1002244
:108CF00021460E4803B0BDE830402DF0C8BC2046E8
:108D000017F002F9DC28D4D8D8E7CDE90014842381
:108D100002223D2006492BF0DFFEDFE72A462146EE
:108D20000448E7E7A99F0300266A0020665D00204B
:108D3000E79F0300685D00202DE9F74FFFF7A4F8D7
:108D4000AB4C48B32378580626D599074CBFA94B9E
:108D5000A94BAA4A1B7812789A4232D00120FFF719
:108D6000A7F87320FFF7F0FEA54A4FF6FF711378BE
:108D70000133DBB213704FF07E62B2F848208A42B2
:108D800008BF0322934219DD51229E4B72201A70B4
:108D9000FFF7DAFE202323709B4D9C4E94F90020B0
:108DA0002378002A18DA13F030030ED01A2028F0A6
:108DB0001CFB237803F07F032370EFE7FFF72AFE05
:108DC000EAE70022924B1A80E6E72A78022AF0D1DD
:108DD0008F4A2B701380E9E72A78012A00F0F78088
:108DE0000DD9931E012BD9D83178FF2900F02481A9
:108DF000002940F0F480874B19783246EDE09A075D
:108E000019D57C497D4A7C4892F800C007780A78D9
:108E1000ACEB0200BA1A02F0070200F00700904221
:108E200098BF81F800C00A78BA4204D123F0020347
:108E30002370FFF73FFE237813F0300F1FD013F09D
:108E4000200F744F15D0C2233B706E4B1B78BB7044
:108E500002237B702378032023F03C03237001233B
:108E60002B7032466B4B1978FEF730FF28F0BDFAB5
:108E700094E7C1233B70FFF791FBB870E8E713F06C
:108E80000C011FD0644F13F0040F3978614B0FD0E1
:108E90006039C9B219708020FFF7ECFD237823F008
:108EA0000C0301203A7823705C4B28701A70D8E7C5
:108EB00081F0800119707E20FFF7DCFD237823F01C
:108EC0000803EEE79B0737D5DFF82881544A98F866
:108ED0000030127801919B1A03F0070A27F067FC13
:108EE000019981464F482DF0CCFB0746DFF834B19D
:108EF000BAF1000F16D1484627F05FFC4A4B3846BE
:108F00001F8017F001F8444B98F800201B780130BF
:108F100043EA02133F4A43F0080313700323C0B22D
:108F20002B709EE7394658462DF0FDFB0AF1FF33C2
:108F300007465FFA83FADBE7304B4FF6FF7019788C
:108F40004FF07E63DB8F2C4F834208BF05233A78B6
:108F50000B44013B521A5B1A02F0070203F00703AD
:108F60009A42DFF8B48028DC30482DF085FBE0B968
:108F70002E482DF081FB2D4A2D4B0021002808BFE3
:108F800013462C4A184613602DF07BFB264B1880A5
:108F900016F0BAFF3A7898F80030013043EA02132D
:108FA0001C4AC0B213700223BAE721482DF064FBBB
:108FB00018B9FEF7D1FF0028DAD1184B1A7898F8C3
:108FC00000309A425ED0237843F00803F4E6337809
:108FD000FF2B4DD032460F49C95C002044E7124BAD
:108FE0000139C9B2188817F091F9014605E700BFA9
:108FF0003E69002040690020436900203B69002051
:109000003F6900203D690020496900204469002033
:10901000565D0020266A0020426900203C6900203D
:10902000416900205E5D0020645D0020665D0020D7
:10903000685D002034330020022A1CD1134A00212D
:109040001378013303F007031370114B18682DF0E8
:1090500085FB104B002219880F482DF018FB0F4B91
:109060001B880BB9FEF702FF0D4B1A780D4B1A70D7
:1090700000232B7092E60C4A1378013303F00703A8
:109080001370ECE703B0BDE8F08F00BF4369002028
:1090900034330020645D00205E5D0020565D0020BA
:1090A000426900203C690020406900202DE9F04F12
:1090B0008246DFF8FC9285B00023DFF8F882AAF838
:1090C000003098F800301BB989F80030FFF7C0FC79
:1090D000A94DAA4E0DF10E0028F08BF92728044661
:1090E00016D04A469DF80E000DF10F0199F800B018
:1090F000FEF73AFE10F0DF0704461BD0FFF7A8FC8E
:109100007A2827D8732807D82028DAD0272821D111
:10911000204605B0BDE8F08FA0F17404062C19D8E4
:10912000DFE804F00418444A184C4E007420FFF79E
:109130000BFDC6E799F800309B4506D0022B0FD8EF
:109140009DF80F208E4B03F80B20202CC2D0002C52
:1091500000F0FD8040F255118A48FFF789FAB0E728
:10916000032B10D1884B1A786AB12A880121304626
:109170001F7032802DF0A1FB012300933A46318805
:10918000824817F07DF82B8830889842DDD116F0A0
:10919000BBFEC7B2791C2846C9B22DF08EFB3946FA
:1091A0009DF80F20288817F0C5F8CEE77620FFF746
:1091B000CBFCFFF7A3FC84E77720F8E77920F6E7FC
:1091C0007A20F4E70A060DD4032B2BD933785B06FB
:1091D00004D56F4B1B78B3EB111F01D0FFF738FCA0
:1091E000012519E001F0E002802A06D1012B19D1F6
:1091F0007D20FFF73FFC02250CE0A02A06D1012BC1
:1092000010D17F20FFF736FC032503E07B20FFF71A
:109210009BFC0025FFF71CFC3078430604D4202378
:10922000337049E77C20F2E76B1E022B16D85949B0
:10923000DFF884B198F800700A789BF8003007F0E6
:109240000707A7EB020C9B1A0CF0070C03F00703AF
:109250009C4515D97820FFF777FC0025AB1E012B24
:109260002ED898F8003013F0080326D0FEF75AFEE7
:10927000032D69D0002D7FF41FAFFFF73FFC1BE7E4
:109280009742EBD00023444A10F002000F70137095
:1092900008D0424A1380424B1B78BB42DED0FEF717
:1092A000E5FDDBE7FEF704FE9BF80030BB4201D092
:1092B000FEF7DCFDFFF7FEFBD0E73A4A1370D7E775
:1092C000012DD5D1324998F800200B78C2F3021055
:1092D00098422DD1294D288830B92620FFF70EFC61
:1092E0002624FFF731FC13E7013303F007030B706B
:1092F0004FF07E63170742BF327842F008023270A7
:10930000327822F005023270B3F840300BB128F009
:109310004DF82B880222019398F800303D200093ED
:10932000214985232BF0D8FB2B88AAF80030EFE6E3
:109330001107337802D543F0080371E7DA079CD4AC
:109340007520FFF701FC98E7FFF764FBB4E6DFF850
:10935000308099F8003098F80010144EC0297FF43E
:1093600031AF012B7FF45EAFFFF792FB0425FFF7CF
:109370008FFB27F099FF4DE7625D0020605D0020C4
:1093800045690020A99F0300476900204669002025
:10939000426900203B6900203F690020565D0020A3
:1093A0004069002032690020E79F03003E690020E9
:1093B00048690020316900204369002008B5114B3D
:1093C0001B781BB1002000F0010008BD0E4B1A787D
:1093D0000E4B1B789A42F5D111F034FE0028F1D1E2
:1093E0000B482DF049F90028ECD00A482DF044F93B
:1093F0000028E7D0084B1B78002BE3D10120FEF7B3
:109400005FFEE0E7316900203C69002042690020EE
:10941000685D0020665D002049690020F0B519B341
:10942000002820DA2D23B0F1004F137000D0404205
:10943000012119E0801B8642ECB205F10105F9D942
:1094400014B9BCF1000F05D04FF0010C4D1C3034A5
:109450005454E9B2013B13F0FF0309D130305054AA
:10946000481CC0B2F0BD002109234FF0000C024F90
:10947000002557F8046BDEE7EC9F03002DE9F04F61
:10948000002495B02146029480461646A146442207
:10949000274603A802AC9B4625462AF043F80DF167
:1094A000480A317859B9641BE4B2224629460020A3
:1094B000C047002840F0AF803C44E0B2ACE0252932
:1094C0001AD0B9F1000F1BD1204600F8011B044649
:1094D0005445C0F0F580641BE4B2294622460020C2
:1094E000C0470146002840F096802744482228467D
:1094F000FFB22AF017F8E2E0B9F1000F00D101360F
:109500003278782A06D8612A07D8252A5DD039D83A
:10951000002AC8D04FF00009DAE7A2F1620116294B
:10952000F8D801A353F821F0D79500006996000000
:10953000C5960000159500001595000015950000D2
:109540001595000015950000159500001595000073
:10955000C5960000159500001595000015950000B2
:109560007B96000015950000159500007B96000085
:1095700015950000C5960000159500001595000092
:10958000BB950000392A16D82F2AC3D9717801F06B
:10959000DF01582940F0C380322A06F1010940F06A
:1095A000AB805BF8041B2046042289B227F031FF10
:1095B00004464E46AEE7582AACD15BF8041B0222A3
:1095C0002046C9B227F025FF55E0214601F8022BBD
:1095D00062700C469EE74FF00009DBF80030019303
:1095E000DBF804300093009B994502D10BF1080B86
:1095F00090E7019B2046022213F8091027F009FF8B
:109600005045044612D3441BE4B2294622460020AA
:10961000C047014618B1002015B0BDE8F08F4822C0
:109620002846274429F07EFF2C46FFB2009B5A1E95
:109630004A4581BF2046202200F8012B04465445AC
:109640000FD3641BE4B2294622460020C0470146DE
:109650000028E0D148222846274429F063FF2C4601
:10966000FFB209F10109BEE75B4653F8042B20461F
:109670009B4600F8012B04464CE7621BD2B22946F8
:1096800000205BF8049B0092C04704460028C2D12A
:10969000009A0146174428464822FFB229F042FFAB
:1096A000E2B219F8020001340028F9D149460092CB
:1096B000C0470028AFD18146009A1744FFB22C461C
:1096C0000136EEE66C2ADBF800000BF104090ED13E
:1096D0007378752B14BF0121002101D0642B00D1B8
:1096E00001362246FFF79AFECB46044412E7752A5C
:1096F0000CBF00210121F4E7342A10D15E4656F850
:1097000004BB04224FEA1B41204627F082FE1FFAC9
:109710008BF1042227F07DFEB346044649E74FF063
:109720000109D5E6054B1A782AB95B78002B14BFDE
:109730000220032070470120704700BF316A0020DB
:109740000329F8B598BF124B05460E468CBF00247E
:109750005C5C032805D8DFE800F002080B0E44F03B
:1097600002040C4B1F684FB9F8BD44F00804F8E739
:1097700044F02004F5E744F08004F2E77B681A68BF
:10978000144203D0314628465B6898473F68EAE7B1
:1097900010A003005C33002038B5104D2B78ABB11E
:1097A0000F4C23781BB100F00FFB00232370002027
:1097B00027F04EFE0B4C50B100F058FB0023012166
:1097C00020782B70FFF7BCFF0123237038BD0122E6
:1097D000054B1A702278054B1A70F7E7306A0020A3
:1097E0002B6A0020296A00202F6A0020356A002099
:1097F00010B526F0CDFF064B04461B781BB1BDE823
:10980000104026F0C9BFFFF7C7FF2046F7E700BFAB
:109810002A6A0020002814BF0121FF21074A13787B
:109820000B44137008D0064B1B78012B04D9054B51
:109830001B780BB9FFF7B0BF704700BF316A00203B
:10984000296A00202F6A002070B526F0A1FF124E71
:10985000054633789BB900F031FC044620B1284618
:1098600026F09AFF204670BD0C4826F00DFF00F050
:10987000D7FE0B4B1C6000F0FFFC0A4B186000F099
:10988000B3F927F0E7FD084B0024186001232846B0
:10989000337026F081FFE5E72C6A00205C3300205E
:1098A00064330020603300205833002000292DE964
:1098B000F34114BF0121FF21254A00F1FF30135C61
:1098C0000B4413543AD0234E3178012936D9FFF78F
:1098D00029FF0128044634D81F4F26F059FF3B7852
:1098E0001BB31E4D2B781BB901222A701C4A137022
:1098F000DFF8708098F8003033B1019000F064FA1E
:109900000023019888F8003026F046FF012027F058
:109910009FFD26F03DFF2B782BB1019000F0A6FAB9
:10992000002301982B7000233B7026F035FF307820
:10993000844203D02146FFF703FF347002B0BDE834
:10994000F0810329F3D10228F1D127F087FDEEE75A
:10995000316A0020296A0020306A00202A6A00202B
:109960002F6A00202B6A002068B526F011FF094BF2
:1099700006461B78012B04D826F00EFF002528464A
:1099800068BD054B1D6800F0AFFA0544304626F06F
:1099900003FFF4E7296A00206433002038B54160F2
:1099A000044626F0F5FE05462146044826F06FFEE3
:1099B0002846BDE8384026F0EFBE00BF5C330020EB
:1099C000054B1B685843054B00F5742000F23F20FF
:1099D000B0FBF3F0704700BF6033002040420F003F
:1099E0002DE9F04385B0EFF3108672B600E000BFBA
:1099F00029F041FC002800F08980674D674F2B78E3
:109A000023B10020FFF706FF00232B70FFF78AFE2B
:109A10000446002800F08180841EE4B2012C40F24C
:109A20008380FFF77FFE0128804604D95C4B1B78BA
:109A30000BB900F067F95B4CDFF88891207840455E
:109A400007D099F8003013B94146FFF779FE84F842
:109A50000080B8F1010F0FD9DFF8448198F8003089
:109A600053B9514B1B7823B900F0A8F901224F4B91
:109A70001A70012388F80030207800F01FFA99F856
:109A8000003013B14A4B1B78237000E000BF06B9C9
:109A900062B6EFF3108672B6464B1A7852B10022C6
:109AA0001A70434B20781B78984203D10121217012
:109AB000FFF746FE384600F03BFB29F0F1FB8046FD
:109AC00000289CD1364F3B789BB189F80000DFF825
:109AD000DC9099F800301BB100F076F989F800802D
