:1040000000100020394E00005D7B0000617B000045
:10401000FBF90200657B00006D7B0000FBF90200EC
:10402000FBF90200FBF90200FBF90200FBF90200B8
:10403000717B000010860300FBF90200FBF902000F
:10404000FBF90200FBF90200FBF90200814D0000C0
:10405000FBF90200FBF90200FBF90200FBF9020088
:10406000FBF90200FBF902007D98000019C800006E
:1040700007260300FBF90200FBF90200FBF902002E
:10408000FBF90200FBF90200FBF90200FBF9020058
:10409000FBF90200B5550000FBF90200FBF9020034
:1040A000FBF90200FBF90200FBF90200FBF9020038
:1040B000FBF90200DD3C0300FBF90200C9500100DE
:1040C000E33C0300DF3C030089480100EF3C0300B0
:1040D000E73C03008D500100EB3C0300CD350100AF
:1040E00009510100FBF90200FBF902007D7C000090
:1040F000FBF90200FBF90200FBF90200FBF90200E8
:10410000FBF90200FBF90200FBF90200FBF90200D7
:10411000FBF90200FBF90200FBF90200FBF90200C7
:10412000FBF90200FBF90200FBF90200FBF90200B7
:10413000FBF90200000000002DE9F04F2DED088B87
:104140008DB09DED1E7B09EE903ADDE920430A9388
:10415000229B09EE100A8A460792069351EC170B30
:1041600053EC172BB0EE478AF0EE678A08F0A2FFF7
:1041700080B14FF0FF3251EC180BCF4B08F0C2FF6B
:1041800040B94FF0FF326FF4801351EC180B08F078
:104190009BFF98B1069B514622930A9B19EE100A89
:1041A000CDE9204319EE903A079A8DED1E8B0DB0A4
:1041B000BDEC088BBDE8F04F00F0A2B9002200234F
:1041C00051EC180B08F080FF002800F0448118EE35
:1041D000903A18EE108A03F10049069BC9F30A5081
:1041E00013F48063A0F2FF3008BF06240B9308F09D
:1041F0008FFCA1A3D3E9002308F0F4FCA0A3D3E92A
:10420000002308F039FBC9F313050F4645F07F5131
:1042100006460022A94B404641F4401108F02AFB13
:1042200099A3D3E9002308F0DDFC02460B46304693
:10423000394608F021FB08F06FFF834608F068FC60
:1042400093A3D3E9002306460F4608F0CBFC0022D7
:104250009B4B08F011FB08F05FFF8FA3D3E900230D
:1042600005463946304608F0BDFC064628460F464E
:1042700008F04EFC8AA3D3E9002308F0B3FC024601
:104280000B463046394608F0F5FA02460B4606461C
:104290000F4608F0A7FC324641EC1A0B3B4630466D
:1042A000394608F0E9FA002241EC1B0B854B51EC32
:1042B0001A0B08F0C1FD0022834B08F0DDFA02461C
:1042C0000B4651EC1A0B08F0B7FD00227F4B08F0AB
:1042D000D3FA02460B4651EC1A0B08F0ADFD3246FC
:1042E00041EC1A0B3B4600204FF0804108F0C2FA27
:1042F00002460B4651EC1A0B08F0BEFA02460B467A
:1043000051EC1B0B08F098FD05F2FF350022704BB5
:1043100008F0B2FA00222B0508F064FC42464B4636
:1043200006460F4608F0EEFE002840F09780CDE9E3
:1043300008670BF16303C72B069B34BF04250525D3
:10434000190521D558A3D3E900234046494608F072
:10435000CFFE002800F0BE8055A3D3E900234046DD
:10436000494608F0B1FE002800F0B48000255C4505
:10437000CCBFA4EB0B000024AB46069BC8BF00F1EA
:10438000FF3443F4806306930A9B9D4238BF5E1B53
:10439000069B28BF002613F0020702D0002D18BF8D
:1043A0000026BBF1000F07D0DDE90823404649464F
:1043B00008F042FD804689460022002351EC180B8C
:1043C00008F082FE10B109F100439946069B514660
:1043D00023F40063CDE9036319EE100A19EE903A55
:1043E000CDE90089079A029400F08AF875B3069B1C
:1043F000024613F0200F00F1010619EE903A14BFA7
:1044000045206520514619EE104AA0470523002299
:1044100005930A238BEAEB70CDE90232A0EBEB7037
:104420004FEADB73013D0193009019EE903A32465A
:10443000514619EE100A04952DF0F3FF37B1079B92
:10444000C51A079B58190A9BAB424CD80DB0BDEC5E
:10445000088BBDE8F08F59EC188BBEE60022304681
:104460003946194B08F0E8FC0BF1FF3BCDE9080198
:104470005FE700BFAFF30080FB799F501344D33F49
:10448000B3C8608B288AC63F61436F63A787D23F5A
:1044900071A379094F930A401655B5BBB16B024021
:1044A000EF39FAFE422EE63F2D431CEBE2361A3F6F
:1044B0000000000080842E41FFFFEF7F0000F83FE6
:1044C0000000E03F00002C400000244000001840A5
:1044D0000000F03F002C3FF457AF0B9B002B3FF444
:1044E00053AF013C50E7024619EE903A5146202066
:1044F00019EE104AA0470135A3E700BF00000000F5
:104500002DE9F04F2DED088B8FB0DDE920AB08EEE3
:10451000100A0F4608EE902A09EE103ADDE9225300
:104520005246049350465B465946249E08F0C2FD0D
:10453000A0B9049B2396229303232193B84B209385
:1045400018EE902A19EE103A394618EE100A0FB0FC
:10455000BDEC088BBDE8F04F2DF09BBE4FF0FF3255
:104560006FF480135046594608F0AEFD30B1049BFD
:104570002396229304232193AA4BE0E74FF0FF32C6
:1045800050465946A84B08F0BDFD70B1A74A06F049
:104590000403002B08BF0322A54B1CBF13460422B3
:1045A00004992396CDE92121C9E7504698A3D3E980
:1045B0000023594608F0A6FD38B997A3D3E9002394
:1045C0005046594608F080FD98B1049B18EE902A99
:1045D000CDE92253394619EE103A18EE100ACDE90A
:1045E00020AB24960FB0BDEC088BBDE8F04FFFF771
:1045F000A3BD002200235046594608F065FD00285F
:1046000000F081805B4652460020002108F032F91C
:10461000012382468B46059316F4806F08BF06255A
:104620003021A94606ABA5F12002B9F1090FA5EB8F
:10463000090406D909F1FF394A4503F8011BF4D1F1
:1046400020245946504608F067FD7A4B054603EB97
:10465000C90393ED007BB0EE47AAF0EE67AA08F01D
:1046600057FA02460B465046594608F003F953ECF8
:104670001A2B08F0B7FA02460B4643EC1B2B08F046
:1046800073FD804608F034FA02460B4651EC1B0BD2
:1046900008F0F0F802460B4643EC1B2B0022664B59
:1046A00008F030FD88B308F10108404608F020FA10
:1046B00002460B4651EC1A0B08F010FD10B14FF0FA
:1046C00000080135B9F1000F51D1284608F020FA51
:1046D00002460B465046594608F0CCF80022564B8D
:1046E0008046894608F0F0FC30B100224046494639
:1046F000514B08F007FD10B1E80700D5013506ABB6
:104700000A2223445AE0059086E7002251EC1B0B55
:10471000494B08F0D9FC0028D4D1B8F1000F02D0E1
:1047200018F0010FCED008F10108CBE7B8FBF1F08B
:1047300001FB1082B8F1090F02F1300209F1FF39D3
:1047400004F1010403F8012B28D83021A14406AA62
:10475000202C11D04C4504F1010321D104F1380281
:104760000DEB02042E2204F8202C1C46C7E70A2178
:1047700006AB2344202CD9D106F00303012B06AB52
:1047800039D1049A002A36D0059A12B916F00C0FC6
:1047900002D0049A013A0492302214E08046E9E7FC
:1047A000A1541C46D4E795FBF2F102FB11553035BC
:1047B00003F8015B01340D460029DDD0202CF2D135
:1047C000DAE71A5501340499A14214D9202CF8D102
:1047D000049A0093CDE9014219EE103A18EE902A9E
:1047E000394618EE100A03962DF053FD0FB0BDECBC
:1047F000088BBDE8F08F202CEAD0059AF2B12D216C
:1048000004F138026A4402F8201C0134E0E700BFDA
:104810000000000065CDCD410000000065CDCDC198
:10482000598E03005D8E0300FFFFEF7F548E03005F
:10483000508E0300688E03000000E03F710704D52E
:1048400004F138022B216A44DDE73207C0D504F1B8
:10485000380220216A44D6E770B58EB02C220021A0
:1048600003A82EF02DF864234FF0023201210893A3
:104870008DF81010CDE905230B238DF83430504B03
:104880001B88D80700F1958008464E4C17F052FD62
:104890004D4B0A224D494E481A704FF42873ADF81B
:1048A000123010F0ABFC206020B940F227214948BB
:1048B00003F052F8052120682EF0F0FC20B140F200
:1048C0003221444803F048F820680C2507F0B6FF71
:1048D000414B206819682EF059FD18F005FC68431B
:1048E000099018F001FC68430DEB05010790206862
:1048F0000AF050FF20B140F24721364803F02CF86F
:104900000022364920682EF0CBFD20B140F249212B
:10491000304803F021F8324E40F20353314D96F9FE
:1049200000002B8005237F28AB7001D117F0FCFD20
:104930003378EB7018F0D8FB00EB80008000A88083
:1049400018F0D2FB0023C0004FF0FF31E8804FF099
:10495000FF30AB6018A3D3E9002317F0BDFE224956
:1049600020682FF055FA02A920682EF078FD20B1BA
:104970004FF41F71174802F0EFFF042220680DEB7F
:1049800002012EF0F0FC042804D040F27F211148EF
:1049900002F0E2FF01A9012030F0AEFB03F022F9A2
:1049A000012018F015FE2BF0E4F918F049FE17F07D
:1049B0002DFE0EB070BD00BF0A0020FF42030000B4
:1049C00054680020905C00200F6E002061C301003D
:1049D000DC120020B7AD030004110020166E002089
:1049E0007E1600207C5C002041C4010010B5054CFF
:1049F000237833B9044B13B1044800E000BF01230E
:104A0000237010BD382A00200000000030B60300DB
:104A100008B5034B1BB10349034800E000BF08BDC4
:104A2000000000003C2A002030B60300A3F5803AC5
:104A3000704700BF174B002B08BF134B9D46FFF775
:104A4000F5FF00218B460F461348144A121A2DF029
:104A500037FF0E4B002B00D098470D4B002B00D09A
:104A600098470020002104000D000D48002802D0C6
:104A70000C4800E000BF08F043FD200029002DF0A5
:104A8000E0FE08F029FD00BF000008000000000063
:104A90000000000000100020A8240020886E0020E4
:104AA0000000000000000000BFF34F8F0549064BD7
:104AB000CA6802F4E0621343CB60BFF34F8F00BFBC
:104AC000FDE700BF00ED00E00400FA0500239B6A4B
:104AD000B3F5804F03D21968064A914203D00023F0
:104AE000037083607047012202709A689B6942607C
:104AF000F7E700BF07B0CD5E73B5494B04461A789F
:104B00001AB102221A7002B070BDCDE9002200284D
:104B1000F9D001261E702BF02DF8424D424B186043
:104B20000DF02EFC2B785BB900F07EFD40B93F48BC
:104B300008233F4A3F4900680AF042F800B92E7046
:104B40003D4B5A68E2603D4A9A601A6E22605A6E86
:104B50006260D3F87021A2601B6E5C0440D5384AB5
:104B6000D368D807FCD4374B1A68531C3DD04FF498
:104B700080139340344A13660423334C23664FF466
:104B8000806323662AF009FF01300ED02AF005FF6A
:104B900040F20113984208D04FF4804323664FF44B
:104BA000004323661023C4F870311023264C4FF0C5
:104BB000804223664FF400536846236601A92266AB
:104BC00063662AF0CFFE009B2366019B63662B7809
:104BD000002B98D0164B1A6822665B68636692E7D2
:104BE0001A4AD368D907FCD4BDE7194B1B78002BB0
:104BF000C2D1184B5A68144B12B94FF480121A667E
:104C0000154A526812B94FF400121A66134B5B68CA
:104C1000002BB1D14FF480020B4B1A66ACE700BFFA
:104C2000FA680020F86800206C2A0020B0100020EC
:104C3000642A0020007108000080004455CEAC00BA
:104C40000000044098100020009000440000045030
:104C5000F96800200080055000C005500000065093
:104C600038B5224D04462B78012B02D001232B703E
:104C700038BD0028FCD02AF090FE013009D02AF07F
:104C80008CFE40F20113984203D0194AD368DB0727
:104C9000FCD42268174B1A6662685A66A268C3F889
:104CA0007021E268D40744BF00229A60124B1A6850
:104CB000013213D1114A127882B911494968C807E3
:104CC00048BF1A600F4A5268D10744BF01221A60D8
:104CD0000D4A5268D20744BF02221A600DF058FBF9
:104CE0000A4B18682AF04CFF0023C0E7FA6800203E
:104CF000000004400080004498100020F968002063
:104D00000080055000C00550000006506C2A0020AD
:104D100070B50024A36AB3F5804F22D21A68124BF3
:104D20009A421ED1114E337813F0FD0517D1104869
:104D3000FFF7E2FE08214FF480330E4A0E48C2F816
:104D40008011C36011600D4A1361AB6ADB6998473B
:104D500004460748FFF784FF0CB90123337020464F
:104D600070BD4FF48174FAE707B0CD5EF96800209A
:104D7000542A002000E100E000A00044009000441C
:104D800013B51F4B1B7803B9FEE700231D4CCDE97B
:104D900000336A4608231C49206809F011FFF0B966
:104DA0001A4AD2F84031D2F840211F2B4FF00103AC
:104DB00010D9203A9340019A1343019308236A467D
:104DC0001149206809F0B2FE4FF00053104A1A60F2
:104DD000FFF76AFE9340009A13430093EEE70D4BF2
:104DE0009842F1D1094AD2F84031D2F840211F2B24
:104DF0004FF0010302D9203A9340DEE79340ECE7FD
:104E0000FA680020B0100020007108000080004403
:104E10000B020FF00BE000F005490A681318054873
:104E200083428CBF4FF0FF320B601046704700BFCB
:104E30009C1000200080012008B500F02DF8124BD6
:104E400012498B4212D30020114B12498B4218D3C6
:104E5000FFF7F0FD186850F82240586840F82240EB
:104E6000013298688242F5D30C33EAE70022F8E772
:104E70001C6844F8220001325C68A242F8D308336F
:104E8000E4E70022F8E700BF38B6030044B60300A9
:104E900044B6030044B603006FF00100104B114A02
:104EA00010B59A60D3F888200F4942F47002C3F815
:104EB000882001F50052106641F2FF705066022012
:104EC000C3F8D000BFF34F8FBFF36F8F08244FF4A8
:104ED00040330648C0F88041D36004600B6110BDC8
:104EE00000ED00E0004000000080004400E100E030
:104EF000014B1868704700BFA4100020014B1860D8
:104F0000704700BFA4100020084B1B6F03F007037D
:104F1000022B04D0032B05D0012B05D0FEE7044B58
:104F200018687047034BFBE7034870470080005048
:104F3000A4100020A8100020002D310108B5FFF7B3
:104F4000E3FF054B1B6FC3F301330133B0FBF3F0F9
:104F5000024B186008BD00BF00800050A010002068
:104F60000048704700B4C404014B1868704700BF84
:104F7000A8100020054B1860054B1B6F03F00703BA
:104F8000032B01D1FFF7DABF704700BFA810002044
:104F90000080005000487047002D3101174B986881
:104FA000C0F304400C2822D8DFE800F009212121B9
:104FB0002121071719211B1D1F00114870479B68ED
:104FC00003F04073B3F1807F13D0B3F1007F12D0B0
:104FD0000C4A002B08BF104670470B4870470B481F
:104FE00070470B4870470B4870470B4870470020CC
:104FF00070470A4870470A48704700BF0040015A8E
:10500000405DC60000093D000024F400C0EA210113
:1050100080BA8C010048E801005A620280841E00B8
:1050200040420F00014B1868704700BFAC100020D1
:1050300008B5032101230422002001F061F80020BB
:105040002AF0B6FD0122244B0C20C3F84424234A45
:10505000D2F8803043F00303C2F8803000F052FDF4
:105060001F4B00F5D520D3F8F02000F2FC4042F0B1
:105070000102C3F8F020D3F8FC2042F08072C3F89C
:10508000FC20184AA3F55D431A60174B0222B0FBBF
:10509000F3F0164B01381861C3F8F0204FF480721A
:1050A000C3F804234FF06043114A0020C3F8B02F27
:1050B000104AC3F8802ED3F8002E42F48072C3F851
:1050C000002EFF2283F82020D3F8002E22F48072D5
:1050D000C3F8002E08BD00BF00D003500080005070
:1050E00000ED00E0FF030040F8590D00000004E06F
:1050F00055CEACC5090001004FF06043D3F8802EB7
:1051000030B5D20715D501240B4D8440D5F8FC20CD
:1051100042F08072C5F8FC20D3F8002E2243C3F879
:10512000002E53F82020002AF0D003F82010002091
:1051300030BD1120FCE700BF00ED00E010B50122FA
:1051400043780178847830209A40054B00FB013386
:105150001CB942F210015A5010BD41F21001FAE799
:1051600000C0035010B501224378017884783020C4
:105170009A40054B00FB01331CB941F210015A5013
:1051800010BD42F21001FAE700C003502DE9F04FC4
:105190009A46564B85B01B7806460F461546DDF8F5
:1051A0003C909DF844B0DDF85080002B00F08D80DD
:1051B000072A00F28C800E9B002B00F08880B9F14A
:1051C000000F00F08480129BB3F5006F7FDC012894
:1051D00002D1109B002B7AD0454B03EB05131B7BB0
:1051E000002B76D0434C1022002168462DF068FB3E
:1051F00004EB45141022002F59D1394620462DF0DA
:105200005FFB43F210036380BBF1000F03D1E3782F
:1052100043F00303E370374A0E9B02EB451CCCE9D5
:105220000193129B6901013BC3F30A009DF84C30C6
:10523000012E03F003034FEA836343EA001E535831
:105240002D48CDF800A000EA03004EEA00035350B9
:1052500041D113230CF1100ECCF80C309CE80F0058
:105260008EE80F006FF00301DCF81C20109B61F347
:105270009F02012FCCF81C20CCF8143003D1CCF8BD
:105280001890CCF804300027194A290102EB0513C5
:1052900042F80180159A28465A60694622469F6066
:1052A0005E7300F0BBFF384605B0BDE8F08F00210B
:1052B00020462DF005FB4FF444736380BBF1000FD3
:1052C000A9D1E37843F03003A4E70C48ECE70C489D
:1052D000EAE70C48E8E7B8F1000FD4D19CF80230B7
:1052E00068F304138CF80230CDE700BFFB680020A0
:1052F000702A0020F02A00200F80FFF3028000F0C7
:10530000018000F0078000F038B5124B05461B788D
:10531000DBB1E0B12AF02EFC0F4A00231146147BCA
:1053200054B92B6001251A0101EB03131D738C5036
:105330002AF026FC204638BD0133082B02F110026A
:10534000EDD12AF01DFC0548F5E70548F3E70548CF
:10535000F1E700BFFB680020702A0020048000F005
:10536000028000F0018000F013B52AF003FC002356
:105370000B4A147B7CB90133082B02F11002F8D1DF
:10538000019000F0FFFE074B01981C702AF0F8FB1B
:10539000204602B010BD2AF0F3FB0348F9E700BF36
:1053A000702A0020FB680020058000F00D4B10B52E
:1053B0001B78044693B1072812D82AF0DBFB0A4B6E
:1053C00003EB04131A7B2AB100241C732AF0D8FBC8
:1053D000204610BD2AF0D4FB0448FAE70448F8E759
:1053E0000448F6E7FB680020702A0020068000F0E1
:1053F000028000F0018000F0154B13B518680023FF
:1054000001908DF804302AF0B5FB124B1C7824B1C2
:105410002AF0B6FB104802B010BD01221A702AF023
:10542000AFFB0E4B01A81C731C7783F82C4083F84C
:105430003C4083F84C4083F85C4083F86C4083F830
:105440007C4008238DF8073000F0BEFE2046E2E7DE
:1054500060860300FB680020038000F0702A0020B3
:105460000A4A08B512785AB107280BD8084A02EB45
:1054700000131B7B43B1002100F098FE002008BD03
:105480000448FCE70448FAE70448F8E7FB68002012
:10549000702A0020028000F0018000F0078000F0F8
:1054A0000A4A08B512785AB107280BD8084A02EB05
:1054B00000131B7B43B1012100F078FE002008BDE2
:1054C0000448FCE70448FAE70448F8E7FB680020D2
:1054D000702A0020028000F0018000F0078000F0B8
:1054E0000A4A08B5127852B107280AD8084A02EBCE
:1054F00000131B7B3BB100F0DFFE002008BD054818
:10550000FCE70548FAE70548F8E700BFFB6800201C
:10551000702A0020028000F0018000F0078000F077
:105520000D4B1B7893B1072812D889B10B4B03EBB5
:1055300000131B7B73B10A4B1A6D012303FA00F0B1
:1055400010401ABF00200B70087070470548704764
:105550000548704705487047FB680020702A002006
:1055600000000450028000F0018000F0078000F08D
:105570000B4A10B512780C4662B107280CD859B105
:10558000084A02EB00131B7B43B100F0A7FE20701A
:10559000002010BD0448FCE70448FAE70448F8E797
:1055A000FB680020702A0020028000F0018000F0DB
:1055B000078000F02DE9F843174B1F6D5B6D1F400E
:1055C00000D5FEE701260025144CDFF85480DFF8F3
:1055D0005490374217D02368C8F850609BB1A16837
:1055E000284601316268A1609847637B012B0AD18C
:1055F00048B909EB45131A7B60F341021A731A7F0D
:1056000060F341021A770135082D4FEA460604F18E
:105610001004DED1BDE8F88300000450702A002099
:1056200000200450F02A0020024B1968024B186831
:1056300009F0A6B9B4100020B010002037B59200D0
:1056400004460D46019232F0D3FF431C0BD060B9E3
:1056500029462046019A2DF0FCF80028044808BF8E
:10566000002003B030BD0348FBE70348F9E700BF63
:1056700010E000F021E000F024E000F010B5044656
:1056800032F0BEFF431C10D088B900F0D7FE23468D
:1056900020F003002044984201D1002010BD53F8AF
:1056A000042B0132F7D00348F8E70348F6E7034834
:1056B000F4E700BF0EE000F021E000F024E000F08D
:1056C00008B52AF048FA014B186008BD30320020B6
:1056D000014B18682AF043BA3032002041F671338A
:1056E00010B5104C104AA0428CBF4FF48014002417
:1056F000D169D363936801F4803123F440132343C9
:1057000093600A4B98420A4BD3F818228CBF42F0A0
:10571000020222F00202C3F8182211B10022024B49
:10572000DA6310BD005A62020000035080F0FA02F2
:1057300000C007502E4B98424AD022D82D4B984299
:1057400040D014D82C4B984239D00AD82B4B9842D1
:1057500032D02B4B98422FD02A4B98422CD000208D
:105760007047294B9842FAD1284B186F7047284B45
:1057700098422AD0274B9842F1D1244BD3F880008D
:105780007047254B98422BD009D8244B984223D000
:10579000234B9842E3D11D4BD3F88C007047214B2B
:1057A000984221D003F5740303F510539842D6D1E3
:1057B000164BD3F898007047144B986D7047134BF5
:1057C000586E7047114B586F7047104B986F704769
:1057D0000E4BD3F8840070470C4BD3F88800704709
:1057E0000A4BD3F890007047084BD3F894007047E9
:1057F0000048E8010024F400C0CF6A0080841E0045
:1058000000093D0040420F00405DC6000080E00FEF
:10581000C0EA210180BA8C01007E560380D5430284
:10582000006CDC020090D00338B5134B0546D3F86A
:1058300020010C4600F00700042804D8DFE800F03F
:105840001A0A0E1216000023184605B1286004B18A
:10585000236038BDFFF74CFB0423F6E7FFF784FB1A
:105860000323F2E7FFF79AFB0523EEE7FFF792FB2E
:105870000223EAE70123E8E70080005037B50C4631
:105880000021124A0191D2F88021054602F003025C
:10589000022A0ED0032A11D0012A14D101A8FFF741
:1058A000C3FF0D230DB1019A2A6004B1236003B038
:1058B00030BDFFF773FB05230190F3E7FFF76AFBA9
:1058C00002230190EEE70B46ECE700BF008000509A
:1058D00038B5104B0546D3F840310C4603F00303AE
:1058E000022B0BD0032B0DD0012B0FD12AF088F8FF
:1058F000082305B1286004B1236038BDFFF792FB8F
:105900000723F6E72AF07FF80923F2E701230020B6
:10591000EFE700BF0080005038B5104B0546D3F8C4
:1059200060310C4603F00303022B0BD0032B0DD088
:10593000012B0FD12AF064F8082305B1286004B1C7
:10594000236038BDFFF76EFB0723F6E72AF05BF80C
:105950000923F2E701230020EFE700BF0080005099
:1059600038B5144B0546D3F800020C4600F007008A
:10597000042804D8DFE800F01B0A0E1216000023EA
:10598000184605B1286004B1236038BD2AF038F804
:105990000823F6E7FFF746FB0723F2E72AF033F880
:1059A0000923EEE7FFF7CAFA0C23800AE9E701238F
:1059B000E7E700BF0080005038B5144B0546D3F828
:1059C00008020C4600F00700042804D8DFE800F0C5
:1059D0001B0A0E1216000023184605B1286004B1F8
:1059E000236038BD2AF00CF80823F6E7FFF71AFB0E
:1059F0000723F2E72AF007F80923EEE7FFF79EFAFC
:105A00000C23800AE9E70123E7E700BF008000508C
:105A100038B5104B0546D3F840320C4603F003036B
:105A2000022B0BD0032B0DD0012B0FD129F0E8FF57
:105A3000082305B1286004B1236038BDFFF7F2FAEE
:105A40000723F6E729F0DFFF0923F2E700231846D2
:105A5000EFE700BF0080005038B5104B0546D3F883
:105A600000310C4603F00303022B0BD0032B0DD0A7
:105A7000012B0FD1FFF778FA032305B1286004B199
:105A8000236038BDFFF7CEFA0723F6E729F0B6FF0B
:105A90000623F2E701230020EFE700BF008000505B
:105AA00038B50C4605462AF056F8064B9A6A82EA43
:105AB000040101EA050454409C62BDE838402AF024
:105AC0004EB800BF00C00050032814D005D80128EC
:105AD00005D0022809D0002005E00F28FBD1084B93
:105AE000186FC0F3013001307047054BD3F89000B8
:105AF000C0F30460F7E7024B186FC0F38020F2E7B1
:105B0000008000501FB500230193252817D8DFE837
:105B100000F0131A1D262B353A50555A5F646977E9
:105B2000161A3F1616551A262B26351A5026773A7E
:105B30003A3A3A2626265A5FFFF7E6F9019001988D
:105B400005B05DF804FBFFF7F9F9F7E7FFF7DCF9BB
:105B500002460220FFF7B8FFB2FBF0F0EEE7FFF7D6
:105B6000EDF902460320F5E7FFF7E8F902460320C6
:105B7000FFF7AAFFB2FBF0F04008DFE7002101A821
:105B8000FFF77CFEDBE7002101A8FFF74DFED6E71B
:105B900002934FF0E0231B695B0705D5FFF7CEF9B1
:105BA0000290029B0193CAE703A902A8FFF790FEA7
:105BB000F7E7002101A8FFF78BFEC0E7002101A84D
:105BC000FFF7AAFEBBE7002101A8FFF7C9FEB6E771
:105BD000002101A8FFF7F0FEB1E7002101A8FFF7BF
:105BE0003BFFACE7094BD3F8803003F00303022BF3
:105BF000A9D0032B01D00020A0E7FFF7CFF99DE744
:105C0000002101A8FFF704FF99E700BF00800050C2
:105C100008B50120FFF776FFBDE808400349884238
:105C20008CBF02210121032000F002B880F0FA02AB
:105C3000032810B50C4627D004D8012804D0022828
:105C400017D010BD0F28FCD129F068FF29F06EFF96
:105C5000124B013C196F21F4405141EA04341C6796
:105C6000FFF76CF90021FFF739FDBDE81040FFF7A1
:105C7000CFBF0A4B013CD3F8901021F0F85141EA14
:105C80000464C3F89040DCE7044B013C196F21F435
:105C9000806141EA84241C67D3E700BF0080005084
:105CA0001FB500230193252821D8DFE800F0132039
:105CB0002020202A2F454A4F54595E71202034203D
:105CC000204A202020202A204520712F2F2F2F20EE
:105CD00020204F54314B1B6F03F00703013B032B74
:105CE00005D8DFE803F00C02080A042301930198A9
:105CF00005B05DF804FB0323F8E70623F6E702236B
:105D0000F4E7002001A9FFF7B9FDF0E7002001A9A1
:105D1000FFF78AFDEBE702934FF0E0231B695B0777
:105D200005D5FFF70BF90B230393039BDEE703A9CC
:105D300002A8FFF7CDFDF8E7002001A9FFF7C8FD95
:105D4000D5E7002001A9FFF7E7FDD0E7002001A972
:105D5000FFF706FECBE7002001A9FFF72DFEC6E7FF
:105D6000002001A9FFF778FEC1E70C4BD3F8803083
:105D700003F00303022B03D0032B05D00023B5E768
:105D8000FFF7DCF80B23B1E7FFF708F90523ADE7D0
:105D9000002001A9FFF73CFEA9E700BF00800050EA
:105DA00038B50546FFF7C6FC214B04465A68012A60
:105DB00004D120494A609A699207FCD10020FFF77C
:105DC0006FFF042803D129F0A9FE29F0AFFE1A4A7B
:105DD00024F04073954221D0184A954221D0184AA8
:105DE000D16811F0060FFBD190689360916803F4BD
:105DF000F81301F4F8118B4216D12846FFF77EF80C
:105E00000020FFF74DFF042810D1FFF797F800217D
:105E1000FFF764FCBDE83840FFF7FABE43F00073BB
:105E2000DDE743F08073DAE79060E9E738BD00BF53
:105E300000C0015000E0015040420F0080841E006D
:105E40000000015070B504460020FFF729FF032829
:105E50007CD045F60E030221414AC2F88030414B06
:105E60009962012103F580539962936DD903FCD4A3
:105E7000D4E900131B0543EA0163E17B94F8225047
:105E80000B43217B94F8236043EA0143617B43EA9F
:105E90000133A17B43EA811313619169D4E90403BF
:105EA0001B0643EA806301F000410B43A17EE07EC4
:105EB0000B43217E43EA0143617E43EA0123936160
:105EC000136AE26923F00D03002A0CBF00210821A8
:105ED00043EA020343EA8003214A43EA01031362CF
:105EE00094F820304FEA431331D1906A94F821108E
:105EF00020F0330043EA0113034343F001039362AC
:105F0000194B916D33EA0101FBD10221154B9962C6
:105F1000936D5B00FCD41069A36820F4700040EA24
:105F2000035010614FF000420E4B9A611DB90222DE
:105F300003F580539A6216B901220C4B9A6294F8C9
:105F400024301BB1064B0A4AC3F8802070BD916A09
:105F500021F0330131430B4343EA45039362EEE7FB
:105F600000C0005000D000500300014000E000508D
:105F7000F1A7FFFF13B5184CA16AA36D13F4803F7E
:105F800018BF0122154B18BF9A6202229A62A36DB4
:105F90005B00FCD4124BA26993F9003022F47F021B
:105FA0000344000222F47F4280B283F308031043CB
:105FB00040EA0340A06102200191FFF771FDA36D4B
:105FC000019913F4803F05D0012002B0BDE81040D4
:105FD000FFF766BD02B010BD00C0005000D00050F9
:105FE000FC68002037B5104CA16AA36D13F4803F04
:105FF00018BF01220D4B18BF9A6202229A62A36D4C
:106000005B00FCD40220A5690191FFF749FDA36D57
:10601000019913F4803FC5F3072502D00120FFF753
:106020003FFD284603B030BD00C0005000D00050F6
:10603000014B93F900007047FC68002001231048D1
:10604000104A816A9362836D03F00303032BFAD134
:10605000022393620A4B9A6D5000FCD401209A6D82
:10606000084A10659A6D9207FCD4054B9A6D90070B
:10607000FCD59A6D9207FCD50320FFF711BD00BF38
:1060800000C0005000D00050014B1880704700BF86
:10609000F81500200A4A10B51369044643F00403BA
:1060A000136102F09BFF29F06EFD30BF29F06CFDFB
:1060B00002F0A8FF1CB9BDE81040FEF73FBF10BDBD
:1060C00000ED00E0084A10B51369044643F00403EC
:1060D000136102F083FF30BF02F094FF1CB9BDE8EA
:1060E0001040FEF72BBF10BD00ED00E0034A017920
:1060F000D36E23F030030B43D3667047004000504B
:10610000F8B504460D461F4616464AB101238B409A
:106110003021194A01FB0022FFB141F21001535016
:1061200004EB4403072D4FF00F014FEA031317D878
:10613000A80006FA00F281401048184429F027FD13
:1061400056B9012130230C4801FA05F503FB040080
:1061500077B141F21003C550F8BD42F21001DEE7FD
:10616000A5F10800800006FA00F281400448E4E747
:1061700042F21003EFE700BF00C0035004C0035019
:106180000CC003504FF40012064BC3F88020BFF33D
:106190004F8FBFF36F8F0022FF21034B5A65996227
:1061A0005A60704700E100E000000450044A054BCB
:1061B000002918BF1346012202FA00F01860704748
:1061C000402004504010045030B504784578817860
:1061D000C27801200F4B41EA0541240658609C60BB
:1061E0009961FF2199620021996319644FF0004180
:1061F00059654FF0FF314FF4001003F50053196556
:1062000005491301DBB2C1F8800181F8153308603C
:1062100030BD00BF0000045000E100E02DE9F04176
:1062200001250C46C3B2DFF888E0D1F800809D401C
:106230008F7ACB7A94F80DC0097BCEF850500EF5CA
:10624000005E4EF820804FF0300E184E1B050EFBFE
:10625000006043EA074343EA415322F00302C0F8D7
:1062600060C0C365026729F085FC736D2B437365BD
:10627000237A13B1336C2B433364637A13B1B36B5A
:106280002B43B3632279A37943EA0243084A93611B
:106290006179E37943EA014306498B61034B556316
:1062A0009D64BDE8F04129F06BBC00BF00000450C4
:1062B000002004500010045010B50124C0B28440E6
:1062C00029F058FC044B5A6D22EA04025A659C627C
:1062D000BDE8104029F054BC0000045010B5012462
:1062E000C0B2844029F046FC074BDA6A224209D149
:1062F0005B6B34EA03030CBF0124002429F040FC4B
:10630000204610BD0024F9E70000045041F6713228
:10631000034BDA63012203F50053DA60704700BFD4
:106320000000035041F671320121044BDA6303F59A
:106330000052D1600022DA63704700BF00000350B2
:10634000014BD3F89400704700400050CB784A7856
:1063500010B55B010C7843EA82030A79234343EAD0
:1063600002130C22424302F1B0421363012C02BF1C
:106370008A78024B43F8202010BD00BFD080035024
:1063800008B54FF0B0435A6802B960B15B680BB111
:1063900029F015FC4FF0B04130B10120074B586097
:1063A00029F00DFCC86008BD29F009FC0223CB6070
:1063B00029F005FC0122024B5A60F4E70010005856
:1063C000002000584FF0B0435B6870B50BB129F066
:1063D000F6FB0121104B4578596083780679002B34
:1063E000C37814BF02240024002B14BF042200220F
:1063F0004379DB0043EA06132B43234313434FF057
:10640000B0429360054B59600378002B14BF0B46D4
:106410000223D36070BD00BF002000580010005858
:10642000054B5B69C3F38512827003F03F021B0BBF
:1064300042700370704700BF00C007500120034B3B
:106440009B680A3303F01F03984070470080E00FF9
:106450000D4B984208D1A3F50033C3F88411C36DE6
:1064600043F08003C3657047084B984204D1A3F5FD
:106470001033C3F89411F2E7054B984204BFA3F51B
:106480002033C3F8A411EAE70080055000C005508E
:106490000000065070B5054616461C4619B9032083
:1064A000FFF730FB0146402C1BD003D8DCB1202C79
:1064B0001BD070BD602CFCD1042303FB06F25608F0
:1064C00006EB4113B3FBF2F3094A203B02EAC30394
:1064D000AA6822F06002AA60AA681443AC60EB616B
:1064E000E7E70623E9E71023E7E70823E5E700BF2E
:1064F000F8FF7F00012200F5805310B55A6040F686
:10650000AA6341F205024361002312498360C36517
:10651000C26000F500520361C361C36491640E4917
:106520008365884206D00D4CA04203D004F5804418
:10653000A0420BD18842036506D0084B984203D095
:1065400003F58043984201D1002343650123536042
:1065500010BD00BFFFFF01000080055000C00550C6
:1065600070B50D46FFF7C6FF012300F58056736036
:10657000AB7C04461BB1836843F080438360EB7CB3
:106580001BB12046297DFFF763FF2A8A6B7B2046DB
:106590001343EA891343E3602B7BD5E90112FFF72C
:1065A00079FF6B7D1BB1A36843F48033A360AB7D9F
:1065B0001BB1A36843F40043A360EB7D2A7E1B0755
:1065C000120502F4E00203F0E0431343A3656A7E80
:1065D000931E012B214B20D89C421AD003F58043F7
:1065E0009C4218D003F580439C420CBF02234FF01D
:1065F000FF3341F2AC5102205B0103F1A04303F5EC
:1066000070335850032A23D10423F3652B78636138
:1066100070BD0023EDE70123EBE79C4214D0104B43
:106620009C4213D003F580439C420CBF02234FF0E1
:10663000FF3342F2AC5102205B0103F1A04303F5AA
:1066400070335850012ADEE70023F2E70123F0E718
:10665000042204F50053DA65D8E700BF0080055036
:1066600000C0055038B50446054D2CF0A0FE0FCCF7
:106670000FC594E80F0085E80F00002038BD00BF6B
:10668000E432002047F6FF739A42F0B566D0022943
:1066900066D8344DCF0015F8313005EBC100012B21
:1066A000847813D10025C3781B1B9D4202D3E018C8
:1066B000C0B2F0BD591B4668A3EB510136F9116019
:1066C0009642D4BF0D4601F1FF33EEE74068002843
:1066D000EFD0B0F90030934204DBB0F902309342BE
:1066E000B8BF134682883D44FF2A19BFC8214FF026
:1066F000280CB0F90610B0F908C0A1EB03020CBFDA
:106700000126002692FBFCF26D78324412B29542CB
:1067100001DD002A01DA6A1E12B24FF47A7700EB2B
:10672000C206F188B668013213FB016112B221EA98
:10673000E1715C319542B1FBF7F104DD00EBC2067B
:10674000B6888E42EBD200EBC20232F8040C8842CB
:1067500028BF0846A04238BF2046A9E7FF20A8E787
:106760000020A6E7E43200200229F0B553D82B48D8
:1067700000EBC10410F83110636801290FD1E078F3
:10678000A478904294BFC4EB0001C4EB0201001B4B
:10679000CAB28242C8BF002233F91200F0BD002BFA
:1067A00039D0A178914202D3B3F90200F6E7E1783B
:1067B000B3F900009142F1D999886478A1F1FF06FC
:1067C000013C714203F10405E4B2714103F10C078D
:1067D0001FFA82FCCEB2B44216D805EBC1014FF4C9
:1067E0007A756A43B1F902404968521A04EBD471D0
:1067F00002EB610292FBF4F29042CFDBB3F90200AC
:106800009042CBDC10B2C9E737F831E04E1CE645C8
:10681000E3D33146DEE70248C0E700BFE4320020A0
:106820000080FFFF08B50448FFF71CFFBDE80840E3
:1068300001202CF0E0BD00BFEC8F03007FB51422D7
:10684000002101A82CF03CF8044B01A94FF0FF30C7
:1068500002932CF011FE07B05DF804FB006A1800EB
:106860002DE9F0418CB08846DDE912761D460446DC
:10687000002847D0002945D0002F43D0002E41D01A
:1068800013F00F033ED120482049A360002A18BF0F
:106890000146E361C4E90013404609A929F044FB1D
:1068A00068BB2046099929F0A6F92946204629F017
:1068B000A2F96946404629F0D6FB00BB694620464E
:1068C00029F085F9404603A929F0D8FBB8B920463C
:1068D00003A929F07CF906970127204645F00055C9
:1068E00006A90797089529F072F9204609A9099683
:1068F0000A970B9529F075F9204629F09FFA0CB0FC
:10690000BDE8F0812120FAE7000101040001000444
:106910007FB50E461D460446F0B102B9E3B9012326
:106920000192029345F00053039300230B4AA360A6
:10693000C4E90023E361204601A929F048F9314662
:10694000204629F058F92046294629F054F92046D6
:1069500029F074FA04B070BD2120FBE70000094360
:106960000F4B984209D010D80E4B984205D020F416
:106970008070A3F5806398420FD10B88B3F5105F48
:106980000CBF00206FF085007047074B9842F4D091
:1069900020F40070A3F58073EDE76FF08500704779
:1069A0000010C004004440040012C0042DE9F04F60
:1069B00093B09346DDE91E759846DDE91C238146B8
:1069C0008A46209E29B96FF08604204613B0BDE8A0
:1069D000F08FBBF1000FF6D00FB9002DF3D10AB93B
:1069E000002BF0D116B9219B002BECD1229B002B60
:1069F000E9D049464046FFF7B3FF04460028E4D1FA
:106A00000146202202A82BF05BFF202221460AA883
:106A10002BF056FF02A829F024FA00283DD15A464F
:106A2000514648460AAB29F097FB04460028CCD1D2
:106A30000A9829F04DFB04460028C6D115B9229BBF
:106A40001860C2E7B74210D27B199E420DD2219B3B
:106A50009D42B8D82A46394630462BF017FF174BCF
:106A6000984518D06FF08504AFE7144B9845F9D1DD
:106A7000219B9D42A7D815F00F08A4D1CDE900763F
:106A80002B4642460AA902A8FFF7EAFE074638B994
:106A9000229B1D6099E73746EDE76FF0920494E77B
:106AA00041463046219A2BF00BFF229B012FC3F861
:106AB0000080F2D16FF08B0487E700BF00444004F0
:106AC0002DE9F04F93B08146DDE91C759346984659
:106AD0008A461E9E29B96FF08604204613B0BDE891
:106AE000F08F002AF7D00FB9002DF4D116B91F9BF3
:106AF000002BF0D1209B002BEDD049464046FFF7FC
:106B00002FFF04460028E8D10146202202A82BF0DE
:106B1000D7FE202221460AA82BF0D2FE02A829F097
:106B2000A0F9002849D15A46514648460AAB29F0F7
:106B300013FB04460028D0D10A9829F0C9FA04466C
:106B40000028CAD115B9209B1860C6E7B74210D2F9
:106B50007B199E420DD21F9B9D42BCD82A463946C6
:106B600030462BF093FE184B98450BD06FF0850400
:106B7000B3E7154B9845F9D11F9B9D4203D96FF0A0
:106B80008904AAE7374615F00F08A4D12B46012245
:106B9000CDE900760AA902A8FFF762FE209B1D60DE
:106BA0000546002899D0414630461F9A2BF088FEB2
:106BB000209B012DC3F8008002D06FF092048CE777
:106BC0006FF08B0489E700BF0044400413B5002434
:106BD000064A6846536F43F00103536700948DF8EB
:106BE0000440FFF783FA204602B010BD0040005079
:106BF00008B50248FFF7D4F8002008BD00B4C4046B
:106C000030B58BB06C46174D0FCD0FC40FCD0FC4F0
:106C100095E8030084E80300134BD3F84C211203DA
:106C200018D4D3F85041E4B28DF81940FFF700FAB8
:106C3000204480F308008DF818000C48FEF79AF9FC
:106C40006846FFF7FFF84FF4FA70FFF71DFA0020CF
:106C50000BB030BD064B1C884FF6FF739C4208BF3B
:106C60008C24E1E7888603000080E00F00F04902F1
:106C70000001E00F6FF00402502110B50A480B4CE0
:106C800012F0800FD3B21BBF03F00F03043BA31815
:106C90001B1802F101020CBF83F8001319763D2A7C
:106CA000EED1002010BD00BF00ED00E000E100E0EB
:106CB00010B5044628F04FFF024B1C6028F04FFF30
:106CC000002010BD0433002010B528F044FF034B12
:106CD0001C6828F044FF204610BD00BF043300208C
:106CE00013B513460C4618B90192FFF7EDFF019B4F
:106CF00001462246044805F0BFFB0028D4BF3720D8
:106D0000002002B010BD00BF5102030010B50024E6
:106D100000F024F80348044B84604360FFF7C8FF89
:106D2000204610BD083300202D6D000013B5064C21
:106D300023780093054B1B8829F0A7FA10B9237814
:106D40000133237002B010BDFD680020FA15002049
:106D5000014B188000207047FA15002008B5074B3A
:106D60001A6842B9012208201A6028F04FFE04492F
:106D7000044801F087FF002008BD00BF1C3300203D
:106D8000E81000201433002030B51446054687B0C3
:106D9000104629F0D9FA6369024683423CBFD4E920
:106DA00003315B181B1A7BB10F4928460391002160
:106DB000CDE90131012304940093D4E9001328F0B4
:106DC00062FE002007B030BD0122627694F82D20CB
:106DD000002AF6D084F835301321E369204698471D
:106DE0002046636A9847ECE7896D00002DE9F0477B
:106DF00088B0044688461746994628F0BBFE82466E
:106E0000002F7AD0237E03F0FF02002B00F0A28037
:106E1000204629F099FA6669B04205D1637ED4E92B
:106E200003521544AD1B01E0F9D9851BBD4228BFB3
:106E30003D4628F09FFE94F82D300646002B6DD17C
:106E40002A46404661692BF014FD63692F462B44A6
:106E5000636121E0037803F0FD0111295BD1216B0F
:106E6000814205D1A3F111014B424B4184F83430EA
:106E7000013F6369216B01328B4203F1010308BFBB
:106E80002363636195426069E4D1D4E90323216BF4
:106E90001344994200D122630025D4E90323616998
:106EA0001344994208BF6261207A6576FEF7D8FAEA
:106EB000204629F049FA6369834232D1257694F855
:106EC0002D30E568656103B125632046636A984704
:106ED000214B2A46039300230293236921680193DF
:106EE0000123207A00930494636828F0CCFD207A73
:106EF000FEF7D6FA304628F043FE5046C9F8007037
:106F000028F03EFED9F80030002B0CBF1B200020DB
:106F100008B0BDE8F08708F8013BAAE72F46002239
:106F2000B0E70123207A23760DF11E01FEF720FB46
:106F30009DF81E30002BDAD00DF11F01207AFEF7EC
:106F4000EFFA9DF81F100029D1D12246207AFFF7D1
:106F50001BFFCCE71746D0E7896D0000002808DB4F
:106F60000123420900F01F0003FA00F0014B43F82F
:106F70002200704700E100E0002809DB01224309FC
:106F800000F01F0002FA00F0024A603342F82300CA
:106F9000704700BF00E100E070B504460568FFF7E8
:106FA00093FE844202D10020FFF782FE95F936005D
:106FB000FFF7E2FF95F93630002B0DDB01215A096E
:106FC00003F01F0301FA03F31849203241F822307D
:106FD000BFF34F8FBFF36F8F95F93700FFF7CCFFEB
:106FE00095F93730002B0DDB01215A0903F01F03FF
:106FF00001FA03F30D49203241F82230BFF34F8FDD
:10700000BFF36F8F287AFEF76BFA287AFEF7CEF976
:10701000FEF7AAF900232846C4E90033C4E9043383
:10702000A360AB6ABDE87040184700BF00E100E014
:107030002DE9F0410C461546064686B04022002157
:1070400020461F462BF03CFC95E8030000232A69EC
:107050002376EB6884E80300C4E904232A7DE36017
:1070600084F82C20AA7D2363012384F8343084F82B
:1070700035300C9B84F82D2023620D9BE761636201
:107080000E9BA3622B7A84F836306B7A84F8373003
:107090002D4B346073602D4BB3602D4B33612D4B02
:1070A00073612D4BF360FEF7A7F938B12B4B984273
:1070B00004D01024204606B0BDE8F081002104F180
:1070C0000800FEF721F907460028F2D14FF0010829
:1070D000234B3362234B84F83C80B361224BF36132
:1070E0009DF8403084F8390084F83B309DF83C30FE
:1070F000204684F83A30697D84F8388029F034F9E4
:1071000095F90900FFF738FF95F90900FFF726FF09
:10711000164B0494CDE902732369CDE900836368BB
:10712000E2682168207A28F0AEFC04460028C0D12D
:1071300095F90800FFF720FF95F90800FFF70EFF0B
:107140003046FFF7B5FDB5E7B9030300ED6D00006C
:10715000370303003D030300996F0000038000F034
:107160000D0303006903030043030300896D00005E
:107170002DE9F0414FF001081C46584B86B00293B0
:10718000574B0C9D0193574B174600930A46CDE988
:1071900003882946544BFFF74BFF0646002876D15B
:1071A000236804222B64237985F84430A17985F87B
:1071B0004610607985F84500237A85F84830E379F0
:1071C00085F84730A37A85F84A30637A85F84930E4
:1071D000237B85F84C30E37A85F84B304346FEF745
:1071E0008FFF43460222217AE079FEF789FF3E7045
:1071F00039462068FFF7B4F91421A27B3B4B03EB1F
:107200004210C0F8AC1594F806C061792E3203EB39
:10721000421341EA0C415960227AE37943EA02437E
:10722000C0F8BC3585F84D607B7E032B53D8DFE872
:1072300003F01F02324D0123002785F84D30002353
:107240000222A17A607AFEF75BFFA17A627AA37BC1
:1072500042EA014241F2B4515B0103F1A04303F55C
:1072600070335A500422236803F58053DA65AFB9AE
:1072700063792A6C85F84530A379052185F8463075
:10728000D36C206843F00403D36428F0DBFC304661
:1072900006B0BDE8F081022385F84D3000230422BA
:1072A000217BE07AFEF72CFF41F2AC520221A37B56
:1072B0005B0103F1A04303F570339950217BE27A1F
:1072C00042EA014241F2B8515A50D1E70323012763
:1072D00085F84D30B3E72326D9E700BFE304030068
:1072E000D7040300670503005B05030000C00350DB
:1072F00010B51C46044B18682BF035F900282060A7
:107300000CBF1B20002010BDF010002013B5064C50
:1073100023780093112328F0B8FF10B923780133A4
:10732000237002B010BD00BF1E69002010B5FFF72A
:1073300015FD0F4C20602BF024F920220D4901236C
:107340000D4805F01BF90D4B18600D4B204663608E
:107350000C4BA360FFF7ACFC28F0FDFB01210446B9
:10736000084601F017FC204628F0F9FB002010BD6C
:1073700020330020FE680020B6860300F0100020B5
:107380000D730000F172000000F0FD03112B05D019
:10739000182B03D0A0F17D03012B07D80122044B49
:1073A00080F020001A70034B18707D20704700BFDA
:1073B0002669002027690020F8B50E461446204BA8
:1073C00000B3204A2049107000221A7022700A70FF
:1073D0004FF6FF721D4B1A801B4D2B78EBB91B4FDC
:1073E0003046398829F0A6F9164A38801378013BCF
:1073F000DBB213706BB901232B703046BDE8F84047
:10740000FFF7C2BF1A78002AE6D01870104B187820
:10741000F8BD237801332370EFE7012B05D1022358
:107420002B700A4B1888000AE8E7022B04D10323CB
:107430002B70064B1878E1E7FF237E202370E7E7E7
:107440002669002025690020286900206E5D002043
:10745000276900202DE9F047394E884633781746D2
:107460005BB9384A1370384A1370384A1370384A77
:1074700013704FF6FF72374B1A807D284FD02CD8EF
:10748000182850D01A2852D00022314B2D4D1C788C
:107490001A702B78DFF8B490DF2B9CBF01332B7070
:1074A0002B784440022B12D9DFF8A8A099F80000ED
:1074B000BAF8001029F03EF92B78AAF80000DF2B6B
:1074C0009FBF99F80020023B88F800203B701E4BBC
:1074D0001A781C7089F8002006E07E28D4D1194B58
:1074E0001B781BB91A4A1370202011E0FF2B20D003
:1074F000184A1188154A1078134A127802EB0022B4
:10750000914218D1022B18D9DF2B8CBF7A20002092
:10751000A0F12002534253413370BDE8F087202090
:107520000B4B1870F4E7FF22064B1A70DCE774204F
:10753000EEE77720ECE77620EAE77920E8E700BF7E
:107540001F69002024690020216900202269002091
:10755000236900206C5D002008B529F072F8044B07
:1075600008B1188008BD4FF6FF721A80FAE700BF15
:107570006A5D002010B5074C208850B129F061F8F1
:107580002388C01A044B00B21B889842B4BF002065
:10759000012010BD6A5D0020685D00204FF07E6212
:1075A0004FF6FF732DE9F041B2F84670B2F844602F
:1075B000154D9F4208BF4FF448679E4208BF4FF4E5
:1075C000C8762C88DFF8448050B164002C802B886A
:1075D000BB4215D92F800023A8F80030BDE8F08108
:1075E000B8F80030002BF2D029F02BF8B8F80030B2
:1075F000C4EBC404C01A80B204EB8004E408E5E7DD
:10760000B34238BF2E80E6E7685D00206A5D002047
:1076100008B529F016F84FF07E634FF6FF72B3F805
:107620005430934208BF4FF47A73184410F47F6FBC
:10763000C0F3071208BFFF22014B1A7008BD00BF3C
:107640002069002010B5084C237843B128F0F9FFD9
:107650002378C3EB101003065CBF0023237020784F
:10766000B0FA80F0400910BD2069002007B501F094
:1076700031FF6A4601F094FF18B15221034800F02F
:107680006BF9DDE9000103B05DF804FBCC86030073
:1076900008B501F05BFE18B17A21024800F05CF9F0
:1076A000002008BDCC86030008B500F0B1F80E4AF2
:1076B000536A43F470235362EFF308834FF0CD31E4
:1076C0000A4A043B93420BD20222094B1A6700F08C
:1076D000DDFAFFF7DDFFBDE808400648FEF7C2BF50
:1076E00043F80419EEE700BF00ED00E000000020C1
:1076F00000400050EC8F030007B5042200200DEB82
:1077000002012BF030FE042804D04FF4BF7104486E
:1077100000F022F9019800F065FA03B05DF804FB6F
:10772000CC860300102870B522D00DD8032801D9CB
:10773000002070BD013802281AD8DFE800F00217D7
:107740002F000023022215E02038C3B2032BEFD80C
:107750000328EDD801A353F820F000BF43770000C1
:107760006D7700009D770000997700000123E9E71D
:10777000002303220B490C4D0C680021C8B284423F
:10778000D6D955F8200028B1067A964202D1467A19
:107790009E42CED00131F1E70323D3E702231A46FC
:1077A000E8E700BFD48E03001011002010B5FFF7EA
:1077B000B9FF044630B1037A022B03D103680BB141
:1077C0001B6823B940F24A21064800F0C5F8236837
:1077D0001B681B6C986900F44830A0F500535842B0
:1077E000584110BDCC860300082310B548400A0A52
:1077F0000649C0B200F00104400804B14840013B12
:1078000013F0FF03F6D1504010BD00BF2083B8ED48
:1078100010B5FEF795FD044628F0CBF900220121B2
:1078200001FA02F3234018D0204B214933F81230DB
:10783000062B18D040F20722934211D14FF000528C
:107840004FF20F00548884420AD11088984207D121
:107850004CF23C335380088010BD0132102ADFD136
:10786000134A138012E04FF000534FF20F02588872
:10787000904218D11B88B3F5406F28BF4FF4C06306
:107880000B804CF23C324FF000535A80084B1A8860
:1078900040F201739A4201BF064B074AD2E9000148
:1078A000C3E90001D8E74FF4C063E9E7228703008A
:1078B000705D00202C33002090100020164B1B8898
:1078C0001A0A13F0FF03104604D1012A22D140F016
:1078D00080007047072AFAD801A353F822F000BFAE
:1078E00017790000CF7800000179000005790000C9
:1078F00005790000097900000D7900001179000078
:107900000920704702207047032070470B20704702
:107910000620704718467047705D002010B5044679
:1079200028F020F94FF000534FF20F021C805A80CC
:10793000BFF35F8FBFF34F8F0549064BCA6802F450
:10794000E0621343CB60BFF34F8F00BFFDE700BF82
:1079500000ED00E00400FA0538B504460D4600F0DD
:10796000C7F928F0FFF82B4622460549002028F0E9
:1079700078FC29462046BDE8384028F0E9BE00BF23
:107980000F8703006C4A2DE9F0416C4B55686C4C35
:107990005D65516A99656B49D1F80002D865D1F8E7
:1079A0000412586B1966916A10F0040F5966D16A77
:1079B0004FF000009966116BD966516B1967D26B55
:1079C000D8645A67D3E90E2108BF11465E4A914236
:1079D0001A655DD301F12000A04259D88869C5F32A
:1079E00008051864CE69062D5E6455D1574DA8422E
:1079F00052D3574DA8424FD205884DF6426085427A
:107A00004AD11868C3F890005868C3F8940040F24F
:107A10000170A242154604D22E680432B6F1CD3F61
:107A2000F7D00022C3E91E22C3E92022C3E92222A3
:107A3000641B434EDFF814C1DFF814E19C648E42EE
:107A40002DD8D3E91EC7D3E92065D3E922414FF0F1
:107A5000000E013AD2B2FF2A3DD1BEF1000F05D08F
:107A6000C3E91EC7C3E92065C3E92241B3F8543016
:107A7000C3F308030C2B3CD8022B52D9DA1E092A77
:107A80004FD8DFE802F0553241444E4E4E4E4E4B39
:107A90000021C3E910112C494FF42060B9E756F8D2
:107AA000044D6445CBD37445C9D2E507C7D5062537
:107AB000284F57F8048BA045C1D0013D15F0FF05B4
:107AC000F7D10AB9052201E0013AD2B202F11E054E
:107AD00043F82540B3E7E0464FF0010EBC46374679
:107AE0002E4625460C464146B3E740F60220BDE847
:107AF000F0813B2B15D1184B9B6913F0020F40F21C
:107B0000025318BF1846F2E740F60320EFE740F6AD
:107B10000423B0F5206F08BF1846E8E740F60520BB
:107B2000E5E740F60722013B4B2B98BF1046DEE706
:107B300040F60120DBE700BF00ED00E00010002070
:107B40000010002000E100E00000002034410000AF
:107B5000D6850300781000200080015A00F00CB890
:107B600000F00AB800F008B800F006B800F004B859
:107B700000F002B800F000B872B61EF0080F09D08D
:107B80001EF0040F0DD0DFF850E0AEE8FF1F6FF0DD
:107B900002000CE0DFF840E0AEE8FF1F6FF00E00DF
:107BA00005E0DFF834E0AEE8FF1F6FF0060069463D
:107BB000EFF309828EE8070086460848084C8545A1
:107BC00001D3A54501D384F30888FFF7DBFE84F3D6
:107BD0000888FFF7A3FE00000010002040000020EE
:107BE0000010002082B2074B4AB1000C1A8008BF77
:107BF0004FF6CE22044B14BF18801A8070474BF604
:107C0000EF62F2E7FC150020FE1500200B4BB3F9E4
:107C100000201888002AB8BF80F0620042001A8055
:107C2000074AB2F9001013880029BCBF83F48053BF
:107C300083F00B035900118058407047FC15002059
:107C4000FE15002008B501F073FE60B10A4B034435
:107C5000072B0DD8072B0BD8DFE803F004060A0822
:107C60000A0A0A0CC22008BDC320FCE7C420FAE7B8
:107C7000C520F8E7C120F6E7FF1FFF0F024B9A6906
:107C800003F500539A6170470080015A1FB50D2417
:107C90000021224668462AF013FE01238DF80030A9
:107CA0000323104A8DF809408DF80A30D2F80032CB
:107CB0000D4C23F0070343F0010369462046C2F848
:107CC000003227F0F3FF4FF400610223074A04F566
:107CD0000050C2F884118361516004F58054E3615F
:107CE00004B010BD008000500080015A00E100E0A7
:107CF000014827F0CABF00BF0080015A10B5094AE9
:107D0000137813F002040CD1074908480978007869
:107D1000884206D0064863F07D030480054813704E
:107D2000017010BD2C6900202969002031690020F4
:107D30006A5D00202E690020054B064A19881288CA
:107D4000914202BF0121044A117000221A8070473B
:107D5000745D0020765D00203569002007B503467C
:107D6000009102223D2003492CF050F903B05DF848
:107D700004FB00BF4F87030007B5064B02221B78A8
:107D80003D200093044981232CF040F903B05DF8B5
:107D900004FB00BF336900204F87030038B50C4D4A
:107DA0000C4C2A7823789A4200D138BD00210A4829
:107DB0002DF0CBFF094B1B88834202BF0122084BE9
:107DC0001A702378013303F007032370E9E700BF3B
:107DD000296900202F690020725D0020765D002057
:107DE00035690020074B93F90030002B08DB064A69
:107DF000137803F04101402904BF43F005031370D9
:107E0000704700BF336900202C690020282307B584
:107E1000054A3D20CDE900320449702302222CF0AE
:107E2000F5F803B05DF804FB3800E00F4887030065
:107E3000702807B504D103B05DF804EBFFF7E6BF87
:107E4000074B02221B7807490193074B1B780093CD
:107E500003463D202CF0DAF803B05DF804FB00BFC8
:107E6000366900204E8703003369002008B50A48B0
:107E700017F090F8094817F08DF8094817F08AF8BC
:107E8000084817F087F8084817F084F8BDE808405C
:107E9000064817F07FB800BF745D00207A5D0020AF
:107EA0007C5D0020725D0020765D0020785D002002
:107EB00008B5DC22002104482DF0A8FE0122034B66
:107EC0001880034B1A7008BD38690020765D0020C9
:107ED0003569002030B585B0FFF7EAFFFFF708FFEE
:107EE0004FF07E634FF6FF72B3F84C30224D934251
:107EF00008BF4FF47A732B800023204C2380FFF7B8
:107F00002BFBFFF737FB0028FBD04FF07E634FF6CB
:107F1000FF72B3F84230934208BF4FF4C8632B801E
:107F200000232380FFF7CAFC431E154DDBB20A2B4A
:107F3000144C287019D8012202FA03F340F20352BC
:107F4000134212D00222C1230290CDE900323D201B
:107F500084230D492CF05AF8FF232B70D023237073
:107F600005B0BDE83040FFF751BFFFF74FFFA0233A
:107F7000237005B030BD00BF685D00206A5D002041
:107F80002B6900202C6900204D87030037B504467B
:107F90000D4617F0F1F9022825D840F217111B48B9
:107FA000FFF7DAFC1A4B197801F14003DBB2022B20
:107FB0001FD901F0A003A02B04D00B0619D57E20F9
:107FC000FFF7CCFE4FF07E63B3F8403013B120468C
:107FD00028F0D8FBB5B1002221460E4803B0BDE819
:107FE00030402DF04BBE204617F0C6F9DC28D4D81F
:107FF000D8E7CDE90014842302223D2006492CF065
:1080000005F8DFE72A4621460448E7E753870300DF
:10801000146A00207A5D0020918703007C5D0020B7
:108020002DE9F74FFFF7A6FAAB4C48B32378580673
:1080300026D599074CBFA94BA94BAA4A1B781278A1
:108040009A4232D00120FFF7A9FA7320FFF7F0FE21
:10805000A54A4FF6FF7113780133DBB213704FF06E
:108060007E62B2F848208A4208BF0322934219DD9B
:1080700051229E4B72201A70FFF7DAFE20232370E4
:108080009B4D9C4E94F900202378002A18DA13F0B7
:1080900030030ED01A2028F094FB237803F07F03DE
:1080A0002370EFE7FFF72AFEEAE70022924B1A80DF
:1080B000E6E72A78022AF0D18F4A2B701380E9E78D
:1080C0002A78012A00F0F7800DD9931E012BD9D808
:1080D0003178FF2900F02481002940F0F480874B9B
:1080E00019783246EDE09A0719D57C497D4A7C48DB
:1080F00092F800C007780A78ACEB0200BA1A02F0D6
:10810000070200F00700904298BF81F800C00A788B
:10811000BA4204D123F002032370FFF73FFE237815
:1081200013F0300F1FD013F0200F744F15D0C2235F
:108130003B706E4B1B78BB7002237B70237803204F
:1081400023F03C03237001232B7032466B4B1978CC
:10815000FFF732F928F035FB94E7C1233B70FFF7B6
:10816000ADFBB870E8E713F00C011FD0644F13F0BB
:10817000040F3978614B0FD06039C9B21970802073
:10818000FFF7ECFD237823F00C0301203A782370ED
:108190005C4B28701A70D8E781F0800119707E203E
:1081A000FFF7DCFD237823F00803EEE79B0737D5C4
:1081B000DFF82881544A98F80030127801919B1A10
:1081C00003F0070A27F0D6FC019981464F482DF0AD
:1081D0004FFD0746DFF834B1BAF1000F16D148461B
:1081E00027F0CEFC4A4B38461F8017F0C5F8444BA9
:1081F00098F800201B78013043EA02133F4A43F00D
:10820000080313700323C0B22B709EE7394658460B
:108210002DF080FD0AF1FF3307465FFA83FADBE7B2
:10822000304B4FF6FF7019784FF07E63DB8F2C4F89
:10823000834208BF05233A780B44013B521A5B1A6C
:1082400002F0070203F007039A42DFF8B48028DC4B
:1082500030482DF008FDE0B92E482DF004FD2D4AE0
:108260002D4B0021002808BF13462C4A18461360E6
:108270002DF0FEFC264B188017F07EF83A7898F81F
:108280000030013043EA02131C4AC0B213700223CB
:10829000BAE721482DF0E7FC18B9FFF7D3F9002819
:1082A000DAD1184B1A7898F800309A425ED02378C9
:1082B00043F00803F4E63378FF2B4DD032460F49E4
:1082C000C95C002044E7124B0139C9B2188817F085
:1082D00055FA014605E700BF2C6900202E690020F1
:1082E00031690020296900202D6900202B690020B8
:1082F00037690020326900206A5D0020146A00207E
:10830000306900202A6900202F690020725D00205A
:10831000785D00207A5D00207C5D002034330020F1
:10832000022A1CD1134A00211378013303F00703FA
:108330001370114B18682DF008FD104B002219889E
:108340000F482DF09BFC0F4B1B880BB9FFF704F96E
:108350000D4B1A780D4B1A7000232B7092E60C4AC5
:108360001378013303F007031370ECE703B0BDE8A3
:10837000F08F00BF3169002034330020785D002089
:10838000725D00206A5D0020306900202A690020AB
:108390002E6900202DE9F04F8246DFF8FC9285B06F
:1083A0000023DFF8F882AAF8003098F800301BB9F3
:1083B00089F80030FFF7C0FCA94DAA4E0DF10E0060
:1083C00028F003FA2728044616D04A469DF80E00E6
:1083D0000DF10F0199F800B0FFF73CF810F0DF073E
:1083E00004461BD0FFF7A8FC7A2827D8732807D8A3
:1083F0002028DAD0272821D1204605B0BDE8F08F0B
:10840000A0F17404062C19D8DFE804F00418444ADB
:10841000184C4E007420FFF70BFDC6E799F80030AA
:108420009B4506D0022B0FD89DF80F208E4B03F8EA
:108430000B20202CC2D0002C00F0FD8040F2551102
:108440008A48FFF789FAB0E7032B10D1884B1A78D6
:108450006AB12A88012130461F7032802DF024FD38
:10846000012300933A463188824817F041F92B885E
:1084700030889842DDD116F07FFFC7B2791C2846BC
:10848000C9B22DF011FD39469DF80F20288817F04C
:1084900089F9CEE77620FFF7CBFCFFF7A3FC84E752
:1084A0007720F8E77920F6E77A20F4E70A060DD47A
:1084B000032B2BD933785B0604D56F4B1B78B3EBBA
:1084C000111F01D0FFF738FC012519E001F0E0028F
:1084D000802A06D1012B19D17D20FFF73FFC022510
:1084E0000CE0A02A06D1012B10D17F20FFF736FC2B
:1084F000032503E07B20FFF79BFC0025FFF71CFC16
:108500003078430604D42023337049E77C20F2E717
:108510006B1E022B16D85949DFF884B198F8007009
:108520000A789BF8003007F00707A7EB020C9B1AAC
:108530000CF0070C03F007039C4515D97820FFF7D2
:1085400077FC0025AB1E012B2ED898F8003013F0D5
:10855000080326D0FFF75CF8032D69D0002D7FF4C7
:108560001FAFFFF73FFC1BE79742EBD00023444AC5
:1085700010F002000F70137008D0424A1380424B73
:108580001B78BB42DED0FEF7E7FFDBE7FFF706F81C
:108590009BF80030BB4201D0FEF7DEFFFFF7FEFB89
:1085A000D0E73A4A1370D7E7012DD5D1324998F870
:1085B00000200B78C2F3021098422DD1294D288853
:1085C00030B92620FFF70EFC2624FFF731FC13E715
:1085D000013303F007030B704FF07E63170742BFB0
:1085E000327842F008023270327822F0050232709E
:1085F000B3F840300BB128F0C5F82B880222019364
:1086000098F800303D200093214985232BF0FEFC93
:108610002B88AAF80030EFE61107337802D543F033
:10862000080371E7DA079CD47520FFF701FC98E78F
:10863000FFF764FBB4E6DFF8308099F8003098F873
:108640000010144EC0297FF431AF012B7FF45EAFD0
:10865000FFF792FB0425FFF78FFB28F007F84DE7A3
:10866000765D0020745D002033690020538703008D
:108670003569002034690020306900202969002014
:108680002D6900206A5D00202E69002020690020ED
:10869000918703002C690020366900201F690020A3
:1086A0003169002008B5114B1B781BB1002000F088
:1086B000010008BD0E4B1A780E4B1B789A42F5D17B
:1086C00011F010FF0028F1D10B482DF0CCFA002852
:1086D000ECD00A482DF0C7FA0028E7D0084B1B78E9
:1086E000002BE3D10120FFF761F8E0E71F690020CC
:1086F0002A690020306900207C5D00207A5D00201E
:1087000037690020F0B519B3002820DA2D23B0F125
:10871000004F137000D04042012119E0801B8642B7
:10872000ECB205F10105F9D914B9BCF1000F05D07F
:108730004FF0010C4D1C30345454E9B2013B13F09E
:10874000FF0309D130305054481CC0B2F0BD0021A5
:1087500009234FF0000C024F002557F8046BDEE7A9
:10876000988703002DE9F04F002495B0214602942C
:1087700080461646A1464422274603A802AC9B46E3
:1087800025462AF09DF80DF1480A317859B9641B45
:10879000E4B2224629460020C047002840F0AF80BE
:1087A0003C44E0B2ACE025291AD0B9F1000F1BD14E
:1087B000204600F8011B04465445C0F0F580641BB8
:1087C000E4B2294622460020C0470146002840F076
:1087D0009680274448222846FFB22AF071F8E2E04A
:1087E000B9F1000F00D101363278782A06D8612A13
:1087F00007D8252A5DD039D8002AC8D04FF0000903
:10880000DAE7A2F162011629F8D801A353F821F0A2
:10881000BF88000051890000AD890000FD8700007D
:10882000FD870000FD870000FD870000FD87000038
:10883000FD870000FD870000AD890000FD87000076
:10884000FD870000FD87000063890000FD870000B0
:10885000FD87000063890000FD870000AD890000EE
:10886000FD870000FD870000A3880000392A16D884
:108870002F2AC3D9717801F0DF01582940F0C38055
:10888000322A06F1010940F0AB805BF8041B204658
:10889000042289B227F0A9FF04464E46AEE7582AC3
:1088A000ACD15BF8041B02222046C9B227F09DFF21
:1088B00055E0214601F8022B62700C469EE74FF00E
:1088C0000009DBF800300193DBF804300093009BD3
:1088D000994502D10BF1080B90E7019B204602223B
:1088E00013F8091027F081FF5045044612D3441BAA
:1088F000E4B2294622460020C047014618B10020B4
:1089000015B0BDE8F08F48222846274429F0D8FF4B
:108910002C46FFB2009B5A1E4A4581BF20462022AA
:1089200000F8012B044654450FD3641BE4B22946DA
:1089300022460020C04701460028E0D148222846B0
:10894000274429F0BDFF2C46FFB209F10109BEE71B
:108950005B4653F8042B20469B4600F8012B044647
:108960004CE7621BD2B2294600205BF8049B0092C0
:10897000C04704460028C2D1009A01461744284641
:108980004822FFB229F09CFFE2B219F8020001343C
:108990000028F9D149460092C0470028AFD181464E
:1089A000009A1744FFB22C460136EEE66C2ADBF83B
:1089B00000000BF104090ED17378752B14BF01214F
:1089C000002101D0642B00D101362246FFF79AFE28
:1089D000CB46044412E7752A0CBF00210121F4E7BD
:1089E000342A10D15E4656F804BB04224FEA1B41DC
:1089F000204627F0FAFE1FFA8BF1042227F0F5FE3D
:108A0000B346044649E74FF00109D5E6054B1A780D
:108A10002AB95B78002B14BF022003207047012085
:108A2000704700BF1F6A00200329F8B598BF124B9A
:108A300005460E468CBF00245C5C032805D8DFE8A1
:108A400000F002080B0E44F002040C4B1F684FB9F3
:108A5000F8BD44F00804F8E744F02004F5E744F0DA
:108A60008004F2E77B681A68144203D03146284636
:108A70005B6898473F68EAE7BC8703005C330020E7
:108A800038B5104D2B78ABB10F4C23781BB100F0EB
:108A9000EFFA00232370002027F0C8FE0B4C50B1E2
:108AA00000F036FB0023012120782B70FFF7BCFF7C
:108AB0000123237038BD0122054B1A702278054B23
:108AC0001A70F7E71E6A0020196A0020176A002052
:108AD0001D6A0020236A002010B527F03CF8064BE1
:108AE00004461B781BB1BDE8104027F038B8FFF7EB
:108AF000C7FF2046F7E700BF186A0020002814BF10
:108B00000121FF21074A13780B44137008D0064B4C
:108B10001B78012B04D9054B1B780BB9FFF7B0BFAD
:108B2000704700BF1F6A0020176A00201D6A0020DE
:108B300070B527F010F8124E054633789BB900F057
:108B400005FC044620B1284627F009F8204670BDF0
:108B50000C4826F04BFF00F0ABFE0B4B1C6000F006
:108B6000D3FC0A4B186000F0B3F927F061FE084B04
:108B70000024186001232846337026F0F0FFE5E753
:108B80001A6A00205C330020643300206033002028
:108B90005833002000292DE9F34114BF0121FF21A2
:108BA000254A00F1FF30135C0B4413543AD0234E96
:108BB0003178012936D9FFF729FF0128044634D836
:108BC0001F4F26F0C8FF3B781BB31E4D2B781BB9F7
:108BD00001222A701C4A1370DFF8708098F8003068
:108BE00033B1019000F044FA0023019888F8003076
:108BF00026F0B5FF012027F019FE26F0ACFF2B78F8
:108C00002BB1019000F084FA002301982B7000230F
:108C10003B7026F0A4FF3078844203D02146FFF752
:108C200003FF347002B0BDE8F0810329F3D10228BC
:108C3000F1D127F001FEEEE71F6A0020176A00203D
:108C40001E6A0020186A00201D6A0020196A002090
:108C500068B526F080FF094B06461B78012B04D827
:108C600026F07DFF0025284668BD054B1D6800F0F5
:108C700083FA0544304626F072FFF4E7176A0020B5
:108C80006433002038B54160044626F064FF054691
:108C90002146044826F0ADFE2846BDE8384026F0BF
:108CA0005EBF00BF5C330020054B1B685843054B7B
:108CB00000F5742000F23F20B0FBF3F0704700BFD6
:108CC0006033002040420F002DE9F04385B0EFF300
:108CD000108672B600E000BF29F09BFC002800F06F
:108CE0008980674D674F2B7823B10020FFF706FF7F
:108CF00000232B70FFF78AFE0446002800F08180D5
:108D0000841EE4B2012C40F28380FFF77FFE01282D
:108D1000804604D95C4B1B780BB927F085FD5B4C72
:108D2000DFF888912078404507D099F8003013B9D2
:108D30004146FFF779FE84F80080B8F1010F0FD9A2
:108D4000DFF8448198F8003053B9514B1B7823B9B0
:108D500000F088F901224F4B1A70012388F8003087
:108D6000207800F0F3F999F8003013B14A4B1B78E2
:108D7000237000E000BF06B962B6EFF3108672B64A
:108D8000464B1A7852B100221A70434B20781B7858
:108D9000984203D101212170FFF746FE384600F0CA
:108DA0000FFB29F04BFC804600289CD1364F3B78C6
:108DB0009BB189F80000DFF8DC9099F800301BB116
:108DC00000F056F989F80080002027F02FFD0028D8
:108DD0004DD000F09DF900233B702B7823B100208B
:108DE000FFF78CFE00232B7000212078FFF71CFE7C
:108DF0000023237000E000BF06B962B605B0BDE8ED
:108E0000F0832B78002B80D0FFF778FE2C707CE766
:108E1000002003A900F018FB044600287FF475AF7A
:108E20001F4B039A1B689A4205D80120FFF766FE84
:108E300001232B7069E71B4BD3F8008000F09CF9ED
:108E4000039B80449845F0D200F0AEF900280CBF97
:108E500000230423039943F00203CDE9004338467D
:108E60002346114AA1EB080127F0E7FC4DE701205A
:108E700000F06CF906B962B6EFF3108672B6A3E79C
:108E8000226A0020383300201E6A0020176A002062
:108E9000216A0020196A0020236A00201C6A002031
:108EA0005833002064330020D98A00001D6A002056
:108EB00010B526F050FE0022044B1C781A7026F0E4
:108EC0004EFE00F043FC2043C0B210BD1B6A0020E0
:108ED0003849394B0A6F394802F0070270B51A60F9
:108EE000D1F820318069364DC0F34000032A287044
:108EF00058D003F00703981E43424341D1F8802223
:108F0000304C02F0010213434FF4C8702370FFF796
:108F1000CBFE2D4B2D4A18600A2316682C49013BC5
:108F200013F0FF0341F8040BF9D100EBC003304408
:108F300018442B781060274D6BB323781D4A3BB93A
:108F4000D2F8003103F00303591E4B424B4123700A
:108F5000D2F8003103F00303022B25D0032B26D0D7
:108F6000012B18D1FCF700F8A8B1144B411EDC68A6
:108F70000023024608461946C4F30B04164E01347A
:108F800004EB8404E4FB060104F00EF9FFF78CFE09
:108F90002B68184428601F20FFF786FE2B681844B2
:108FA000286070BD0123A9E7FCF73CF8DCE726F058
:108FB00025FDD9E7008000506833002000C0015033
:108FC000256A0020286A00209C330020703300208E
:108FD00074330020A033002040420F00074B1A7862
:108FE00052B100221A70064A136F23F0070343F0B0
:108FF00001031367FBF7A2BF704700BF266A00207A
:109000000080005008B5124B1B78FBB1022027F0FE
:1090100073FCD8B100F04AFAC0B10E4B9A6DD2037E
:1090200002D5DB6D9B0711D401220B4B1A7027F080
:1090300044FC0A4B0A4A1860136F23F0070343F0FD
:1090400003031367BDE80840FBF778BF08BD00BF06
:10905000286A002000C00050276A00206C330020DE
:10906000008000500122014B1A707047266A0020D0
:10907000F8B51E4B1B78002B36D01D4C23789BB9BE
:109080001C4B9A6DD20302D5DB6D9B072CD427F0C5
:1090900014FC194B194A1860136F23F0070343F0AF
:1090A00003031367FBF74AFF27F007FC124B144D2D
:1090B0001B68144EC01A2B78134F56F8232046F81D
:1090C0002300111A3A681148521A0A213A600932EB
:1090D000B2FBF1F20133DBB20260B3FBF1F201FB50
:1090E00012332B7000232370F8BD00BF286A0020C4
:1090F000276A002000C000506C3300200080005020
:10910000246A002074330020703300209C33002038
:1091100008B526F03BFD094A0949136F096823F099
:1091200007030B431367074B1B7813B10122064B50
:109130009A62BDE80840FBF701BF00BF0080005005
:1091400068330020286A002000E0005002280AD07E
:1091500003280BD001280CD1064A136923F004031D
:10916000136130BF70470020FCF794BF0020FCF76C
:10917000A9BF704700ED00E0054B1B781BB1054B04
:109180001B6803EBD303044A10681844704700BF00
:10919000286A00209C330020A03300200122014BCC
:1091A0001A707047286A0020014B1878704700BF7A
:1091B000286A002010B527F08CFB0A4C0A4B19686E
:1091C0002368C31A01B10BB9206010BD4A699A42E5
:1091D0003ABF9B1A0022D21A4A6128BF002389682D
:1091E000F0E700BFA4330020B0330020C38870B57F
:1091F00004460D463BB9FFF72BFD8542064602D2D9
:1092000027F005FB35460F4965610B68ABB90C606B
:10921000A36011E0AD1A9A68184665612AB1134639
:109220005A69AA42F6D950B11A4613468460A3601F
:1092300013B15969491B596170BD0020F0E70C60FA
:10924000F5E700BFB033002038B5134D2B685B69DC
:1092500093B1124A022014681C4427F041FB2046B7
:1092600000F0BAFA00230E492A680B70D0888007F4
:1092700009D501230B7038BD022027F031FB0220F5
:1092800000F0F4FAEEE79268002AF4D05069034443
:10929000012BEBD9EFE700BFB0330020A43300204F
:1092A0002A6A002070B516469DF81420C0E90336DE
:1092B0000271049ABDF818300260002204460D467F
:1092C0008260C38006BB27F004FB2844A0613DB93F
:1092D000E368656113B120462168984796B1354629
:1092E00026F039FC0646FFF765FF29462046FFF7C2
:1092F0007DFF074B1B68A34201D1FFF7A5FF304656
:1093000026F02DFC002070BD27F0E3FA3044DDE7A5
:10931000B033002000220C490B687BB183420AD194
:1093200083687AB1936083681BB15A6941690A44C2
:109330005A61002070471A469B68EEE70028EFD07C
:10934000022070470B60EEE7B033002070B526F0C6
:1093500011FC144E05463478FCB9134B1C60134BBA
:109360001C60134B1C8000F0FDF9012027F0B8FAB7
:1093700027F0D1FA0F4B0246186020B9284626F094
:10938000FFFB232070BD234640F2E7310A4803F07B
:109390000BFF0A4B186001233370284626F0F0FBC0
:1093A0000020EFE7296A0020B0330020A43300201A
:1093B0007E5D0020AC33002018FCFFFFA8330020A6
:1093C0002DE9F0410546F8B126F0C5FB0F4F0646E2
:1093D000FFF7F0FE2846D7F80080FFF79BFF044612
:1093E00028B1304626F0BBFB2046BDE8F081A845F9
:1093F0003B6803D123B1FFF727FFF2E7002BF0D141
:10940000022000F01BFAECE72224EDE7B033002045
:1094100038B50C46054698B191B100230B7026F083
:10942000A9FB0121074B1B680BB122781AB126F06A
:10943000A7FB002038BDAB4214BF9B682170F3E747
:109440002220F7E7B03300202DE9F0410746884697
:1094500026F090FB00260546124B1C6824B92846CE
:1094600026F08EFB1B2016E063691E44E388BB4296
:1094700015D127F02EFA0C4C2368C01AB0420CD23A
:1094800027F027FA22683244121A2846C8F800202A
:1094900026F076FB0020BDE8F0810022F5E7A46805
:1094A000DCE700BFB0330020A433002008B5074B31
:1094B000187848B127F001FA054B1B689B69C01A60
:1094C00002288CBF0020012008BD00BF2A6A0020AE
:1094D000B033002070B526F04DFB064627F0F9F9B1
:1094E000084B04461D880120ADB227F005FA18B1DB
:1094F00027F0EFF904460135304626F041FB2046BF
:10950000294670BD7E5D0020014B1868704700BF82
:10951000AC3300200C4B70B51B680D46834211D351
:1095200040F2E73100248C462146084B4FF47A7212
:109530001E680023E0FB06C1604603F035FE28608C
:10954000204670BD2120FCE7A8330020AC3300206A
:10955000014B1868704700BFA83300200F4B10B5AF
:109560001A689AB14FF47A71531E1342A0FB01019D
:109570000ED1B2FA82F2C2F11F04531CD243E04072
:1095800001FA03F3184321FA02F20243104610BD18
:10959000002303F009FE0246F8E700BFAC330020C9
:1095A000164B70B58342164B15468B4124D3154B91
:1095B0001A680AB34FF47A76A0FB0603541E1440CF
:1095C00006FB013111D1B2FA82F3C3F11F025E1C16
:1095D000DB4301FA06F6D04021FA03F33043184387
:1095E000D140C5E90001204670BD002303F0DCFD39
:1095F0000024C5E90001F6E72124F4E7EFA7C64BF4
:1096000037894100AC330020C2072DE9F0470446FA
:109610000BD54B4A138801339BB21380FFF7CAFD69
:10962000484B1B680BB1FFF70FFEA30740F1858085
:1096300026F0A0FA4FF0000980464D46FFF7BAFD2C
:109640004F46404E34680CB163698BB100223E4BEB
:10965000012D1A7003D119F0020F18BF1D70002CD4
:109660005BD0FFF7F1FD4046BDE8F04726F088BA31
:1096700023461A792179914288BF1C469B6813B111
:109680005A69002AF5D0404626F07AFAD4F81090AC
:10969000B9F1000F45D027F01CF9A269A0EB020830
:1096A0004FEAE873C14577EB03033BDA23691344C0
:1096B000A36101232269CAB1C3B9A38BB9EB08081E
:1096C00033B1E28B13449BB2B3F57A7F1CD2E383B0
:1096D00026F050FA814641462046FFF787FDA369F0
:1096E000226948461344A36126F04AFAE368B4F8B5
:1096F0000690013513B120462168984726F03AFAC2
:109700008046FFF757FD9DE7A3F57A73E383A369CE
:1097100018F1FF38013BA361DAE7022000F08EF870
:10972000A1E7C84626F026FA82462046FFF7F2FD5A
:10973000504626F025FA0023BCE7BDE8F08700BFBD
:109740007E5D0020B03300202B6A002010B526F08B
:1097500011FA034B1C7826F013FA204610BD00BF07
:109760002B6A00201FB50024184B18689A880290B5
:10977000D3F806009B7A009002A8ADF80C208DF873
:1097800004308DF808408DF80C40FCF71BFE69464C
:1097900001208DF80040FCF7D9FD4FF0B0431F21A8
:1097A0009A6922F01F029A61094A51619A6A12F07D
:1097B0000802FBD11A620120FCF7E2FD4FF480623F
:1097C000044BC3F880211A6004B010BDC0870300A9
:1097D0000020005800E100E010B5044626F0BBF977
:1097E0004FF0B042936A1907FCD4136A116C5269A6
:1097F000120704D4CA1A032A01D899420ED1E21AD8
:10980000022A98BFDC1CB4F1FF3F38BF013C4FF087
:10981000B0431C649A6942F008029A6126F09FF9ED
:10982000054A13783BB14FF0B041CB6B43F00203D4
:10983000CB630023137010BD3C160020820700F09C
:1098400001030AD50121084A43F0080311704FF0C3
:10985000B041CA6B22F00302CA634FF0B0418A697B
:1098600022EA03038B6170473C160020830742BF46
:109870000822014B5A6170470010005810B526F0BD
:1098800079F94FF0B04304465B691A07074A03F0C1
:10989000010003F00D0348BF40F002005361FFF7E1
:1098A000B3FE2046BDE8104026F06AB900200058FB
:1098B0000A4B10B5D3F8403203F00303013B012BF0
:1098C0000BD826F048F9044601210220FFF762F97F
:1098D0002046BDE8104026F042B910BD008000507F
:1098E00024282DE9F341054604D82C46204602B031
:1098F000BDE8F08100240B4E0B4FDFF830800023D1
:1099000038681A461946CDF8008029F026FB8442B3
:10991000EBD2252CE9D056F8043B9D42E6D0013429
:10992000EDE700BF248B0300B0100020FFFF0F0005
:109930002DE9F04F634E644D3168286889B005F019
:109940001FF80446002827D033680024D3E900011B
:109950009A6912689047336804A89B699B68984786
:10996000336802209B69DB68984732680598536822
:10997000E7B2B3FBF0F3BB42916904F101044CD8A8
:10998000CB680020984733689B695B6898473168CB
:10999000286804F0F5FF04460026DFF84891DFF858
:1099A00048814A4FDFF844A1ECB9494BF35C002BE6
:1099B00000F082803968286802AB03AA009105F0A4
:1099C0001FFA5045009907D068B9039B012B0AD0B4
:1099D000286805F05BFA0099D9F8003028681A6801
:1099E00005F03CF904460136252E09F1040908F179
:1099F000010807F10407D7D1B4FA84F3354A5B09AB
:109A000013702B681B7C23B14FF48B713248FDF728
:109A1000A3FF204609B0BDE8F08F12680B6907FB71
:109A200000209847A1E73B6803AA194402AB0191C3
:109A300005F0E6F9504501992DD028B30BF1010B43
:109A4000009B5FFA8BF199422868ECD3234BF35CBF
:109A5000002BC8D0DDF800B05FFA8BF37E2B2868AE
:109A6000C1D8396802AB594403AA009105F0C8F97E
:109A70005045B8D00099286805F008FA0BF1010BA1
:109A800004460028E8D0AEE7039B7BB998F8003085
:109A9000029A9A42D2D098F80030D9F8002028686B
:109AA00005F044F80028C9D00446CFE728680191A2
:109AB00005F0ECF90199EEE7094BA346F35C00933E
:109AC000BEE700BFB4100020B0100020248B0300BC
:109AD000D88A03002C6A0020DD8B0300FD8A030076
