:104000000010002001460000CD710000D1710000B9
:10401000FD450000D5710000DD710000FD45000088
:10402000FD450000FD450000FD450000FD45000088
:10403000E171000090630300FD450000FD450000B4
:10404000FD450000FD450000FD450000E544000081
:10405000FD450000FD450000FD450000FD45000058
:10406000FD450000FD4500005D8F000071DD000092
:104070007DDD0000FD450000FD450000FD45000020
:10408000FD450000FD450000FD450000FD45000028
:10409000FD450000FD450000FD450000FD45000018
:1040A000FD450000FD450000FD450000FD45000008
:1040B000FD450000B56E0100FD4500007D78010062
:1040C000217801001D780100597001007978010004
:1040D000257801003D78010029780100FD5E01008E
:1040E000BD780100FD450000FD450000FD450000D4
:1040F000FD4500003D5F0000FD450000FD4500005E
:10410000FD450000FD450000FD450000FD450000A7
:10411000FD450000FD450000FD450000FD45000097
:10412000FD450000FD450000FD450000FD45000087
:10413000FD45000010B5054C237833B9044B13B18D
:10414000044800E000BF0123237010BDA824002014
:10415000000000002491030008B5034B1BB1034984
:10416000034800E000BF08BD00000000AC240020B0
:1041700024910300A3F5803A704700BF174B002B32
:1041800008BF134B9D46FFF7F5FF00218B460F46F6
:104190001348144A121A0AF0ECFD0E4B002B00D003
:1041A00098470D4B002B00D09847002000210400B9
:1041B0000D000D48002802D00C4800E000BF0AF0B6
:1041C00075FD2000290009F01EFF0AF05BFD00BF0D
:1041D00000000800000000000000000000100020A7
:1041E00084180020E86D002000000000000000009E
:1041F000BFF34F8F0549064BCA6802F4E0621343D0
:10420000CB60BFF34F8F00BFFDE700BF00ED00E0C4
:104210000400FA0500239B6AB3F5804F03D21968A6
:10422000064A914203D00023037083607047012245
:1042300002709A689B694260F7E700BF07B0CD5EE5
:1042400030B50024A36A87B0B3F5804F05460191CD
:104250000FD2012303A88DF80C30CDE90444FFF7F9
:10426000D9FF059B5B0504D5A36A28461B6C019901
:10427000984707B030BD000073B5464B04461A7826
:104280001AB102221A7002B070BDCDE900220028D6
:10429000F9D001261E7001F04EF93F4D3F4B1860DA
:1042A00011F0E8FC2B785BB900F02CFB40B93C48DE
:1042B00008233C4A3C4900680CF0E4FB00B92E702E
:1042C0003A4B5A68A2603A4A9A601A6E22605A6E55
:1042D00062601B6E5C043DD5364AD368D807FCD4B7
:1042E000354B1A68531C3AD04FF480139340334A2D
:1042F00013660423314C23664FF48063236600F079
:104300003DF901300BD000F039F940F20113984229
:104310001FBF4FF4804323664FF4004323661023EE
:10432000264C4FF0804223664FF4005368462366C4
:1043300001A922666366FFF783FF009B2366019B4A
:1043400063662B78002B9ED0164B1A6822665B683A
:10435000636698E71A4AD368D907FCD4C0E7194BBB
:104360001B78002BC5D1184B5A68144B12B94FF467
:1043700080121A66154A526812B94FF400121A6672
:10438000134B5B68002BB4D14FF480020B4B1A66C1
:10439000AFE700BFDA240020D8240020DC2400206E
:1043A000B0100020D02400200071080000800044DC
:1043B00055CEAC000000044098100020009000444E
:1043C00000000450D92400200080055000C0055092
:1043D0000000065038B5214D04462B78012B02D041
:1043E00001232B7038BD0028FCD000F0C7F8013045
:1043F00009D000F0C3F840F20113984203D0184AE4
:10440000D368DB07FCD42268164B1A6662685A66CA
:10441000A268D40744BF00229A60134B1A68013285
:1044200013D1124A127882B911494968C80748BFA6
:104430001A60104A5268D10744BF01221A600E4A1E
:104440005268D20744BF02221A6011F02BFC0B4BBA
:10445000186801F076F80023C3E700BFDA240020D3
:10446000000004400080004498100020D92400205F
:104470000080055000C0055000000650DC240020DC
:1044800070B50024A36AB3F5804F1ED2104E337866
:1044900013F0FD0517D10F48FFF7EEFE08214FF48A
:1044A00080330D4A0D48C2F88011C36011600C4A78
:1044B0001361AB6ADB69984704460648FFF78AFF39
:1044C0000CB901233370204670BD4FF48174FAE7B4
:1044D000D9240020C424002000E100E000A0004412
:1044E0000090004413B51F4B1B7803B9FEE700236F
:1044F0001D4CCDE900336A4608231C4920680CF0A6
:10450000C1FAF0B91A4AD2F84031D2F840211F2B33
:104510004FF0010310D9203A9340019A13430193BD
:1045200008236A46114920680CF062FA4FF00053E4
:10453000104A1A60FFF75CFE9340009A1343009301
:10454000EEE70D4B9842F1D1094AD2F84031D2F84A
:1045500040211F2B4FF0010302D9203A9340DEE7A0
:104560009340ECE7DA240020B0100020007108002E
:10457000008000440B020FF00BE000F01FB5002399
:104580009A6AB2F5804F04D340F2011005B05DF88D
:1045900004FB126BB2F5804FF6D2012201A8CDE9DF
:1045A00002338DF80420FFF735FE039BDB03EBD5C8
:1045B000029B1A0EE8D0012A03D1C3F307430A2B4A
:1045C000E2D900239B6A1B6B1B6C9847DEE7002334
:1045D0000360704703680B600160704705490A6813
:1045E0001318054883428CBF4FF0FF320B60104612
:1045F000704700BF9C10002000000120FEE7000073
:1046000008B500F02DF8124B12498B4212D300204E
:10461000114B12498B4218D3FFF7B0FD186850F8C0
:104620002240586840F82240013298688242F5D30F
:104630000C33EAE70022F8E71C6844F82200013254
:104640005C68A242F8D30833E4E70022F8E700BF31
:104650002C91030038910300389103003891030036
:104660006FF00100104B114A10B59A60D3F8882002
:104670000F4942F47002C3F8882001F50052106619
:1046800041F2FF7050660220C3F8D000BFF34F8F95
:10469000BFF36F8F08244FF440330648C0F88041C1
:1046A000D36004600B6110BD00ED00E0004000002D
:1046B0000080004400E100E0014B1868704700BF33
:1046C000A4100020014B1860704700BFA410002008
:1046D000084B1B6F03F00703022B04D0032B05D0FC
:1046E000012B05D0FEE7044B18687047034BFBE72E
:1046F0000348704700800050A4100020A81000203C
:10470000002D310108B5FFF7E3FF054B1B6FC3F325
:1047100001330133B0FBF3F0024B186008BD00BF5A
:1047200000800050A01000200048704700B4C4046E
:10473000014B1868704700BFA8100020054B186097
:10474000054B1B6F03F00703032B01D1FFF7DABF03
:10475000704700BFA8100020008000500020704764
:1047600000487047002D3101174B9868C0F3044092
:104770000C2822D8DFE800F0092121212121071788
:1047800019211B1D1F00114870479B6803F04073DF
:10479000B3F1807F13D0B3F1007F12D00C4A002B0D
:1047A00008BF104670470B4870470B4870470B48CE
:1047B00070470B4870470B487047002070470A4805
:1047C00070470A48704700BF0040015A405DC6006C
:1047D00000093D000024F400C0EA210180BA8C01E8
:1047E0000048E801005A620280841E0040420F0027
:1047F0004FF4004070474FF47A707047014B1868CF
:10480000704700BFAC10002008B50422012303212B
:10481000002000F0E5FE002000F0E1FE01221B4B2D
:104820000521C3F844240C2000F05CFC0C2000F0AF
:1048300007FB174B00F5D520D3F8F02000F2FC4021
:1048400042F00102C3F8F020D3F8FC2042F080725D
:10485000C3F8FC200F4AA3F55D431A600E4B0222F9
:10486000B0FBF3F00D4B01381861C3F8F0204FF4A2
:104870008072C3F804234FF06043094A0020C3F854
:10488000B02F084AC3F8802E08BD00BF00D00350E7
:1048900000ED00E0FF030040F8590D00000004E0C7
:1048A00055CEACC5090001004FF060420123D2F89B
:1048B000001E03FA00F00843C2F8000E0020704703
:1048C0004FF06043D3F8802E30B5D20715D50124C0
:1048D0000B4D8440D5F8FC2042F08072C5F8FC20D6
:1048E000D3F8002E2243C3F8002E53F82020002ACC
:1048F000F0D003F82010002030BD1120FCE700BFED
:1049000000ED00E0024B1968024B18680BF09ABFEB
:10491000B4100020B01000207047000037B592009E
:1049200004460D46019231F02BFD431C0BD060B9BB
:1049300029462046019A0AF0E5F90028044808BFF4
:10494000002003B030BD0348FBE70348F9E700BF90
:1049500010E000F021E000F024E000F013B5044680
:1049600001A800F053FF9DF80630012223804FF488
:10497000807300206380054B9B680A3303F01F039C
:1049800002FA03F3636002B010BD00BF0080E00FC5
:1049900000F074BE08B500F065FE002008BD10B53B
:1049A000044644EA010313F00303084609D1934285
:1049B00001D1002010BD54F8231040F8231001331A
:1049C000F5E7214692000AF0ADF9F2E710B504468A
:1049D00031F0CEFC431C15D0B0B90C4B20469B687F
:1049E0000A3303F01F020123934023F003032344FF
:1049F000984201D1002010BD50F8042B0132F7D0AD
:104A00000348F8E70348F6E70348F4E70080E00FBF
:104A10000EE000F021E000F024E000F008B500F026
:104A20007BFD014B186008BD702B0020014B1868FE
:104A300000F076BD702B00207047000041F6713306
:104A400010B5104C104AA0428CBF4FF480140024C3
:104A5000D169D363936801F4803123F44013234375
:104A600093600A4B98420A4BD3F818228CBF42F04D
:104A7000020222F00202C3F8182211B10022024BF6
:104A8000DA6310BD005A62020000035080F0FA029F
:104A900000C007502E4B98424AD022D82D4B984246
:104AA00040D014D82C4B984239D00AD82B4B98427E
:104AB00032D02B4B98422FD02A4B98422CD000203A
:104AC0007047294B9842FAD1284B186F7047284BF2
:104AD00098422AD0274B9842F1D1244BD3F880003A
:104AE0007047254B98422BD009D8244B984223D0AD
:104AF000234B9842E3D11D4BD3F88C007047214BD8
:104B0000984221D003F5740303F510539842D6D18F
:104B1000164BD3F898007047144B986D7047134BA1
:104B2000586E7047114B586F7047104B986F704715
:104B30000E4BD3F8840070470C4BD3F888007047B5
:104B40000A4BD3F890007047084BD3F89400704795
:104B50000048E8010024F400C0CF6A0080841E00F1
:104B600000093D0040420F00405DC6000080E00F9C
:104B7000C0EA210180BA8C01007E560380D5430231
:104B8000006CDC020090D00308B5FFF7CDFDBDE856
:104B900008400021FFF752BF38B5124B0546D3F845
:104BA00020310C4603F00703013B032B17D8DFE845
:104BB00003F0020A0E12FFF77FFD042305B12860FF
:104BC00004B1236038BDFFF7B3FD0323F6E7FFF719
:104BD000CBFD0523F2E7FFF7C3FD0223EEE7002339
:104BE0001846EBE70080005037B50C460021124A0A
:104BF0000191D2F88021054602F00302022A0ED06C
:104C0000032A11D0012A14D101A8FFF7C5FF0D23F3
:104C10000DB1019A2A6004B1236003B030BDFFF7E3
:104C2000A3FD05230190F3E7FFF79AFD022301900E
:104C3000EEE70B46ECE700BF0080005038B5104BA4
:104C40000546D3F840310C4603F00303022B0BD08A
:104C5000032B0DD0012B0FD1FFF7CAFD082305B19F
:104C6000286004B1236038BDFFF7C8FD0723F6E7CD
:104C7000FFF7C1FD0923F2E700231846EFE700BF65
:104C80000080005038B5104B0546D3F860310C4613
:104C900003F00303022B0BD0032B0DD0012B0FD1FC
:104CA000FFF7A6FD082305B1286004B1236038BDD5
:104CB000FFF7A4FD0723F6E7FFF79DFD0923F2E7C1
:104CC00000231846EFE700BF0080005038B5134BB3
:104CD0000546D3F800320C4603F00703013B032BD3
:104CE00018D8DFE803F0020A0E12FFF781FD08234F
:104CF00005B1286004B1236038BDFFF77FFD0723AD
:104D0000F6E7FFF778FD0923F2E7FFF7FBFC0C233A
:104D1000800AEDE700231846EAE700BF0080005054
:104D200038B5134B0546D3F808320C4603F0070399
:104D3000013B032B18D8DFE803F0020A0E12FFF73D
:104D400057FD082305B1286004B1236038BDFFF783
:104D500055FD0723F6E7FFF74EFD0923F2E7FFF7BE
:104D6000D1FC0C23800AEDE700231846EAE700BFD8
:104D70000080005038B5104B0546D3F840320C4641
:104D800003F00303022B0BD0032B0DD0012B0FD10B
:104D9000FFF72EFD082305B1286004B1236038BD5C
:104DA000FFF72CFD0723F6E7FFF725FD0923F2E7C0
:104DB00000231846EFE700BF0080005038B5104BC5
:104DC0000546D3F800310C4603F00303022B0BD049
:104DD000032B0DD0012B0FD1FFF7AAFC032305B144
:104DE000286004B1236038BDFFF708FD0723F6E70C
:104DF000FFF7B4FC0623F2E701230020EFE700BF32
:104E000000800050032814D005D8012805D00228BE
:104E100009D0002005E00F28FBD1084B186FC0F324
:104E2000013001307047054BD3F89000C0F30460A7
:104E3000F7E7024B186FC0F38020F2E700800050C4
:104E40001FB500230193252817D8DFE800F0131AB7
:104E50001D262B353A50555A5F646977161A3F164E
:104E600016551A262B26351A5026773A3A3A3A26FC
:104E700026265A5FFFF72CFC0190019805B05DF8DB
:104E800004FBFFF73FFCF7E7FFF722FC0246022096
:104E9000FFF7B8FFB2FBF0F0EEE7FFF733FC024696
:104EA0000320F5E7FFF72EFC02460320FFF7AAFFD9
:104EB000B2FBF0F04008DFE7002101A8FFF794FE05
:104EC000DBE7002101A8FFF767FED6E702934FF06A
:104ED000E0231B695B0705D5FFF714FC0290029BDA
:104EE0000193CAE703A902A8FFF7A8FEF7E700218C
:104EF00001A8FFF7A3FEC0E7002101A8FFF7C2FE4B
:104F0000BBE7002101A8FFF7E1FEB6E7002101A8F9
:104F1000FFF706FFB1E7002101A8FFF74FFFACE75D
:104F2000094BD3F8803003F00303022BA9D0032BE5
:104F300001D00020A0E7FFF717FC9DE7002101A8A2
:104F4000FFF718FF99E700BF0080005008B5012067
:104F5000FFF776FFBDE80840034988428CBF022175
:104F60000121032000F002B880F0FA02032810B5F6
:104F70000C4627D004D8012804D0022817D010BD31
:104F80000F28FCD1FFF700FE00F028F8124B013C7F
:104F9000196F21F4405141EA04341C67FFF7B2FB5A
:104FA0000021FFF74BFDBDE81040FFF7CFBF0A4BD4
:104FB000013CD3F8901021F0F85141EA0464C3F8A1
:104FC0009040DCE7044B013C196F21F4806141EA19
:104FD00084241C67D3E700BF008000500221032017
:104FE000FFF7C4BF1FB500230193252821D8DFE8B0
:104FF00000F013202020202A2F454A4F54595E717B
:1050000020203420204A202020202A204520712FD3
:105010002F2F2F2020204F54314B1B6F03F00703FD
:10502000013B032B05D8DFE803F00C02080A042338
:105030000193019805B05DF804FB0323F8E706230C
:10504000F6E70223F4E7002001A9FFF7CDFDF0E722
:10505000002001A9FFF7A0FDEBE702934FF0E0234A
:105060001B695B0705D5FFF74DFB0B230393039BE0
:10507000DEE703A902A8FFF7E1FDF8E7002001A998
:10508000FFF7DCFDD5E7002001A9FFF7FBFDD0E726
:10509000002001A9FFF71AFECBE7002001A9FFF7C6
:1050A0003FFEC6E7002001A9FFF788FEC1E70C4BD1
:1050B000D3F8803003F00303022B03D0032B05D079
:1050C0000023B5E7FFF71EFB0B23B1E7FFF74CFB0F
:1050D0000523ADE7002001A9FFF74CFEA9E700BFBB
:1050E0000080005070B50C46252848D8DFE810F045
:1050F000260047004700470047005B006B009B000D
:10510000AB00BB00CB00DB00EB00FC00470047001E
:105110007B0047004700AB004700470047004700BF
:105120005B0047009B004700FC006B006B006B00BE
:105130006B00470047004700BB00CB008B1E042BD1
:105140002ED8DFE803F02A1D032D270000250226B4
:10515000FFF71AFDFFF742FF6B4A136F23F00703B7
:1051600033431367FFF7CEFA0021FFF767FCFFF721
:10517000EDFE25B9032C02D10122644B9A6270BD69
:105180000122634B0E469D6A03F58053C5F340052B
:105190009A62DDE700250426DAE700250126D7E735
:1051A00000252E46D4E78C1E0B2C8CBF0021594BBA
:1051B000554A98BF195DD2F8803123F003030B43A1
:1051C000C2F88031DBE78C1E032C8CBF0021524BD0
:1051D0004D4A98BF195DD2F8203123F007030B43E5
:1051E000C2F82031CBE70B2912D00ED8CC1F022CED
:1051F000C5D84A4A536A43F0010353624FF0E02294
:10520000136923F004031361B9E70E29B7D1F0E75E
:10521000424A536A23F0010353624FF0E0221369BC
:1052200043F00403EFE7CC1F022C8CBF00213C4B62
:10523000354A98BF195DD2F8403123F003030B4380
:10524000C2F840319BE7CC1F022C8CBF0021354BAC
:105250002D4A98BF195DD2F8603123F003030B4348
:10526000C2F860318BE7CC1F052C8CBF00212E4B80
:10527000254A98BF195DD2F8003223F007030B438B
:10528000C2F800327BE7CC1F052C8CBF0021274BD6
:105290001D4A98BF195DD2F8083223F007030B436B
:1052A000C2F808326BE7CC1E042C8CBF0021204BC7
:1052B000154A98BF195DD2F8003123F003030B4360
:1052C000C2F800315BE705290CD00B2914BF00217F
:1052D00002210D4AD2F8803023F003030B43C2F8B9
:1052E00080304CE70321F4E7CC1F022C8CBF002157
:1052F000104B054A98BF195DD2F8403223F00303E2
:105300000B43C2F840323AE70080005000E0005002
:1053100000C00050046403001064030000C0075084
:10532000146403001464030017640300176403008B
:105330001D6403001464030038B50546FFF7AAFB9B
:10534000214B04465A68012A04D120494A609A69CF
:105350009207FCD10020FFF745FE042803D1FFF798
:1053600013FCFFF73BFE1A4A24F04073954221D00C
:10537000184A954221D0184AD16811F0060FFBD186
:1053800090689360916803F4F81301F4F8118B426C
:1053900016D12846FFF796F90020FFF723FE0428D0
:1053A00010D1FFF7AFF90021FFF748FBBDE8384007
:1053B000FFF7CCBD43F00073DDE743F08073DAE71D
:1053C0009060E9E738BD00BF00C0015000E0015027
:1053D00040420F0080841E000000015070B504465A
:1053E0000020FFF7FFFD03287CD045F60E030221C5
:1053F000414AC2F88030414B9962012103F5805344
:105400009962936DD903FCD4D4E900131B0543EAD8
:105410000163E17B94F822500B43217B94F82360D5
:1054200043EA0143617B43EA0133A17B43EA8113F1
:1054300013619169D4E904031B0643EA806301F018
:1054400000410B43A17EE07E0B43217E43EA0143F2
:10545000617E43EA01239361136AE26923F00D033D
:10546000002A0CBF0021082143EA020343EA80031B
:10547000214A43EA0103136294F820304FEA4313B0
:1054800031D1906A94F8211020F0330043EA0113DF
:10549000034343F001039362194B916D33EA010119
:1054A000FBD10221154B9962936D5B00FCD410690E
:1054B000A36820F4700040EA035010614FF00042EE
:1054C0000E4B9A611DB9022203F580539A6216B9F8
:1054D00001220C4B9A6294F824301BB1064B0A4A05
:1054E000C3F8802070BD916A21F0330131430B4332
:1054F00043EA45039362EEE700C0005000D000503D
:105500000300014000E00050F1A7FFFF014B93F9B9
:1055100000007047242C0020EFF3108072B6704713
:1055200000B962B67047302383F3118870470023B7
:1055300083F311887047EFF31180302383F31188D0
:10554000704780F311887047704770470A4A10B55A
:105550001369044643F00403136103F09BF8FFF75B
:10556000F3FF30BFFFF7F1FF03F0A8F81CB9BDE867
:105570001040FFF7C7B810BD00ED00E0084A10B5B5
:105580001369044643F00403136103F083F830BF4A
:1055900003F094F81CB9BDE81040FFF7B3B810BD94
:1055A00000ED00E070477047034A0179D36E23F0A5
:1055B00030030B43D36670470040005070B505467A
:1055C00014460E46FFF7A8FF296881EA040202EAA2
:1055D00006044C402C60BDE87040FFF7A1BF704747
:1055E000F8B504460D461F4616464AB101238B40C6
:1055F0003021194A01FB0022FFB141F21001535042
:1056000004EB4403072D4FF00F014FEA031317D8A3
:10561000A80006FA00F2814010481844FFF7CEFFB8
:1056200056B9012130230C4801FA05F503FB0400AB
:1056300077B141F21003C550F8BD42F21001DEE728
:10564000A5F10800800006FA00F281400448E4E772
:1056500042F21003EFE700BF00C0035004C0035044
:105660000CC0035041F67132034BDA63012203F59B
:105670000053DA60704700BF0000035041F67132FA
:105680000121044BDA6303F50052D1600022DA6392
:10569000704700BF000003504FF050234FF400321A
:1056A0001A677047014BD3F89400704700400050D0
:1056B0004FF0B0435A6812B19A6A002AFAD1704783
:1056C000CB784A7810B55B010C7843EA82030A79FB
:1056D000234343EA02130C22424302F1B042136314
:1056E000012C02BF8A78024B43F8202010BD00BF76
:1056F000D080035008B54FF0B0435A6802B960B18A
:105700005B680BB1FFF7D4FF4FF0B04130B101201F
:10571000074B5860FFF7CCFFC86008BDFFF7C8FF14
:105720000223CB60FFF7C4FF0122024B5A60F4E76B
:1057300000100058002000584FF0B0435B6870B56F
:105740000BB1FFF7B5FF0121104B45785960837805
:105750000679002BC37814BF02240024002B14BF49
:10576000042200224379DB0043EA06132B43234340
:1057700013434FF0B0429360054B59600378002B00
:1057800014BF0B460223D36070BD00BF0020005839
:1057900000100058436813B9416070475B685A684D
:1057A000012AFBD159607047836813B98160704743
:1057B0005B685A68012AFBD159607047C369032BA3
:1057C0009FBF00EB83020133D160C3617047C3699F
:1057D000042B15D84FF09842116CC902FCD5043344
:1057E0009B0013650168103B116041680C3011602B
:1057F00050F8041C034411604FF09842984200D1C5
:10580000704750F8041B1160F8E70000054B5B6916
:10581000C3F38512827003F03F021B0B42700370CA
:10582000704700BF00C007500D4B984208D1A3F548
:105830000033C3F88411C36D43F08003C365704720
:10584000084B984204D1A3F51033C3F89411F2E742
:10585000054B984204BFA3F52033C3F8A411EAE72F
:105860000080055000C005500000065070B5054688
:1058700016461C4619B90320FFF7E2FA0146402CF0
:105880001BD003D8DCB1202C1BD070BD602CFCD108
:10589000042303FB06F2560806EB4113B3FBF2F3B5
:1058A000094A203B02EAC303AA6822F06002AA6008
:1058B000AA681443AC60EB61E7E70623E9E710232D
:1058C000E7E70823E5E700BFF8FF7F00012200F5C6
:1058D00080535A60CB43934003F00A034361416114
:1058E00011B900F50050426070470000012200F538
:1058F000805310B55A6040F6AA6341F20502436135
:10590000002312498360C365C26000F50052036141
:10591000C361C36491640E498365884206D00D4C0F
:10592000A04203D004F58044A0420BD18842036515
:1059300006D0084B984203D003F58043984201D12A
:10594000002343650123536010BD00BFFFFF01002A
:105950000080055000C0055070B50D46FFF7C6FF2A
:10596000012300F580567360AB7C04461BB183684D
:1059700043F080438360EB7C1BB12046297DFFF719
:1059800053FF2A8A6B7B20461343EA891343E36063
:105990002B7BD5E90112FFF769FF6B7D1BB1A36873
:1059A00043F48033A360AB7D1BB1A36843F4004391
:1059B000A360EB7D2A7E1B07120502F4E00203F0D0
:1059C000E0431343A3656A7E931E012B214B20D82D
:1059D0009C421AD003F580439C4218D003F58043C3
:1059E0009C420CBF02234FF0FF3341F2AC51022026
:1059F0005B0103F1A04303F570335850032A23D110
:105A00000423F3652B78636170BD0023EDE7012368
:105A1000EBE79C4214D0104B9C4213D003F580431B
:105A20009C420CBF02234FF0FF3342F2AC510220E4
:105A30005B0103F1A04303F570335850012ADEE700
:105A40000023F2E70123F0E7042204F50053DA65AE
:105A5000D8E700BF0080055000C0055083691B06D1
:105A6000FCD5406AC0B2704783695B06FCD5C16350
:105A70007047002070470F2070470F2070470020AC
:105A800070470F207047002070470F20704700209C
:105A900070470F207047002814BF0F200020704768
:105AA000002070470020704738B50446054D0CF0C3
:105AB00016F80FCC0FC594E80F0085E80F00002002
:105AC00038BD00BF282C002047F6FF739A42F0B57E
:105AD00063D0032963D8334BCF0003EBC10013F825
:105AE00031108478012913D10025C3781B1B9D42F6
:105AF00002D3E018C0B2F0BD591B4668A3EB5101B8
:105B000036F911609642D4BF0D4601F1FF33EEE73E
:105B100040680028EFD0B0F90010914204DBB0F9E2
:105B200002109142B8BF114682883B44FF2A19BF38
:105B3000C8222826B0F90620B0F90860A2EB0102BD
:105B40000CBF0125002592FBF6F25F782A447B1EEC
:105B5000934228BF13464FF47A7E00EBC305AE682C
:105B6000EA88AC4611FB02621E4622EAE272013369
:105B700002F5FA729F42B2FBFEF204D9BCF80CC0E7
:105B800008359445EBD200EBC6008088904228BFD0
:105B90001046A04238BF2046ACE7FF20ABE700200C
:105BA000A9E700BF282C00200329F0B553D82B48C3
:105BB00000EBC10410F83110636801290FD1E078BF
:105BC000A478904294BFC4EB0001C4EB0201001B17
:105BD000CAB28242C8BF002233F91200F0BD002BC6
:105BE00039D0A178914202D3B3F90200F6E7E17807
:105BF000B3F900009142F1D999886478A1F1FF06C8
:105C0000013C714203F10405E4B2714103F10C0758
:105C10001FFA82FCCEB2B44216D805EBC1014FF494
:105C20007A756A43B1F902404968521A04EBD4719B
:105C300002EB610292FBF4F29042CFDBB3F9020077
:105C40009042CBDC10B2C9E737F831E04E1CE64594
:105C5000E3D33146DEE70248C0E700BF282C00202E
:105C60000080FFFF08B50448FFF71EFFBDE80840AD
:105C700001200BF071BF00BF2464030000207047B7
:105C8000002814BF0F20002070470120704701201A
:105C90007047012814BF0F20002070470F20704765
:105CA0007FB51422002101A809F063F8044B01A973
:105CB0004FF0FF3002930BF0A3FF07B05DF804FB39
:105CC000006A1800002307B5CDE9003301236946B7
:105CD0004FF0FF308DF802300BF0DAFE03B05DF8C4
:105CE00004FB000013B50024064A6846536F43F0D6
:105CF0000103536700948DF80440FFF755FC2046DC
:105D000002B010BD0040005008B50248FFF714FB78
:105D1000002008BD00B4C40430B58BB06C46154DEE
:105D20000FCD0FC40FCD0FC495E8030084E8030026
:105D3000114BD3F84C21120314D4D3F85041E4B2E0
:105D40008DF81940FFF7E2FB204480F308008DF83E
:105D500018000A48FEF7F2FC6846FFF73FFB0020F8
:105D60000BB030BD064B1C884FF6FF739C4208BF3A
:105D70008C24E5E7106503000080E00F00F0490285
:105D80000001E00F6FF00402502110B50A480B4CDF
:105D900012F0800FD3B21BBF03F00F03043BA31814
:105DA0001B1802F101020CBF83F8001319763D2A7B
:105DB000EED1002010BD00BF00ED00E000E100E0EA
:105DC00000F078B838B502F0E9FD0446E0B902F019
:105DD000FFFE4FF4167343430C4803F5742303F29C
:105DE0003F23B3FBF0F30A4A0A4913600A220D6805
:105DF0000948013A12F0FF0240F8043BF9D103EBE5
:105E0000C3022B4413440B60204638BD40420F00B0
:105E1000842C0020502C0020542C0020012208B596
:105E2000034B1A7002F0AEFE024B186008BD00BFB3
:105E30004C2C0020802C0020F8B5144C237823B380
:105E400002F0A0FE124B134D1B68134EC01A01281E
:105E500038BF0120114B124F18602B7856F82320C1
:105E600046F82300111A3A680E48521A0A213A607D
:105E70000932B2FBF1F20133DBB20260B3FBF1F2A3
:105E800001FB12332B7000232370F8BD4C2C002033
:105E9000802C00207C2C0020542C0020482C00203A
:105EA000502C0020842C0020014B1868704700BF44
:105EB000842C002020230949094A81F82D33094BFD
:105EC00003F50050426702674FF40050C1F88401A7
:105ED000486003F580535A67704700BF00E100E057
:105EE000010000A000C00050044B9A6DD20702D4FC
:105EF0000028FAD170470120704700BF00C0005051
:105F00000C4B10B51C6FE20707D5012203F50053B7
:105F10001A67FFF791FF02F035FB14F000521CBF27
:105F2000054B1A67002CBEBF4FF00042024B1A67A8
:105F300010BD00BF00C0005000E00050FFF7E0BF00
:105F400010B50446FFF7E8FA024B1C60FFF7E8FAC9
:105F5000002010BD882C002010B5FFF7DDFA034BA0
:105F60001C68FFF7DDFA204610BD00BF882C00201A
:105F700007B530B9CDE90012FFF7EEFFDDE90012F9
:105F800030B1436823B1006803B05DF804EB1847F3
:105F9000232003B05DF804FB30B51C4685B058B92A
:105FA000CDE90012FFF7D8FFDDE9001204B903AC18
:105FB00020B9232005B030BD03B903AC8568002D9E
:105FC000F7D023460068A847F4E707B501228DF80B
:105FD00007100DF10701FFF7CBFF03B05DF804FBDD
:105FE0000B4601461846FFF7F0BF00230122FFF7DA
:105FF000D3BF00000EB40FB505AB53F8042B0393C9
:1060000018B90192FFF7A8FF019A0146039B0648C1
:1060100007F0E4FC0028D4BF3720002004B05DF86E
:1060200004EB03B0704700BFE15F000010B500242F
:1060300000F028F80348044B84604360FFF780FFBA
:10604000204610BD902C00204D60000007B5044B89
:106050000093044B1B8800F02BF803B05DF804FBA1
:106060008C2C0020D4100020014B18800020704799
:10607000D41000204FF06042D2F8803E1B02FBD4C7
:106080007047000008B5074B1A6842B90122082082
:106090001A60FEF709FC0449044802F051F9002097
:1060A00008BD00BFA42C0020EC1000209C2C002078
:1060B0002DE9F0470F4615461E46002402F104085C
:1060C00002F109094FEA132A5FFA88F84C4502D316
:1060D0000020BDE8F0871CB3012C05D14146082003
:1060E000FEF7EEFB0134F1E7022C1BD0032C01D1AB
:1060F000F1B2F4E7042C17D0052C04D1089B13F857
:10610000011B0893EBE7AB1DA3420FD0EB1DA3428D
:106110000CD005F10803A3420AD0BB1F195DDEE7CE
:106120005B21DCE7D121DAE75146D8E75A21D6E7EF
:106130005D21D4E790F82A3001223BB190F82E304F
:10614000022B03D180F82E20184670471346FBE738
:1061500080F82410704790F82400704790F82B00C6
:1061600070470000002808DB0123420900F01F00EF
:1061700003FA00F0014B43F82200704700E100E011
:10618000002809DB0122430900F01F0002FA00F099
:10619000024A603342F82300704700BF00E100E08C
:1061A000F8B504460D4690F82B3081B173B990F8DC
:1061B0002C60FFF7B1F905460121304602F03CF8AA
:1061C0002846FFF7ADF9012384F82B30F8BD002BEA
:1061D000FCD090F82C70FFF79FF906462946384608
:1061E00002F02AF83046FFF79BF984F82B50EDE7D0
:1061F00070B504460568FFF7AFFE844202D1002067
:10620000FFF79EFE95F92800FFF7BAFF95F92830B1
:10621000002B0DDB01215A0903F01F0301FA03F3E0
:106220001449203241F82230BFF34F8FBFF36F8FF4
:1062300095F92900FFF7A4FF95F92930002B0DDB14
:1062400001215A0903F01F0301FA03F3094920321F
:1062500041F82230BFF34F8FBFF36F8F00232846E2
:10626000C4E90033C4E90433A360EB68BDE87040BF
:10627000184700BF00E100E02DE9F047044616464C
:106280000D4690F82480FFF756F994F82A2003462B
:106290009AB1FFF756F994F82D90FFF73DF90746AC
:1062A0000121484601F0C8FF3846FFF739F9FFF7EA
:1062B00042F90022034684F82A201846FFF741F9E4
:1062C0002E44B8F1000F23D1AE4205D120466368B9
:1062D0000121BDE8F047184794F82630002BF3D091
:1062E0002046236815F8011B98470028ECD0BDE82C
:1062F000F08794F826305BB12B780A2B03D10D215F
:106300002046236898472046236815F8011B9847C4
:10631000AE42EED1DAE72DE9F7434FF0000904462B
:1063200090461E46C3F800904F1E3368434505D281
:10633000FFF701F9A269C2B9FFF703F994F8273012
:106340005BB91123012220460DF107018DF80730BA
:10635000FFF792FF012384F827303368002B0CBF2E
:106360001B20002003B0BDE8F083E16922698A5C4C
:1063700007F8012F2569226A0135954208BF4D466D
:10638000A2692561013AA261FFF7DBF8A368204604
:106390009847336801333360C7E708B5FFF76CFFF0
:1063A000002008BDF8B51F46536806460C46154642
:1063B000002B5BD09368002B5AD03022002120465E
:1063C00008F0D7FC6B682B4AE361AB682046236278
:1063D0002B7B84F82430AB7B276084F8253040F297
:1063E0000113E384069B00276360079BA360089B5F
:1063F000E3602B7884F828306B7884F829301E4BC2
:10640000346073601D4BB3601D4B33611D4B736172
:106410001D4BF3601D4B3362012384F82E30B261B3
:106420001B4AF2619DF8282084F82D209DF8242035
:1064300084F82A3084F82C20697B84F82B70FFF7CD
:10644000AFFE95F90100FFF79BFE95F90100FFF7FC
:1064500089FE95F90000FFF793FE95F90000FFF71C
:1064600081FE3046FFF76CFD3846F8BD2220FCE780
:106470002120FAE7A16100009B6300001763000080
:106480005161000057610000F161000035610000BA
:106490005D61000010B50446FFF74DF8A269236A5C
:1064A0009A4203D2FFF74DF8012010BDFFF749F8DB
:1064B0000020FAE737B504460D4600E000BFFFF7BD
:1064C0003AF894F8253002466BB1132D07D100231A
:1064D00084F8263003B0BDE83040FFF732B8112D04
:1064E00001D10123F4E76369E1691046CD54A16944
:1064F00063690131A161216A01338B42636104BF89
:1065000000236361FFF71DF8042384F82E3094F80C
:1065100025307BB1A269236A9A420BD11323012251
:1065200020460DF107018DF80730FFF7A5FE002387
:1065300084F8273003B030BD90F82A3073B5044694
:1065400003F0FF01A3B9436801919847012384F840
:106550002A3094F82D60FEF7DFFF0546019930469A
:1065600001F06AFE2846FEF7DBFF022384F82E3096
:1065700002B070BD026BD36C43F00403D364704768
:1065800010B50446026B93695906FCD5002394F8B4
:1065900036101A4694F83500FFF722F8002394F8D5
:1065A00038101A4694F83700FFF71AF894F83D307F
:1065B000DA0707D5002394F83A101A4694F8390000
:1065C000FFF70EF894F83D309B0707D5002394F8A9
:1065D0003C101A4694F83B00FFF702F8206B0021AC
:1065E000FFF774F9002010BD08B5006BFFF73CFA07
:1065F000002008BD036BDA6C19B142F00102DA64C5
:10660000704722F00102DA64012203F500539A6414
:10661000704700002DE9F0414FF001081C46574B30
:1066200086B00293564B0C9D0193564B1746009330
:106630000A46CDE903882946534BFFF7B3FE0646C9
:10664000002875D1236804222B63237985F8343020
:10665000A17985F83610607985F83500237A85F8B8
:106660003830E37985F83730A37A85F83A30637AA1
:1066700085F83930237B85F83C30E37A85F83B3068
:106680004346FEF7ADFF43460222217AE079FEF74A
:10669000A7FF3E7039462068FFF75EF91421627B40
:1066A0003A4B03EB4210C0F8AC1594F806C0617980
:1066B0002E3203EB421341EA0C415960227AE3790E
:1066C00043EA0243C0F8BC3585F83D607B7E032B6E
:1066D00052D8DFE803F01F02314C0123002785F870
:1066E0003D3000230222A17A607AFEF779FFA17A79
:1066F000627A637B42EA014241F2B4515B0103F1E9
:10670000A04303F570335A500422236803F58053E5
:10671000DA65A7B96379052185F83530A37985F85D
:1067200036302068C36C43F00403C364FFF7CEF82F
:10673000304606B0BDE8F081022385F83D300023E5
:106740000422217BE07AFEF74BFF41F2AC5202219A
:10675000637B5B0103F1A04303F570339950217B08
:10676000E27A42EA014241F2B8515A50D2E7032399
:10677000012785F83D30B4E72326D9E7816500007D
:1067800075650000F5650000E965000000C0035074
:10679000036B10B59B690446190609D5FFF77AFE0D
:1067A000B0B1206BFFF75AF901462046FFF782FE91
:1067B000236B9A6CD20711D5012103F50052916425
:1067C0009B699B060AD52046BDE81040FFF7B4BE82
:1067D000226BD36C23F00403D364E9E710BD0000FF
:1067E00010B51C46044B186807F078F900282060A3
:1067F0000CBF1B20002010BDF410002007B5044B77
:1068000000931123FFF754FC03B05DF804FB00BFB5
:10681000C82C002010B5FFF735FC0F4C206007F0A6
:106820009DF920220D4901230D4807F065F90D4B14
:1068300018600D4B204663600C4BA360FFF780FB94
:10684000FEF76AFE01210446084601F0F5FC2046E9
:10685000FEF766FE002010BDCC2C0020A82C0020E6
:106860003E650300F4100020FD670000E1670000B2
:1068700000F0FD03112B05D0182B03D0A0F17D03F0
:10688000012B07D80122044B80F020001A70034B23
:1068900018707D20704700BFE82C0020E92C0020F4
:1068A000F8B50E461446204B00B3204A204910701C
:1068B00000221A7022700A704FF6FF721D4B1A8068
:1068C0001B4D2B78EBB91B4F3046398800F0C7FAC7
:1068D000164A38801378013BDBB213706BB9012381
:1068E0002B703046BDE8F840FFF7C2BF1A78002A87
:1068F000E6D01870104B1878F8BD23780133237058
:10690000EFE7012B05D102232B700A4B1888000AF0
:10691000E8E7022B04D103232B70064B1878E1E73C
:10692000FF237E202370E7E7E82C0020E42C0020E2
:10693000EA2C0020E62C0020E92C00202DE9F0476D
:10694000394E8846337817465BB9384A1370384A4F
:106950001370384A1370384A13704FF6FF72374B72
:106960001A807D284FD02CD8182850D01A2852D001
:106970000022314B2D4D1C781A702B78DFF8B49023
:10698000DF2B9CBF01332B702B784440022B12D994
:10699000DFF8A8A099F80000BAF8001000F05FFA3C
:1069A0002B78AAF80000DF2B9FBF99F80020023B4C
:1069B00088F800203B701E4B1A781C7089F8002064
:1069C00006E07E28D4D1194B1B781BB91A4A1370E4
:1069D000202011E0FF2B20D0184A1188154A10788A
:1069E000134A127802EB0022914218D1022B18D9D7
:1069F000DF2B8CBF7A200020A0F1200253425341AC
:106A00003370BDE8F08720200B4B1870F4E7FF22AD
:106A1000064B1A70DCE77420EEE77720ECE776206F
:106A2000EAE77920E8E700BFDC2C0020E32C002017
:106A3000DE2C0020DF2C0020E22C0020E02C0020A7
:106A4000002808BF42200A44914200D1704711F843
:106A5000013B434001F8013C00F00103C0F3470053
:106A6000002BF1D080F0B800EEE7000008B500F090
:106A700099F8044B08B1188008BD4FF6FF721A80D0
:106A8000FAE700BFDA2C002010B5074C208850B17F
:106A900000F088F82388C01A044B00B21B88984283
:106AA000B4BF0020012010BDDA2C0020D82C00201B
:106AB0004FF07E624FF6FF732DE9F041B2F8467059
:106AC000B2F84460154D9F4208BF4FF448679E429C
:106AD00008BF4FF4C8762C88DFF8448050B16400BA
:106AE0002C802B88BB4215D92F800023A8F80030BA
:106AF000BDE8F081B8F80030002BF2D000F052F879
:106B0000B8F80030C4EBC404C01A80B204EB8004AF
:106B1000E408E5E7B34238BF2E80E6E7D82C002032
:106B2000DA2C002008B500F03DF84FF07E634FF6F8
:106B3000FF72B3F85430934208BF4FF47A7318448D
:106B400010F47F6FC0F3071208BFFF22014B1A70C9
:106B500008BD00BFDD2C002010B5084C237843B1E0
:106B600000F020F82378C3EB101003065CBF00236D
:106B700023702078B0FA80F0400910BDDD2C002091
:106B800007B502F00BF86A4602F06EF818B1522110
:106B9000034800F019FADDE9000103B05DF804FBD9
:106BA0005465030008B5FFF7EBFF80B208BD08B5D8
:106BB000FFF7E6FF08BD08B5FFF7F9FFFA23B0FBC2
:106BC000F3F080B208BD0120704704207047000038
:106BD00008B501F0E3FE18B17A21024800F0F4F99B
:106BE000002008BD5465030008B500F049F90E4ABD
:106BF000536A43F470235362EFF308834FF0CD31AF
:106C00000A4A043B93420BD20222094B1A6700F056
:106C100085FBFFF7DDFFBDE808400648FEF744BFEF
:106C200043F80419EEE700BF00ED00E0000000208B
:106C3000004000502464030040F2016000F0A6B957
:106C40007047704708B510B1FFF7FAFF08BDFFF7AE
:106C5000F8FFFBE7704770477047032000F051BB17
:106C60000120704707B5042200200DEB02010AF055
:106C7000DDFB042804D04FF4BF71044800F0A4F9F0
:106C8000019800F0E7FA03B05DF804FB54650300D7
:106C9000102870B522D00DD8032801D9002070BD6E
:106CA000013802281AD8DFE800F002172F0000236D
:106CB000022215E02038C3B2032BEFD80328EDD809
:106CC00001A353F820F000BFAF6C0000D96C0000A6
:106CD000096D0000056D00000123E9E70023032290
:106CE0000B490C4D0C680021C8B28442D6D955F826
:106CF000200028B1067A964202D1467A9E42CED032
:106D00000131F1E70323D3E702231A46E8E700BF86
:106D1000CC6C03005011002007B50191FFF7B8FFBC
:106D2000019918B9012003B05DF804FB0068002840
:106D3000F8D0FFF75AF90028F5D01B28F2D1262009
:106D4000F1E707B50191FFF7A3FF50B1006840B12B
:106D50000199FFF73AF9003818BF012003B05DF838
:106D600004FB0120FAE7000010B5FFF791FF04468D
:106D700030B1037A022B03D103680BB11B6823B92E
:106D800040F24A21064800F01FF923681B681B6B7C
:106D9000986900F44830A0F500535842584110BD9E
:106DA0005465030010B5022104460020FEF79AF94D
:106DB000184B9A6A22F001029A629A6A42F0020221
:106DC0009A629A6D5100FCD49A6DD20312D49A69DA
:106DD00022F47F429A619969220292B20A439A612F
:106DE0009A69240422F47F029A619A6904F47F0468
:106DF00014439C61074B0321BDE810409A6A0020B0
:106E000022F002029A629A6A42F001029A62FEF746
:106E100069B900BF00C00050024B9869C0F3072059
:106E2000704700BF00C0005008B500239B6A9B69F3
:106E3000DB0205D5012803D840F2022000F0A6F8B5
:106E4000012008BD00239B6A9868C0F30343C0F388
:106E500003621B0243EA0233C0B21843704749BAC7
:106E600089B24840C0F303134340180380B258402E
:106E70005B0103F4FF535840704742DE7047000047
:106E800010B5FEF70FFC0446FEF706FC00220121B8
:106E900001FA02F3234018D0204B214933F8123075
:106EA000062B18D040F20722934211D14FF0005226
:106EB0004FF20F00548884420AD11088984207D1BB
:106EC0004CF23C335380088010BD0132102ADFD1D0
:106ED000134A138012E04FF000534FF20F0258880C
:106EE000904218D11B88B3F5406F28BF4FF4C063A0
:106EF0000B804CF23C324FF000535A80084B1A88FA
:106F000040F201739A4201BF064B074AD2E90001E1
:106F1000C3E90001D8E74FF4C063E9E7A6650300C1
:106F2000F42C0020EC2C002090100020164B1B8825
:106F30001A0A13F0FF03104604D1012A22D140F0AF
:106F400080007047072AFAD801A353F822F000BF47
:106F5000876F00003F6F0000716F0000756F0000C9
:106F6000756F0000796F00007D6F0000816F000079
:106F70000920704702207047032070470B2070479C
:106F80000620704718467047F42C002010B50446C0
:106F9000FEF7C9FA4FF000534FF20F021C805A80DF
:106FA000BFF35F8FBFF34F8F0549064BCA6802F4EA
:106FB000E0621343CB60BFF34F8F00BFFDE700BF1C
:106FC00000ED00E00400FA0538B504460D4600F077
:106FD000A6F9FEF7A8FA2B46224605490020FFF73E
:106FE00009F829462046BDE83840FFF746BF00BFF4
:106FF000926503006C4A2DE9F0416C4B55686C4C6E
:107000005D65516A99656B49D1F80002D865D1F880
:107010000412586B1966916A10F0040F5966D16A10
:107020004FF000009966116BD966516B1967D26BEE
:10703000D8645A67D3E90E2108BF11465E4A9142CF
:107040001A655DD301F12000A04259D88869C5F3C3
:1070500008051864CE69062D5E6455D1574DA842C7
:1070600052D3574DA8424FD205884DF64260854213
:107070004AD11868C3F890005868C3F8940040F2E9
:107080000170A242154604D22E680432B6F1CD3FFB
:10709000F7D00022C3E91E22C3E92022C3E922223D
:1070A000641B434EDFF814C1DFF814E19C648E4288
:1070B0002DD8D3E91EC7D3E92065D3E922414FF08B
:1070C000000E013AD2B2FF2A3DD1BEF1000F05D029
:1070D000C3E91EC7C3E92065C3E92241B3F85430B0
:1070E000C3F308030C2B3CD8022B52D9DA1E092A11
:1070F0004FD8DFE802F0553241444E4E4E4E4E4BD3
:107100000021C3E910112C494FF42060B9E756F86B
:10711000044D6445CBD37445C9D2E507C7D50625D0
:10712000284F57F8048BA045C1D0013D15F0FF054D
:10713000F7D10AB9052201E0013AD2B202F11E05E7
:1071400043F82540B3E7E0464FF0010EBC46374612
:107150002E4625460C464146B3E740F60220BDE8E0
:10716000F0813B2B15D1184B9B6913F0020F40F2B5
:10717000025318BF1846F2E740F60320EFE740F647
:107180000423B0F5206F08BF1846E8E740F6052055
:10719000E5E740F60722013B4B2B98BF1046DEE7A0
:1071A00040F60120DBE700BF00ED00E0001000200A
:1071B0000010002000E100E0000000203441000049
:1071C00052630300781000200080015A00F00CB8D0
:1071D00000F00AB800F008B800F006B800F004B8F3
:1071E00000F002B800F000B872B61EF0080F09D027
:1071F0001EF0040F0DD0DFF850E0AEE8FF1F6FF077
:1072000002000CE0DFF840E0AEE8FF1F6FF00E0078
:1072100005E0DFF834E0AEE8FF1F6FF006006946D6
:10722000EFF309828EE8070086460848084C85453A
:1072300001D3A54501D384F30888FFF7DBFE84F36F
:107240000888FFF7A3FE0000001000204000002087
:107250000010002082B2074B4AB1000C1A8008BF10
:107260004FF6CE22044B14BF18801A8070474BF69D
:10727000EF62F2E70C1100200E1100200B4BB3F966
:1072800000201888002AB8BF80F0620042001A80EF
:10729000074AB2F9001013880029BCBF83F4805359
:1072A00083F00B0359001180584070470C110020E7
:1072B0000E11002008B501F0B1FE60B10A4B034485
:1072C000072B0DD8072B0BD8DFE803F004060A08BC
:1072D0000A0A0A0CC22008BDC320FCE7C420FAE752
:1072E000C520F8E7C120F6E7FF1FFF0F10B40446E2
:1072F0000846114622465DF8044B01F06FBF01F0CD
:10730000AFBF01F0EFBF10B4044608461146224655
:107310005DF8044B02F000B802F0D6B87047704731
:1073200010B5094A137813F002040CD10749084834
:1073300009780078884206D0064863F07D0304800F
:1073400005481370017010BDF92C0020F62C0020A8
:10735000FE2C0020DA2C0020FB2C0020054B064AD6
:1073600019881288914202BF0121044A117000223B
:107370001A807047042D0020062D0020082D0020C3
:1073800007B50346009102223D20034911F06DF933
:1073900003B05DF804FB00BFD365030007B5064BDF
:1073A00002221B783D2000930449812311F05DF9EE
:1073B00003B05DF804FB00BF022D0020D36503007D
:1073C00038B50C4D0C4C2A7823789A4200D138BD40
:1073D00000210A481CF01CFC094B1B88834202BF99
:1073E0000122084B1A702378013303F0070323703E
:1073F000E9E700BFF62C0020FC2C0020002D002027
:10740000062D0020082D0020074B93F90030002B9B
:1074100008DB064A137803F04101402904BF43F01A
:1074200005031370704700BF022D0020F92C0020C7
:10743000282307B5054A3D20CDE9003204497023D1
:10744000022211F012F903B05DF804FB3800E00FDE
:10745000CC650300702807B504D103B05DF804EBD8
:10746000FFF7E6BF074B02221B7807490193074B42
:107470001B78009303463D2011F0F7F803B05DF848
:1074800004FB00BF092D0020D2650300022D00205F
:10749000F8B5002706463D4630461CF057F98542B0
:1074A00000D3F8BD30461CF051F9441BE4B2202C47
:1074B0002946304628BF20241CF0A8FC224601465D
:1074C0003846FFF7BDFA2C440746E5B2E4E7000072
:1074D00008B50A481BF044FF09481BF041FF094862
:1074E0001BF03EFF08481BF03BFF08481BF038FF2D
:1074F000BDE8084006481BF033BF00BF042D002044
:10750000F02D0020F22D0020002D0020062D00205F
:107510000A2D002008B5DC22002104481CF014FAD2
:107520000122034B1880034B1A7008BD112D002057
:10753000062D0020082D002030B585B0FFF7EAFFAA
:10754000FFF7EDFE4FF07E634FF6FF72B3F84C305D
:10755000224D934208BF4FF47A732B800023204CB6
:107560002380FFF783FAFFF78FFA0028FBD04FF054
:107570007E634FF6FF72B3F84230934208BF4FF478
:10758000C8632B8000232380FFF7D0FC431E154DDA
:10759000DBB20A2B144C287019D8012202FA03F32B
:1075A00040F20352134212D00222C1230290CDE9CD
:1075B00000323D2084230D4911F057F8FF232B7032
:1075C000D023237005B0BDE83040FFF731BFFFF78F
:1075D0002FFFA023237005B030BD00BFD82C0020A2
:1075E000DA2C0020F82C0020F92C0020D1650300B3
:1075F00037B504460D461CF0A9F8022825D840F2FC
:1076000017111B48FFF7E0FC1A4B197801F14003F2
:10761000DBB2022B1FD901F0A003A02B04D00B0674
:1076200019D57E20FFF7ACFE4FF07E63B3F84030F3
:1076300013B12046FFF72CFFB5B1002221460E48BA
:1076400003B0BDE830401CF07CBA20461CF07EF848
:10765000DC28D4D8D8E7CDE90014842302223D20C9
:10766000064911F002F8DFE72A4621460448E7E719
:10767000D7650300ED2D0020F02D002010660300DB
:10768000F22D002001460120FFF75BBB2DE9F74FEB
:10769000FFF7FAF9AB4C48B32378580626D599077B
:1076A0004CBFA94BA94BAA4A1B7812789A4232D0F8
:1076B0000120FFF7FDF97320FFF7CCFEA54A4FF636
:1076C000FF7113780133DBB213704FF07E62B2F8B2
:1076D00048208A4208BF0322934219DD51229E4B63
:1076E00072201A70FFF7B6FE202323709B4D9C4E2C
:1076F00094F900202378002A18DA13F030030ED012
:107700001A20FFF7BFFF237803F07F032370EFE712
:10771000FFF706FEEAE70022924B1A80E6E72A7896
:10772000022AF0D18F4A2B701380E9E72A78012AC8
:1077300000F0F7800DD9931E012BD9D83178FF299D
:1077400000F02481002940F0F480874B19783246FC
:10775000EDE09A0719D57C497D4A7C4892F800C033
:1077600007780A78ACEB0200BA1A02F0070200F0C0
:107770000700904298BF81F800C00A78BA4204D14D
:1077800023F002032370FFF71BFE237813F0300F62
:107790001FD013F0200F744F15D0C2233B706E4BD7
:1077A0001B78BB7002237B702378032023F03C03FB
:1077B000237001232B7032466B4B1978FFF770F85A
:1077C000FFF760FF94E7C1233B70FFF7AFFBB87092
:1077D000E8E713F00C011FD0644F13F0040F397861
:1077E000614B0FD06039C9B219708020FFF7C8FD16
:1077F000237823F00C0301203A7823705C4B287027
:107800001A70D8E781F0800119707E20FFF7B8FD6B
:10781000237823F00803EEE79B0737D5DFF82881AC
:10782000544A98F80030127801919B1A03F0070A25
:10783000FDF781FE019981464F481CF07CF907460F
:10784000DFF834B1BAF1000F16D14846FDF779FEE2
:107850004A4B38461F801BF079FF444B98F80020B4
:107860001B78013043EA02133F4A43F008031370C8
:107870000323C0B22B709EE7394658461CF0ADF981
:107880000AF1FF3307465FFA83FADBE7304B4FF626
:10789000FF7019784FF07E63DB8F2C4F834208BF57
:1078A00005233A780B44013B521A5B1A02F0070297
:1078B00003F007039A42DFF8B48028DC30481CF05C
:1078C00035F9E0B92E481CF031F92D4A2D4B002135
:1078D000002808BF13462C4A184613601CF02BF9E9
:1078E000264B18801BF032FF3A7898F800300130B0
:1078F00043EA02131C4AC0B213700223BAE72148BC
:107900001CF014F918B9FFF727F90028DAD1184B41
:107910001A7898F800309A425ED0237843F0080332
:10792000F4E63378FF2B4DD032460F49C95C002076
:1079300044E7124B0139C9B218881CF079FA0146A4
:1079400005E700BFF92C0020FB2C0020FE2C0020B6
:10795000F62C0020FA2C0020F82C0020102D0020FE
:10796000FF2C0020DA2C0020ED2D0020FD2C002023
:10797000F72C0020FC2C0020002D00200A2D0020D8
:10798000F02D0020F22D00200C2D0020022A1CD109
:10799000134A00211378013303F007031370114BCE
:1079A00018681CF035F9104B002219880F481CF09C
:1079B000C8F80F4B1B880BB9FFF758F80D4B1A7816
:1079C0000D4B1A7000232B7092E60C4A137801338A
:1079D00003F007031370ECE703B0BDE8F08F00BFBE
:1079E000FE2C00200C2D00200A2D0020002D002050
:1079F000DA2C0020FD2C0020F72C0020FB2C00208E
:107A000010B5014604460120FFF786F928B1262863
:107A10001BBF182300202720237010BD2DE9F04F35
:107A20008246DFF8FC9285B00023DFF8F882AAF8DE
:107A3000003098F800301BB989F80030FFF78EFC51
:107A4000A94DAA4E0DF10E00FFF7DAFF27280446D4
:107A500016D04A469DF80E000DF10F0199F800B0BE
:107A6000FEF76CFF10F0DF0704461BD0FFF776FC33
:107A70007A2827D8732807D82028DAD0272821D1B8
:107A8000204605B0BDE8F08FA0F17404062C19D88B
:107A9000DFE804F00418444A184C4E007420FFF745
:107AA000D9FCC6E799F800309B4506D0022B0FD8C9
:107AB0009DF80F208E4B03F80B20202CC2D0002CF9
:107AC00000F0FD8040F255118A48FFF77DFAB0E7DB
:107AD000032B10D1884B1A786AB12A8801213046CD
:107AE0001F7032801CF044F9012300933A4631881C
:107AF00082481CF057F92B8830889842DDD11BF062
:107B000025FEC7B2791C2846C9B21CF031F93946A6
:107B10009DF80F2028881CF09FF9CEE77620FFF70C
:107B200099FCFFF771FC84E77720F8E77920F6E706
:107B30007A20F4E70A060DD4032B2BD933785B06A1
:107B400004D56F4B1B78B3EB111F01D0FFF706FC78
:107B5000012519E001F0E002802A06D1012B19D19C
:107B60007D20FFF70DFC02250CE0A02A06D1012B99
:107B700010D17F20FFF704FC032503E07B20FFF7F3
:107B800069FC0025FFF7EAFB3078430604D4202384
:107B9000337049E77C20F2E76B1E022B16D8594957
:107BA000DFF884B198F800700A789BF8003007F08D
:107BB0000707A7EB020C9B1A0CF0070C03F0070356
:107BC0009C4515D97820FFF745FC0025AB1E012BFD
:107BD0002ED898F8003013F0080326D0FEF7A2FF45
:107BE000032D69D0002D7FF41FAFFFF70DFC1BE7BD
:107BF0009742EBD00023444A10F002000F7013703C
:107C000008D0424A1380424B1B78BB42DED0FEF7BD
:107C10002DFFDBE7FEF74CFF9BF80030BB4201D0A5
:107C2000FEF724FFFFF7CCFBD0E73A4A1370D7E703
:107C3000012DD5D1324998F800200B78C2F30210FB
:107C400098422DD1294D288830B92620FFF7DCFB3A
:107C50002624FFF7FFFB13E7013303F007030B7044
:107C60004FF07E63170742BF327842F0080232704D
:107C7000327822F005023270B3F840300BB1FFF7D2
:107C800007FC2B880222019398F800303D200093D6
:107C90002149852310F0E9FC2B88AAF80030EFE693
:107CA0001107337802D543F0080371E7DA079CD453
:107CB0007520FFF7CFFB98E7FFF732FBB4E6DFF85C
:107CC000308099F8003098F80010144EC0297FF4E5
:107CD00031AF012B7FF45EAFFFF760FB0425FFF7A8
:107CE0005DFBFEF7A9FF4DE7062D0020042D0020C7
:107CF000022D0020D7650300082D0020032D002051
:107D0000FD2C0020F62C0020FA2C0020DA2C00207C
:107D1000FB2C0020DD2C002010660300F92C002035
:107D2000092D0020DC2C0020FE2C002008B5114B72
:107D30001B781BB1002000F0010008BD0E4B1A7823
:107D40000E4B1B789A42F5D115F074FB0028F1D147
:107D50000B481BF0EBFE0028ECD00A481BF0E6FEB7
:107D60000028E7D0084B1B78002BE3D10120FEF759
:107D7000FBFFE0E7DC2C0020F72C0020FD2C00208E
:107D8000F22D0020F02D0020102D00200020704743
:107D9000104430B5054602B930BD01F00F030A2B7F
:107DA00034BF30243724013A2344090905F8013D42
:107DB000D2B2F0E7F0B519B3002820DA2D23B0F1E4
:107DC000004F137000D04042012119E0801B864211
:107DD000ECB205F10105F9D914B9BCF1000F05D0D9
:107DE0004FF0010C4D1C30345454E9B2013B13F0F8
:107DF000FF0309D130305054481CC0B2F0BD0021FF
:107E000009234FF0000C024F002557F8046BDEE702
:107E1000186603002DE9F04F002495B02146029426
:107E200080461646A1464422274603A802AC9B463C
:107E3000254606F09EFF0DF1480A317859B9641BBA
:107E4000E4B2224629460020C047002840F0AF8017
:107E50003C44E0B2ACE025291AD0B9F1000F1BD1A7
:107E6000204600F8011B04465445C0F0F580641B11
:107E7000E4B2294622460020C0470146002840F0CF
:107E80009680274448222846FFB206F072FFE2E0BF
:107E9000B9F1000F00D101363278782A06D8612A6C
:107EA00007D8252A5DD039D8002AC8D04FF000095C
:107EB000DAE7A2F162011629F8D801A353F821F0FC
:107EC0006F7F0000018000005D800000AD7E00003B
:107ED000AD7E0000AD7E0000AD7E0000AD7E0000F6
:107EE000AD7E0000AD7E00005D800000AD7E000034
:107EF000AD7E0000AD7E000013800000AD7E00006E
:107F0000AD7E000013800000AD7E00005D800000AB
:107F1000AD7E0000AD7E0000537F0000392A16D8E8
:107F20002F2AC3D9717801F0DF01582940F0C380AE
:107F3000322A06F1010940F0AB805BF8041B2046B1
:107F4000042289B2FFF724FF04464E46AEE7582AC2
:107F5000ACD15BF8041B02222046C9B2FFF718FF20
:107F600055E0214601F8022B62700C469EE74FF067
:107F70000009DBF800300193DBF804300093009B2C
:107F8000994502D10BF1080B90E7019B2046022294
:107F900013F80910FFF7FCFE5045044612D3441BAA
:107FA000E4B2294622460020C047014618B100200D
:107FB00015B0BDE8F08F48222846274406F0D9FEC8
:107FC0002C46FFB2009B5A1E4A4581BF2046202204
:107FD00000F8012B044654450FD3641BE4B2294634
:107FE00022460020C04701460028E0D1482228460A
:107FF000274406F0BEFE2C46FFB209F10109BEE798
:108000005B4653F8042B20469B4600F8012B0446A0
:108010004CE7621BD2B2294600205BF8049B009219
:10802000C04704460028C2D1009A0146174428469A
:108030004822FFB206F09DFEE2B219F802000134B8
:108040000028F9D149460092C0470028AFD18146A7
:10805000009A1744FFB22C460136EEE66C2ADBF894
:1080600000000BF104090ED17378752B14BF0121A8
:10807000002101D0642B00D101362246FFF79AFE81
:10808000CB46044412E7752A0CBF00210121F4E716
:10809000342A10D15E4656F804BB04224FEA1B4135
:1080A0002046FFF775FE1FFA8BF10422FFF770FEE2
:1080B000B346044649E74FF00109D5E6034B1B7868
:1080C000002B14BF01200220704700BF242E002087
:1080D0000329F8B598BF124B05460E468CBF002405
:1080E0005C5C032805D8DFE800F002080B0E44F0C2
:1080F00002040C4B1F684FB9F8BD44F00804F8E7C0
:1081000044F02004F5E744F08004F2E77B681A6845
:10811000144203D0314628465B6898473F68EAE737
:108120003C660300202E002038B5104D2B78ABB1F3
:108130000F4C23781BB100F0EDFA002323700020D0
:1081400000F00AFB0B4C50B100F010FB00230121A2
:1081500020782B70FFF7BCFF0123237038BD01226C
:10816000054B1A702278054B1A70F7E71E2E002077
:10817000192E0020102E00201D2E00202C2E002055
:1081800010B5FDF7C9F9064B04461B781BB1BDE8D5
:108190001040FDF7C5B9FFF7C7FF2046F7E700BF5E
:1081A000182E0020002814BF0121FF21074A137850
:1081B0000B44137008D0064B1B78012B04D9054BD8
:1081C0001B780BB9FFF7B0BF704700BF242E00200B
:1081D000102E00201D2E002070B5FDF79DF9114EC8
:1081E000054633788BB900F0D9FB044620B1284608
:1081F000FDF796F9204670BD0B48FCF7E8F90B4BEC
:108200001C6000F0E5FC0A4B186000F0DBF900F0A0
:10821000E1FA084B00241860012328463370FDF76B
:108220007FF9E7E71A2E0020202E0020302E0020B4
:10823000282E0020142E002000292DE9F34114BF20
:108240000121FF21254A00F1FF30135C0B44135438
:108250003AD0234E3278012A36D9FFF72FFF012872
:10826000044634D81F4FFDF757F93B781BB31E4D1A
:108270002B781BB901222A701C4A1370DFF870801A
:1082800098F8003033B1019000F044FA00230198CF
:1082900088F80030FDF744F9012000F05DFAFDF7A1
:1082A0003BF92B782BB1019000F060FA0023019884
:1082B0002B7000233B70FDF733F93078A04203D0D8
:1082C0002146FFF705FF347002B0BDE8F081032AB4
:1082D000F3D10228F1D100F097FAEEE7242E002026
:1082E000102E00201E2E0020182E00201D2E0020F3
:1082F000192E002068B5FDF70FF9094B06461B78CB
:10830000012B04D8FDF70CF90025284668BD054B64
:108310001D6800F063FA05443046FDF701F9F4E703
:10832000102E0020302E002007B5FDF7F5F8019043
:10833000FFF7FAFE019803B05DF804EBFDF7F0B823
:1083400038B541600446FDF7E7F805462146044884
:10835000FCF740F92846BDE83840FDF7E1B800BF1A
:10836000202E0020054B1B685843054B00F5742058
:1083700000F23F20B0FBF3F0704700BF282E002032
:1083800040420F002DE9F04385B0FDF7C5F80446E3
:1083900000E000BF05F0FEFC002800F08A80654E7A
:1083A000654F337823B10020FFF7FCFE00233370C4
:1083B000FFF784FE0546002800F08380851EEDB29D
:1083C000012D40F28680FFF779FE0128804604D90E
:1083D0005A4B1B780BB900F05BF9594DDFF88091CF
:1083E0002878404507D099F8003013B94146FFF787
:1083F0006FFE85F80080B8F1010F0FD9DFF83C81DE
:1084000098F8003053B94F4B1B7823B900F07CF932
:1084100001224D4B1A70012388F80030287800F0B3
:10842000C3F999F8003013B1484B1B782B7000E06A
:1084300000BF2046FDF774F8FDF76EF8444B044684
:108440001A7852B100221A70404B28781B78984253
:1084500003D101212970FFF73BFE384600F0D8FA1E
:1084600005F0ADFC804600289BD1344F3B789BB192
:1084700089F80000DFF8D09099F800301BB100F0C7
:1084800049F989F80080002000F066F9002846D0FC
:1084900000F06CF900233B70337823B10020FFF724
:1084A00081FE0023337000212878FFF711FE00239E
:1084B0002B7000E000BF204605B0BDE8F043FDF79B
:1084C0002FB83378002B3FF47EAFFFF76BFE35708B
:1084D00079E7002003A900F01DFB054600287FF482
:1084E00072AF1C4B039A1B689A4205D80120FFF714
:1084F00059FE0123337066E7174BD3F8008000F074
:108500006DF9039940448842F0D20223091ACDE95B
:10851000005338462B46114A00F0A2FA53E70120D7
:1085200000F042F92046FCF7FBFFFCF7F5FF04469C
:10853000A9E700BF272E0020F42D00201E2E0020CA
:10854000102E0020262E0020192E00202C2E002078
:108550001C2E0020142E0020302E002081810000CF
:108560001D2E002010B5FCF7D7FF0022044B1C780D
:108570001A70FCF7D5FF00F035FC2043C0B210BDE7
:108580001B2E002010B5094B1B786BB1084C2378CB
:1085900053B100F0EBF80023064A23701370012357
:1085A000054A1370054A137010BD00BF102E00203D
:1085B0001D2E00201E2E00201B2E00201C2E002011
:1085C000704700002C4A2D4B116F2D4801F0070118
:1085D00070B51960D2F820318069032900F00200DB
:1085E00041D003F00703991E4B424B41D2F8801251
:1085F000244D01F001010B4323490B7060B33BB9DB
:10860000D2F8003103F003035A1E534253410B705A
:10861000194BD3F8003103F00303022B25D0032BB1
:1086200026D0012B18D1FCF783F8A8B1144B411EBA
:10863000DC680023024608461946C4F30B04134EB7
:10864000013404EB8404E4FB060106F083F9FFF730
:1086500089FE2B68184428606420FFF783FE2B688E
:108660001844286070BD0123C0E7FCF7C7F8DCE7B9
:10867000FCF774F8D9E700BF00800050342E0020CA
:1086800000C001503C2E00203A2E002040420F0036
:10869000FCF788BF074B1A7852B100221A70064ABD
:1086A000136F23F0070343F001031367FCF72AB8A5
:1086B000704700BF382E0020008000500E4B10B5D0
:1086C0001B7883B1022000F039FC60B100F054FA4D
:1086D00048B10A4B9A6DD20306D5DB6D9B0703D5D3
:1086E0000122074B9A6210BD0124064B1C70FDF756
:1086F00095FB034B9C62F6E73A2E002000C0005029
:1087000000D00050392E00200122014B1A70704712
:10871000382E002038B50C4B1B786BB10B4C2378EE
:108720007BB90B4B0B4D9A6D12F4803F05D0DB6D7E
:108730009B0702D50123AB6238BDFDF76FFB012318
:10874000AB6200232370F7E73A2E0020392E002079
:1087500000C0005000D00050034B1B780BB1FDF758
:10876000C3BB0120704700BF3A2E002008B5FCF7BC
:108770001AFF094A0949136F096823F007030B43DD
:108780001367074B1B7813B10122064B9A62BDE8B1
:108790000840FBF7B7BF00BF00800050342E002018
:1087A0003A2E002000E0005002280AD003280BD007
:1087B00001280CD1064A136923F00403136130BF6A
:1087C00070470020FCF7C2BE0020FCF7D7BE704700
:1087D00000ED00E04FF4C870FFF7C4BD08B5054BCD
:1087E000187818B1FDF760FB00EBD000024B1B6856
:1087F000184408BD3A2E00203C2E00200122014BD7
:108800001A7070473A2E00207047000010B500F033
:108810002FFB0A4C0A4B19682368C31A01B10BB924
:10882000206010BD4A699A423ABF9B1A0022D21AB0
:108830004A6128BF00238968F0E700BF442E00206A
:10884000582E0020C38870B504460D463BB9FFF78B
:1088500051FD8542064602D2FFF766FD35460F49B7
:1088600065610B68ABB90C60A36011E0AD1A9A6842
:10887000184665612AB113465A69AA42F6D950B121
:108880001A4613468460A36013B15969491B5961A4
:1088900070BD0020F0E70C60F5E700BF582E002007
:1088A00038B5134D2B685B6993B1124A02201468E6
:1088B0001C4400F017FB204600F0E2FA00230E49AA
:1088C0002A680B70D088800709D501230B7038BD4A
:1088D000022000F007FB022000F028FBEEE7926880
:1088E000002AF4D050690344012BEBD9EFE700BF15
:1088F000582E0020442E00204C2E002070B5164625
:108900009DF81420C0E903360271049ABDF81830AE
:1089100002600022C380826004460D4600F0A8FA7F
:108920003044A0613DB9E368656113B12046216818
:10893000984796B13546FCF7EFFD0646FFF766FF10
:1089400029462046FFF77EFF054B1B68A34201D155
:10895000FFF7A6FF3046FCF7E3FD002070BD00BF27
:10896000582E002000220C490B687BB183420AD1AB
:1089700083687AB1936083681BB15A6941690A447C
:108980005A61002070471A469B68EEE70028EFD036
:10899000022070470B60EEE7582E002070B5FCF700
:1089A000CAFD144E05463478FCB9134B1C60134BBA
:1089B0001C60134B1C8000F021FA012000F092FA99
:1089C00000F0E6FA0F4B0246186020B92846FCF783
:1089D000B8FD232070BD234640F2E7310A4805F078
:1089E000B9FF0A4B1860012333702846FCF7A9FD34
:1089F0000020EFE7402E0020582E0020442E0020BB
:108A00004E2E0020542E002018FCFFFF482E002080
:108A10002DE9F0410546F8B1FCF77EFD0F4F064603
:108A2000FFF7F4FE2846D7F80080FFF79BFF0446C7
:108A300028B13046FCF774FD2046BDE8F081A8451A
:108A40003B6803D123B1FFF72BFFF2E7002BF0D1F6
:108A5000022000F053FAECE72224EDE7582E002024
:108A600070B586B015461E460446059180B1FFF7E5
:108A7000CFFFBDF82C30002202939DF8283020460D
:108A8000CDE9006305992B46FFF738FF06B070BDAE
:108A90002220FBE738B50C46054698B191B100237A
:108AA0000B70FCF748FD0121074B1B680BB12278C6
:108AB0001AB1FCF746FD002038BDAB4214BF9B68DD
:108AC0002170F3E72220F7E7582E0020F0B51F466B
:108AD000002387B00D46164604468DF81730A0B126
:108AE0000DF11701FFF7D6FF9DF817207AB9BDF8F1
:108AF0003430294602939DF830302046CDE900738A
:108B00003346FFF7FBFE07B0F0BD2220FBE7032052
:108B1000F9E700002DE9F04107468846FCF70BFD18
:108B200000260546124B1C6824B92846FCF709FDAF
:108B30001B2016E063691E44E388BB4215D100F098
:108B400097F90C4C2368C01AB0420CD200F090F98F
:108B500022683244121A2846C8F80020FCF7F1FCBB
:108B60000020BDE8F0810022F5E7A468DCE700BF43
:108B7000582E0020442E0020014B1878704700BF6B
:108B80004C2E002038B5FCF7D6FC054600F070F9F5
:108B900004462846FCF7D5FC204638BD70B5FCF7E6
:108BA000CAFC064600F064F9084B04461D88012003
:108BB000ADB200F0C3F918B100F05AF9044601351E
:108BC0003046FCF7BEFC2046294670BD4E2E0020E4
:108BD000014B1868704700BF542E00200C4B70B535
:108BE0001B680D46834211D340F2E73100248C46C6
:108BF0002146084B4FF47A721E680023E0FB06C141
:108C0000604605F0A7FE2860204670BD2120FCE7E5
:108C1000482E0020542E0020014B1868704700BFDA
:108C2000482E00200F4B10B51A689AB14FF47A7194
:108C3000531E1342A0FB01010ED1B2FA82F2C2F11F
:108C40001F04531CD243E04001FA03F3184321FAF6
:108C500002F20243104610BD002305F07BFE0246DF
:108C6000F8E700BF542E0020164B70B58342164B18
:108C700015468B4124D3154B1A680AB34FF47A7604
:108C8000A0FB0603541E144006FB013111D1B2FAB9
:108C900082F3C3F11F025E1CDB4301FA06F6D040EB
:108CA00021FA03F330431843D140C5E900012046BF
:108CB00070BD002305F04EFE0024C5E90001F6E773
:108CC0002124F4E7EFA7C64B37894100542E00203A
:108CD000C2072DE9F34704460BD53F4A13880133F9
:108CE0009BB21380FFF792FD3C4B1B680BB1FFF763
:108CF000D7FDA3076DD5FCF71EFC002605463746B9
:108D0000FFF784FDB146DFF8D480D8F800400CB1FD
:108D100063698BB10022324B012F1A7002D1022EEF
:108D200008BF1F70002C44D0FFF7BAFD284602B0E0
:108D3000BDE8F047FCF705BC23461A79217991423A
:108D400088BF1C469B6813B15A69002AF5D0284693
:108D5000FCF7F7FB256985B300F08AF8A269861A4B
:108D6000F317B54279EB030328DA23691344A361AF
:108D70000123226982B17BB9A91B0191FCF7DBFBBE
:108D8000824601992046FFF75DFDA369226950469E
:108D90001344A361FCF7D5FBE368E688013713B100
:108DA000204621689847FCF7C6FB0546FFF72EFDD5
:108DB000ABE7022000F0A2F8B8E72E46FCF7BBFBB9
:108DC00082462046FFF7CEFD5046FCF7BAFB002353
:108DD000CFE702B0BDE8F0874E2E0020582E0020CD
:108DE000502E002010B5FCF7A6FB034B1C78FCF7B7
:108DF000A8FB204610BD00BF502E00201FB5002448
:108E0000184B18689A880290D3F806009B7A009055
:108E100002A8ADF80C208DF804308DF808408DF8CC
:108E20000C40FCF789FC694601208DF80040FCF7F6
:108E300047FC4FF0B0431F219A6922F01F029A614C
:108E4000094A51619A6A12F00802FBD11A620120A4
:108E5000FCF750FC4FF48062044BC3F880211A6089
:108E600004B010BD406603000020005800E100E09F
:108E70004FF0B0439A6A1207FCD4186A704700009A
:108E800010B50446FCF748FB4FF0B042936A19074F
:108E9000FCD4136A116C5269120704D4CA1A032A4B
:108EA00001D899420ED1E21A022A98BFDC1CB4F113
:108EB000FF3F38BF013C4FF0B0431C649A6942F059
:108EC00008029A61FCF72CFB054A13783BB14FF07E
:108ED000B041CB6B43F00203CB630023137010BD92
:108EE0001011002082074FF0B04200F00103916999
:108EF00048BF43F008030B4393617047820700F0BB
:108F000001030AD50121084A43F0080311704FF00C
:108F1000B041CA6B22F00302CA634FF0B0418A69C4
:108F200022EA03038B61704710110020830742BFC0
:108F30000822014B5A617047001000584FF0B043AF
:108F400001285B6904D0022805D1C3F3C000704733
:108F500003F00100704700207047000010B5FCF7D7
:108F6000EAFA4FF0B04304465B691A07074A03F078
:108F7000010003F00D0348BF40F002005361FFF70A
:108F8000A7FE2046BDE81040FCF7DBBA00200058E1
:108F90001C20FBF755BF08B504F004FE04F05EFE8C
:108FA00004F087FE04F05CFEBDE8084004F06BBEF0
:108FB00008B504F069FE04F068FE04F067FEBDE841
:108FC000084004F06CBE000024282DE9F34105465A
:108FD00004D82C46204602B0BDE8F08100240B4E98
:108FE0000B4FDFF83080002338681A461946CDF859
:108FF000008007F0ADFE8442EBD2252CE9D056F874
:10900000043B9D42E6D00134EDE700BFA4690300B4
:10901000B0100020FFFF0F00704700002DE9F04F57
:10902000634E644D3168286889B007F00BFC044634
:10903000002827D033680024D3E900019A69126818
:109040009047336804A89B699B689847336802205F
:109050009B69DB689847326805985368E7B2B3FBB1
:10906000F0F3BB42916904F101044CD8CB680020B5
:10907000984733689B695B6898473168286807F0B0
:10908000E1FB04460026DFF84891DFF848814A4FAB
:10909000DFF844A1ECB9494BF35C002B00F082806F
:1090A0003968286802AB03AA009107F00BFE50450F
:1090B000009907D068B9039B012B0AD0286807F0F4
:1090C00051FE0099D9F8003028681A6807F028FD89
:1090D00004460136252E09F1040908F1010807F1BB
:1090E0000407D7D1B4FA84F3354A5B0913702B68AF
:1090F0001B7C23B14FF48B713248FDF765FF20468E
:1091000009B0BDE8F08F12680B6907FB0020984793
:10911000A1E73B6803AA194402AB019107F0D2FD15
:10912000504501992DD028B30BF1010B009B5FFA3C
:109130008BF199422868ECD3234BF35C002BC8D009
:10914000DDF800B05FFA8BF37E2B2868C1D8396850
:1091500002AB594403AA009107F0B4FD5045B8D0C2
:109160000099286807F0FEFD0BF1010B044600286A
:10917000E8D0AEE7039B7BB998F80030029A9A4298
:10918000D2D098F80030D9F80020286807F030FCD9
:109190000028C9D00446CFE72868019107F0E2FD16
:1091A0000199EEE7094BA346F35C0093BEE700BFCD
:1091B000B4100020B0100020A46903005869030017
:1091C0005C2E00205D6A03007D6903009C6803003B
:1091D000C4680300386A03000BE000F0F7B50E46E0
:1091E00001931746FFF7F0FE24280546019B1BD884
:1091F000164A147804B3164A1068164A52F8251015
:10920000154A525D3AB13A4607F0D6FC044698B189
:10921000FFF702FF10E07F2E08BF00263A4651FA02
:1092200086F107F02FFCF1E7FF2808D981B2F2B2EE
:109230003846FEF768F80024204603B0F0BD4FF42E
:10924000A6710648FDF7C0FEF5E700BF5C2E0020C2
:10925000B0100020A4690300586903005D6A030090
:1092600073B50E46CDE90032FFF7AEFEDDE9003101
:10927000242805461CD8164A147804B3154A1068E9
:10928000154A52F82540154A525D42B10A682146F6
:1092900007F046FC044690B1FFF7BEFE0FE07F2EBC
:1092A00008BF00260A4654FA86F107F0A1FBF1E751
:1092B000FF2807D91A4680B2FEF72EF80024204670
:1092C00002B070BD4FF4C3710548FDF77DFEF5E7B0
:1092D0005C2E0020B0100020A46903005869030030
:1092E0005D6A030010B5FFF76FFE084B1C785CB198
:1092F000074B002253F82010064B186807F09CFC1F
:10930000044608B1FFF788FE204610BD5C2E002001
:10931000A4690300B0100020F7B50F4616461D469D
:10932000002B75D04BF23463984212D1082D28BF20
:10933000082538492A46304605F0F4FC2A463046CE
:10934000354905F0DFFC10B1002003B0F0BD41F25B
:10935000F0104BF23463F9B27F2984B208BF0021C8
:109360009C4218D17F2241F2020168460823FDF792
:10937000CAFF08226846284905F0C4FC30B9082312
:109380007F2241F2F0116846FDF7BDFF6B4603CB2B
:1093900030607160D8E741F2F0139C421ED12A463A
:1093A0001E4B741E986CD96C2F1F013AAB1A974252
:1093B00004F8010FDBB24FEA10200DD0002AF4D1DF
:1093C000002AC1D0F1540133D8B207284FEA112145
:1093D00002F1FF32F4D9B7E70423F1E704F4704354
:1093E000B3F5805F0AD1C4F30B0404F17E642A460E
:1093F000304605FB014105F095FCA5E704F4604308
:10940000B3F5005FA0D1C4F30B0404F5FC24EEE730
:1094100021209AE70200E00F046B03000080E00FB8
:10942000D307F7B505460F4626D410F0030423D121
:1094300026465208B2420AD1FCF714F9A64205EBBF
:1094400084000AD1FCF71AF9002003B0F0BD55F8EA
:10945000263001330CD10136ECE7042257F82430D2
:109460000DEB020101932CF08BFF18B1FCF706F90C
:109470004B20EAE70134E1E70120E6E730B5134687
:1094800000F07E62B2F17E6F89B00DD10A46C0F362
:109490000B01684602F0B8FE20B140F2791109488C
:1094A000FDF792FD09B030BD5A08FFF7B9FF00285B
:1094B000F8D04FF4B771034809B0BDE83040FDF76C
:1094C00083BD00BF9E6A03002DE9F7430446E00711
:1094D0000F46154604D54FF4E5713748FDF774FD86
:1094E000E90704D540F2CB113348FDF76DFD04F4D4
:1094F0007043B3F5805F40D1C4F30B0404F17E6484
:109500002E4A6B1E23449342264604D94FF4E87139
:109510002948FDF759FDDFF8A09006EB0508464500
:109520003FD1A2070ED04FF6FF7337F8022BA01ED3
:1095300043EA024304220DEB02010193FFF79EFF71
:109540000234023DAB070ED0023D25F00103FB5A69
:1095500004226FEA03436FEA13430DEB0201601923
:109560000193FFF78BFF25B12A4639462046FFF7C6
:1095700085FF002003B0BDE8F08304F46043B3F539
:10958000005F05D1C4F30B0404F5FC242646C2E7B2
:1095900040F2D7110848FDF717FD6FF00F060024C1
:1095A000B9E716F8013BFF2BB9D040F2E11148466C
:1095B000FDF70AFDB3E700BF9E6A0300FF1FE00F3F
:1095C0001FB52A38062867D8DFE800F0040B2C4BBB
:1095D00050555C000EF0E8FC13F060FF012004B071
:1095E00010BD13F03DFF044613F03AFF8DF8000064
:1095F00013F036FF8DF8010013F06AFFADF802009A
:1096000013F02EFF0DF105018DF80400082013F072
:109610002FFF13F025FF69468DF80D0020460EF050
:109620001BFFD9E713F01CFF69460EF0F7FA13F0A1
:1096300035FF9DF8000013F031FF9DF8010013F095
:109640002DFFBDF8020013F039FF9DF8040013F060
:1096500025FF08200DF1050113F058FF9DF80D00BE
:10966000BAE713F0FDFE0EF0F9FEB5E713F0F8FED1
:1096700022F0C0F8B0E713F0F3FE0EF0C9FA13F0D1
:109680001DFFABE713F0ECFE044613F021FF01468B
:1096900020460EF0F7FAA1E70020A0E72DE9F043FD
:1096A000E228A1B02CD8DC2808D8702800F0CD80A2
:1096B000C03883B2092B0AD9002090E0DE38042894
:1096C00000F29780DFE800F0A0A7B2B7BE0009283B
:1096D000F2D801A353F820F0E5970000B9960000F6
:1096E000B9960000B9960000B9960000B99600003E
:1096F0007D970000B9960000C997000019970000F7
:10970000F528D9D113F0ACFE044613F0F5FE01465E
:10971000204611F09FFB61E013F0EEFE04460BA81B
:1097200014F033F813F09CFE079013F0D1FE06906E
:1097300013F0CEFE054613F0CBFE0DF124080646CD
:10974000414608200DF1380913F092FE49461020D9
:1097500013F08EFE13F0D0FE074613F081FEDDE914
:109760000632CDE90470CDE902892046CDE90056E4
:109770000BA911F05BFA13F091FE2FE013F070FECD
:10978000044613F06DFE05460EA813F0FEFF13F01D
:1097900067FE069013F064FE064613F077FE074658
:1097A00013F05EFE804613F093FE291E18BF0121C0
:1097B000CDE90280201E18BF0120CDE90067069B7D
:1097C0000EAA10F0FCFAD6E713F04AFE0EA910F02C
:1097D0009DFE13F063FE0EA814F041F8012021B0A5
:1097E000BDE8F0830EA813F0D0FF0EA810F0E4FE41
:1097F000C1E713F035FE0EA911F080FB13F04EFE09
:109800000EA814F07BF8E9E70EA813F0BEFF0EA82F
:1098100011F0FCFAAFE713F023FE04460EA814F093
:1098200046F820460EA911F093FCA4E713F018FEA9
:1098300011F07CFCD2E70EA813F0A7FF0EA811F0E0
:1098400029FB98E711F05CFCC8E711F005FDC5E7BE
:10985000F0B5642891B038D8322844D9333831284B
:1098600041D8DFE810F065006C0040008C00A800D3
:10987000CC000C01E80040004000400040004000E7
:1098800040001E0128014000400040004000400010
:1098900040004000400040004000400040004000C8
:1098A0004B01EA0140004000400040004000400001
:1098B0004000400036015A015F016B0175017F01D4
:1098C000C401CC014000D401DF01AE2800F00881C2
:1098D00017D8822800F0628107D87E2800F04981DD
:1098E0007F2800F05381002027E09628FBD113F059
:1098F000B7FD044613F0CAFD0146204628F050FB90
:1099000018E0F42800F0AD8108D8EF2800F0AE810F
:10991000F328E8D10DA81CF07DFBAAE1FE28E2D1D6
:1099200013F09EFD003818BF01201BF0BBFB01E0C7
:1099300020F0C4FD13F0B2FD012011B0F0BD13F012
:109940008FFD044613F0C4FD08900DA813F010FE1F
:1099500013F086FD079013F083FD054613F096FD86
:109960000BAACDE90102079B2046089900950DAA94
:1099700028F0F6FA13F092FD9DF82C00DAE713F0C8
:10998000A7FD04460DA813F0F3FD13F069FD089040
:1099900013F066FD079013F063FD054613F076FDA6
:1099A000DDE907320BA9CDE90101009520460DA99B
:1099B00028F0DEFADEE713F08BFD044613F088FD95
:1099C000089013F04DFD07900DA813F0D1FD13F092
:1099D00047FD054613F044FD064613F041FD0746DA
:1099E00013F054FDDDE907210BABCDE90303CDE90D
:1099F0000167204600950DAB28F030FBBAE70DA8B3
:109A000013F0B6FD13F02CFD099013F029FD08901A
:109A100013F026FD079013F023FD044613F036FDE6
:109A2000DDE907320BADCDE90105099900940DA8D8
:109A300028F0AAFA9EE70DA813F09AFD13F010FD86
:109A4000099013F00DFD089013F042FD079013F0FC
:109A500007FD044613F004FD054613F001FD06461C
:109A600013F014FDDDE907320BAFCDE90307CDE9B3
:109A70000156099900940DA828F0B6FA7AE713F078
:109A800027FD04460DA813F073FD13F0E9FC0790C1
:109A900013F0FCFC079A03460DA9204628F018FB9A
:109AA00048E713F015FD044613F0DAFC01462046A2
:109AB0001DF010FD3EE713F00BFD044613F0D0FC43
:109AC000079013F0CDFC07990246204628F062F873
:109AD00030E713F0C5FC28F0A3FB13F003FD2BE7E0
