:1040000000100020DD4D0000F9870000FD87000052
:10401000BF0703000188000009880000BF070300F4
:10402000BF070300BF070300BF070300BF0703006C
:104030000D880000F0930300BF070300BF070300D3
:10404000BF070300BF070300BF070300414D000087
:10405000BF070300BF070300BF070300BF0703003C
:10406000BF070300BF070300C1A500002DD6000055
:1040700039330300BF070300BF070300BF07030076
:10408000BF070300BF070300BF070300BF0703000C
:10409000BF07030009550000BF070300BF07030067
:1040A000BF070300BF070300BF070300BF070300EC
:1040B000BF070300F9480300BF070300915E01003A
:1040C000FF480300FB480300215601000B49030091
:1040D00003490300555E010007490300E143010065
:1040E000D15E0100BF070300BF070300198900006C
:1040F000BF070300BF070300BF070300BF0703009C
:10410000BF070300BF070300BF070300BF0703008B
:10411000BF070300BF070300BF070300BF0703007B
:10412000BF070300BF070300BF070300BF0703006B
:10413000BF070300000000002DE9F04F93B0CDE968
:104140000A32DDE91C530E9353EC102BCDE9080124
:10415000104619468DED060B1E9E09F0CFFE80B16C
:10416000DDE906014FF0FF32C54B09F0EFFE40B923
:10417000DDE906014FF0FF326FF4801309F0C8FE4D
:1041800070B1DDE908019DED060B0E9B1E96CDE991
:104190001C53DDE90A3213B0BDE8F04F00F088B9D6
:1041A0000022DDE90601002309F0B2FE002800F03C
:1041B0003381DDE906A303F1004BCBF30A5016F47B
:1041C0008063A0F2FF3008BF06250F9309F0C4FBFF
:1041D0009BA3D3E9002309F029FC9BA3D3E9002387
:1041E00009F06EFACBF31304894644F07F51804600
:1041F0000022A44B504641F4401109F05FFA94A309
:10420000D3E9002309F012FC02460B46404649461A
:1042100009F056FA09F0A4FE044609F09DFB8EA3AE
:10422000D3E900238046894609F000FC0022964B22
:1042300009F046FA09F094FE89A3D3E90023074662
:104240004946404609F0F2FB80463846894609F067
:1042500083FB85A3D3E9002309F0E8FB02460B4664
:104260004046494609F02AFA02460B46CDE90C239E
:1042700009F0DCFBDDE90C2380468946104619462F
:1042800009F01EFA0022CDE91001804B4046494654
:1042900009F0F6FC00227E4B09F012FA02460B46AA
:1042A0004046494609F0ECFC00227A4B09F008FA36
:1042B00002460B464046494609F0E2FCDDE90C2384
:1042C0008046894600204FF0804109F0F7F9024608
:1042D0000B464046494609F0F3F902460B46DDE934
:1042E000100109F0CDFC07F2FF3700226A4B09F0FC
:1042F000E7F900223B0509F099FB52465B468046F0
:10430000894609F023FE002840F08980CDE90C8918
:1043100004F16303C72B34BF0427052731051BD5E0
:1043200053A3D3E900235046594609F005FE00285F
:104330007FD051A3D3E900235046594609F0E8FD48
:10434000002876D00027A542C6BF2C1B04F1FF35FC
:1043500000253C4646F480660E9B9F422CBF4FF0E2
:104360000008A3EB070816F0020903D0002F18BFBE
:104370004FF000083CB1DDE90C235046594609F0E6
:104380007FFC82468B46DDE906010022002309F00E
:10439000BFFD10B10BF100439B46DDE9080126F497
:1043A0000063CDE90183DDE90A324BEC10AB0095E7
:1043B00000F07EF802465FB3DDE9091316F0200F26
:1043C00000F10105089E0CBF65204520B047DDE9DE
:1043D00008010523002205930A23002CCDE90232AF
:1043E00007F1FF374FEAD473B8BF64422A460193FE
:1043F00004970A9B00942EF0A9FE0246B9F1000F23
:1044000006D00B9BC41A0B9B1A190E9BA34245D8CE
:10441000104613B0BDE8F08FDDE906ABCDE6002213
:10442000404649461A4B09F02BFC013CCDE90C01F2
:104430006EE7002D90D00F9B002B8DD0013D8BE7B8
:10444000FB799F501344D33FB3C8608B288AC63F83
:1044500061436F63A787D23F71A379094F930A40E5
:104460001655B5BBB16B0240EF39FAFE422EE63F5E
:104470002D431CEBE2361A3F0000000080842E41E1
:10448000FFFFEF7F0000F83F0000E03F00002C40FE
:1044900000002440000018400000F03F2020DDE92B
:1044A0000913089DA8470134ADE700BF00000000D4
:1044B0002DE9F04F5BEC10AB97B0CDE90501DDE9DC
:1044C0002057CDE90723504652465B465946229E67
:1044D00009F014FD70B90323CDE902760193B04BC6
:1044E0000093DDE90501DDE907232EF04FFD17B04C
:1044F000BDE8F08F4FF0FF326FF4801350465946FD
:1045000009F006FD28B10423CDE902760193A54BFD
:10451000E6E74FF0FF3250465946A34B09F016FD2F
:1045200068B1A24A06F00403002B08BF0322A04B87
:104530001CBF13460422CDE902760192D0E7504613
:1045400093A3D3E90023594609F000FD38B992A39B
:10455000D3E900235046594609F0DAFC68B1DDE999
:104560000723DDE905014BEC10ABCDE92176209561
:1045700017B0BDE8F04FFFF7DFBD00220023504623
:10458000594609F0C5FC002800F09A805B46524667
:104590000020002109F092F8012382468B460993FE
:1045A00016F4806400F08E80092D40F28E80002485
:1045B00030210EABA5F109020134202C03F8011BB8
:1045C000A5EB040901D09442F6D15946504609F0B2
:1045D000C7FC784B054603EBC90393ED007B8DEDDB
:1045E0000A7B09F0B9F902460B465046594609F0D4
:1045F00065F8DDE90A2309F019FA02460B46CDE910
:104600000C2309F0D5FC804609F096F902460B46CA
:10461000DDE90C0109F052F802460B46CDE90C2306
:104620000022654B09F092FC002851D008F10108E6
:10463000404609F081F902460B46DDE90A0109F01E
:1046400071FC10B14FF000080135B9F1000F50D1E5
:10465000284609F081F902460B465046594609F0B2
:104660002DF80022544B8046894609F051FC30B1A8
:10467000002240464946504B09F068FC10B1E8075B
:1046800000D501350A210EAB1A19202C0AD095FB52
:10469000F1F001FB1055303502F8015B013405469D
:1046A0000028F2D106F00302012A57D1002F55D07D
:1046B000099A12B916F00C0F00D0013F302245E0E4
:1046C00009906DE74FF006097FE7A94600247CE7D3
:1046D0000022DDE90C01384B09F01AFC0028B4D1A6
:1046E000B8F1000F02D018F0010FAED008F10108A8
:1046F000ABE70A210EAB2344202C0ED0B8FBF1F01F
:1047000001FB1082B8F1090F02F1300209F1FF3903
:1047100004F1010403F8012B11D83021A1440EAAA1
:10472000202CAFD0A14504F101030AD11C4609F1A8
:1047300058030DEB03092E2309F8203CA2E780461D
:10474000DAE7A1541C46EBE71A550134A74205D914
:10475000202CF9D1CDE902760194C1E6202CF9D0C4
:10476000099A3AB12D2104F158026A4402F8201C3A
:104770000134EFE7710704D504F158022B216A4494
:10478000F4E73207E6D504F1580220216A44EDE748
:104790000000000065CDCD410000000065CDCDC119
:1047A00091AA030095AA0300FFFFEF7F88AA0300E8
:1047B0008DAA0300A0AA03000000E03F0000000053
:1047C00070B58EB02C22002103A82EF023FF6423A5
:1047D0004FF002320893CDE905230B2301218DF818
:1047E0003430514B8DF810101B88D80700F195809C
:1047F000084615F0B1FC0A224C4B4D491A704FF493
:1048000028734C48ADF8123011F0D8FB4A4C2060A8
:1048100020B940F25521494803F0EAFE05212068FD
:104820002FF0D0FB20B140F26521444803F0E0FEB8
:10483000206808F00DFF424B206819682FF06FFCCC
:104840000C2516F087FB6843099016F083FB68433C
:104850000DEB0501079020680BF0CCFD20B140F274
:104860007A21364803F0C4FE0022364920682FF032
:10487000E0FC20B14FF41F71304803F0B9FE40F264
:104880000353314D314E2B80052396F90000AB7058
:104890007F2801D115F0BEFD3378EB7016F05AFB7E
:1048A00000EB80008000A88016F054FB0023C000BD
:1048B0004FF0FF31E880AB604FF0FF3018A3D3E931
:1048C000002315F01FFE2249206830F0C3F820684D
:1048D00002A92FF08DFC20B140F2B221174803F05D
:1048E00087FE042220680DEB02012FF0D0FB042884
:1048F00004D040F2B521114803F07AFE01A901204D
:1049000031F0F4FA03F0BCFF012016F009FE2CF0A0
:10491000B9F816F03DFE15F0A3FC0EB070BD00BF57
:104920000A0020FF42030000CE6B0020726F0020BF
:1049300081A1010030130020BC5E002046CE0300A0
:1049400000110020806F0020B05E0020651600205E
:1049500021A301000348044B834202D0034B03B15F
:1049600018477047A8240020A82400200000000059
:10497000064B0749C91A891048BF0131491003D0B5
:10498000044B0BB101481847704700BFA824002012
:10499000A82400200000000010B5064C237843B97D
:1049A000FFF7D8FF044B13B10448AFF30080012395
:1049B000237010BD826C002000000000ACD1030009
:1049C00008B5054B1BB105490548AFF30080BDE8AC
:1049D0000840FFF7CDBF00BF00000000482A0020BC
:1049E000ACD10300A3F5803A704700BF174B002BF2
:1049F00008BF134B9D46FFF7F5FF00218B460F467E
:104A00001348144A121A2EF005FE0E4B002B00D04C
:104A100098470D4B002B00D0984700200021040040
:104A20000D000D48002802D00C48AFF3008009F0BB
:104A300081FC200029002EF0A4FD09F069FC00BFD4
:104A4000000008000000000000000000001000202E
:104A5000A8240020007000200000000000000000DA
:104A6000BFF34F8F0549064BCA6802F4E062134357
:104A7000CB60BFF34F8F00BFFDE700BF00ED00E04C
:104A80000400FA0500239B6AB3F5804F03D219682E
:104A9000064A914203D000230370836070470122CD
:104AA00002709A689B694260F7E700BF07B0CD5E6D
:104AB00073B5494B04461A781AB102221A7002B033
:104AC00070BDCDE900220028F9D001261E702BF020
:104AD00001FF424D424B18600EF0A2FA2B785BB9F1
:104AE00000F04CFD40B93F4808233F4A3F49006869
:104AF0000AF0DCFE00B92E703D4B5A68E2603D4A78
:104B00009A601A6E22605A6E6260D3F87021A260B9
:104B10001B6E5C0440D5384AD368D807FCD4374BA9
:104B20001A68531C3DD04FF480139340344A1366E7
:104B30000423334C23664FF4806323662BF00EFE70
:104B400001300ED02BF00AFE40F20113984208D03B
:104B50004FF4804323664FF4004323661023C4F8C8
:104B600070311023264C4FF0804223664FF40053DF
:104B70006846236601A9226663662BF0D7FD009B79
:104B80002366019B63662B78002B98D0164B1A681E
:104B900022665B68636692E71A4AD368D907FCD439
:104BA000BDE7194B1B78002BC2D1184B5A68144B28
:104BB00012B94FF480121A66154A526812B94FF4AE
:104BC00000121A66134B5B68002BB1D14FF48002C0
:104BD0000B4B1A66ACE700BF846C0020856C00208C
:104BE000702A0020CC100020742A002000710800D8
:104BF0000080004455CEAC00000004409810002016
:104C00000090004400000450836C00200080055098
:104C100000C005500000065038B5224D04462B78E0
:104C2000012B02D001232B7038BD0028FCD02BF0C3
:104C300095FD013009D02BF091FD40F2011398420F
:104C400003D0194AD368DB07FCD42268174B1A66D5
:104C500062685A66A268C3F87021E268D40744BF4C
:104C600000229A60124B1A68013213D1114A12784D
:104C700082B911494968C80748BF1A600F4A52688B
:104C8000D10744BF01221A600D4A5268D20744BFBF
:104C900002221A600EF0CCF90A4B18682BF020FEA5
:104CA0000023C0E7846C0020000004400080004422
:104CB00098100020836C00200080055000C0055033
:104CC00000000650702A002038B500239B6AB3F517
:104CD000804F25D21A68144B9A4221D1134D2B785C
:104CE00013F0FD0402D00024204638BD1048FFF721
:104CF000DFFE08214FF480330E4A0F48C2F88011BE
:104D0000C36011600D4A1361A36ADB6998470446CA
:104D10000748FFF781FF002CE6D101232B70E2E763
:104D20004FF48174E0E700BF07B0CD5E836C0020D4
:104D3000602A002000E100E000A000440090004450
:104D400013B5204B1B7803B9FEE700231E4CCDE9B9
:104D500000336A4608231D4920680AF0A7FDF0B910
:104D60001B4AD2F84031D2F840211F2B4FF00103EB
:104D700010D9203A9340019A1A43019208236A46B7
:104D8000124920680AF048FD4FF00053114A1A609A
:104D9000FFF766FE9340009A1A430092EEE70E4B2F
:104DA0009842F1D10A4AD2F84031D2F840211F2B63
:104DB0004FF0010385BF203A93409340019398BF81
:104DC0000093DBE7846C0020CC1000200071080009
:104DD000008000440B020FF00BE000F008B500F07B
:104DE0002DF8124B12498B4212D30020114B12495D
:104DF0008B4218D3FFF7FAFD186850F82240586824
:104E000040F82240013298688242F5D30C33EAE739
:104E10000022F8E71C6844F8220001325C68A242D4
:104E2000F8D30833E4E70022F8E700BFB4D1030069
:104E3000C0D10300C0D10300C0D103006FF0010056
:104E4000104B114A10B59A60D3F888200F4942F4EC
:104E50007002C3F8882001F50052106641F2FF701D
:104E600050660220C3F8D000BFF34F8FBFF36F8F9F
:104E700008244FF440330648C0F88041D3600460F2
:104E80000B6110BD00ED00E0004000000080004418
:104E900000E100E0014B1868704700BFA01000203F
:104EA000014B1860704700BFA0100020084B1B6F1B
:104EB00003F00703022B04D0032B05D0012B05D0F0
:104EC000FEE7044B18687047034BFBE70348704745
:104ED00000800050A0100020A8100020002D3101FB
:104EE00008B5FFF7E3FF054B1B6FC3F30133013335
:104EF000B0FBF3F0024B186008BD00BF008000500B
:104F00009C1000200048704700B4C404014B18688E
:104F1000704700BFA8100020054B1860054B1B6FA1
:104F200003F00703032B01D1FFF7DABF704700BF7F
:104F3000A81000200080005000487047002D31016B
:104F4000174B9868C0F304400C280AD8DFE800F03B
:104F50000B0909090909072119091B1D1F0011481F
:104F60007047002070479B6803F04073B3F1807F67
:104F700011D0B3F1007F10D00B4A002B08BF1046B0
:104F800070470A4870470A4870470A4870470A48FD
:104F900070470A4870470A4870470A48704700BF80
:104FA0000040015A405DC60000093D00C0EA2101F1
:104FB00080BA8C010048E801005A62020024F40023
:104FC00080841E0040420F00014B1868704700BFEC
:104FD000A410002008B5032101230422002001F0C1
:104FE00035F800202BF092FC0122244B0C20C3F852
:104FF0004424234AD2F8803043F00303C2F88030BF
:1050000000F028FD1F4B00F5D520D3F8F02000F26A
:10501000FC4042F00102C3F8F020D3F8FC2042F03B
:105020008072C3F8FC20184AA3F55D431A60174B41
:105030000222B0FBF3F0164B01381861C3F8F020E0
:105040004FF48072C3F804234FF06043114A0020EC
:10505000C3F8B02F104AC3F8802ED3F8002E42F4C4
:105060008072C3F8002EFF2283F82020D3F8002E90
:1050700022F48072C3F8002E08BD00BF00D0035098
:105080000080005000ED00E0FF030040F8590D00E3
:10509000000004E055CEACC5090001004FF06043AC
:1050A000D3F8802E30B5D20715D501240B4D84409E
:1050B000D5F8FC2042F08072C5F8FC20D3F8002E11
:1050C0002243C3F8002E53F82020002AF0D003F822
:1050D0002010002030BD1120FCE700BF00ED00E0F3
:1050E0002DE9F04F9A46564B85B01B7806460F4681
:1050F0001546DDF83C909DF844B0DDF85080002B5B
:1051000000F09780072A00F296800E9B002B00F09B
:105110009280B9F1000F00F08E80129BB3F5006F02
:1051200000F38980012803D1109B002B00F08380BD
:10513000444B03EB05131B7B002B7ED0424C10220B
:10514000002168462EF066FA04EB45141022A7BB36
:10515000394620462EF05EFA43F210036380BBF11D
:10516000000F03D1E37843F00303E370364A0E9B4C
:1051700002EB451CCCE90193129B6901581E9DF876
:105180004C30C0F30A0003F003039B0643EA001E01
:1051900053582E48012E00EA03004EEA0003CDF8D2
:1051A00000A0535017D0B8F1000F2ED19CF8023058
:1051B00068F304138CF8023027E0002120462EF01B
:1051C00029FA4FF444736380BBF1000FCED1E3782A
:1051D00043F03003C9E713230CF1100ECCF80C3068
:1051E0009CE80F008EE80F006FF00301DCF81C2034
:1051F000109B61F39F02012FCCF81C20CCF81430D7
:1052000003D1CCF81890CCF8043000270D4A2901BE
:1052100002EB051342F80180159A28465A60694648
:1052200022469F605E7300F09DFF384605B0BDE8E2
:10523000F08F0748FAE70748F8E70748F6E700BFA6
:10524000866C00207C2B00207C2A00200F80FFF33E
:10525000028000F0018000F0078000F038B5124BAA
:1052600005461B78DBB1E0B12BF034FB0F4A00237D
:105270001146147B54B92B6001251A0101EB03136D
:105280001D738C502BF02CFB204638BD0133082BAE
:1052900002F11002EDD12BF023FB0548F5E705489C
:1052A000F3E70548F1E700BF866C00207C2B002067
:1052B000048000F0028000F0018000F038B52BF08F
:1052C00009FB002305460B4A147B6CB90133082BFC
:1052D00002F11002F8D100F0F9FE074B28461C70CD
:1052E0002BF0FEFA204603E028462BF0F9FA03489B
:1052F00038BD00BF7C2B0020866C0020058000F0AC
:105300000D4B10B51B78044693B1072812D82BF02B
:10531000E1FA0A4B03EB04131A7B2AB100241C7335
:105320002BF0DEFA204610BD2BF0DAFA0448FAE73B
:105330000448F8E70448F6E7866C00207C2B002040
:10534000068000F0028000F0018000F0154B13B5DC
:105350001868002301908DF804302BF0BBFA124B33
:105360001C7824B12BF0BCFA104802B010BD012209
:105370001A702BF0B5FA0E4B01A81C731C7783F83A
:105380002C4083F83C4083F84C4083F85C4083F821
:105390006C4083F87C4008238DF8073000F0B8FE9D
:1053A0002046E2E740940300866C0020038000F072
:1053B0007C2B00200A4A08B512785AB107280BD86E
:1053C000084A02EB00131B7B43B1002100F092FE60
:1053D000002008BD0448FCE70448FAE70448F8E761
:1053E000866C00207C2B0020028000F0018000F001
:1053F000078000F00A4A08B512785AB107280BD87E
:10540000084A02EB00131B7B43B1012100F072FE3E
:10541000002008BD0448FCE70448FAE70448F8E720
:10542000866C00207C2B0020028000F0018000F0C0
:10543000078000F00A4A08B5127852B107280AD846
:10544000084A02EB00131B7B3BB100F0D7FE0020A3
:1054500008BD0548FCE70548FAE70548F8E700BF3E
:10546000866C00207C2B0020028000F0018000F080
:10547000078000F00D4B1B7893B1072812D889B133
:105480000B4B03EB00131B7B73B10A4B1A6D01230B
:105490008340134214BF0123002300200B70704788
:1054A000054870470548704705487047866C0020DE
:1054B0007C2B002000000450028000F0018000F0EE
:1054C000078000F00B4A10B512780C4662B107282D
:1054D0000CD859B1084A02EB00131B7B43B100F012
:1054E0009FFE2070002010BD0448FCE70448FAE746
:1054F0000448F8E7866C00207C2B0020028000F036
:10550000018000F0078000F0184B2DE9F0411F6D7D
:105510005B6D1F4000D5FEE701260025144CDFF827
:105520005880374218D02368C8F85060A3B1A168EA
:10553000284601316268A1609847637B012B0BD13B
:1055400050B90C4B03EB45131A7B60F341021A73FD
:105550001A7F60F341021A770135082D4FEA46069B
:1055600004F11004DDD1BDE8F08100BF000004505B
:105570007C2B00207C2A002000200450024B19685C
:10558000024B18680AF06EB8AC100020CC10002056
:1055900070B59400224605460E4633F021FF431CA9
:1055A0000AD058B92246314628462EF009F800287C
:1055B000034808BF002070BD0248FCE70248FAE734
:1055C00010E000F021E000F024E000F010B5044607
:1055D00033F00AFF431C10D088B900F0CFFE2346F9
:1055E00020F003002044984201D1002010BD53F860
:1055F000042B0132F7D00348F8E70348F6E70348E5
:10560000F4E700BF0EE000F021E000F024E000F03D
:1056100008B52BF050F9014B186008BDEC320020A2
:10562000014B18682BF04BB9EC32002041F6713376
:10563000124A30B5D469124DD3639368A84204F47A
:10564000803423F4401306D893600E4AD2F81832FF
:1056500023F002030AE043F4801393600A4B98425C
:10566000F3D9084AD2F8183243F00203C2F81832CC
:1056700014B10022014BDA6330BD00BF00000350BB
:10568000005A620200C0075080F0FA022E4B984286
:105690004AD022D82D4B984240D014D82C4B984257
:1056A00039D00AD82B4B984232D02B4B98422FD06E
:1056B0002A4B98422CD000207047294B9842FAD1AF
:1056C000284B186F7047284B98422AD0274B984296
:1056D000F1D1244BD3F880007047254B98422BD052
:1056E00009D8244B984223D0234B9842E3D11D4B39
:1056F000D3F88C007047214B984221D003F57403F6
:1057000003F510539842D6D1164BD3F89800704742
:10571000144B986D7047134B586E7047114B586F70
:105720007047104B986F70470E4BD3F8840070474A
:105730000C4BD3F8880070470A4BD3F890007047A1
:10574000084BD3F8940070470048E8010024F400A7
:10575000C0CF6A0080841E0000093D0040420F0057
:10576000405DC6000080E00FC0EA210180BA8C01D4
:10577000007E560380D54302006CDC020090D0030B
:1057800038B5134B0546D3F820010C4600F007004E
:1057900004281AD8DFE800F003090D1115000123D1
:1057A00005B1286004B1236038BDFFF773FB042303
:1057B000F6E7FFF7ABFB0323F2E7FFF7C1FB052397
:1057C000EEE7FFF7B9FB0223EAE700231846E7E715
:1057D0000080005037B50C460021114B0191D3F8E1
:1057E0008031054603F00303022B0ED0032B11D0AA
:1057F000012B03D101A8FFF7C3FF0D210DB1019BC0
:105800002B6004B1216003B030BDFFF799FB052187
:105810000190F3E7FFF790FB02210190EEE700BF54
:105820000080005038B5104B0546D3F840310C4687
:1058300003F00303022B0BD0032B0DD0012B0FD150
:105840002AF0C0FF082305B1286004B1236038BDE9
:10585000FFF7BAFB0723F6E72AF0B7FF0923F2E7C1
:1058600001230020EFE700BF0080005038B5104B47
:105870000546D3F860310C4603F00303022B0BD02E
:10588000032B0DD0012B0FD12AF09CFF082305B16B
:10589000286004B1236038BDFFF796FB0723F6E7C5
:1058A0002AF093FF0923F2E701230020EFE700BF6E
:1058B0000080005038B5144B0546D3F800020C4662
:1058C00000F0070004281BD8DFE800F003090D11E1
:1058D0001500012305B1286004B1236038BD2AF00A
:1058E00071FF0823F6E7FFF76FFB0723F2E72AF0C3
:1058F0006CFF0923EEE7FFF7F3FA0C23800AE9E7D0
:1059000000231846E6E700BF0080005038B5144B6E
:105910000546D3F808020C4600F0070004281BD8FF
:10592000DFE800F003090D111500012305B128601F
:1059300004B1236038BD2AF045FF0823F6E7FFF7DE
:1059400043FB0723F2E72AF040FF0923EEE7FFF7C6
:10595000C7FA0C23800AE9E700231846E6E700BFF0
:105960000080005038B5104B0546D3F840320C4645
:1059700003F00303022B0BD0032B0DD0012B0FD10F
:105980002AF020FF082305B1286004B1236038BD48
:10599000FFF71AFB0723F6E72AF017FF0923F2E7C0
:1059A00000231846EFE700BF0080005038B5104BC9
:1059B0000546D3F800310C4603F00303022B0BD04D
:1059C000032B0DD0012B0FD1FFF7A0FA032305B154
:1059D000286004B1236038BDFFF7F6FA0723F6E725
:1059E0002AF0EEFE0623F2E701230020EFE700BFD6
:1059F0000080005038B50C4605462AF05CFF054B88
:105A00009A6A54402C4054409C62BDE838402AF0C9
:105A100056BF00BF00C00050032814D005D801288D
:105A200005D0022809D0002005E00F28FBD1084B43
:105A3000186FC0F3013001307047054BD3F8900068
:105A4000C0F30460F7E7024B186FC0F38020F2E761
:105A5000008000501FB500230193252817D8DFE8E8
:105A600000F0131A1D272C363B51565B60656A788F
:105A7000161A401616561A272C27361A5127783B25
:105A80003B3B3B2727275B60FFF710FA019001980B
:105A900005B05DF804FBFFF723FAF7E7FFF706FA16
:105AA00002460220FFF7B8FFB2FBF0F20192EEE7E8
:105AB000FFF716FA02460320F4E7FFF711FA024651
:105AC0000320FFF7A9FFB2FBF0F25208EEE7002136
:105AD00001A8FFF77FFEDAE7002101A8FFF750FEDB
:105AE000D5E702934FF0E0231B695B0705D5FFF76D
:105AF000F7F90290029B0193C9E703A902A8FFF7F7
:105B000091FEF7E7002101A8FFF78CFEBFE7002117
:105B100001A8FFF7ABFEBAE7002101A8FFF7CAFE14
:105B2000B5E7002101A8FFF7F1FEB0E7002101A8C9
:105B3000FFF73CFFABE7094BD3F8803003F00303DA
:105B4000022BA8D0032B01D000209FE7FFF7F8F924
:105B50009CE7002101A8FFF705FF98E700800050AF
:105B600008B50120FFF776FFBDE8084003498842E9
:105B700094BF01210221032000F002B880F0FA0254
:105B8000032810B50C4627D004D8012804D00228D9
:105B900017D010BD0F28FCD12AF070FE2AF076FE37
:105BA000124A013C136F23F4405343EA0433136752
:105BB000FFF796F90021FFF739FDBDE81040FFF728
:105BC000CFBF0A4A4C1ED2F8903023F0F85343EA74
:105BD0000463C2F89030DCE7044A4C1E136F23F4D0
:105BE000806343EA84231367D3E700BF008000503B
:105BF0001FB500230193252821D8DFE800F01320EA
:105C00002020202A2F454A4F54595E7120203420ED
:105C1000204A202020202A204520712F2F2F2F209E
:105C200020204F54314B1B6F03F00703013B032B24
:105C300005D8DFE803F00C02080A04230193019859
:105C400005B05DF804FB0323F8E70623F6E702231B
:105C5000F4E7002001A9FFF7BDFDF0E7002001A94E
:105C6000FFF78EFDEBE702934FF0E0231B695B0724
:105C700005D5FFF735F90B230393039BDEE703A953
:105C800002A8FFF7CFFDF8E7002001A9FFF7CAFD42
:105C9000D5E7002001A9FFF7E9FDD0E7002001A921
:105CA000FFF708FECBE7002001A9FFF72FFEC6E7AC
:105CB000002001A9FFF77AFEC1E70C4BD3F8803032
:105CC00003F00303022B03D0032B05D00023B5E719
:105CD000FFF706F90B23B1E7FFF732F90523ADE72C
:105CE000002001A9FFF73EFEA9E700BF0080005099
:105CF00038B50546FFF7CAFC204B04465A68012A0E
:105D000004D11F494A609A699207FCD10020FFF72D
:105D10006FFF042803D12AF0B1FD2AF0B7FD194A1C
:105D200024F0407395421FD0174A95421FD0174A5E
:105D3000D16811F0060FFBD19068936091684B40D9
:105D400013F4F81F16D12846FFF7AAF80020FFF732
:105D50004FFF042810D1FFF7C3F80021FFF766FCBE
:105D6000BDE83840FFF7FCBE43F00073DFE743F0C7
:105D70008073DCE79060E9E738BD00BF00C00150E8
:105D800000E0015040420F0080841E0000000150DE
:105D9000F8B504460020FFF72BFF032800F08180B0
:105DA00045F60E0302213F4AC2F880303E4B99620D
:105DB000012103F580539962936DD903FCD4D4E992
:105DC00000131B0543EA0163E17B94F820500B4369
:105DD000217BE77E43EA0143617B6D0143EA0133A6
:105DE000A17B43EA811313619169D4E904031B0683
:105DF00043EA806301F000410B43A17E94F8230045
:105E00000B43217E43EA0143617E43EA0123936110
:105E1000136AE66923F00D0394F8221043EA87031E
:105E200066BB1362966A94F8213045EA031326F0A4
:105E300033052B4343F0010393621C4D194A936DC4
:105E400035EA0303FBD10225174B9D62936D5B007E
:105E5000FCD41369A56823F4700343EA0553136166
:105E60004FF00042104B9A6119B9022203F580539A
:105E70009A6278B901220E4B9A620BE0334343F0E9
:105E800008031362936A23F0330303432B4343EA6B
:105E90004103936294F824301BB1024B054AC3F8C6
:105EA0008020F8BD00C0005000D000500300014029
:105EB00000E00050F1A7FFFF70B5184CFF28A66A5C
:105EC0002AD8A36D13F4803F18BF0122144B18BFCA
:105ED0009A6202229A62A56D15F08045FBD1114AA3
:105EE000A36992F9002023F47F03024423F47F4343
:105EF00082F3080243EA002343EA0243A3613146E6
:105F00000220FFF777FDA36DDB0303D531460120A7
:105F1000FFF770FD284670BD2125FBE700C000504B
:105F200000D00050876C002070B50F4CA66AA36D9E
:105F300013F4803F18BF01220C4B18BF9A62022253
:105F40009A62A36D5A00FCD431460220A569FFF77E
:105F500051FDA36DC5F30725DB0303D531460120B1
:105F6000FFF748FD284670BD00C0005000D000502B
:105F7000014B93F900007047876C00200123124801
:105F8000124A816A9362836D03F00303032BFAD1F3
:105F9000022393620C4A936D5800FCD40C48936D15
:105FA00030EA0303FBD10122084B1A65A3F58053A5
:105FB0009A6D9207FCD49A6D9007FCD59A6D920762
:105FC000FCD50320FFF716BD00C0005000D00050E4
:105FD00003000100014B1880704700BFEC15002042
:105FE0000A4A10B51369044643F00403136103F031
:105FF0007BFE2AF078FC30BF2AF076FC03F090FE9E
:106000001CB9BDE81040FEF76BBF10BD00ED00E00D
:10601000084A10B51369044643F00403136103F002
:1060200063FE30BF03F07CFE1CB9BDE81040FEF7F4
:1060300057BF10BD00ED00E0034A0179D36E23F095
:1060400030030B43D366704700400050F8B5044658
:106050000D461F4616464AB101238B403021184A8F
:1060600001FB0022F7B141F21001535004EB44034D
:10607000072D4FF00F014FEA031316D8A80006FAB8
:1060800000F281400F4818442AF031FC4EB9012338
:1060900030210B4AAB4001FB042277B141F21001E1
:1060A0005350F8BD42F21001DFE7A5F1080080006F
:1060B00006FA00F281400448E5E742F21001EFE7FA
:1060C00000C0035004C003500CC003504FF4001232
:1060D000064BC3F88020BFF34F8FBFF36F8F0022B2
:1060E000FF21034B5A6599625A60704700E100E056
:1060F00000000450044A054B002908BF1346012242
:1061000082401A60704700BF401004504020045085
:1061100030B501250178114B09064478C2785D60DD
:10612000996081784FF4001041EA04419961FF21A0
:1061300099620021996319644FF0004159654FF04D
:10614000FF3103F50053196505491301DBB2C1F8AE
:10615000800181F81533086030BD00BF0000045095
:1061600000E100E0F8B50125C3B2DFF888C0D1F83E
:1061700000E09D408F7ACB7A0C46097BCCF85050DA
:106180000CF5005C4CF820E04FF0300E184E1B056B
:106190000EFB006094F80DC043EA074343EA415305
:1061A00022F00302C0F860C0C36502672AF092FBC8
:1061B000736D2B437365237A13B1336C2B433364B4
:1061C000637A13B1B36B2B43B3632279A37943EAA8
:1061D0000243084A93616179E37943EA014306493E
:1061E0008B61034B55639D64BDE8F8402AF078BB92
:1061F00000000450002004500010045010B5012489
:10620000C0B284402AF066FB044B5A6D22EA0402B5
:106210005A659C62BDE810402AF062BB0000045041
:1062200010B50124C0B284402AF054FB074BDA6A4F
:10623000224208D15B6B9C430CBF012400242AF04E
:106240004FFB204610BD0024F9E700BF00000450BA
:1062500041F67132034BDA63012203F50053DA6031
:10626000704700BF0000035041F671320121044B1A
:10627000DA6303F50052D1600022DA63704700BF91
:1062800000000350014BD3F89400704700400050C9
:10629000CB784A7810B55B010C7843EA82030A791F
:1062A000234343EA02130C22424302F1B042136338
:1062B000012C02BF8A78024B43F8202010BD00BF9A
:1062C000D080035008B54FF0B0435A686AB958B14E
:1062D0005B680BB12AF021FB01210D4B59602AF0BC
:1062E0001CFB4FF0B043D96008BD5B680BB12AF0CE
:1062F00014FB0028F0D12AF010FB4FF0B04302222B
:10630000DA602AF00AFB0122024B5A60ECE700BF78
:1063100000100058002000584FF0B0414B6810B5F5
:106320000BB12AF0FAFA01220B4BC4785A60837839
:10633000934043EA840344782343047943EA0413F3
:10634000447943EAC4038B60044B5A600378C3F179
:106350000203CB6010BD00BF0020005800100058A1
:10636000054B5B69C3F38512827003F03F021B0B80
:1063700042700370704700BF00C007500120034BFC
:106380009B680A3303F01F03984070470080E00FBA
:106390000D4B984208D1A3F50033C3F88411C36DA7
:1063A00043F08003C3657047084B984204D1A3F5BE
:1063B0001033C3F89411F2E7054B984204BFA3F5DC
:1063C0002033C3F8A411EAE70080055000C005504F
:1063D0000000065070B5054616461C4619B9032044
:1063E000FFF738FB0146402C1BD003D8DCB1202C32
:1063F0001BD070BD602CFCD1042303FB06F25308B4
:1064000003EB4113B3FBF2F3094A203B02EAC30357
:10641000AA6822F06002AA60AA681443AC60EB612B
:10642000E7E70623E9E71023E7E70823E5E700BFEE
:10643000F8FF7F00012200F580535A6040F6AA63FE
:1064400041F20502436100230D498360C365C260C8
:1064500000F500520361C361C36491640949836517
:10646000884203D103650023436506E0064988425C
:10647000F8D001F580418842F4D001235360704781
:10648000FFFF01000080055000C0055070B50D46AB
:10649000FFF7D0FF012300F580567360AB7C044604
:1064A0001BB1836843F080438360EB7C1BB12046C3
:1064B000297DFFF76DFF2A8A6B7B20461343EA890B
:1064C0001343E3602B7BD5E90112FFF783FF6B7D5C
:1064D0001BB1A36843F48033A360AB7D1BB1A368F9
:1064E00043F40043A360EB7D2A7E1B07120502F4F0
:1064F000E00203F0E0431343A365697E1F4A8B1E4D
:10650000012B1F4B1DD8944217D002F580429442B4
:1065100015D002F5804294420CBF02224FF0FF32A8
:1065200003EB4213022041F2AC520329985020D1D0
:106530000423F3652B78636170BD0022F0E701222C
:10654000EEE7944211D00F4A944210D002F58042F7
:1065500094420CBF02224FF0FF3203EB42130220A1
:1065600042F2AC5201299850E1E70022F5E70122FE
:10657000F3E7042204F50053DA65DBE700800550F9
:1065800000C0035000C0055038B50446054D2DF03D
:10659000D7FD0FCC0FC594E80F0085E80F00002051
:1065A00038BD00BFF032002047F6FF739A42F0B5C5
:1065B00072D0022972D83A4B5B5C022B6ED8394DEF
:1065C000DF0005EBC304A17815F83330012938BF8B
:1065D0000121012B13D10025E078401AA84202D8EE
:1065E0000844C0B2F0BD431B6668A0EB530336F904
:1065F00013609642D4BF1D4603F1FF30EEE760689A
:106600000028EFD0B0F90040944204DBB0F902401A
:106610009442B8BF144683883D44FF2B19BFC8225B
:106620004FF0280CB0F90620B0F908C0A2EB040323
:106630000CBF0126002693FBFCF333446E781BB29B
:106640009E4201DD002B01DA731E1BB24FF47A7CEF
:1066500001339BB2071D5D1E2DB24FEAC50E00EB44
:10666000C505EA88AD689E4214FB025222EAE27236
:1066700002F15C02B2FBFCF204DD37F83350013367
:106680009542E8D200EB0E039888904228BF10464E
:10669000884238BF0846A4E7FF20A3E70020A1E70F
:1066A00065940300F03200200229F0B560D8314B28
:1066B000595C02295CD8304B13F83100012816D1FF
:1066C00003EBC1039C78D878012C214638BF012107
:1066D000904294BFC1EB0001C1EB0201001BCAB2A2
:1066E0008242C8BF00225B6833F91200F0BD002A65
:1066F0003CD003EBC1035968002939D09878904207
:1067000002D3B1F90200F1E7DC78B1F9000094425C
:10671000ECD95C788B88013CA3F1FF06734201F150
:106720000405E4B2734101F10C07DEB2B44216D89D
:1067300005EBC3034FF47A756A43B3F902405B6813
:10674000D21A04EBD47302EB630292FBF4F2904290
:10675000CCDBB1F902009042C8DC10B2C6E737F8D2
:1067600033C05E1C9445E3D33346DEE70348BDE700
:106770000348BBE765940300F03200200CFEFFFFE6
:106780000080FFFF08B50448FFF7FEFEBDE80840A3
:1067900001202DF0FABC00BF689403007FB51422DD
:1067A000002101A82CF036FF044B01A94FF0FF3067
:1067B00002932DF02AFD07B05DF804FB006A180073
:1067C0002DE9F0418CB08846DDE912761D4604467D
:1067D000002847D0002945D0002F43D0002E41D0BB
:1067E00013F00F033ED120482049A360002A08BFC0
:1067F0000146E361C4E90013404609A92AF018FAEA
:1068000068BB204609992AF0A4F8294620462AF0B8
:10681000A0F8694640462AF0B9FA00BB694620460E
:106820002AF083F8404603A92AF0BBFAB8B92046FB
:1068300003A92AF07AF806970127204645F000556B
:1068400006A9079708952AF070F8204609A9099625
:106850000A970B952AF073F820462AF077F90CB0C6
:10686000BDE8F0812120FAE70001000400010104E5
:106870002DE9F04F97B0894690461F460546DDF852
:1068800080A0002800F0BB80002900F0B8803AB159
:10689000229B002B00F0B380239B002B00F0AF80E5
:1068A000BAF1000F00F0AB80219B002B00F0A78015
:1068B00067B13C680026229B43440293464507D3B8
:1068C00007B13C60002017B0BDE8F08F3C46F1E70F
:1068D0005CB1229B219A9B5D125D01345340239A47
:1068E00004F00F0493550136E8E7A8EB060BBBF163
:1068F0000F0F58D9434B4846C5E90034AC60EC61F2
:1069000013A92AF095F90028DDD1284613992BF018
:106910000F0B2AF01EF8594628462AF01AF8484666
:1069200004A92AF033FA0028CDD1284604A929F079
:10693000FCFF484607A92AF034FA0028C3D12846AC
:1069400007A929F0F2FF012322992F4ACDF828A0A8
:106950000B930C928A190D9228464BF000520AA90B
:106960000E9303920F9229F0E0FF28460DA929F01B
:10697000DCFF239B039A9919012310911193129222
:10698000214A284610A9CDF84CA01493159229F05D
:10699000D6FF284613A929F0D2FF28462AF0D6F8B8
:1069A0005E4400288FD1229B03EB060B239B1E44E1
:1069B000029B5B4501D1464680E7ACB9219B22464C
:1069C000CDE900A3494610232846FFF7F9FE002829
:1069D0007FF479AF0AF1100212F8013D0133DBB206
:1069E00013700BB95245F7D1219A1BF8013B125D88
:1069F0000134534006F8013B04F00F04D8E721208E
:106A000061E700BF03030004100000202DE9F04FF0
:106A100097B0894615469A460446209FDDF888803F
:106A2000DDF890B0269E002800F09D80002900F03F
:106A30009A80002E40F08A80002B00F09480B8F1FC
:106A4000000F0AD0219B002B00F08D80002A40F01F
:106A50009F80F10700F1878002E0002A40F08580E6
:106A6000FB1F062B7FD8524B0BEB05029A427AD2C2
:106A70000023504A4846C4E90023A360E36113A9F8
:106A80002AF0D6F800285ED12046139929F061FF3C
:106A9000204646EA074129F05CFF4146204629F09E
:106AA00058FF2946204629F054FF484601A92AF0FC
:106AB0006DF9002847D1204601A929F036FF484644
:106AC00004A92AF06EF900283DD14FF001092046B3
:106AD00004A929F02AFF239B45F000550793219B29
:106AE000CDF82090204609950DA90A9347F000574C
:106AF00048F00053CDF82C900C93CDF834A0CDF88D
:106B000038900F9729F011FF20460AA929F00DFFB0
:106B1000204607A929F009FF259B204610A946F029
:106B20000056CDF840B0CDF8449012951393CDF8AF
:106B30005090159629F003FF204613A929F0FFFE77
:106B400020462AF003F817B0BDE8F08F259B53B11B
:106B5000BAF1000F07D0B8F1000F01D0219B13B19B
:106B6000B5B9022E20D12120EDE7239B002BFAD0CE
:106B7000BBF1000FF7D0C7F10F03DBB2032B3FF6D9
:106B800068AF0122DB0002FA03F3AB42EBD9E8E77E
:106B9000239B002BE7D0BBF1000FE4D0C7F10F031C
:106BA000DBB2032BDDD8ECE7102E7FF652AFDAE72D
:106BB00000800120000005042DE9F04F99B08846BF
:106BC00015469B460446229FDDF89890289E60B1AA
:106BD00059B1279B4BB1BBF1000F06D0249B0BB1E1
:106BE000239B13B11DB9022E13D121239AE0259BBB
:106BF000002BFAD0B9F1000FF7D0C7F10F03DBB2C9
:106C0000032BF0D80122DB0002FA03F3AB42ECD9EC
:106C1000E9E7731E0F2BE8D816F0010AE5D1FB1F38
:106C2000062BE2D8414B09EB05029A42DDD2404BDC
:106C30004046C4E9003AC4F808A0C4F81CA015A94D
:106C400029F0F6FF034600286CD12046159929F05B
:106C500080FE204646EA074129F07BFE2046249923
:106C600029F077FE2946204629F073FE404603A905
:106C70002AF08CF80346002854D1204603A929F0B5
:106C800054FE404606A92AF08CF80346002849D154
:106C90004FF00108204606A929F047FE259B204613
:106CA000099345F00053CDF8288001930B93239B63
:106CB0000FA90C93249B47F0005743F00052CDF8E6
:106CC00034800E92CDF83CB0CDF84080119729F079
:106CD0002CFE20460CA929F028FE204609A929F0FF
:106CE00024FE019B204612A9CDF84890CDF84C8097
:106CF000149329F024FE279B204615A946F0005640
:106D00001593CDF85880179629F00FFE204629F0EC
:106D10001DFF034630B101902A46514648462CF0EB
:106D200079FC019B184619B0BDE8F08F0080012066
:106D3000000006047FB50E461D460446F0B102B9B8
:106D4000E3B901230192029345F00053039300231A
:106D50000B4AA360C4E90023E361204601A929F09E
:106D6000E4FD3146204629F0F4FD2046294629F06D
:106D7000F0FD204629F0EAFE04B070BD2120FBE7BB
:106D80000000094330B5048804F4E043B3F5005F24
:106D90002ED1C4F30223042B2AD181F0AA6383F4F9
:106DA000807333F47E132AD081F0AA6383F40073D6
:106DB00033F47E1323D00023144D21F47E11A94215
:106DC0001AD1B4F5105F17D1418821F04000802816
:106DD00002D0B1F5807F15D1191F0C2912D8DB071D
:106DE00010D4073A072A34BF00206FF0860030BD68
:106DF00042F204039C42DED16FF08500F7E7C1F355
:106E00000543D9E76FF08600F1E700BF00014005B8
:106E10002DE9F04F9BB08146DDE928761D468B4673
:106E2000DDF8A880DDF8BCA0099241B138B1249BFF
:106E30002BB1269B0BB9279B0BB91FB94EB16FF035
:106E400086047FE02EB1B8F1000FF8D02B9B002B09
:106E5000F5D02C9B002BF2D0BAF1000FEFD02E9B77
:106E6000002BECD02D9B002BE9D0B9F8003003F4B7
:106E7000E042B2F5005F69D1C3F30222042A65D172
:106E800085F0AA6383F4807333F47E1306D085F013
:106E9000AA6383F4007333F47E1360D1C5F3054312
:106EA00029464846259ACAF80030FFF76BFF04468A
:106EB000002847D1014620220AA82CF0ABFB202253
:106EC000214612A82CF0A6FB0AA829F052FE0028A1
:106ED00055D159464846099A12AB29F0CBFF0446D2
:106EE00000282FD12B9B9E424CD8DAF800302E9AE6
:106EF000934247D8474508D2BB19984505D2394631
:106F0000324640462CF06CFB4746204B25F47E155C
:106F10009D4226D1DAF80030324606932D9B039726
:106F2000CDE90483279B12A90293269B0AA801930B
:106F3000259B0093249BFFF769FD212819D0D8B920
:106F40002C9B1E6020461BB0BDE8F08F42F204026D
:106F5000934204D185F0052383F480139BE700233B
:106F60009EE76FF0880400232C9A1360CAF8003063
:106F7000E8E76FF08604F6E76FF09204F3E76FF04E
:106F80009204DFE76FF08904DCE700BF00014005F1
:106F90002DE9F04F99B08A46DDE92665934698467B
:106FA00081462A9F28B96FF08604204619B0BDE8B3
:106FB000F08F0029F7D0229B002BF4D0249B13B92B
:106FC000259B002BEFD10EB9002DECD117B92B9BCF
:106FD000002BE8D12C9B002BE5D0289B002BE2D086
:106FE00041464846239AFFF7CDFE04460028DCD1EF
:106FF000202201460DEB02002CF00CFB2022214642
:1070000010A82CF007FB08A829F0B3FD10B16FF011
:107010009204CAE75A465146484610AB29F02AFF67
:1070200004460028C1D12B9B9D422AD8BE4208D2DB
:1070300073199F4205D231462A4638462CF0D0FAC1
:107040003E46144B28F47E1898451DD1299B2A46AC
:107050000693289B0396CDE90473259B10A9029300
:10706000249B08A80193239B0093229BFFF7A4FD78
:10707000212898D02C280AD00028C8D12C9B1D602C
:1070800093E76FF0890490E76FF088048DE76FF065
:1070900094048AE700014005084B984202D0084B4F
:1070A000984207D10B88B3F5105F0CBF00206FF03A
:1070B000850070476FF08500704700BF00444004B2
:1070C0000013C0042DE9F04F99460023A3B0934666
:1070D000DDE92E74DDE93068CDE90633CDE908330A
:1070E000CDE90A33CDE90C33DDF8C8A00490059151
:1070F00029B96FF08605284623B0BDE8F08F002A35
:10710000F7D00FB9002CF4D12C9B13B92D9B002B79
:10711000EFD116B9B8F1000FEBD1BAF1000FE8D0FA
:1071200048460499FFF7B8FF05460028E3D1014619
:10713000202212A82CF06EFA202229461AA82CF040
:1071400069FA12A829F015FD002878D1DDE90401BB
:107150005A461AAB29F08EFE05460028CBD11A9864
:1071600029F045FE05460028C5D114B9CAF800002B
:10717000C1E7B7420AD23B199E4207D24445B8D86C
:107180003946224630462CF02BFA37464E4B99456D
:1071900058D003F54073994515D04C4B994540F0B4
:1071A0008C804445A5D814F00F02A2D12346CDE926
:1071B00000761AA912A8FFF703FB0746002834D16E
:1071C000CAF8004097E700234445CDE90E33CDE9E6
:1071D00010338ED82D9B0D2B8BD101238DF8383099
:1071E0002C9B0DF1390203F10C0153F8040B8B4277
:1071F00042F8040BF9D11B78137001238DF8473046
:1072000014F00F0933D10F2CDAD906AB01930EAB72
:10721000CDE90276009324F00F0200231AA912A8E8
:10722000FFF726FB0746002843D0424600213046A0
:107230002CF0F0F90023012FCAF8003040D06FF095
:10724000920558E744453FF654AF2D9B102B7FF431
:1072500050AF2C9B0DF1380C03F1100E62461868EC
:107260005968083303C273459446F7D1C8E724F040
:107270000F033B440DF1280C03F1100E6246186811
:107280005968083303C273459446F7D10F2CBCD814
:1072900024F00F03334403930AAB029306AB01932C
:1072A0000EAB00934A4600231AA912A8FFF7E0FA92
:1072B00083E7B9F1000F83D0EAE76FF085051AE79D
:1072C0006FF08B0517E700BF0010C00400444004B6
:1072D0002DE9F04F994600239FB09346DDE92865DC
:1072E000DDE92A788A46CDE90633CDE90833CDE9D0
:1072F0000A33CDE90C33059029B96FF08604204696
:107300001FB0BDE8F08F002AF7D00EB9002DF4D1E0
:1073100017B9B8F1000FF0D12C9B002BEDD04846E7
:107320000599FFF7B9FE04460028E8D1014620225E
:107330000EA82CF06FF92022214616A82CF06AF92D
:107340000EA829F016FC002844D15A46514605984B
:1073500016AB29F08FFD04460028D0D1169829F0ED
:1073600046FD04460028CAD115B92C9B1860C6E713
:10737000BE420AD273199F4207D24545BDD8314655
:107380002A4638462CF02CF93E46344B994549D0D4
:1073900003F54073994520D0314B994554D145456B
:1073A00055D82B07A9D12B460122CDE9006716A994
:1073B0000EA8FFF705FA2C9B06461D6000289ED0FC
:1073C0004246002138462CF025F900232C9A012E44
:1073D00013603FD06FF0920491E70D3D454536D8DC
:1073E00001238DF8283033460DF1290206F10C01F6
:1073F00053F8040B8B4242F8040BF9D11B780D367D
:1074000013704FF48073ADF8363006AB01930AABBE
:1074100000932A460023CDE9026716A90EA8FFF7BC
:1074200027FAC8E7103D454511D833460DF1280C21
:1074300006F1100E624618685968083303C2734596
:107440009446F7D11036E0E76FF0850457E76FF008
:10745000890454E76FF08B0451E700BF0010C004AB
:107460000044400413B50024064A6846536F43F0B5
:107470000103536700948DF80440FEF7DDFD2046BC
:1074800002B010BD0040005008B50248FEF730FCC5
:10749000002008BD00B4C40430B58BB06C46174D55
:1074A0000FCD0FC40FCD0FC495E8030084E803008F
:1074B000134BD3F84C2112031CD5A3F5FE431C88B3
:1074C0004FF6FF739C4208BF8C248DF81940FEF7DD
:1074D0004FFD204480F308008DF818000948FDF79F
:1074E0001BFD6846FEF754FC3220FEF773FD0020BA
:1074F0000BB030BDD3F85041E4B2E6E75495030039
:107500000080E00F00F049026FF00403502110B535
:107510000A480B4C13F0800F03F1010207D12344FA
:107520003D2A83F800131346F4D1002010BD03F068
:107530000F03043B034419761346EBE700ED00E02C
:1075400000E100E010B5044629F0B5F9024B1C60DB
:1075500029F0B5F9002010BD1033002010B529F036
:10756000AAF9034B1C6829F0AAF9204610BD00BFF8
:107570001033002038B50C461546014610B9FFF708
:10758000EDFF01462B462246034805F079FE002810
:10759000D4BF3720002038BD690F030010B5002488
:1075A00000F024F80348044B84604360FFF7CAFFEF
:1075B000204610BD14330020BD75000013B5064CE5
:1075C00023780093054B1B8829F0EBFC10B9237836
:1075D0000133237002B010BD886C0020EE1500202E
:1075E000014B188000207047EE15002008B5074BAE
:1075F0001A6842B9012208201A6029F0E9F8044902
:10760000044802F09DF9002008BD00BF2833002087
:10761000E41000202033002030B51446054687B022
:10762000104629F017FD6369024683423CBFD4E946
:1076300003315B181B1A7BB10F490494039100219D
:10764000CDE90131012300932846D4E9001329F044
:10765000CAF8002007B030BD0122627694F82D20D0
:10766000002AF6D084F835301321E3692046984784
:107670002046636A9847ECE7197600002DE9F04749
:1076800088B004460F461646984629F023F98146ED
:10769000002E7AD0237E03F0FF02002B00F0A280A0
:1076A000204629F0D7FC6569A84205D1637ED4E95C
:1076B000033213445D1B01E0F9D9451BB54228BFD5
:1076C000354629F007F994F82D308246002B6DD10C
:1076D0002A46384661692BF066FF63692E462B44C3
:1076E000636121E0037803F0FD0111295BD1216B77
:1076F000814205D1A3F111014B424B4184F8343052
:10770000013E6369216B01328B4203F1010308BF23
:107710002363636195426069E4D1D4E90323216B5B
:107720001344994200D122630025D4E903236169FF
:107730001344994208BF6261207A6576FDF73AFEEC
:10774000204629F087FC6369834232D1257694F87C
:107750002D30E568656103B125632046636A98476B
:10776000214B049403930023029323692A46019337
:107770000123009363682168207A29F034F8207A85
:10778000FDF738FE504629F0ABF84846C8F80060CF
:1077900029F0A6F8D8F80030002B0CBF1B200020E1
:1077A00008B0BDE8F08707F8013BAAE72E460022A3
:1077B000B0E70123207A23760DF11E01FDF782FE4A
:1077C0009DF81E30002BDAD00DF11F01207AFDF755
:1077D00051FE9DF81F100029D1D12246207AFFF7D3
:1077E0001BFFCCE71646D0E719760000002807DB20
:1077F00001234109034A00F01F00834042F8213071
:10780000704700BF00E100E0002808DB01224309C7
:10781000034900F01F008240603341F82320704785
:1078200000E100E070B504460568FFF797FE84426A
:1078300002D10020FFF786FE95F936603046FFF74B
:10784000E3FF002E0CDB01221949730906F01F0625
:10785000B240203341F82320BFF34F8FBFF36F8F27
:1078600095F937603046FFF7CFFF002E0CDB012281
:107870000F49730906F01F06B240203341F8232058
:10788000BFF34F8FBFF36F8F287AFDF7D3FD287AB0
:10789000FDF736FDFDF712FD00232846C4E900334D
:1078A000C4E90433A360AB6ABDE87040184700BF69
:1078B00000E100E02DE9F0430C461546064687B08E
:1078C0004022002120461F462BF0A4FE95E803002D
:1078D00000232A692376EB6884E80300C4E90423C3
:1078E0002A7DE36084F82C20AA7D2363012384F899
:1078F000343084F835300E9B84F82D2023620F9BA2
:10790000E7616362109BA3622B7A84F836306B7A4E
:1079100084F837302D4B346073602D4BB3602D4BA2
:1079200033612D4B73612D4BF360FDF70FFD38B1C3
:107930002B4B984204D01024204607B0BDE8F083BA
:10794000002104F10800FDF789FC07460028F2D168
:107950004FF00108234B3362234B84F83C80B36122
:10796000224BF3619DF8483084F8390084F83B30AD
:107970009DF84430204684F83A30697D84F8388098
:1079800029F078FB95F909904846FFF73DFF4846F6
:10799000FFF72CFF164B0494CDE902732369CDE960
:1079A00000836368E2682168207A28F01CFF04469F
:1079B0000028C0D195F908502846FFF725FF284632
:1079C000FFF714FF3046FFF7BDFDB5E7C510030014
:1079D0007D76000043100300491003002578000065
:1079E000038000F01D100300751003004F1003000A
:1079F000197600002DE9F0414FF001081C46574B65
:107A000086B00293564B0C9D0193564B174600933C
:107A10000A46CDE903882946534BFFF74BFF06463C
:107A2000002840F09280236804222B64237985F893
:107A30004430A17985F84610607985F84500237AAD
:107A400085F84830E37985F84730A37A85F84A30DD
:107A5000637A85F84930237B85F84C30E37A85F8E2
:107A60004B304346FEF7F2FA43460222217AE07990
:107A7000FEF7ECFA3E7039462068FEF707FD142148
:107A8000A27B3A4B03EB4210C0F8AC1594F806C049
:107A900061792E3203EB421341EA0C415960227A9C
:107AA000E37943EA0243C0F8BC3585F84D607B7E3C
:107AB000032B50D8DFE803F03A4D021D022385F86E
:107AC0004D3000230422217BE07AFEF7BFFA41F219
:107AD000AC520221A37B5B0103F1A04303F5703399
:107AE0009950217BE27A42EA014241F2B8515A5060
:107AF0001CE0012785F84D3002220023A17A607A2C
:107B0000FEF7A4FAA17A627AA37B42EA014241F22B
:107B1000B4515B0103F1A04303F570335A500422C2
:107B2000236803F58053DA65002FCAD163792A6C84
:107B300085F84530A379052185F84630D36C206857
:107B400043F00403D36428F02AFF304606B0BDE8B2
:107B5000F0810027CEE72326F7E700BFF3110300EB
:107B6000E7110300771203006B12030000C00350FB
:107B700010B51C46044B18682BF095FB00282060BC
:107B80000CBF1B20002010BDEC10002013B5064CCC
:107B900023780093112329F004FA10B923780133D4
:107BA000237002B010BD00BF896C002010B5FFF734
:107BB0001DFD0F4C20602BF084FB20220D4901237A
:107BC0000D4805F0E3FB0D4B18600D4B204663603C
:107BD0000C4BA360FFF7B6FC28F06DFE01210446B4
:107BE000084601F033FE204628F069FE002010BD53
:107BF0002C3300208A6C002082950300EC100020BA
:107C00008D7B0000717B00001A2812D8102814D92F
:107C100040F28523A0F11102D2B2D340DB070CD58C
:107C20000122064B80F020001A70054B18707D2051
:107C300003E0A0F17D03012BF2D97047B16C002065
:107C4000B06C0020F8B50E461446204B00B3204A15
:107C50002049107000221A7022700A704FF6FF72CD
:107C60001D4B1A801B4D2B78EBB91B4F30463988C2
:107C700029F0D9FB164A38801378013BDBB2137028
:107C80006BB901232B703046BDE8F840FFF7BCBF4D
:107C90001A78002AE6D01870104B1878F8BD2378AF
:107CA00001332370EFE7012B05D102232B700A4B20
:107CB0001888000AE8E7022B04D103232B70064B37
:107CC0001878E1E7FF237E202370E7E7B16C0020FE
:107CD000AE6C0020AF6C0020D2600020B06C0020A1
:107CE0002DE9F047394E8846337817465BB9384A54
:107CF0001370384A1370384A1370384A13704FF6AD
:107D0000FF72374B1A807D2850D02DD8182851D0BB
:107D10001A2852D0314B2E4D1A78DFF8BC9080EAE9
:107D2000020400221A702B78CD2B9CBF01332B70DC
:107D30002B78022B12D9DFF8A8A099F80000BAF826
:107D4000001029F070FB2B78AAF80000CD2B9FBF04
:107D500099F80020023B88F800203B701D4B1A78F0
:107D60001C7089F8002006E07E28D3D1184B1B78C0
:107D70001BB91A4A1370202011E0FF2B1FD0184A9C
:107D80001188154A1078134A127802EB00229142AA
:107D900017D1022B17D9CE2B34BF00207A20A0F1A7
:107DA0002002534253413370BDE8F08720220B4B31
:107DB0001A70E0E7FF22064BFAE77420EFE777201E
:107DC000EDE77620EBE77920E9E700BFB26C002011
:107DD000AD6C0020AB6C0020AA6C0020AC6C0020C5
:107DE000D060002008B529F0B4FA4FF6FF730028E0
:107DF00018BF0346014A138008BD00BFD6600020AB
:107E000010B5074C208850B129F0A3FA2388C01A76
:107E1000044B00B21B889842B4BF0020012010BD63
:107E2000D6600020D46000204FF07E624FF6FF73D2
:107E30002DE9F041B2F84670B2F84460154D9F420A
:107E400008BF4FF448679E4208BF4FF4C8762C889D
:107E5000DFF8448050B164002C802B88BB4215D9D8
:107E60002F800023A8F80030BDE8F081B8F800307A
:107E7000002BF2D029F06DFAB8F80030C4EBC4043E
:107E8000C01A80B204EB8004E408E5E7B34238BFCF
:107E90002E80E6E7D4600020D660002008B529F0E7
:107EA00058FA4FF07E634FF6FF72B3F854309342A6
:107EB00008BF4FF47A73034413F47F6FC3F30712C0
:107EC00008BFFF22014B1A7008BD00BFB36C002031
:107ED00010B5084C237843B129F03BFA2378C3EB63
:107EE00010131B065CBF002323702078B0FA80F0CB
:107EF000400910BDB36C002007B502F097F96A463F
:107F000002F0FAF918B15221034800F071FBDDE9E3
:107F1000000103B05DF804FB9895030008B502F07A
:107F2000B9F818B17A21024800F062FB002008BDC0
:107F30009895030008B500F089FA0E4A536A43F495
:107F400070235362EFF308834FF0CD310A4A043BAC
:107F500093420BD20222094B1A6700F0E5FCFFF7AF
:107F6000DDFFBDE808400648FEF70EBB43F80419E4
:107F7000EEE700BF00ED00E00000002000400050F0
:107F80006894030007B5042200200DEB02012CF0D9
:107F90007EF8042804D040F26711044800F028FB62
:107FA000019800F06DFC03B05DF804FB98950300A8
:107FB0001028034670B535D020D8032815D90020E5
:107FC00070BD032202231A491A4D0C680021C8B261
:107FD0008442F4D955F8200028B1067A9E4202D195
:107FE000467A9642ECD00131F1E7421E022A19D8B6
:107FF000DFE802F0021B16000022E3E7A0F12002F6
:10800000032ADCD8213B022BF6D801A252F823F038
:108010001D80000021800000C37F00000122D1E705
:108020000222CFE700220323CDE70122CBE700BFE6
:108030000CAB03001011002010B5FFF7B9FF044688
:1080400030B1037A022B03D103680BB11B6823B94B
:1080500040F23321064800F0CBFA23681B681B6C02
:10806000986900F44830A0F500535842584110BDBB
:1080700098950300082310B50A0A41400648C9B282
:1080800001F00104490804B14140013B13F0FF0332
:10809000F6D181EA020010BD2083B8ED2DE9F84346
:1080A0000025134C134EDFF85480134FDFF8509027
:1080B00023780BB9BDE8F88322464146002056F8E4
:1080C000043B28F05AFF227823460134002AFAD1D3
:1080D0005B7853B105F00303032B0CBF39464946C7
:1080E000002028F04AFF0135E2E73946F8E700BFF3
:1080F000009B0300001000206D990300DE95030033
:10810000DB95030040F605226A4B2DE9F0411B8800
:1081100093420ED8B3F5206F0DD840F2025293422D
:1081200018D040F20172934220D040F201529342A3
:108130000AD0BDE8F081A3F602235F4C032B1ED8C2
:10814000DFE803F0376396B25C490020BDE8F041F8
:1081500028F013BF00205A4928F00FFF564B1A6C25
:108160000020BDE8F041574928F007BF524A0020DF
:10817000D2E92423BDE8F041534928F0FEBE002097
:10818000524928F0FAFE94F868309E0703D5002083
:108190004F4928F0F2FE94F86B305D0603D50020BD
:1081A0004C4928F0EAFE94F96B30002BC1DA4A49B9
:1081B000CBE70020494928F0E0FE94F864309807A6
:1081C00004D00020226C3F4928F0D7FE94F9643097
:1081D000002B04DA0020226F414928F0CEFE002552
:1081E0000126404FDFF80881626E06FA05F313425C
:1081F00007D057F8252013781BB14146002028F0FE
:10820000BCFE0135082DEFD193E73749002028F057
:10821000B4FE2C490020226C28F0AFFE94F86530A3
:10822000590703D50020314928F0A7FE94F965309D
:10823000002B04DA0020226F294928F09EFE082531
:10824000284E2B4F636EEB40DA0707D556F82520F2
:1082500013781BB13946002028F08FFE0135102D10
:10826000F0D194F8640000287FF463AF21496DE7F2
:108270002149002028F081FE0020226C114928F0BD
:108280007CFE1025174E1A4F636EEB40DB0707D5B7
:1082900056F8252013781BB13946002028F06DFED2
:1082A00001351A2DF0D144E70020144928F065FE6D
:1082B000226C55E7D860002000100020E8950300EC
:1082C0002696030057960300729603008E960300CD
:1082D000A7960300E2960300169703005397030046
:1082E0007997030008A30300A0970300B897030041
:1082F00097970300FF970300309803004A98030004
:108300002DE9F04F424C85B0D4E90D32580748BFF3
:108310000026D4E9121B48BFB046D4F83CA05FBF8A
:10832000D4F850808B4692463A4E54BFDFF81091F5
:10833000DFF8109113F0080F374B384A18BF1A4670
:10834000B6EB08071FBF64237D0803FB0B55B5FB85
:10835000F7F50CBF3D46ADB24B4631490020CDE9A3
:10836000016ACDF80080BFB228F007FE2B4600203E
:10837000CDE900972B491FFA8BF228F0FEFDB2459C
:1083800001D8C24504D24A460020274928F0F5FD0D
:10839000D4E91703184338D00020244928F0EDFD14
:1083A00000250126224FDFF8A080E26D06FA05F3D2
:1083B000134207D057F8252013781BB141460020FF
:1083C00028F0DBFD0135202DEFD100250126194FC6
:1083D000DFF87480226E06FA05F3134207D057F8CF
:1083E000252013781BB14146002028F0C6FD013539
:1083F0001D2DEFD10020104928F0BFFD00200E49AF
:1084000005B0BDE8F04F28F0B8BD0C49F4E700BF57
:1084100000100020001000207998030080980300CD
:1084200088980300BA980300F49803001399030096
:1084300014A2030094A203006E990300479903005D
:10844000749803006C9803004399030010B5FDF77E
:1084500019FF044628F05BFAE30721D401221046F5
:10846000114600FA01F3234002F101021AD0214B18
:1084700033F811302049062B19D040F207229342DD
:1084800012D14FF000524FF20F00548884420BD1AA
:108490001088984208D14CF23C335380088010BDBC
:1084A0000021E4E7102ADBD1134A138012E04FF0D9
:1084B00000534FF20F025888904218D11B88B3F531
:1084C000406F28BF4FF4C0630B804CF23C324FF03A
:1084D00000535A80084B1A8840F201739A4201BF38
:1084E000064B074AD2E90001C3E90001D7E74FF480
:1084F000C063E9E7E09A0300D86000203833002029
:1085000090100020014B1888704700BFD8600020F1
:10851000014B1888000A7047D8600020164B188855
:10852000020A10F0FF00134604D1012A23D143F0C0
:1085300080007047072BFAD801A252F823F000BF41
:10854000658500002F8500006185000075850000AD
:1085500075850000698500006D850000718500004B
:108560000920704718467047032070470B2070475A
:108570000620704702207047D8600020044B054851
:108580001B881A0AB3F5406F38BF00EB82007047B2
:10859000D8600020B09A0300044B1888044B020AEC
:1085A00053F82230C0B203EB80007047D86000203F
:1085B000809A030010B5044628F084F94FF0005368
:1085C0004FF20F021C805A80BFF35F8FBFF34F8FB3
:1085D0000549064BCA6802F4E0621343CB60BFF35F
:1085E0004F8F00BFFDE700BF00ED00E00400FA057B
:1085F00038B504460D4600F0CBF928F063F92B4658
:1086000022460549002028F0B8FC29462046BDE84E
:10861000384028F017BF00BF5D9903006D4A2DE96F
:10862000F0416D4B55686D4C5D65516A99656C49BB
:10863000D1F80002D865D1F80412586B1966916A16
:1086400010F0040F5966D16A4FF000009966116B63
:10865000D966516B1967D26BD8645A67D3E90E1289
:1086600018BF11465F4A91421A655DD301F120009F
:10867000A04259D88869C5F308051864CE69062D4B
:108680005E6455D1584DA84252D3584DA8424FD29E
:1086900005884DF6426085424AD11868C3F89000BB
:1086A0005868C3F8940040F20170A242154604D203
:1086B0002E680432B6F1CD3FF7D00022C3E91E2266
:1086C000C3E92022C3E92222641BDFF81CC1434D09
:1086D000DFF818E19C648D422DD8D3E91EC7D3E999
:1086E0002065D3E922414FF0000E013AD2B2FF2AB1
:1086F0003CD1BEF1000F05D0C3E91EC7C3E9206518
:10870000C3E92241B3F85430C3F308030C2B3BD820
:10871000022B54D9DA1E092A51D8DFE802F031576A
:10872000404350505050504D0021C3E910112D4985
:108730004FF42060B9E755F8044D6445CBD3744538
:10874000C9D2E607C7D50026294F57F8048FA045A0
:10875000C1D00136062EF8D132B1013AD2B202F1BF
:108760001E0643F82640B6E70522F8E7E0464FF03C
:10877000010EBC4637462E4625460C464146B4E718
:1087800040F60120BDE8F0813B2B18D1194B9B69C5
:1087900013F0020F40F2025318BF1846F2E740F6FA
:1087A0000320EFE740F2017240F60423B0F5206F9A
:1087B00014BF10461846E5E740F60520E2E740F60C
:1087C0000722013B4B2B98BF1046DBE740F6022007
:1087D000D8E700BF00ED00E00010002000100020EE
:1087E00000E100E00000002034410000C8930300D5
:1087F000741000200080015A00F00CB800F00AB894
:1088000000F008B800F006B800F004B800F002B8B4
:1088100000F000B872B61EF0080F09D01EF0040F69
:108820000DD0DFF850E0AEE8FF1F6FF002000CE063
:10883000DFF840E0AEE8FF1F6FF00E0005E0DFF864
:1088400034E0AEE8FF1F6FF006006946EFF30982DF
:108850008EE8070086460848084C854501D3A545A3
:1088600001D384F30888FFF7D9FE84F30888FFF763
:10887000A1FE000000100020400000200010002099
:108880004BF6EF6283B2002B08BF1346044A000C7C
:1088900013804FF6CE2308BF1846024B188070474E
:1088A000F2150020F01500200B4BB3F900201888BA
:1088B000002AB8BF80F0620042001A80074AB2F96D
:1088C000001013880029BCBF83F4805383F00B038E
:1088D0005900118058407047F2150020F015002013
:1088E00008B501F0C7FE60B10A4B0344072B0DD851
:1088F000072B0BD8DFE803F00C060A080A0A0A0463
:10890000C12008BDC320FCE7C420FAE7C520F8E772
:10891000C220F6E7FF1FFF0F024B9A6903F50053D1
:108920009A6170470080015A1FB50023CDF80930C5
:10893000CDF80130CDF8053001238DF800300D233E
:108940008DF8093003230F4A8DF80A30D2F800322F
:108950000D4C23F0070343F0010369462046C2F89B
:10896000003228F050F84FF400610223074A04F562
:108970000050C2F884118361516004F58054E361B2
:1089800004B010BD008000500080015A00E100E0FA
:10899000014828F027B800BF0080015A10B5094AE5
:1089A000137813F002040CD10749084809780078BD
:1089B000884206D0064863F07D03048005481370A2
:1089C000017010BD816D0020886D0020866D002033
:1089D000D6600020856D0020054B064A1988128854
:1089E000914202BF0121044A117000221A8070478F
:1089F000E4600020E26000207F6D002007B50346A0
:108A0000009102223D2003492CF0C6F803B05DF826
:108A100004FB00BF7DA3030007B5064B02221B78B1
:108A20003D200093044981232CF0B6F803B05DF893
:108A300004FB00BF8B6D00207DA3030038B50C4DF7
:108A40000C4C2A7823789A4200D138BD00210A487C
:108A50002DF078FC094B1B88834202BF0122084B92
:108A60001A702378013303F007032370E9E700BF8E
:108A7000886D0020836D0020DC600020E260002013
:108A80007F6D0020074B93F90030002B08DB064A6E
:108A9000137803F04101402904BF43F0050313702C
:108AA000704700BF8B6D0020816D0020282307B523
:108AB000054A3D20CDE900320449702302222CF002
:108AC0006BF803B05DF804FB3800E00F76A30300F9
:108AD0007028034607B504D103B05DF804EBFFF737
:108AE000E5BF074A3D20127806490192064A1278EE
:108AF000009202222CF050F803B05DF804FB00BF96
:108B0000806D00207CA303008B6D002008B50A480F
:108B100013F034FF094813F031FF094813F02EFF1A
:108B2000084813F02BFF084813F028FFBDE8084061
:108B3000064813F023BF00BFE4600020E06000207F
:108B4000DE600020DC600020E2600020DA600020AF
:108B500008B5CA22002104482DF050FB0122034B26
:108B60001880034B1A7008BDB56C0020E26000202D
:108B70007F6D002030B585B0FFF7EAFFFFF708FFF3
:108B80004FF07E634FF6FF72B3F84C30214D9342A5
:108B900008BF4FF47A732B8000231F4C2380FFF70C
:108BA00021F9FFF72DF90028FBD04FF07E634FF637
:108BB000FF72B3F84230934208BF4FF4C8632B8072
:108BC00000232380FFF7AAFC431E144DDBB20A2BBF
:108BD000134C287018D840F2035222FA03F3DB0733
:108BE00012D50222C1230290CDE900323D20842318
:108BF0000C492BF0D1FFFF232B70D023237005B03D
:108C0000BDE83040FFF752BFFFF750FFA0232370AD
:108C100005B030BDD4600020D6600020896D0020F2
:108C2000816D00207BA3030037B504460D4614F088
:108C30009BF8022825D840F217111B48FFF7D8FCF3
:108C40001A4B197801F14003DBB2022B1FD901F056
:108C5000A003A02B04D00B0619D57E20FFF7CEFE73
:108C60004FF07E63B3F8403013B1204628F004FC87
:108C7000B5B1002221460E4803B0BDE830402DF0CA
:108C8000F5BA204614F070F8CA28D4D8D8E7CDE950
:108C90000014842302223D2006492BF07DFFDFE7EC
:108CA0002A4621460448E7E781A303008D6D002092
:108CB000E0600020BFA30300DE6000202DE9F84F34
:108CC000FFF79EF8A84C48B32378580626D5990795
:108CD0004CBFA64BA64BA74A1B7812789A4232D0BB
:108CE0000120FFF7A1F87320FFF7F2FEA24A4FF62A
:108CF000FF7113780133DBB213704FF07E62B2F86C
:108D000048208A4208BF0322934219DD51229B4B1F
:108D100072201A70FFF7DCFE20232370984D994EC5
:108D200094F900202378002A18DA13F030030ED0CB
:108D30001A2028F0C0FB237803F07F032370EFE7AD
:108D4000FFF72CFEEAE700228F4B1A80E6E72A782D
:108D5000022AF0D18C4A2B701380E9E72A78012A85
:108D600000F0F1800DD9931E012BD9D83178FF295D
:108D700000F01E81002940F0EE80844B19783246C5
:108D8000E7E09A0719D579497A4A794892F800C0FC
:108D900007780A78ACEB0200BA1A02F0070200F07A
:108DA0000700904298BF81F800C00A78BA4204D107
:108DB00023F002032370FFF741FE237813F0300FF6
:108DC0001ED013F0200F714F15D0C2233B706B4B98
:108DD000187802237B702378B87023F03C0323704B
:108DE0000320012332462B70684B1978FEF72AFFC7
:108DF00028F061FB94E7C1233B70FFF78FFBE8E7A6
:108E000013F00C081FD0624F13F0040F39785F4B3A
:108E10000FD06039C9B280201970FFF7EFFD2378B9
:108E200003F0F3033A7823705A4B1A700123184663
:108E3000D8E781F080017E201970FFF7DFFD2378ED
:108E400003F0F703EEE79B0732D5DFF820A1524B82
:108E50009AF800701B78DFF844B1FF1A27F03AFD4A
:108E6000414681464D482DF0FBF9804607F0070743
:108E7000B7B9484627F034FD494B4046A3F8008077
:108E800013F072FF424B9AF800201B78013043EA3E
:108E900002133E4A43F008031370C0B20323A1E754
:108EA000414658462DF032FA013F8046FFB2DFE7D7
:108EB000304B4FF6FF7019784FF07E63DB8F2C4FED
:108EC000834208BF05233A780B44013B521A5B1AD0
:108ED00002F0070203F007039A42DFF8B48028DCAF
:108EE00030482DF0B8F9E0B92E482DF0B4F901461C
:108EF0002C4B2D48002908BF18462C4B0021186028
:108F00002DF0AEF9264B188013F02EFF3A7898F822
:108F10000030013043EA02131C4AC0B2137002232E
:108F200060E721482DF097F918B9FEF7D1FF002826
:108F3000DAD1184B1A7898F800309A425ED023782C
:108F400043F00803FAE63378FF2B4DD032460F4941
:108F5000C95C00204AE7124B0139C9B2188814F0E5
:108F600007F901460BE700BF816D0020856D0020E9
:108F7000866D0020886D0020826D0020896D0020A4
:108F80008A6D0020B46C0020D66000208D6D00201A
:108F9000846D0020876D0020836D0020DC60002040
:108FA000DA600020E0600020DE6000204033002016
:108FB000022A1CD1124A00211378013303F007035F
:108FC0001370104B18682DF0BDF90F4B0022198853
:108FD0000E482DF04BF90E4B1B880BB9FEF702FF24
:108FE0000C4B1A780C4B1A7000232B7098E60B4A26
:108FF0001378013303F007031370ECE7BDE8F88F33
:10900000866D002040330020DA600020DC60002004
:10901000D6600020846D0020876D0020856D0020C3
:109020002DE9F04F8046A44F85B00023DFF8B892B9
:10903000A8F8003099F8003013B93B70FFF7CCFC6A
:10904000DFF8A8A29D4E0DF10E0028F038FA27286F
:1090500000F0A0813A469DF80E000DF10F013D7819
:10906000FEF73EFE2028044630D070B1FFF7B4FC76
:109070007A2804D8732878D8272C00F08B8140F206
:1090800055118F48FFF7B4FAD4E73B789D4205D0DD
:10909000022B3FD89DF80F208A4B5A55DFF82492B7
:1090A0003B7899F80010884CC02940F08380012B50
:1090B00040F0CB80FFF7B0FCFFF7AEFC28F05EF984
:1090C000FFF78AFC23785806AFD4BBE03B789D427B
:1090D000B9D0022B04D89DF80F207A4B5A55B2E72D
:1090E000032B1FD0754B1888784B1B888342AAD15D
:1090F00013F03AFEDFF8C4B1C5B2691C5846C9B2D4
:109100002DF0CBF929469DF80F20BBF8000014F094
:1091100043F820E0032B05D06C4B30881B8883423A
:10912000BCD1E5E79AF80030684D83B14FF0000BF1
:109130003388012128462B808AF800B02DF0ADF944
:10914000012300935A462988614813F0CFFF3088E5
:109150002B888342CCD0202C3FF475AF7A2C8ED84C
:10916000732C02D8002C87D198E7743C062C86D843
:1091700001A353F824F000BF959100007F900000F8
:109180009D910000A99100007F900000AD9100002A
:10919000B19100007420FFF79BFC4BE77620FFF7AE
:1091A00097FCFFF76FFC45E77720F8E77920F6E7B3
:1091B0007A20F4E70E0607D4032B46D926787306E7
:1091C00045D4FFF709FC3DE001F0E002802A23D1FD
:1091D000012B3AD17D20FFF711FCFFF7FDFB26782C
:1091E00071062FD50225DFF808C13A4A99F80030F8
:1091F0009CF80000117803F0070BABEB000E091A86
:109200000EF0070E01F007018E4529D97820FFF7EF
:109210005FFCFFF737FC08E7A02A0BD1012B14D124
:109220007F20FFF7EBFBFFF7D7FB2678720609D507
:109230000325D8E77B20FFF74BFCFFF7CDFB237816
:109240005D06E6D420232370EFE67C20F3E7224B73
:109250001B78B3EB111F01D0FFF7BEFB0125C2E75E
:10926000A5F1020A83451FFA8AFA0DD000211B4896
:109270008CF800B0017016F002004DD0184A118031
:10928000184A12785A4535D1BAF1010F39D9124925
:1092900099F800200B78C2F3021098426FD10B4D61
:1092A0002888002846D12620FFF7ECFBFFF710FCAA
:1092B000262005B0BDE8F08F806D0020E260002020
:1092C00081A303008B6D0020816D0020E4600020ED
:1092D0008C6D0020866D0020846D0020826D002042
:1092E000D6600020856D0020B26C00207F6D0020CC
:1092F000886D0020FEF776FDBAF1010FC7D899F806
:10930000003013F0080312D1234A1370032D7FF4A9
:109310008CAEFFF743FB88E6FEF786FD1F4A137805
:109320005B4501D0FEF75EFDFFF788FBE4E7FEF743
:10933000B5FDEBE7013303F007030B704FF07E63DD
:10934000160742BF227842F008022270227822F0EB
:1093500005022270B3F840300BB128F08DF82B884D
:109360003D20019399F80030022200930C49852397
:109370002BF012FC2B880020A8F8003099E7120788
:10938000237802D543F008035DE7DB073FF541AFE3
:1093900075203CE727208CE7B36C0020866D002009
:1093A000BFA3030008B5114B1B781BB1002000F0D0
:1093B000010008BD0E4B1A780E4B1B789A42F5D16E
:1093C0000FF088FC0028F1D10B482CF044FF002856
:1093D000ECD00A482CF03FFF0028E7D0084B1B7860
:1093E000002BE3D10120FEF727FEE0E7B26C00205E
:1093F000876D0020846D0020DE600020E06000208A
:109400008A6D0020F0B551B1002807DA2D23B0F1A4
:10941000004F137000D04042012100E000210025E0
:109420002C460E4F002357F8046B01E06346801B67
:10943000864203F1010CF9D913F0FF0300D125B1E5
:109440004D1C30335354E9B201250134E4B2092CE8
:10945000E8D130305054481CC0B2F0BDC4A3030062
:109460002DE9F04F002495B021460294804616461F
:10947000A1464422274603A802AC9A4625462AF074
:10948000C9F8317859B9641BE4B222462946002054
:10949000C047002840F08F803819C0B28CE02529E1
:1094A00018D0B9F1000F19D104F8011B12AB9C427E
:1094B000C0F0D380641BE4B2294622460020C04796
:1094C0000146002877D13C4448222846E7B22AF0DA
:1094D000A1F8C1E0B9F1000F00D101363278622A5B
:1094E00047D021D8252A3ED004D8002ACBD04FF02F
:1094F0000009DBE7392A15D82F2AF8D9717801F04D
:10950000DF01582940F0D880322A06F1010940F0E5
:10951000C080204604223AF8041B27F0E1FF0446ED
:109520004E46E4E7582A15E0632A6BD0A2F1640C9A
:109530005FFA8CFCBCF1140FD9D80121604B01FA01
:109540000CF010EA030940F08A8010F4104060D15A
:10955000BCF1140FCBD1204602221AF8041B27F0CD
:10956000BFFF0446C3E7214601F8022B62700C4698
:10957000BDE74FF00009DAF800300DF1480B019318
:10958000DAF804300093009B994502D10AF1080AE9
:10959000ADE7019B2046022213F8091027F0A0FF37
:1095A0005845044612D3441BE4B229462246002003
:1095B000C047014618B1002015B0BDE8F08F3C440B
:1095C00048222846E7B22AF025F82C46009B5A1E6E
:1095D0004A4584BF202204F8012B5C450FD3641B4D
:1095E000E4B2294622460020C04701460028E2D1C5
:1095F0003C4448222846E7B22AF00CF82C4609F1F0
:109600000109C0E7534653F8042B9A4604F8012B8E
:109610006DE7641BE4B22246294648465AF804BB6B
:10962000C0470028C7D13C44482249462846E4B2F6
:1096300029F0F0FF5FFA89F31BF803004F4609F1A8
:1096400001090028F6D1FFB23A465946C047002822
:10965000B1D181463C44E7B22C46013611E76C2A71
:10966000DAF800000AF104090FD17378752B01D0E4
:10967000642B04D1B3F1750118BF012101362246D4
:10968000FFF7C0FECA46044431E7752A08BF00212F
:10969000F5E7342A10D1564656F804AB04224FEAB7
:1096A0001A41204627F01CFF1FFA8AF1042227F0F6
:1096B00017FFB246044633E74FF00109F6E600BF54
:1096C00001010200054B1A782AB95B78002B0CBF08
:1096D0000320022070470120704700BF996D0020D1
:1096E0000329F8B598BF124B05460E468CBF0024DF
:1096F0005C5C032805D8DFE800F002080B0E44F09C
:1097000002040C4B1F684FB9F8BD44F00804F8E799
:1097100044F02004F5E744F08004F2E77B681A681F
:10972000144203D0314628465B6898473F68EAE711
:10973000E8A303007033002038B5104D2B78ABB18F
:109740000F4C23781BB100F023FB00232370002073
:1097500027F0E4FE0B4C50B100F06CFB002301211C
:1097600020782B70FFF7BCFF0123237038BD012246
:10977000054B1A702278054B1A70F7E7956D00209B
:10978000936D00209B6D0020966D0020976D00204A
:1097900010B527F090F8064B04461B781BB1BDE8C6
:1097A000104027F08CB8FFF7C7FF2046F7E700BF4F
:1097B000926D0020094A137830B101331370084BC1
:1097C0001B78012B03D87047013B13707047054B82
:1097D0001B780BB9FFF7B0BF704700BF996D002031
:1097E0009B6D0020966D002070B527F064F8124E36
:1097F000054633789BB900F04DFC044620B128465D
:1098000027F05DF8204670BD0C4826F0D0FF00F030
:10981000F1FE0B4B1C6000F023FD0A4B186000F0BA
:10982000C7F927F07DFE084B002418600123284665
:10983000337027F044F8E5E79C6D0020703300207A
:10984000443300206C330020483300202DE9F843D6
:10985000284A0138135C39B1274F01333978135442
:10986000012904D8BDE8F883013B1354FAE7FFF758
:1098700029FF0128044635D827F01DF8DFF8848039
:10988000054698F8003013B31C4E33781BB90122FB
:1098900032701B4A1370DFF8709099F8003023B1D2
:1098A00000F076FA002389F80030284627F007F800
:1098B000012027F033FE26F0FEFF337805461BB16A
:1098C00000F0B8FA00233370002388F800302846EF
:1098D00026F0F5FF38788442C4D02146FFF700FF18
:1098E0003C70BFE70329F5D10228F3D127F01CFE15
:1098F000F0E700BF996D00209B6D0020926D002065
:10990000966D0020956D0020936D002038B526F0EF
:10991000D2FF094B05461B78012B04D826F0CFFF58
:109920000024204638BD054B1C6800F0C1FA0444F1
:10993000284626F0C4FFF4E79B6D00204433002046
:1099400038B54160044626F0B6FF05462146044876
:1099500026F030FF2846BDE8384026F0B0BF00BFF3
:1099600070330020054B1B685843054B00F57420ED
:1099700000F23F20B0FBF3F0704700BF6C330020D3
:1099800040420F002DE9FF47EFF3108772B6AFF3A7
:10999000008029F0D7FC002871D0714EDFF8E481F7
:1099A000337823B10020FFF705FF00233370FFF762
:1099B00089FE0446002869D0841EE4B2012C6CD9CB
:1099C000FFF780FE01280546664CDFF8BC9100F2E7
:1099D0008E802078A84205D099F80030002B00F046
:1099E000B2802570207800F04DFA99F8003013B15C
:1099F0005D4B1B782370AFF3008007B962B6EFF3BD
:109A0000108772B6594B1A7852B100221A70564B11
:109A100020781B78984203D101212170FFF760FE66
:109A2000534800F071FB29F0A1FC05460028B7D18E
:109A3000DFF8588198F80030A3B189F80000DFF80A
:109A4000409199F800301BB100F0A2F989F800505C
:109A5000002027F063FD002879D000F0EBF9002307
:109A600088F80030337823B10020FFF7A3FE0023ED
:109A7000337000212078FFF733FE00232370AFF30B
:109A8000008007B962B604B0BDE8F0873378002BD8
:109A900096D0FFF78FFE347092E7002003A900F004
:109AA00081FB044600288BD1D8F80030039A9A42F3
:109AB00005D80120FFF77EFE0123337080E72D4B90
:109AC0001D6800F0F5F9039B05449D42F1D200F0BA
:109AD00007FA8200039942F0020292B2CDE90042F5
