:1040000000100020A946000081760000857600009F
:10401000A74600008976000091760000A7460000C0
:10402000A7460000A7460000A7460000A7460000DC
:1040300095760000986A0300A7460000A746000096
:10404000A7460000A7460000A7460000A54B0000B9
:10405000A7460000A7460000A7460000A7460000AC
:10406000A7460000A746000021940000114400006C
:104070001D440000A7460000A7460000A746000018
:10408000A7460000A7460000A7460000A74600007C
:10409000A7460000A7460000A7460000A74600006C
:1040A000A7460000A7460000A7460000A74600005C
:1040B000A74600009D610100A7460000656B010056
:1040C000096B0100056B010041630100616B010098
:1040D0000D6B0100256B0100116B0100E551010022
:1040E000A56B0100A7460000A7460000A7460000F8
:1040F000A7460000F1630000A7460000A7460000A5
:10410000A7460000A7460000A7460000A7460000FB
:10411000A7460000A7460000A7460000A7460000EB
:10412000A7460000A7460000A7460000A7460000DB
:10413000A746000010B5054C237833B9044B13B1E2
:10414000044800E000BF0123237010BDA824002014
:1041500000000000D898030008B5034B1BB10349C9
:10416000034800E000BF08BD00000000AC240020B0
:10417000D8980300A3F5803A704700BF174B002B77
:1041800008BF134B9D46FFF7F5FF00218B460F46F6
:104190001348144A121A32F006FB0E4B002B00D0C3
:1041A00098470D4B002B00D09847002000210400B9
:1041B0000D000D48002802D00C4800E000BF32F08E
:1041C0008FFA2000290000F015F832F075FA00BFD0
:1041D00000000800000000000000000000100020A7
:1041E0008C180020B06D00200000000000000000CE
:1041F0001CF05CBA08B505F030F905F03BF904F0A5
:1042000023FBFAE708B50421002001F0C5F90421D9
:10421000062001F0C1F90821072001F0BDF90821AD
:10422000084601F0B9F908211C2001F0B5F9082170
:10423000242001F0B1F90821252001F0ADF900207A
:1042400008BD000007B501A801F03AFD9DF8053052
:10425000012B27D1224A936DDB0313D4536B23F434
:10426000FF0323F4FE4343F4BC1343F4A0635363FE
:10427000136B23F4704343F440431363136B43F411
:10428000E06313639DF8043063B94FF000531B687B
:10429000144B1B68144B1B68144B1B68144B1B6896
:1042A000144B1B68144AD2F8803043F00303C2F861
:1042B000803001F0C1FF01F081FF01F0DBFF01F070
:1042C00085FFFFF79FFF01F067FF00F039FC02F068
:1042D000E5FE00F071FD03B05DF804EB04F0DEB91B
:1042E00000C00050004000200080002000C00020DE
:1042F00000000120004001200080005000F0DEBCE2
:1043000008B501F009FF01F025FF01F035FF13F0BA
:1043100059FB06F0A3FE06F0B7FE06F0EFFEBDE87F
:10432000084017F0DFBA70477047704708B506F0CD
:10433000A3FE06F0BBFEBDE8084017F0DDBA7047EB
:1043400008B502F0CDF800F055F8BDE8084002F0DD
:10435000BBBC08B504F084FD01F08EFF08F01CFA28
:10436000BDE80840FFF7ECBF70B5114E92B035467E
:104370000BAC0FCD0FC495E80700032384E80700BA
:1043800003AD8DF8453006F11C030FCB07AC85E873
:104390000F0006F12C030FCB84E80F00054B2146DC
:1043A00000930BAA2B46044802F08EFB12B070BD9E
:1043B0005C6A0300C42400204C250020831E012BCE
:1043C0000AD8012908D80422094B1B69C3F38013BA
:1043D0000621002001F05EBB0239012907D801281F
:1043E00005D8034B00221B69C3F38013F0E7704725
:1043F00000C0035008B50449044804F003FABDE8BE
:104400000840FFF7B1BF00BFA41000200425002022
:10441000014B186802F016BC4C250020FFF7F8BFCE
:10442000014B1A6A186810474C250020012070477C
:104430000120704710B502F020FE044606F0E0FEB1
:10444000002808BF002403F0FBFE002808BF00245A
:10445000FFF7ECFF002814BF2046002010BD38B540
:1044600004F0E2FA0446FFF7DBFF04281ED002281E
:104470004FF0000508BF012402F001FE042817D008
:10448000022808BF012406F0DFFE042812D002280B
:1044900008BF0124FFF7CCFF04280DD0022808BF75
:1044A0000124002D18BF0024204638BD0125E3E774
:1044B0000125E8E70125EDE70024F5E7014B187831
:1044C000704700BF7025002008B50CF089FC002261
:1044D000014B1A7008BD00BF70250020FF207047F7
:1044E00008B5FFF7FBFF002008BD70477047704715
:1044F000704710B5044617F093FB20462DF024FAC0
:104500002046BDE810402DF059BF2DF087BA10B5F8
:10451000044617F03DFC20462DF0B0FA2046BDE8D9
:1045200010402DF07FBF10B5044613F00FF9204660
:1045300017F08CFA20462DF0F3FB20462DF09AFF61
:104540002046BDE8104031F0BDB9FFF7ECBF10B513
:10455000044613F013F9204617F0A6FA20462FF070
:1045600081FA20462DF00CFC20462DF0B7FF2046A6
:10457000BDE8104031F0C0B910B5044613F0FEF8A4
:10458000204617F0CFFA20462FF07CFA20462DF077
:1045900045FC20462DF0CAFF2046BDE8104031F012
:1045A000ABB912F071BF2DF017BE10B49DF80440E6
:1045B00001945DF8044B2DF0F7BC704718F04CBA2D
:1045C0007047704710B49DF8044001945DF8044BA7
:1045D0002FF06EBA70472FF075BA18F0D1B918F0F5
:1045E000E5B92DF0A3BC2DF0CDBC18F0F1B92DF03C
:1045F00033BD704770472CF0E5BD2CF003BE2DF0A5
:1046000061BD2DF082BD2DF094BD10B49DF8044025
:1046100001945DF8044B2FF056BA2DF041BD18F00F
:10462000F9B918F0E9B92DF098BD2EF02FB82EF099
:104630003BB82DF082BE2DF09EBD31F07BB931F03C
:10464000B5B931F0C1B931F0EFB92DF059BE16F05E
:1046500019B87047704782B06B4683E8060093E84C
:10466000060002B018F01ABD70472DE9F0419DF820
:1046700018409DF81C509DF820609DF824709DF80E
:104680002CC09DF834E09DF83880CDE90867CDE96D
:104690000DE8CDE90645CDF82CC0BDE8F04115F098
:1046A0007BBF70477047FEE708B500F02DF8124B4E
:1046B00012498B4212D30020114B12498B4218D35E
:1046C000FFF75CFD186850F82240586840F8224017
:1046D000013298688242F5D30C33EAE70022F8E70A
:1046E0001C6844F8220001325C68A242F8D3083307
:1046F000E4E70022F8E700BFE0980300EC9803002D
:10470000EC980300EC9803006FF00100104B114A85
:1047100010B59A60D3F888200F4942F47002C3F8AC
:10472000882001F50052106641F2FF7050660220A9
:10473000C3F8D000BFF34F8FBFF36F8F08244FF43F
:1047400040330648C0F88041D36004600B6110BD5F
:1047500000ED00E0004000000080004400E100E0C7
:10476000014B1868704700BFC0100020014B186053
:10477000704700BFC0100020084B1B6F03F00703F9
:10478000022B04D0032B05D0012B05D0FEE7044BF0
:1047900018687047034BFBE70348704700800050E0
:1047A000C0100020C4100020002D310108B5FFF713
:1047B000E3FF054B1B6FC3F301330133B0FBF3F091
:1047C000024B186008BD00BF00800050BC100020E4
:1047D0000048704700B4C404014B1868704700BF1C
:1047E000C4100020054B1860054B1B6F03F0070336
:1047F000032B01D1FFF7DABF704700BFC4100020C0
:10480000008000500020704700487047002D3101A3
:10481000174B9868C0F304400C2822D8DFE800F05A
:10482000092121212121071719211B1D1F001148D2
:1048300070479B6803F04073B3F1807F13D0B3F1EE
:10484000007F12D00C4A002B08BF104670470B485F
:1048500070470B4870470B4870470B4870470B4830
:104860007047002070470A4870470A48704700BFE9
:104870000040015A405DC60000093D000024F400DC
:10488000C0EA210180BA8C010048E801005A6202A6
:1048900080841E0040420F004FF4004070474FF4E8
:1048A0007A707047014B1868704700BFC81000202D
:1048B000BFF34F8F0549064BCA6802F4E062134309
:1048C000CB60BFF34F8F00BFFDE700BF00ED00E0FE
:1048D0000400FA0500239B6AB3F5804F03D21968E0
:1048E000064A914203D0002303708360704701227F
:1048F00002709A689B694260F7E700BF07B0CD5E1F
:1049000030B50024A36A87B0B3F5804F0546019106
:104910000FD2012303A88DF80C30CDE90444FFF732
:10492000D9FF059B5B0504D5A36A28461B6C01993A
:10493000984707B030BD000073B5464B04461A785F
:104940001AB102221A7002B070BDCDE9002200280F
:10495000F9D001261E7001F048F83F4D3F4B18601A
:1049600010F03CFA2B785BB900F026FA40B93C48CD
:1049700008233C4A3C4900680BF0CAF800B92E7085
:104980003A4B5A68A2603A4A9A601A6E22605A6E8E
:1049900062601B6E5C043DD5364AD368D807FCD4F0
:1049A000354B1A68531C3AD04FF480139340334A66
:1049B00013660423314C23664FF48063236600F0B2
:1049C0003DF901300BD000F039F940F20113984263
:1049D0001FBF4FF4804323664FF400432366102328
:1049E000264C4FF0804223664FF4005368462366FE
:1049F00001A922666366FFF783FF009B2366019B84
:104A000063662B78002B9ED0164B1A6822665B6873
:104A1000636698E71A4AD368D907FCD4C0E7194BF4
:104A20001B78002BC5D1184B5A68144B12B94FF4A0
:104A300080121A66154A526812B94FF400121A66AB
:104A4000134B5B68002BB4D14FF480020B4B1A66FA
:104A5000AFE700BF8A250020882500208C25002094
:104A6000D410002080250020007108000080004440
:104A700055CEAC0000000440CC1000200090004453
:104A800000000450892500200080055000C005501A
:104A90000000065038B5214D04462B78012B02D07A
:104AA00001232B7038BD0028FCD000F0C7F801307E
:104AB00009D000F0C3F840F20113984203D0184A1D
:104AC000D368DB07FCD42268164B1A6662685A6604
:104AD000A268D40744BF00229A60134B1A680132BF
:104AE00013D1124A127882B911494968C80748BFE0
:104AF0001A60104A5268D10744BF01221A600E4A58
:104B00005268D20744BF02221A6010F07FF90B4BA3
:104B1000186800F070FF0023C3E700BF8A2500205B
:104B20000000044000800044CC10002089250020B3
:104B30000080055000C00550000006508C25002064
:104B400070B50024A36AB3F5804F1ED2104E33789F
:104B500013F0FD0517D10F48FFF7EEFE08214FF4C3
:104B600080330D4A0D48C2F88011C36011600C4AB1
:104B70001361AB6ADB69984704460648FFF78AFF72
:104B80000CB901233370204670BD4FF48174FAE7ED
:104B9000892500207425002000E100E000A00044E9
:104BA0000090004413B51F4B1B7803B9FEE70023A8
:104BB0001D4CCDE900336A4608231C4920680AF0E1
:104BC000A7FFF0B91A4AD2F84031D2F840211F2B82
:104BD0004FF0010310D9203A9340019A13430193F7
:104BE00008236A46114920680AF048FF4FF0005335
:104BF000104A1A60FFF75CFE9340009A134300933B
:104C0000EEE70D4B9842F1D1094AD2F84031D2F883
:104C100040211F2B4FF0010302D9203A9340DEE7D9
:104C20009340ECE78A250020D41000200071080092
:104C3000008000440B020FF00BE000F01FB50023D2
:104C40009A6AB2F5804F04D340F2011005B05DF8C6
:104C500004FB126BB2F5804FF6D2012201A8CDE918
:104C600002338DF80420FFF735FE039BDB03EBD501
:104C7000029B1A0EE8D0012A03D1C3F307430A2B83
:104C8000E2D900239B6A1B6B1B6C9847DEE700236D
:104C90000360704703680B600160704705490A684C
:104CA0001318054883428CBF4FF0FF320B6010464B
:104CB000704700BFD01000200000012008B504227A
:104CC00001230321002000F0E5FE002000F0E1FEBA
:104CD00001221B4B0521C3F844240C2000F05CFC8E
:104CE0000C2000F007FB174B00F5D520D3F8F0207F
:104CF00000F2FC4042F00102C3F8F020D3F8FC209F
:104D000042F08072C3F8FC200F4AA3F55D431A609D
:104D10000E4B0222B0FBF3F00D4B01381861C3F8C3
:104D2000F0204FF48072C3F804234FF06043094A27
:104D30000020C3F8B02F084AC3F8802E08BD00BF7A
:104D400000D0035000ED00E0FF030040F8590D00D3
:104D5000000004E055CEACC5090001004FF06042F0
:104D60000123D2F8001E03FA00F00843C2F8000E37
:104D7000002070474FF06043D3F8802E30B5D20743
:104D800015D501240B4D8440D5F8FC2042F08072EB
:104D9000C5F8FC20D3F8002E2243C3F8002E53F8A8
:104DA0002020002AF0D003F82010002030BD112070
:104DB000FCE700BF00ED00E0024B1968024B1868E9
:104DC0000AF086BDD8100020D410002070470000E3
:104DD00037B5920004460D46019231F029FE431C7E
:104DE0000BD060B929462046019A31F0A5FC002875
:104DF000044808BF002003B030BD0348FBE7034868
:104E0000F9E700BF10E000F021E000F024E000F03E
:104E100013B5044601A800F053FF9DF806300122A7
:104E200023804FF4807300206380054B9B680A3316
:104E300003F01F0302FA03F3636002B010BD00BF6A
:104E40000080E00F00F074BE08B500F065FE0020A1
:104E500008BD10B5044644EA010313F003030846F5
:104E600009D1934201D1002010BD54F8231040F81D
:104E700023100133F5E72146920031F06DFCF2E793
:104E800010B5044631F0DCFD431C15D0B0B90C4B15
:104E900020469B680A3303F01F020123934023F04E
:104EA00003032344984201D1002010BD50F8042B85
:104EB0000132F7D00348F8E70348F6E70348F4E780
:104EC0000080E00F0EE000F021E000F024E000F0B0
:104ED00008B500F07BFD014B186008BD202C0020B8
:104EE000014B186800F076BD202C002070470000B0
:104EF00041F6713310B5104C104AA0428CBF4FF4EC
:104F000080140024D169D363936801F4803123F4C1
:104F10004013234393600A4B98420A4BD3F818225C
:104F20008CBF42F0020222F00202C3F8182211B133
:104F30000022024BDA6310BD005A620200000350E7
:104F400080F0FA0200C007502E4B98424AD022D877
:104F50002D4B984240D014D82C4B984239D00AD8C7
:104F60002B4B984232D02B4B98422FD02A4B984251
:104F70002CD000207047294B9842FAD1284B186F4B
:104F80007047284B98422AD0274B9842F1D1244BA6
:104F9000D3F880007047254B98422BD009D8244B7A
:104FA000984223D0234B9842E3D11D4BD3F88C0079
:104FB0007047214B984221D003F5740303F5105339
:104FC0009842D6D1164BD3F898007047144B986D81
:104FD0007047134B586E7047114B586F7047104B0A
:104FE000986F70470E4BD3F8840070470C4BD3F882
:104FF000880070470A4BD3F890007047084BD3F8ED
:10500000940070470048E8010024F400C0CF6A0013
:1050100080841E0000093D0040420F00405DC60034
:105020000080E00FC0EA210180BA8C01007E5603A7
:1050300080D54302006CDC020090D00308B5FFF776
:10504000C7FBBDE808400021FFF752BF38B5124B3F
:105050000546D3F820310C4603F00703013B032B30
:1050600017D8DFE803F0020A0E12FFF779FB0423DA
:1050700005B1286004B1236038BDFFF7ADFB032301
:10508000F6E7FFF7C5FB0523F2E7FFF7BDFB0223B9
:10509000EEE700231846EBE70080005037B50C46DA
:1050A0000021124A0191D2F88021054602F0030244
:1050B000022A0ED0032A11D0012A14D101A8FFF729
:1050C000C5FF0D230DB1019A2A6004B1236003B01E
:1050D00030BDFFF79DFB05230190F3E7FFF794FB3D
:1050E00002230190EEE70B46ECE700BF0080005082
:1050F00038B5104B0546D3F840310C4603F0030396
:10510000022B0BD0032B0DD0012B0FD1FFF7C4FBCB
:10511000082305B1286004B1236038BDFFF7C2FB46
:105120000723F6E7FFF7BBFB0923F2E70023184646
:10513000EFE700BF0080005038B5104B0546D3F8AC
:1051400060310C4603F00303022B0BD0032B0DD070
:10515000012B0FD1FFF7A0FB082305B1286004B194
:10516000236038BDFFF79EFB0723F6E7FFF797FBA9
:105170000923F2E700231846EFE700BF0080005044
:1051800038B5134B0546D3F800320C4603F007033D
:10519000013B032B18D8DFE803F0020A0E12FFF7D9
:1051A0007BFB082305B1286004B1236038BDFFF7FD
:1051B00079FB0723F6E7FFF772FB0923F2E7FFF716
:1051C000F5FA0C23800AEDE700231846EAE700BF52
:1051D0000080005038B5134B0546D3F808320C4612
:1051E00003F00703013B032B18D8DFE803F0020AA2
:1051F0000E12FFF751FB082305B1286004B12360AC
:1052000038BDFFF74FFB0723F6E7FFF748FB0923FD
:10521000F2E7FFF7CBFA0C23800AEDE700231846EC
:10522000EAE700BF0080005038B5104B0546D3F8C0
:1052300040320C4603F00303022B0BD0032B0DD09E
:10524000012B0FD1FFF728FB082305B1286004B11B
:10525000236038BDFFF726FB0723F6E7FFF71FFBA8
:105260000923F2E700231846EFE700BF0080005053
:1052700038B5104B0546D3F800310C4603F0030354
:10528000022B0BD0032B0DD0012B0FD1FFF7A4FA6B
:10529000032305B1286004B1236038BDFFF702FB8A
:1052A0000723F6E7FFF7AEFA0623F2E70123002013
:1052B000EFE700BF00800050032814D005D8012874
:1052C00005D0022809D0002005E00F28FBD1084BAB
:1052D000186FC0F3013001307047054BD3F89000D0
:1052E000C0F30460F7E7024B186FC0F38020F2E7C9
:1052F000008000501FB500230193252817D8DFE850
:1053000000F0131A1D262B353A50555A5F64697701
:10531000161A3F1616551A262B26351A5026773A96
:105320003A3A3A2626265A5FFFF726FA0190019864
:1053300005B05DF804FBFFF739FAF7E7FFF71CFA51
:1053400002460220FFF7B8FFB2FBF0F0EEE7FFF7EE
:105350002DFA02460320F5E7FFF728FA024603205C
:10536000FFF7AAFFB2FBF0F04008DFE7002101A839
:10537000FFF794FEDBE7002101A8FFF767FED6E701
:1053800002934FF0E0231B695B0705D5FFF70EFA88
:105390000290029B0193CAE703A902A8FFF7A8FEA7
:1053A000F7E7002101A8FFF7A3FEC0E7002101A84D
:1053B000FFF7C2FEBBE7002101A8FFF7E1FEB6E759
:1053C000002101A8FFF706FFB1E7002101A8FFF7C0
:1053D0004FFFACE7094BD3F8803003F00303022BF7
:1053E000A9D0032B01D00020A0E7FFF711FA9DE719
:1053F000002101A8FFF718FF99E700BF00800050C7
:1054000008B50120FFF776FFBDE808400349884250
:105410008CBF02210121032000F002B880F0FA02C3
:10542000032810B50C4627D004D8012804D0022840
:1054300017D010BD0F28FCD1FFF700FE00F028F8B0
:10544000124B013C196F21F4405141EA04341C67AE
:10545000FFF7ACF90021FFF74BFDBDE81040FFF767
:10546000CFBF0A4B013CD3F8901021F0F85141EA2C
:105470000464C3F89040DCE7044B013C196F21F44D
:10548000806141EA84241C67D3E700BF008000509C
:1054900002210320FFF7C4BF1FB500230193252875
:1054A00021D8DFE800F013202020202A2F454A4F82
:1054B00054595E7120203420204A202020202A20A8
:1054C0004520712F2F2F2F2020204F54314B1B6F41
:1054D00003F00703013B032B05D8DFE803F00C02C0
:1054E000080A04230193019805B05DF804FB032327
:1054F000F8E70623F6E70223F4E7002001A9FFF707
:10550000CDFDF0E7002001A9FFF7A0FDEBE7029336
:105510004FF0E0231B695B0705D5FFF747F90B2325
:105520000393039BDEE703A902A8FFF7E1FDF8E779
:10553000002001A9FFF7DCFDD5E7002001A9FFF756
:10554000FBFDD0E7002001A9FFF71AFECBE7002002
:1055500001A9FFF73FFEC6E7002001A9FFF788FE7B
:10556000C1E70C4BD3F8803003F00303022B03D0C8
:10557000032B05D00023B5E7FFF718F90B23B1E79C
:10558000FFF746F90523ADE7002001A9FFF74CFE20
:10559000A9E700BF0080005070B50C46252848D808
:1055A000DFE810F0260047004700470047005B0097
:1055B0006B009B00AB00BB00CB00DB00EB00FC00F2
:1055C000470047007B0047004700AB00470047000B
:1055D000470047005B0047009B004700FC006B0052
:1055E0006B006B006B00470047004700BB00CB001F
:1055F0008B1E042B2ED8DFE803F02A1D032D270075
:1056000000250226FFF71AFDFFF742FF6B4A136FD2
:1056100023F0070333431367FFF7C8F80021FFF7B0
:1056200067FCFFF7EDFE25B9032C02D10122644B84
:105630009A6270BD0122634B0E469D6A03F580534A
:10564000C5F340059A62DDE700250426DAE7002568
:105650000126D7E700252E46D4E78C1E0B2C8CBFE5
:105660000021594B554A98BF195DD2F8803123F07B
:1056700003030B43C2F88031DBE78C1E032C8CBF85
:105680000021524B4D4A98BF195DD2F8203123F0CA
:1056900007030B43C2F82031CBE70B2912D00ED8F9
:1056A000CC1F022CC5D84A4A536A43F00103536207
:1056B0004FF0E022136923F004031361B9E70E29C8
:1056C000B7D1F0E7424A536A23F0010353624FF027
:1056D000E022136943F00403EFE7CC1F022C8CBFD8
:1056E00000213C4B354A98BF195DD2F8403123F078
:1056F00003030B43C2F840319BE7CC1F022C8CBF45
:105700000021354B2D4A98BF195DD2F8603123F046
:1057100003030B43C2F860318BE7CC1F052C8CBF11
:1057200000212E4B254A98BF195DD2F8003223F094
:1057300007030B43C2F800327BE7CC1F052C8CBF5C
:105740000021274B1D4A98BF195DD2F8083223F07B
:1057500007030B43C2F808326BE7CC1E042C8CBF46
:105760000021204B154A98BF195DD2F8003123F073
:1057700003030B43C2F800315BE705290CD00B296A
:1057800014BF002102210D4AD2F8803023F0030318
:105790000B43C2F880304CE70321F4E7CC1F022C06
:1057A0008CBF0021104B054A98BF195DD2F84032DA
:1057B00023F003030B43C2F840323AE70080005065
:1057C00000E0005000C000500C6B0300186B030099
:1057D00000C007501C6B03001C6B03001F6B030011
:1057E0001F6B0300256B03001C6B030038B50546D7
:1057F000FFF7AAFB214B04465A68012A04D120492D
:105800004A609A699207FCD10020FFF745FE042800
:1058100003D1FFF713FCFFF73BFE1A4A24F0407355
:10582000954221D0184A954221D0184AD16811F0EA
:10583000060FFBD190689360916803F4F81301F4AC
:10584000F8118B4216D12846FEF790FF0020FFF793
:1058500023FE042810D1FEF7A9FF0021FFF748FB23
:10586000BDE83840FFF7CCBD43F00073DDE743F0FF
:105870008073DAE79060E9E738BD00BF00C00150EF
:1058800000E0015040420F0080841E0000000150E3
:1058900070B504460020FFF7FFFD03287CD045F6D5
:1058A0000E030221414AC2F88030414B9962012126
:1058B00003F580539962936DD903FCD4D4E90013A6
:1058C0001B0543EA0163E17B94F822500B43217BE3
:1058D00094F8236043EA0143617B43EA0133A17BEF
:1058E00043EA811313619169D4E904031B0643EA77
:1058F000806301F000410B43A17EE07E0B43217EDB
:1059000043EA0143617E43EA01239361136AE2693A
:1059100023F00D03002A0CBF0021082143EA0203F3
:1059200043EA8003214A43EA0103136294F82030DA
:105930004FEA431331D1906A94F8211020F03300DC
:1059400043EA0113034343F001039362194B916D42
:1059500033EA0101FBD10221154B9962936D5B0083
:10596000FCD41069A36820F4700040EA0350106171
:105970004FF000420E4B9A611DB9022203F580538D
:105980009A6216B901220C4B9A6294F824301BB12A
:10599000064B0A4AC3F8802070BD916A21F033019A
:1059A00031430B4343EA45039362EEE700C00050E6
:1059B00000D000500300014000E00050F1A7FFFFBD
:1059C000014B93F900007047D42C0020EFF31080B6
:1059D00072B6704700B962B67047302383F31188FE
:1059E0007047002383F311887047EFF31180302351
:1059F00083F31188704780F31188704770477047B0
:105A00000A4A10B51369044643F00403136103F016
:105A1000A3F8FFF7F3FF30BFFFF7F1FF03F0B0F893
:105A20001CB9BDE81040FEF7C1BE10BD00ED00E09E
:105A3000084A10B51369044643F00403136103F0E8
:105A40008BF830BF03F09CF81CB9BDE81040FEF79E
:105A5000ADBE10BD00ED00E070477047034A01790C
:105A6000D36E23F030030B43D366704700400050E1
:105A700070B5054614460E46FFF7A8FF296881EA6F
:105A8000040202EA06044C402C60BDE87040FFF7B7
:105A9000A1BF7047F8B504460D461F4616464AB1E9
:105AA00001238B403021194A01FB0022FFB141F252
:105AB0001001535004EB4403072D4FF00F014FEA40
:105AC000031317D8A80006FA00F2814010481844C2
:105AD000FFF7CEFF56B9012130230C4801FA05F536
:105AE00003FB040077B141F21003C550F8BD42F248
:105AF0001001DEE7A5F10800800006FA00F28140FF
:105B00000448E4E742F21003EFE700BF00C003508F
:105B100004C003500CC0035041F67132034BDA63EA
:105B2000012203F50053DA60704700BF0000035004
:105B300041F671320121044BDA6303F50052D16062
:105B40000022DA63704700BF000003504FF050237B
:105B50004FF400321A677047014BD3F89400704736
:105B6000004000504FF0B0435A6812B19A6A002AC0
:105B7000FAD17047CB784A7810B55B010C7843EACC
:105B800082030A79234343EA02130C22424302F1BF
:105B9000B0421363012C02BF8A78024B43F82020E5
:105BA00010BD00BFD080035008B54FF0B0435A6815
:105BB00002B960B15B680BB1FFF7D4FF4FF0B041A1
:105BC00030B10120074B5860FFF7CCFFC86008BD1B
:105BD000FFF7C8FF0223CB60FFF7C4FF0122024B8F
:105BE0005A60F4E700100058002000584FF0B0430E
:105BF0005B6870B50BB1FFF7B5FF0121104B45781D
:105C0000596083780679002BC37814BF02240024DE
:105C1000002B14BF042200224379DB0043EA061361
:105C20002B43234313434FF0B0429360054B59601D
:105C30000378002B14BF0B460223D36070BD00BF56
:105C40000020005800100058436813B941607047A5
:105C50005B685A68012AFBD159607047836813B9A1
:105C6000816070475B685A68012AFBD159607047B0
:105C7000C369032B9FBF00EB83020133D160C36173
:105C80007047C369042B15D84FF09842116CC902B4
:105C9000FCD504339B0013650168103B116041681B
:105CA0000C30116050F8041C034411604FF098420E
:105CB000984200D1704750F8041B1160F8E70000CB
:105CC000054B5B69C3F38512827003F03F021B0B27
:105CD00042700370704700BF00C007500D4B9842E0
:105CE00008D1A3F50033C3F88411C36D43F08003DA
:105CF000C3657047084B984204D1A3F51033C3F82D
:105D00009411F2E7054B984204BFA3F52033C3F882
:105D1000A411EAE70080055000C0055000000650BD
:105D200070B5054616461C4619B90320FFF7E2FA7E
:105D30000146402C1BD003D8DCB1202C1BD070BDF9
:105D4000602CFCD1042303FB06F2560806EB41133A
:105D5000B3FBF2F3094A203B02EAC303AA6822F02C
:105D60006002AA60AA681443AC60EB61E7E706230F
:105D7000E9E71023E7E70823E5E700BFF8FF7F0026
:105D8000012200F580535A60CB43934003F00A038D
:105D90004361416111B900F5005042607047000055
:105DA000012200F5805310B55A6040F6AA6341F213
:105DB00005024361002312498360C365C26000F598
:105DC00000520361C361C36491640E4983658842D4
:105DD00006D00D4CA04203D004F58044A0420BD164
:105DE0008842036506D0084B984203D003F58043F0
:105DF000984201D1002343650123536010BD00BFC9
:105E0000FFFF01000080055000C0055070B50D4631
:105E1000FFF7C6FF012300F580567360AB7C044694
:105E20001BB1836843F080438360EB7C1BB1204649
:105E3000297DFFF753FF2A8A6B7B20461343EA89AB
:105E40001343E3602B7BD5E90112FFF769FF6B7DFC
:105E50001BB1A36843F48033A360AB7D1BB1A3687F
:105E600043F40043A360EB7D2A7E1B07120502F476
:105E7000E00203F0E0431343A3656A7E931E012B07
:105E8000214B20D89C421AD003F580439C4218D065
:105E900003F580439C420CBF02234FF0FF3341F2D5
:105EA000AC5102205B0103F1A04303F5703358505D
:105EB000032A23D10423F3652B78636170BD00238B
:105EC000EDE70123EBE79C4214D0104B9C4213D02A
:105ED00003F580439C420CBF02234FF0FF3342F294
:105EE000AC5102205B0103F1A04303F5703358501D
:105EF000012ADEE70023F2E70123F0E7042204F59C
:105F00000053DA65D8E700BF0080055000C0055097
:105F100083691B06FCD5406AC0B2704783695B0683
:105F2000FCD5C1637047002070470F2070470F20D9
:105F30007047002070470F207047002070470F20E7
:105F40007047002070470F207047002814BF0F20B3
:105F500000207047002070470020704738B5044685
:105F6000054D0AF035FE0FCC0FC594E80F0085E80B
:105F70000F00002038BD00BFD82C002047F6FF736B
:105F80009A42F0B563D0032963D8334BCF0003EBBB
:105F9000C10013F831108478012913D10025C3788A
:105FA0001B1B9D4202D3E018C0B2F0BD591B4668CE
:105FB000A3EB510136F911609642D4BF0D4601F1B1
:105FC000FF33EEE740680028EFD0B0F900109142AF
:105FD00004DBB0F902109142B8BF114682883B44FD
:105FE000FF2A19BFC8222826B0F90620B0F9086098
:105FF000A2EB01020CBF0125002592FBF6F25F78AF
:106000002A447B1E934228BF13464FF47A7E00EB4E
:10601000C305AE68EA88AC4611FB02621E4622EA5E
:10602000E272013302F5FA729F42B2FBFEF204D92A
:10603000BCF80CC008359445EBD200EBC600808854
:10604000904228BF1046A04238BF2046ACE7FF2050
:10605000ABE70020A9E700BFD82C00200329F0B54A
:1060600053D82B4800EBC10410F8311063680129A4
:106070000FD1E078A478904294BFC4EB0001C4EB48
:106080000201001BCAB28242C8BF002233F91200CB
:10609000F0BD002B39D0A178914202D3B3F90200B0
:1060A000F6E7E178B3F900009142F1D99988647874
:1060B000A1F1FF06013C714203F10405E4B2714114
:1060C00003F10C071FFA82FCCEB2B44216D805EBDE
:1060D000C1014FF47A756A43B1F902404968521A16
:1060E00004EBD47102EB610292FBF4F29042CFDB3D
:1060F000B3F902009042CBDC10B2C9E737F831E0C7
:106100004E1CE645E3D33146DEE70248C0E700BF58
:10611000D82C00200080FFFF08B50448FFF71EFFC1
:10612000BDE8084001200AF08FBD00BF2C6B0300C2
:1061300000207047002814BF0F2000207047012066
:10614000704701207047012814BF0F2000207047BE
:106150000F2070477FB51422002101A830F023FBE7
:10616000044B01A94FF0FF3002930AF0C1FD07B0C4
:106170005DF804FB006A1800002307B5CDE9003381
:10618000012369464FF0FF308DF802300AF0DAFC47
:1061900003B05DF804FB000013B50024064A68460E
:1061A000536F43F00103536700948DF80440FFF7E9
:1061B00055FC204602B010BD0040005008B5024812
:1061C000FFF714FB002008BD00B4C40430B58BB049
:1061D0006C46154D0FCD0FC40FCD0FC495E80300CD
:1061E00084E80300114BD3F84C21120314D4D3F8E4
:1061F0005041E4B28DF81940FFF7E2FB204480F3F0
:1062000008008DF818000A48FEF7ECFA6846FFF718
:106210003FFB00200BB030BD064B1C884FF6FF73D0
:106220009C4208BF8C24E5E7186C03000080E00F57
:1062300000F049020001E00F6FF00402502110B598
:106240000A480B4C12F0800FD3B21BBF03F00F03B0
:10625000043BA3181B1802F101020CBF83F80013C2
:1062600019763D2AEED1002010BD00BF00ED00E000
:1062700000E100E000F078B838B502F0F1FD044626
:10628000E0B902F007FF4FF4167343430C4803F5DF
:10629000742303F23F23B3FBF0F30A4A0A49136065
:1062A0000A220D680948013A12F0FF0240F8043B47
:1062B000F9D103EBC3022B4413440B60204638BDD5
:1062C00040420F00342D0020002D0020042D00201E
:1062D000012208B5034B1A7002F0B6FE024B18609B
:1062E00008BD00BFFC2C0020302D0020F8B5144C58
:1062F000237823B302F0A8FE124B134D1B68134EF4
:10630000C01A012838BF0120114B124F18602B789A
:1063100056F8232046F82300111A3A680E48521AFC
:106320000A213A600932B2FBF1F20133DBB20260BA
:10633000B3FBF1F201FB12332B7000232370F8BD85
:10634000FC2C0020302D00202C2D0020042D0020BE
:10635000F82C0020002D0020342D0020014B18685F
:10636000704700BF342D002020230949094A81F8D5
:106370002D33094B03F50050426702674FF400507C
:10638000C1F88401486003F580535A67704700BF25
:1063900000E100E0010000A000C00050044B9A6D35
:1063A000D20702D40028FAD170470120704700BFFD
:1063B00000C000500C4B10B51C6FE20707D501223E
:1063C00003F500531A67FFF791FF02F03DFB14F04D
:1063D00000521CBF054B1A67002CBEBF4FF0004295
:1063E000024B1A6710BD00BF00C0005000E0005013
:1063F000FFF7E0BF10B50446FFF7E8FA024B1C6058
:10640000FFF7E8FA002010BD382D002010B5FFF787
:10641000DDFA034B1C68FFF7DDFA204610BD00BF14
:10642000382D002007B530B9CDE90012FFF7EEFF97
:10643000DDE9001230B1436823B1006803B05DF8B4
:1064400004EB1847232003B05DF804FB30B51C466D
:1064500085B058B9CDE90012FFF7D8FFDDE9001289
:1064600004B903AC20B9232005B030BD03B903AC97
:106470008568002DF7D023460068A847F4E707B5E4
:1064800001228DF807100DF10701FFF7CBFF03B0D4
:106490005DF804FB0B4601461846FFF7F0BF0023EA
:1064A0000122FFF7D3BF00000EB40FB505AB53F8C0
:1064B000042B039318B90192FFF7A8FF019A014634
:1064C000039B064807F00AFD0028D4BF37200020B0
:1064D00004B05DF804EB03B0704700BF95640000A2
:1064E00010B5002400F028F80348044B8460436092
:1064F000FFF780FF204610BD402D00200165000001
:1065000007B5044B0093044B1B8800F02BF803B035
:106510005DF804FB3C2D0020F8100020014B188092
:1065200000207047F81000204FF06042D2F8803E03
:106530001B02FBD47047000008B5074B1A6842B92C
:10654000012208201A60FEF709FC0449044802F001
:1065500059F9002008BD00BF542D00201011002063
:106560004C2D00202DE9F0470F4615461E4600240D
:1065700002F1040802F109094FEA132A5FFA88F8C8
:106580004C4502D30020BDE8F0871CB3012C05D197
:1065900041460820FEF7EEFB0134F1E7022C1BD048
:1065A000032C01D1F1B2F4E7042C17D0052C04D14F
:1065B000089B13F8011B0893EBE7AB1DA3420FD018
:1065C000EB1DA3420CD005F10803A3420AD0BB1F68
:1065D000195DDEE75B21DCE7D121DAE75146D8E738
:1065E0005A21D6E75D21D4E790F82A3001223BB149
:1065F00090F82E30022B03D180F82E2018467047D9
:106600001346FBE780F82410704790F82400704789
:1066100090F82B0070470000002808DB0123420996
:1066200000F01F0003FA00F0014B43F8220070470E
:1066300000E100E0002809DB0122430900F01F000F
:1066400002FA00F0024A603342F82300704700BFAC
:1066500000E100E0F8B504460D4690F82B3081B11A
:1066600073B990F82C60FFF7B1F905460121304667
:1066700002F044F82846FFF7ADF9012384F82B30E7
:10668000F8BD002BFCD090F82C70FFF79FF9064660
:106690002946384602F032F83046FFF79BF984F875
:1066A0002B50EDE770B504460568FFF7AFFE844256
:1066B00002D10020FFF79EFE95F92800FFF7BAFFF0
:1066C00095F92830002B0DDB01215A0903F01F0337
:1066D00001FA03F31449203241F82230BFF34F8FFF
:1066E000BFF36F8F95F92900FFF7A4FF95F92930C3
:1066F000002B0DDB01215A0903F01F0301FA03F3FC
:106700000949203241F82230BFF34F8FBFF36F8F1A
:1067100000232846C4E90033C4E90433A360EB68CE
:10672000BDE87040184700BF00E100E02DE9F047E8
:10673000044616460D4690F82480FFF756F994F863
:106740002A2003469AB1FFF756F994F82D90FFF7E7
:106750003DF907460121484601F0D0FF3846FFF7D2
:1067600039F9FFF742F90022034684F82A20184637
:10677000FFF741F92E44B8F1000F23D1AE4205D105
:10678000204663680121BDE8F047184794F8263099
:10679000002BF3D02046236815F8011B98470028EA
:1067A000ECD0BDE8F08794F826305BB12B780A2B4B
:1067B00003D10D212046236898472046236815F809
:1067C000011B9847AE42EED1DAE72DE9F7434FF0CF
:1067D0000009044690461E46C3F800904F1E3368D9
:1067E000434505D2FFF701F9A269C2B9FFF703F9E2
:1067F00094F827305BB91123012220460DF10701DF
:106800008DF80730FFF792FF012384F827303368B3
:10681000002B0CBF1B20002003B0BDE8F083E16912
:1068200022698A5C07F8012F2569226A01359542A1
:1068300008BF4D46A2692561013AA261FFF7DBF866
:10684000A36820469847336801333360C7E708B52B
:10685000FFF76CFF002008BDF8B51F4653680646D9
:106860000C461546002B5BD09368002B5AD0302283
:10687000002120462FF097FF6B682B4AE361AB683D
:10688000204623622B7B84F82430AB7B276084F87E
:10689000253040F20113E384069B00276360079BC9
:1068A000A360089BE3602B7884F828306B7884F829
:1068B00029301E4B346073601D4BB3601D4B336138
:1068C0001D4B73611D4BF3601D4B3362012384F834
:1068D0002E30B2611B4AF2619DF8282084F82D20E9
:1068E0009DF8242084F82A3084F82C20697B84F8D1
:1068F0002B70FFF7AFFE95F90100FFF79BFE95F9AE
:106900000100FFF789FE95F90000FFF793FE95F966
:106910000000FFF781FE3046FFF76CFD3846F8BDFA
:106920002220FCE72120FAE7556600004F680000AE
:10693000CB670000056600000B660000A56600003E
:10694000E96500001166000010B50446FFF74DF838
:10695000A269236A9A4203D2FFF74DF8012010BDC5
:10696000FFF749F80020FAE737B504460D4600E086
:1069700000BFFFF73AF894F8253002466BB1132DAB
:1069800007D1002384F8263003B0BDE83040FFF77C
:1069900032B8112D01D10123F4E76369E169104692
:1069A000CD54A16963690131A161216A01338B4230
:1069B000636104BF00236361FFF71DF8042384F8BB
:1069C0002E3094F825307BB1A269236A9A420BD10C
:1069D0001323012220460DF107018DF80730FFF740
:1069E000A5FE002384F8273003B030BD90F82A308C
:1069F00073B5044603F0FF01A3B9436801919847BA
:106A0000012384F82A3094F82D60FEF7DFFF054655
:106A10000199304601F072FE2846FEF7DBFF0223A3
:106A200084F82E3002B070BD026BD36C43F00403C7
:106A3000D364704710B50446026B93695906FCD5C0
:106A4000002394F836101A4694F83500FFF722F820
:106A5000002394F838101A4694F83700FFF71AF814
:106A600094F83D30DA0707D5002394F83A101A4617
:106A700094F83900FFF70EF894F83D309B0707D5DE
:106A8000002394F83C101A4694F83B00FFF702F8F4
:106A9000206B0021FFF774F9002010BD08B5006BD2
:106AA000FFF73CFA002008BD036BDA6C19B142F025
:106AB0000102DA64704722F00102DA64012203F570
:106AC00000539A64704700002DE9F0414FF001082F
:106AD0001C46574B86B00293564B0C9D0193564B68
:106AE000174600930A46CDE903882946534BFFF722
:106AF000B3FE0646002875D1236804222B63237950
:106B000085F83430A17985F83610607985F835003C
:106B1000237A85F83830E37985F83730A37A85F819
:106B20003A30637A85F83930237B85F83C30E37A54
:106B300085F83B304346FEF7ADFF43460222217AFB
:106B4000E079FEF7A7FF3E7039462068FFF75EF94F
:106B50001421627B3A4B03EB4210C0F8AC1594F859
:106B600006C061792E3203EB421341EA0C415960B1
:106B7000227AE37943EA0243C0F8BC3585F83D60E8
:106B80007B7E032B52D8DFE803F01F02314C012338
:106B9000002785F83D3000230222A17A607AFEF7B3
:106BA00079FFA17A627A637B42EA014241F2B451F1
:106BB0005B0103F1A04303F570335A5004222368AC
:106BC00003F58053DA65A7B96379052185F8353077
:106BD000A37985F836302068C36C43F00403C3649E
:106BE000FFF7CEF8304606B0BDE8F081022385F805
:106BF0003D3000230422217BE07AFEF74BFF41F277
:106C0000AC520221637B5B0103F1A04303F57033B7
:106C10009950217BE27A42EA014241F2B8515A503E
:106C2000D2E70323012785F83D30B4E72326D9E7CF
:106C3000356A0000296A0000A96A00009D6A000008
:106C400000C00350036B10B59B690446190609D5B3
:106C5000FFF77AFEB0B1206BFFF75AF901462046E4
:106C6000FFF782FE236B9A6CD20711D5012103F541
:106C7000005291649B699B060AD52046BDE81040EE
:106C8000FFF7B4BE226BD36C23F00403D364E9E7AF
:106C900010BD000010B51C46044B186807F09EF9A3
:106CA000002820600CBF1B20002010BD1811002000
:106CB00007B5044B00931123FFF754FC03B05DF8B4
:106CC00004FB00BF782D002010B5FFF735FC0F4CFA
:106CD000206007F0C3F920220D4901230D4807F079
:106CE0008BF90D4B18600D4B204663600C4BA36075
:106CF000FFF780FBFEF76AFE01210446084601F01B
:106D0000FDFC2046FEF766FE002010BD7C2D002015
:106D1000582D0020466C030018110020B16C0000B3
:106D2000956C000000F0FD03112B05D0182B03D04B
:106D3000A0F17D03012B07D80122044B80F0200035
:106D40001A70034B18707D20704700BF982D0020EB
:106D5000992D0020F8B50E461446204B00B3204A6A
:106D60002049107000221A7022700A704FF6FF72CC
:106D70001D4B1A801B4D2B78EBB91B4F30463988C1
:106D800000F0C7FA164A38801378013BDBB2137063
:106D90006BB901232B703046BDE8F840FFF7C2BF46
:106DA0001A78002AE6D01870104B1878F8BD2378AE
:106DB00001332370EFE7012B05D102232B700A4B1F
:106DC0001888000AE8E7022B04D103232B70064B36
:106DD0001878E1E7FF237E202370E7E7982D002055
:106DE000942D00209A2D0020962D0020992D002012
:106DF0002DE9F047394E8846337817465BB9384A53
:106E00001370384A1370384A1370384A13704FF6AB
:106E1000FF72374B1A807D284FD02CD8182850D0BD
:106E20001A2852D00022314B2D4D1C781A702B7825
:106E3000DFF8B490DF2B9CBF01332B702B784440DC
:106E4000022B12D9DFF8A8A099F80000BAF80010B8
:106E500000F05FFA2B78AAF80000DF2B9FBF99F8AB
:106E60000020023B88F800203B701E4B1A781C70F3
:106E700089F8002006E07E28D4D1194B1B781BB975
:106E80001A4A1370202011E0FF2B20D0184A1188D5
:106E9000154A1078134A127802EB0022914218D159
:106EA000022B18D9DF2B8CBF7A200020A0F1200202
:106EB000534253413370BDE8F08720200B4B1870CC
:106EC000F4E7FF22064B1A70DCE77420EEE7772028
:106ED000ECE77620EAE77920E8E700BF8C2D002078
:106EE000932D00208E2D00208F2D0020922D00202C
:106EF000902D0020002808BF42200A44914200D172
:106F0000704711F8013B434001F8013C00F00103D8
:106F1000C0F34700002BF1D080F0B800EEE700008E
:106F200008B500F099F8044B08B1188008BD4FF679
:106F3000FF721A80FAE700BF8A2D002010B5074CB7
:106F4000208850B100F088F82388C01A044B00B2A2
:106F50001B889842B4BF0020012010BD8A2D00205C
:106F6000882D00204FF07E624FF6FF732DE9F0412F
:106F7000B2F84670B2F84460154D9F4208BF4FF416
:106F800048679E4208BF4FF4C8762C88DFF84480DB
:106F900050B164002C802B88BB4215D92F80002370
:106FA000A8F80030BDE8F081B8F80030002BF2D02E
:106FB00000F052F8B8F80030C4EBC404C01A80B234
:106FC00004EB8004E408E5E7B34238BF2E80E6E72F
:106FD000882D00208A2D002008B500F03DF84FF0E4
:106FE0007E634FF6FF72B3F85430934208BF4FF4FC
:106FF0007A73184410F47F6FC0F3071208BFFF22A2
:10700000014B1A7008BD00BF8D2D002010B5084C33
:10701000237843B100F020F82378C3EB1010030667
:107020005CBF002323702078B0FA80F0400910BDC7
:107030008D2D002007B502F013F86A4602F076F8AD
:1070400018B15221034800F019FADDE9000103B03C
:107050005DF804FB5C6C030008B5FFF7EBFF80B242
:1070600008BD08B5FFF7E6FF08BD08B5FFF7F9FF53
:10707000FA23B0FBF3F080B208BD01207047042072
:107080007047000008B501F0EBFE18B17A21024804
:1070900000F0F4F9002008BD5C6C030008B500F0B6
:1070A00049F90E4A536A43F470235362EFF308839D
:1070B0004FF0CD310A4A043B93420BD20222094BD6
:1070C0001A6700F085FBFFF7DDFFBDE808400648C2
:1070D000FEF744BF43F80419EEE700BF00ED00E0FF
:1070E00000000020004000502C6B030040F20160C3
:1070F00000F0A6B97047704708B510B1FFF7FAFF66
:1071000008BDFFF7F8FFFBE77047704770470320A3
:1071100000F051BB0120704707B5042200200DEBA1
:10712000020109F0C9F9042804D04FF4BF710448E2
:1071300000F0A4F9019800F0E7FA03B05DF804FB51
:107140005C6C0300102870B522D00DD8032801D93B
:10715000002070BD013802281AD8DFE800F00217BD
:107160002F000023022215E02038C3B2032BEFD8F2
:107170000328EDD801A353F820F000BF637100008D
:107180008D710000BD710000B97100000123E9E7B5
:10719000002303220B490C4D0C680021C8B2844225
:1071A000D6D955F8200028B1067A964202D1467AFF
:1071B0009E42CED00131F1E70323D3E702231A46E2
:1071C000E8E700BF506A03009810002007B501915E
:1071D000FFF7B8FF019918B9012003B05DF804FB6F
:1071E00000680028F8D0FFF75AF90028F5D01B28CE
:1071F000F2D12620F1E707B50191FFF7A3FF50B1C7
:10720000006840B10199FFF73AF9003818BF012032
:1072100003B05DF804FB0120FAE7000010B5FFF7AA
:1072200091FF044630B1037A022B03D103680BB1FE
:107230001B6823B940F24A21064800F01FF9236871
:107240001B681B6B986900F44830A0F50053584246
:10725000584110BD5C6C030010B5022104460020AB
:10726000FEF79AF9184B9A6A22F001029A629A6A1A
:1072700042F002029A629A6D5100FCD49A6DD203D8
:1072800012D49A6922F47F429A619969220292B2D9
:107290000A439A619A69240422F47F029A619A69E6
:1072A00004F47F0414439C61074B0321BDE81040A4
:1072B0009A6A002022F002029A629A6A42F001025F
:1072C0009A62FEF769B900BF00C00050024B98698E
:1072D000C0F30720704700BF00C0005008B500236E
:1072E0009B6A9B69DB0205D5012803D840F2022086
:1072F00000F0A6F8012008BD00239B6A9868C0F33F
:107300000343C0F303621B0243EA0233C0B21843D3
:10731000704749BA89B24840C0F303134340180389
:1073200080B258405B0103F4FF535840704742DE7F
:107330007047000010B5FEF70FFC0446FEF706FC90
:107340000022012101FA02F3234018D0204B2149E9
:1073500033F81230062B18D040F20722934211D195
:107360004FF000524FF20F00548884420AD1108827
:10737000984207D14CF23C335380088010BD013253
:10738000102ADFD1134A138012E04FF000534FF25E
:107390000F025888904218D11B88B3F5406F28BF60
:1073A0004FF4C0630B804CF23C324FF000535A80D4
:1073B000084B1A8840F201739A4201BF064B074AF4
:1073C000D2E90001C3E90001D8E74FF4C063E9E75F
:1073D000CC6C0300A42D00209C2D002090100020D8
:1073E000164B1B881A0A13F0FF03104604D1012A1A
:1073F00022D140F080007047072AFAD801A353F841
:1074000022F000BF3B740000F373000025740000FD
:1074100029740000297400002D74000031740000EC
:107420003574000009207047022070470320704720
:107430000B2070470620704718467047A42D002087
:1074400010B50446FEF7C9FA4FF000534FF20F0291
:107450001C805A80BFF35F8FBFF34F8F0549064BE7
:10746000CA6802F4E0621343CB60BFF34F8F00BFE2
:10747000FDE700BF00ED00E00400FA0538B5044662
:107480000D4600F0A6F9FEF7A8FA2B46224605495C
:107490000020FFF709F829462046BDE83840FFF7ED
:1074A00046BF00BFB96C03006C4A2DE9F0416C4B3C
:1074B00055686C4C5D65516A99656B49D1F800025D
:1074C000D865D1F80412586B1966916A10F0040F50
:1074D0005966D16A4FF000009966116BD966516BFD
:1074E0001967D26BD8645A67D3E90E2108BF1146D9
:1074F0005E4A91421A655DD301F12000A04259D83D
:107500008869C5F308051864CE69062D5E6455D1F7
:10751000574DA84252D3574DA8424FD205884DF639
:10752000426085424AD11868C3F890005868C3F891
:10753000940040F20170A242154604D22E68043233
:10754000B6F1CD3FF7D00022C3E91E22C3E92022C5
:10755000C3E92222641B434EDFF814C1DFF814E1B3
:107560009C648E422DD8D3E91EC7D3E92065D3E9A8
:1075700022414FF0000E013AD2B2FF2A3DD1BEF1B6
:10758000000F05D0C3E91EC7C3E92065C3E9224146
:10759000B3F85430C3F308030C2B3CD8022B52D958
:1075A000DA1E092A4FD8DFE802F0553241444E4E28
:1075B0004E4E4E4B0021C3E910112C494FF4206070
:1075C000B9E756F8044D6445CBD37445C9D2E507F5
:1075D000C7D50625284F57F8048BA045C1D0013DDB
:1075E00015F0FF05F7D10AB9052201E0013AD2B240
:1075F00002F11E0543F82540B3E7E0464FF0010EC7
:10760000BC4637462E4625460C464146B3E740F673
:107610000220BDE8F0813B2B15D1184B9B6913F07C
:10762000020F40F2025318BF1846F2E740F603205B
:10763000EFE740F60423B0F5206F08BF1846E8E7EF
:1076400040F60520E5E740F60722013B4B2B98BFAB
:107650001046DEE740F60120DBE700BF00ED00E06A
:10766000001000200010002000E100E000000020D9
:1076700034410000126A0300781000200080015A93
:1076800000F00CB800F00AB800F008B800F006B836
:1076900000F004B800F002B800F000B872B61EF0B6
:1076A000080F09D01EF0040F0DD0DFF850E0AEE84F
:1076B000FF1F6FF002000CE0DFF840E0AEE8FF1FB4
:1076C0006FF00E0005E0DFF834E0AEE8FF1F6FF06A
:1076D00006006946EFF309828EE8070086460848EF
:1076E000084C854501D3A54501D384F30888FFF7ED
:1076F000DBFE84F30888FFF7A3FE000000100020E3
:10770000400000200010002082B2074B4AB1000C5C
:107710001A8008BF4FF6CE22044B14BF18801A807F
:1077200070474BF6EF62F2E7301100203211002073
:107730000B4BB3F900201888002AB8BF80F0620014
:1077400042001A80074AB2F9001013880029BCBF12
:1077500083F4805383F00B03590011805840704725
:10776000301100203211002008B501F0B9FE60B1DF
:107770000A4B0344072B0DD8072B0BD8DFE803F087
:1077800004060A080A0A0A0CC22008BDC320FCE746
:10779000C420FAE7C520F8E7C120F6E7FF1FFF0F76
:1077A00010B404460846114622465DF8044B01F029
:1077B00077BF01F0B7BF01F0F7BF10B40446084629
:1077C000114622465DF8044B02F008B802F0DEB81C
:1077D0007047704710B5094A137813F002040CD1B2
:1077E0000749084809780078884206D0064863F0BF
:1077F0007D03048005481370017010BDA92D002081
:10780000A62D0020AE2D00208A2D0020AB2D0020BB
:10781000054B064A19881288914202BF0121044A89
:10782000117000221A807047B42D0020B62D002060
:10783000B82D002007B50346009102223D200349E0
:1078400010F087F803B05DF804FB00BFF96C03008B
:1078500007B5064B02221B783D2000930449812383
:1078600010F077F803B05DF804FB00BFB22D0020E4
:10787000F96C030038B50C4D0C4C2A7823789A42E9
:1078800000D138BD00210A481BF018FD094B1B88A8
:10789000834202BF0122084B1A702378013303F0A0
:1078A00007032370E9E700BFA62D0020AC2D0020C0
:1078B000B02D0020B62D0020B82D0020074B93F9E5
:1078C0000030002B08DB064A137803F04101402901
:1078D00004BF43F005031370704700BFB22D0020B2
:1078E000A92D0020282307B5054A3D20CDE9003207
:1078F00004497023022210F02CF803B05DF804FB59
:107900003800E00FF26C0300702807B504D103B013
:107910005DF804EBFFF7E6BF074B02221B7807492F
:107920000193074B1B78009303463D2010F011F89C
:1079300003B05DF804FB00BFB92D0020F86C030014
:10794000B22D0020F8B5002706463D4630461BF014
:1079500053FA854200D3F8BD30461BF04DFA441B64
:10796000E4B2202C2946304628BF20241BF0A4FD79
:10797000224601463846FFF7BDFA2C440746E5B2D9
:10798000E4E7000008B50A481BF036F809481BF088
:1079900033F809481BF030F808481BF02DF8084868
:1079A0001BF02AF8BDE8084006481BF025B800BFC8
:1079B000B42D0020A02E0020A22E0020B02D0020EB
:1079C000B62D0020BA2D002008B5DC220021044885
:1079D0001BF010FB0122034B1880034B1A7008BDEB
:1079E000C12D0020B62D0020B82D002030B585B067
:1079F000FFF7EAFFFFF7EDFE4FF07E634FF6FF72F1
:107A0000B3F84C30224D934208BF4FF47A732B8069
:107A10000023204C2380FFF783FAFFF78FFA00281A
:107A2000FBD04FF07E634FF6FF72B3F842309342C3
:107A300008BF4FF4C8632B8000232380FFF7D0FCDE
:107A4000431E154DDBB20A2B144C287019D80122A5
:107A500002FA03F340F20352134212D00222C1236E
:107A60000290CDE900323D2084230D490FF071FFD3
:107A7000FF232B70D023237005B0BDE83040FFF703
:107A800031BFFFF72FFFA023237005B030BD00BF2B
:107A9000882D00208A2D0020A82D0020A92D00204F
:107AA000F76C030037B504460D461BF0A5F9022814
:107AB00025D840F217111B48FFF7E0FC1A4B197844
:107AC00001F14003DBB2022B1FD901F0A003A02B70
:107AD00004D00B0619D57E20FFF7ACFE4FF07E6375
:107AE000B3F8403013B12046FFF72CFFB5B10022A8
:107AF00021460E4803B0BDE830401BF078BB20465D
:107B00001BF07AF9DC28D4D8D8E7CDE90014842317
:107B100002223D2006490FF01CFFDFE72A462146DE
:107B20000448E7E7FD6C03009D2E0020A02E0020F6
:107B3000556D0300A22E002001460120FFF75BBB1C
:107B40002DE9F74FFFF7FAF9AB4C48B32378580605
:107B500026D599074CBFA94BA94BAA4A1B78127886
:107B60009A4232D00120FFF7FDF97320FFF7CCFED7
:107B7000A54A4FF6FF7113780133DBB213704FF053
:107B80007E62B2F848208A4208BF0322934219DD80
:107B900051229E4B72201A70FFF7B6FE20232370ED
:107BA0009B4D9C4E94F900202378002A18DA13F09C
:107BB00030030ED01A20FFF7BFFF237803F07F03B6
:107BC0002370EFE7FFF706FEEAE70022924B1A80E8
:107BD000E6E72A78022AF0D18F4A2B701380E9E772
:107BE0002A78012A00F0F7800DD9931E012BD9D8ED
:107BF0003178FF2900F02481002940F0F480874B80
:107C000019783246EDE09A0719D57C497D4A7C48BF
:107C100092F800C007780A78ACEB0200BA1A02F0BA
:107C2000070200F00700904298BF81F800C00A7870
:107C3000BA4204D123F002032370FFF71BFE23781E
:107C400013F0300F1FD013F0200F744F15D0C22344
:107C50003B706E4B1B78BB7002237B702378032034
:107C600023F03C03237001232B7032466B4B1978B1
:107C7000FFF770F8FFF760FF94E7C1233B70FFF751
:107C8000AFFBB870E8E713F00C011FD0644F13F09E
:107C9000040F3978614B0FD06039C9B21970802058
:107CA000FFF7C8FD237823F00C0301203A782370F6
:107CB0005C4B28701A70D8E781F0800119707E2023
:107CC000FFF7B8FD237823F00803EEE79B0737D5CD
:107CD000DFF82881544A98F80030127801919B1AF5
:107CE00003F0070AFDF781FE019981464F481BF01A
:107CF00078FA0746DFF834B1BAF1000F16D14846DA
:107D0000FDF779FE4A4B38461F801BF075F8444B4F
:107D100098F800201B78013043EA02133F4A43F0F1
:107D2000080313700323C0B22B709EE739465846F0
:107D30001BF0A9FA0AF1FF3307465FFA83FADBE783
:107D4000304B4FF6FF7019784FF07E63DB8F2C4F6E
:107D5000834208BF05233A780B44013B521A5B1A51
:107D600002F0070203F007039A42DFF8B48028DC30
:107D700030481BF031FAE0B92E481BF02DFA2D4A9D
:107D80002D4B0021002808BF13462C4A18461360CB
:107D90001BF027FA264B18801BF02EF83A7898F83B
:107DA0000030013043EA02131C4AC0B213700223B0
:107DB000BAE721481BF010FA18B9FFF727F9002895
:107DC000DAD1184B1A7898F800309A425ED02378AE
:107DD00043F00803F4E63378FF2B4DD032460F49C9
:107DE000C95C002044E7124B0139C9B218881BF066
:107DF00075FB014605E700BFA92D0020AB2D002033
:107E0000AE2D0020A62D0020AA2D0020A82D002098
:107E1000C02D0020AF2D00208A2D00209D2E002097
:107E2000AD2D0020A72D0020AC2D0020B02D00206E
:107E3000BA2D0020A02E0020A22E0020BC2D002054
:107E4000022A1CD1134A00211378013303F00703DF
:107E50001370114B18681BF031FA104B002219886F
:107E60000F481BF0C4F90F4B1B880BB9FFF758F8EC
:107E70000D4B1A780D4B1A7000232B7092E60C4AAA
:107E80001378013303F007031370ECE703B0BDE888
:107E9000F08F00BFAE2D0020BC2D0020BA2D002099
:107EA000B02D00208A2D0020AD2D0020A72D002010
:107EB000AB2D002010B5014604460120FFF786F9DE
:107EC00028B126281BBF182300202720237010BDAF
:107ED0002DE9F04F8246DFF8FC9285B00023DFF8F1
:107EE000F882AAF8003098F800301BB989F8003001
:107EF000FFF78EFCA94DAA4E0DF10E00FFF7DAFF39
:107F00002728044616D04A469DF80E000DF10F01B1
:107F100099F800B0FEF76CFF10F0DF0704461BD0A5
:107F2000FFF776FC7A2827D8732807D82028DAD0DC
:107F3000272821D1204605B0BDE8F08FA0F17404B8
:107F4000062C19D8DFE804F00418444A184C4E00F7
:107F50007420FFF7D9FCC6E799F800309B4506D09E
:107F6000022B0FD89DF80F208E4B03F80B20202CEE
:107F7000C2D0002C00F0FD8040F255118A48FFF776
:107F80007DFAB0E7032B10D1884B1A786AB12A88A2
:107F9000012130461F7032801BF040FA012300930C
:107FA0003A46318882481BF053FA2B883088984231
:107FB000DDD11AF021FFC7B2791C2846C9B21BF0E7
:107FC0002DFA39469DF80F2028881BF09BFACEE742
:107FD0007620FFF799FCFFF771FC84E77720F8E73C
:107FE0007920F6E77A20F4E70A060DD4032B2BD983
:107FF00033785B0604D56F4B1B78B3EB111F01D0B0
:10800000FFF706FC012519E001F0E002802A06D105
:10801000012B19D17D20FFF70DFC02250CE0A02AD1
:1080200006D1012B10D17F20FFF704FC032503E0CC
:108030007B20FFF769FC0025FFF7EAFB3078430659
:1080400004D42023337049E77C20F2E76B1E022B17
:1080500016D85949DFF884B198F800700A789BF86F
:10806000003007F00707A7EB020C9B1A0CF0070C77
:1080700003F007039C4515D97820FFF745FC002540
:10808000AB1E012B2ED898F8003013F0080326D031
:10809000FEF7A2FF032D69D0002D7FF41FAFFFF77D
:1080A0000DFC1BE79742EBD00023444A10F002007E
:1080B0000F70137008D0424A1380424B1B78BB42AA
:1080C000DED0FEF72DFFDBE7FEF74CFF9BF800301C
:1080D000BB4201D0FEF724FFFFF7CCFBD0E73A4AC2
:1080E0001370D7E7012DD5D1324998F800200B78CD
:1080F000C2F3021098422DD1294D288830B926208C
:10810000FFF7DCFB2624FFF7FFFB13E7013303F047
:1081100007030B704FF07E63170742BF327842F0BF
:1081200008023270327822F005023270B3F8403023
:108130000BB1FFF707FC2B880222019398F800305F
:108140003D200093214985230FF003FC2B88AAF8DA
:108150000030EFE61107337802D543F0080371E7EA
:10816000DA079CD47520FFF7CFFB98E7FFF732FBC7
:10817000B4E6DFF8308099F8003098F80010144E1B
:10818000C0297FF431AF012B7FF45EAFFFF760FBB6
:108190000425FFF75DFBFEF7A9FF4DE7B62D002094
:1081A000B42D0020B22D0020FD6C0300B82D00205E
:1081B000B32D0020AD2D0020A62D0020AA2D0020DB
:1081C0008A2D0020AB2D00208D2D0020556D030041
:1081D000A92D0020B92D00208C2D0020AE2D0020CF
:1081E00008B5114B1B781BB1002000F0010008BD41
:1081F0000E4B1A780E4B1B789A42F5D114F022FCE4
:108200000028F1D10B481AF0E7FF0028ECD00A480B
:108210001AF0E2FF0028E7D0084B1B78002BE3D1CF
:108220000120FEF7FBFFE0E78C2D0020A72D0020AA
:10823000AD2D0020A22E0020A02E0020C02D002059
:1082400000207047104430B5054602B930BD01F03A
:108250000F030A2B34BF30243724013A2344090981
:1082600005F8013DD2B2F0E7F0B519B3002820DAE5
:108270002D23B0F1004F137000D04042012119E0CE
:10828000801B8642ECB205F10105F9D914B9BCF1A5
:10829000000F05D04FF0010C4D1C30345454E9B29E
:1082A000013B13F0FF0309D130305054481CC0B2D9
:1082B000F0BD002109234FF0000C024F002557F8B4
:1082C000046BDEE75C6D03002DE9F04F002495B0F0
:1082D0002146029480461646A1464422274603A81A
:1082E00002AC9B4625462EF05EFA0DF1480A317825
:1082F00081B9641BE4B2294622460020C0470146EA
:10830000002840F0B4803C4448222846E4B22EF0D5
:108310004AFAADE025291AD0B9F1000F1BD1204649
:1083200000F8011B04465445C0F0F780641BE4B21A
:10833000294622460020C0470146002840F0978089
:10834000274448222846FFB22EF02DFAE4E0B9F186
:10835000000F00D101363278782A06D8612A07D872
:10836000252A5ED03AD8002AC3D04FF00009DAE7B8
:10837000A2F162011629F8D801A353F821F000BF39
:108380002F840000C38400001F8500006B83000061
:108390006B8300006B8300006B8300006B83000025
:1083A0006B8300006B8300001F8500006B8300005F
:1083B0006B8300006B830000D58400006B8300009A
:1083C0006B830000D58400006B8300001F850000D4
:1083D0006B8300006B83000013840000392A16D8D9
:1083E0002F2AC2D9717801F0DF01582940F0C480EA
:1083F000322A06F1010940F0AC805BF8041B2046EC
:10840000042289B2FFF71EFF04464E46ADE7582A04
:10841000ABD15BF8041B02222046C9B2FFF712FF62
:1084200056E0214601F8022B62700C469DE74FF0A2
:108430000009DBF800300193DBF804300093009B67
:10844000994502D10BF1080B8FE7019B20460222D0
:1084500013F80910FFF7F6FE5045044613D3441BEA
:10846000E4B2294622460020C047014620B100243C
:10847000204615B0BDE8F08F4822284627442EF04C
:1084800092F92C46FFB2009B5A1E4A4581BF2046F6
:10849000202200F8012B044654450FD3641BE4B29C
:1084A000294622460020C04701460028DFD1482245
:1084B000284627442EF077F92C46FFB209F101092E
:1084C000BDE75B4653F8042B20469B4600F8012B82
:1084D00004464AE7621BD2B2294600205BF8049B9F
:1084E0000092C04704460028C1D1009A01461744B3
:1084F00028464822FFB22EF056F9E2B219F80200DF
:1085000001340028F9D149460092C0470028AED175
:108510008146009A1744FFB22C460136E7E66C2AE2
:10852000DBF800000BF104090ED17378752B14BF32
:108530000121002101D0642B00D101362246FFF732
:1085400093FECB46044410E7752A0CBF002101219D
:10855000F4E7342A10D15E4656F804BB04224FEAF1
:108560001B412046FFF76EFE1FFA8BF10422FFF736
:1085700069FEB346044648E74FF00109D3E600BF61
:10858000034B1B78002B14BF01200220704700BF53
:10859000D42E00200329F8B598BF124B05460E468D
:1085A0008CBF00245C5C032805D8DFE800F00208DB
:1085B0000B0E44F002040C4B1F684FB9F8BD44F099
:1085C0000804F8E744F02004F5E744F08004F2E7FB
:1085D0007B681A68144203D0314628465B68984786
:1085E0003F68EAE7806D0300D02E002038B5104DBB
:1085F0002B78ABB10F4C23781BB100F0EDFA0023C0
:108600002370002000F00AFB0B4C50B100F010FB6F
:108610000023012120782B70FFF7BCFF012323707A
:1086200038BD0122054B1A702278054B1A70F7E706
:10863000CE2E0020C92E0020C02E0020CD2E0020DE
:10864000DC2E002010B5FDF7C1F9064B04461B785F
:108650001BB1BDE81040FDF7BDB9FFF7C7FF2046CD
:10866000F7E700BFC82E0020002814BF0121FF211A
:10867000074A13780B44137008D0064B1B78012B64
:1086800004D9054B1B780BB9FFF7B0BF704700BF8B
:10869000D42E0020C02E0020CD2E002070B5FDF776
:1086A00095F9114E054633788BB900F0D9FB044695
:1086B00020B12846FDF78EF9204670BD0B48FCF727
:1086C000E6FA0B4B1C6000F0E5FC0A4B186000F06A
:1086D000DBF900F0E1FA084B00241860012328467A
:1086E0003370FDF777F9E7E7CA2E0020D02E00207F
:1086F000E02E0020D82E0020C42E002000292DE9D5
:10870000F34114BF0121FF21254A00F1FF30135C22
:108710000B4413543AD0234E3278012A36D9FFF74E
:108720002FFF0128044634D81F4FFDF74FF93B783F
:108730001BB31E4D2B781BB901222A701C4A1370E3
:10874000DFF8708098F8003033B1019000F044FAFF
:108750000023019888F80030FDF73CF9012000F073
:108760005DFAFDF733F92B782BB1019000F060FA38
:10877000002301982B7000233B70FDF72BF9307814
:10878000A04203D02146FFF705FF347002B0BDE8D8
:10879000F081032AF3D10228F1D100F097FAEEE735
:1087A000D42E0020C02E0020CE2E0020C82E002067
:1087B000CD2E0020C92E002068B5FDF707F9094B22
:1087C00006461B78012B04D8FDF704F9002528463E
:1087D00068BD054B1D6800F063FA05443046FDF79F
:1087E000F9F8F4E7C02E0020E02E002007B5FDF7D1
:1087F000EDF80190FFF7FAFE019803B05DF804EB85
:10880000FDF7E8B838B541600446FDF7DFF80546E6
:1088100021460448FCF73EFA2846BDE83840FDF7FB
:10882000D9B800BFD02E0020054B1B685843054B1C
:1088300000F5742000F23F20B0FBF3F0704700BF5A
:10884000D82E002040420F002DE9F04385B0FDF7FF
:10885000BDF8044600E000BFFBF7ECFD002800F087
:108860008A80654E654F337823B10020FFF7FCFE08
:1088700000233370FFF784FE0546002800F0838054
:10888000851EEDB2012D40F28680FFF779FE0128AA
:10889000804604D95A4B1B780BB900F05BF9594D4F
:1088A000DFF880912878404507D099F8003013B957
:1088B0004146FFF76FFE85F80080B8F1010F0FD930
:1088C000DFF83C8198F8003053B94F4B1B7823B93F
:1088D00000F07CF901224D4B1A70012388F800301A
:1088E000287800F0C3F999F8003013B1484B1B7891
:1088F0002B7000E000BF2046FDF76CF8FDF766F82E
:10890000444B04461A7852B100221A70404B287822
:108910001B78984203D101212970FFF73BFE3846AE
:1089200000F0D8FAFBF79BFD804600289BD1344F1E
:108930003B789BB189F80000DFF8D09099F80030BF
:108940001BB100F049F989F80080002000F066F9B9
:10895000002846D000F06CF900233B70337823B137
:108960000020FFF781FE0023337000212878FFF7F5
:1089700011FE00232B7000E000BF204605B0BDE8CB
:10898000F043FDF727B83378002B3FF47EAFFFF7B5
:108990006BFE357079E7002003A900F01DFB05464A
:1089A00000287FF472AF1C4B039A1B689A4205D8CB
:1089B0000120FFF759FE0123337066E7174BD3F808
:1089C000008000F06DF9039940448842F0D2022300
:1089D000091ACDE9005338462B46114A00F0A2FA95
:1089E00053E7012000F042F92046FCF7F3FFFCF7C3
:1089F000EDFF0446A9E700BFD72E0020A42E0020DB
:108A0000CE2E0020C02E0020D62E0020C92E002001
:108A1000DC2E0020CC2E0020C42E0020E02E0020D2
:108A200045860000CD2E002010B5FCF7CFFF0022B8
:108A3000044B1C781A70FCF7CDFF00F035FC204386
:108A4000C0B210BDCB2E002010B5094B1B786BB106
:108A5000084C237853B100F0EBF80023064A23704A
:108A600013700123054A1370054A137010BD00BF2F
:108A7000C02E0020CD2E0020CE2E0020CB2E002098
:108A8000CC2E0020704700002C4A2D4B116F2D4832
:108A900001F0070170B51960D2F82031806903290F
:108AA00000F0020041D003F00703991E4B424B41F6
:108AB000D2F88012244D01F001010B4323490B70C1
:108AC00060B33BB9D2F8003103F003035A1E53429E
:108AD00053410B70194BD3F8003103F00303022B01
:108AE00025D0032B26D0012B18D1FBF775FEA8B19A
:108AF000144B411EDC680023024608461946C4F3A5
:108B00000B04134E013404EB8404E4FB06012DF046
:108B10003BFCFFF789FE2B68184428606420FFF7B0
:108B200083FE2B681844286070BD0123C0E7FBF763
:108B3000B9FEDCE7FBF766FED9E700BF0080005016
:108B4000E42E002000C00150EC2E0020EA2E002070
:108B500040420F00FCF780BF074B1A7852B1002249
:108B60001A70064A136F23F0070343F001031367DB
:108B7000FBF71CBE704700BFE82E002000800050AD
:108B80000E4B10B51B7883B1022000F039FC60B1A8
:108B900000F054FA48B10A4B9A6DD20306D5DB6D4A
:108BA0009B0703D50122074B9A6210BD0124064B97
:108BB0001C70FDF78DFB034B9C62F6E7EA2E00204C
:108BC00000C0005000D00050E92E00200122014BCF
:108BD0001A707047E82E002038B50C4B1B786BB12B
:108BE0000B4C23787BB90B4B0B4D9A6D12F4803FE5
:108BF00005D0DB6D9B0702D50123AB6238BDFDF7C5
:108C000067FB0123AB6200232370F7E7EA2E002005
:108C1000E92E002000C0005000D00050034B1B780C
:108C20000BB1FDF7BBBB0120704700BFEA2E00204F
:108C300008B5FCF712FF094A0949136F096823F0C8
:108C400007030B431367074B1B7813B10122064B35
:108C50009A62BDE80840FBF7A9BD00BF0080005044
:108C6000E42E0020EA2E002000E0005002280AD066
:108C700003280BD001280CD1064A136923F0040302
:108C8000136130BF70470020FCF7BABE0020FCF72C
:108C9000CFBE704700ED00E04FF4C870FFF7C4BDD1
:108CA00008B5054B187818B1FDF758FB00EBD0005C
:108CB000024B1B68184408BDEA2E0020EC2E002051
:108CC0000122014B1A707047EA2E00207047000005
:108CD00010B500F02FFB0A4C0A4B19682368C31A21
:108CE00001B10BB9206010BD4A699A423ABF9B1A84
:108CF0000022D21A4A6128BF00238968F0E700BF2A
:108D0000F42E0020082F0020C38870B504460D46BD
:108D10003BB9FFF751FD8542064602D2FFF766FDDB
:108D200035460F4965610B68ABB90C60A36011E073
:108D3000AD1A9A68184665612AB113465A69AA4263
:108D4000F6D950B11A4613468460A36013B159692D
:108D5000491B596170BD0020F0E70C60F5E700BFCA
:108D6000082F002038B5134D2B685B6993B1124A68
:108D7000022014681C4400F017FB204600F0E2FAC1
:108D800000230E492A680B70D088800709D501237B
:108D90000B7038BD022000F007FB022000F028FB1A
:108DA000EEE79268002AF4D050690344012BEBD916
:108DB000EFE700BF082F0020F42E0020FC2E00203B
:108DC00070B516469DF81420C0E903360271049A66
:108DD000BDF8183002600022C380826004460D4650
:108DE00000F0A8FA3044A0613DB9E368656113B1B1
:108DF00020462168984796B13546FCF7E7FD0646C0
:108E0000FFF766FF29462046FFF77EFF054B1B68EC
:108E1000A34201D1FFF7A6FF3046FCF7DBFD00209F
:108E200070BD00BF082F002000220C490B687BB1E9
:108E300083420AD183687AB1936083681BB15A690F
:108E400041690A445A61002070471A469B68EEE760
:108E50000028EFD0022070470B60EEE7082F0020BB
:108E600070B5FCF7C2FD144E05463478FCB9134BBF
:108E70001C60134B1C60134B1C8000F021FA012076
:108E800000F092FA00F0E6FA0F4B0246186020B9A3
:108E90002846FCF7B0FD232070BD234640F2E731A1
:108EA0000A482DF071FA0A4B1860012333702846E6
:108EB000FCF7A1FD0020EFE7F02E0020082F002096
:108EC000F42E0020FE2E0020042F002018FCFFFFAF
:108ED000F82E00202DE9F0410546F8B1FCF776FDAB
:108EE0000F4F0646FFF7F4FE2846D7F80080FFF73D
:108EF0009BFF044628B13046FCF76CFD2046BDE8D8
:108F0000F081A8453B6803D123B1FFF72BFFF2E7BF
:108F1000002BF0D1022000F053FAECE72224EDE719
:108F2000082F002070B586B015461E4604460591F0
:108F300080B1FFF7CFFFBDF82C30002202939DF8DF
:108F400028302046CDE9006305992B46FFF738FF0E
:108F500006B070BD2220FBE738B50C46054698B137
:108F600091B100230B70FCF740FD0121074B1B68FA
:108F70000BB122781AB1FCF73EFD002038BDAB42A0
:108F800014BF9B682170F3E72220F7E7082F002029
:108F9000F0B51F46002387B00D46164604468DF8EF
:108FA0001730A0B10DF11701FFF7D6FF9DF817207C
:108FB0007AB9BDF83430294602939DF83030204606
:108FC000CDE900733346FFF7FBFE07B0F0BD22206A
:108FD000FBE70320F9E700002DE9F041074688464A
:108FE000FCF703FD00260546124B1C6824B92846F1
:108FF000FCF701FD1B2016E063691E44E388BB42B9
:1090000015D100F097F90C4C2368C01AB0420CD26D
:1090100000F090F922683244121A2846C8F800205D
:10902000FCF7E9FC0020BDE8F0810022F5E7A46828
:10903000DCE700BF082F0020F42E0020014B187839
:10904000704700BFFC2E002038B5FCF7CEFC05466B
:1090500000F070F904462846FCF7CDFC204638BDE8
:1090600070B5FCF7C2FC064600F064F9084B0446F4
:109070001D880120ADB200F0C3F918B100F05AF913
:10908000044601353046FCF7B6FC2046294670BD43
:10909000FE2E0020014B1868704700BF042F0020EF
:1090A0000C4B70B51B680D46834211D340F2E7317B
:1090B00000248C462146084B4FF47A721E68002328
:1090C000E0FB06C160462DF05FF92860204670BDC8
:1090D0002120FCE7F82E0020042F0020014B186807
:1090E000704700BFF82E00200F4B10B51A689AB1D8
:1090F0004FF47A71531E1342A0FB01010ED1B2FA54
:1091000082F2C2F11F04531CD243E04001FA03F380
:10911000184321FA02F20243104610BD00232DF03D
:1091200033F90246F8E700BF042F0020164B70B554
:109130008342164B15468B4124D3154B1A680AB34C
:109140004FF47A76A0FB0603541E144006FB01314F
:1091500011D1B2FA82F3C3F11F025E1CDB4301FAA4
:1091600006F6D04021FA03F330431843D140C5E955
:109170000001204670BD00232DF006F90024C5E94A
:109180000001F6E72124F4E7EFA7C64B3789410039
:10919000042F0020C2072DE9F34704460BD53F4AB0
:1091A000138801339BB21380FFF792FD3C4B1B6881
:1091B0000BB1FFF7D7FDA3076DD5FCF716FC002612
:1091C00005463746FFF784FDB146DFF8D480D8F86E
:1091D00000400CB163698BB10022324B012F1A7031
:1091E00002D1022E08BF1F70002C44D0FFF7BAFD39
:1091F000284602B0BDE8F047FCF7FDBB23461A79CC
:109200002179914288BF1C469B6813B15A69002A94
:10921000F5D02846FCF7EFFB256985B300F08AF806
:10922000A269861AF317B54279EB030328DA23699A
:109230001344A3610123226982B17BB9A91B019167
:10924000FCF7D3FB824601992046FFF75DFDA36939
:10925000226950461344A361FCF7CDFBE368E6881E
:10926000013713B1204621689847FCF7BEFB05463D
:10927000FFF72EFDABE7022000F0A2F8B8E72E467C
:10928000FCF7B3FB82462046FFF7CEFD5046FCF7C5
:10929000B2FB0023CFE702B0BDE8F087FE2E00202E
:1092A000082F0020002F002010B5FCF79EFB034B79
:1092B0001C78FCF7A0FB204610BD00BF002F00204B
:1092C0001FB50024184B18689A880290D3F806003E
:1092D0009B7A009002A8ADF80C208DF804308DF830
:1092E00008408DF80C40FCF781FC694601208DF8A0
:1092F0000040FCF73FFC4FF0B0431F219A6922F079
:109300001F029A61094A51619A6A12F00802FBD160
:109310001A620120FCF748FC4FF48062044BC3F84A
:1093200080211A6004B010BD846D03000020005835
:1093300000E100E04FF0B0439A6A1207FCD4186ACB
:109340007047000010B50446FCF740FB4FF0B042F8
:10935000936A1907FCD4136A116C5269120704D47A
:10936000CA1A032A01D899420ED1E21A022A98BFDA
:10937000DC1CB4F1FF3F38BF013C4FF0B0431C642C
:109380009A6942F008029A61FCF724FB054A1378B7
:109390003BB14FF0B041CB6B43F00203CB630023F2
:1093A000137010BD3411002082074FF0B04200F05E
:1093B0000103916948BF43F008030B439361704771
:1093C000820700F001030AD50121084A43F008038F
:1093D00011704FF0B041CA6B22F00302CA634FF024
:1093E000B0418A6922EA03038B617047341100207F
:1093F000830742BF0822014B5A6170470010005892
:109400004FF0B04301285B6904D0022805D1C3F3B3
:10941000C000704703F00100704700207047000053
:1094200010B5FCF7E2FA4FF0B04304465B691A0747
:10943000074A03F0010003F00D0348BF40F00200AB
:109440005361FFF7A7FE2046BDE81040FCF7D3BAF2
:10945000002000581C20FBF74DBF08B5FAF7F2FEBC
:10946000FAF74CFFFAF775FFFAF74AFFBDE8084034
:10947000FAF759BF08B5FAF757FFFAF756FFFAF7A8
:1094800055FFBDE80840FAF75ABF000024282DE92F
:10949000F341054604D82C46204602B0BDE8F081D1
:1094A00000240B4E0B4FDFF83080002338681A463B
:1094B0001946CDF8008006F091FC8442EBD2252CB1
:1094C000E9D056F8043B9D42E6D00134EDE700BFF9
:1094D000E8700300D4100020FFFF0F007047000069
:1094E0002DE9F04F634E644D3168286889B006F06D
:1094F000EFF90446002827D033680024D3E900019F
:109500009A6912689047336804A89B699B689847DA
:10951000336802209B69DB68984732680598536876
:10952000E7B2B3FBF0F3BB42916904F101044CD8FC
:10953000CB680020984733689B695B68984731681F
:10954000286806F0C5F904460026DFF84891DFF8E0
:1095500048814A4FDFF844A1ECB9494BF35C002B3A
:1095600000F082803968286802AB03AA009106F0F7
:10957000EFFB5045009907D068B9039B012B0AD037
:10958000286806F035FC0099D9F8003028681A6878
:1095900006F00CFB04460136252E09F1040908F1FA
:1095A000010807F10407D7D1B4FA84F3354A5B09FF
:1095B00013702B681B7C23B14FF48B713248FDF77D
:1095C0005DFF204609B0BDE8F08F12680B6907FB0C
:1095D00000209847A1E73B6803AA194402AB019118
:1095E00006F0B6FB504501992DD028B30BF1010BC5
:1095F000009B5FFA8BF199422868ECD3234BF35C14
:10960000002BC8D0DDF800B05FFA8BF37E2B286802
:10961000C1D8396802AB594403AA009106F098FBFF
:109620005045B8D00099286806F0E2FB0BF1010B19
:1096300004460028E8D0AEE7039B7BB998F80030D9
:10964000029A9A42D2D098F80030D9F800202868BF
:1096500006F014FA0028C9D00446CFE72868019123
:1096600006F0C6FB0199EEE7094BA346F35C0093B5
:10967000BEE700BFD8100020D4100020E87003001F
:109680009C7003000C2F0020A1710300C170030027
:10969000E06F0300087003007C7103000BE000F032
:1096A000F7B50E4601931746FFF7F0FE242805464E
:1096B000019B1BD8164A147804B3164A1068164A40
:1096C00052F82510154A525D3AB13A4606F0BAFAF8
:1096D000044698B1FFF702FF10E07F2E08BF002676
:1096E0003A4651FA86F106F013FAF1E7FF2808D955
:1096F00081B2F2B23846FEF760F80024204603B08B
:10970000F0BD4FF4A6710648FDF7B8FEF5E700BFBF
:109710000C2F0020D4100020E87003009C70030080
:10972000A171030073B50E46CDE90032FFF7AEFE1E
:10973000DDE90031242805461CD8164A147804B304
:10974000154A1068154A52F82540154A525D42B133
:109750000A68214606F02AFA044690B1FFF7BEFED9
:109760000FE07F2E08BF00260A4654FA86F106F065
:1097700085F9F1E7FF2807D91A4680B2FEF726F8E7
:109780000024204602B070BD4FF4C3710548FDF7B8
:1097900075FEF5E70C2F0020D4100020E8700300C0
:1097A0009C700300A171030010B5FFF76FFE084B1A
:1097B0001C785CB1074B002253F82010064B186848
:1097C00006F080FA044608B1FFF788FE204610BD77
:1097D0000C2F0020E8700300D4100020F7B50446D9
:1097E0000F4616461D46002B73D04BF23463984249
:1097F00012D1082D28BF082537492A4630462CF0BB
:10980000ABFF2A46304635492CF096FF10B10020B8
:1098100003B0F0BD41F2F0144BF23463F9B27F298A
:10982000A4B208BF00219C4219D17F2241F202015B
:1098300068460823FDF7C1FF0822684627492CF037
:109840007BFF30B908237F2241F2F0116846FDF713
:10985000B4FF0822694630462CF07EFFD7E741F27C
:10986000F0139C421ED12A461D4B741E986CD96C75
:109870002F1F013AAB1A974204F8010FDBB24FEAEF
:1098800010200DD0002AF4D1002AC0D0F1540133A9
:10989000D8B207284FEA112102F1FF32F4D9B6E716
:1098A0000423F1E704F47043B3F5805F07D1C4F3F8
:1098B0000B0404F17E642A4605FB0141CBE704F466
:1098C0006043B3F5005FA2D1C4F30B0404F5FC249C
:1098D000F1E721209CE700BF0200E00F8672030041
:1098E0000080E00FD307F7B505460F4626D410F0E9
:1098F000030423D126465208B2420AD1FCF70CF9E0
:10990000A64205EB84000AD1FCF712F9002003B04F
:10991000F0BD55F8263001330CD10136ECE70422B6
:1099200057F824300DEB020101932DF081F818B1A6
:10993000FCF7FEF84B20EAE70134E1E70120E6E717
:1099400030B5134600F07E62B2F17E6F89B00DD162
:109950000A46C0F30B01684602F0F6FE20B140F261
:1099600079110948FDF78AFD09B030BD5A08FFF7A3
:10997000B9FF0028F8D04FF4B771034809B0BDE82B
:109980003040FDF77BBD00BF017203002DE9F743B6
:109990000446E0070F46154604D54FF4E5713748F5
:1099A000FDF76CFDE90704D540F2CB113348FDF714
:1099B00065FD04F47043B3F5805F40D1C4F30B043C
:1099C00004F17E642E4A6B1E23449342264604D93A
:1099D0004FF4E8712948FDF751FDDFF8A09006EB40
:1099E000050846453FD1A2070ED04FF6FF7337F862
:1099F000022BA01E43EA024304220DEB0201019355
:109A0000FFF79EFF0234023DAB070ED0023D25F06A
:109A10000103FB5A04226FEA03436FEA13430DEB81
:109A2000020160190193FFF78BFF25B12A463946E1
:109A30002046FFF785FF002003B0BDE8F08304F463
:109A40006043B3F5005F05D1C4F30B0404F5FC24B7
:109A50002646C2E740F2D7110848FDF70FFD6FF028
:109A60000F060024B9E716F8013BFF2BB9D040F2EE
:109A7000E1114846FDF702FDB3E700BF01720300A4
:109A8000FF1FE00F1FB52A38062867D8DFE800F06F
:109A9000040B2C4B50555C000DF0FAFB13F008F84A
:109AA000012004B010BD12F0E5FF044612F0E2FF01
:109AB0008DF8000012F0DEFF8DF8010013F012F8AF
:109AC000ADF8020012F0D6FF0DF105018DF804008B
:109AD000082012F0D7FF12F0CDFF69468DF80D0077
