:10400000001000209D45000099D600009DD60000BC
:10401000C5D90000A1D60000A9D60000994500002E
:104020009945000099450000994500009945000018
:10403000ADD6000084380400CF8A00009945000006
:1040400099450000A131010099450000994A0000FE
:1040500099450000994500009945000099450000E8
:10406000994500009945000041E8000071C000003A
:10407000C1C1000099450000994500009945000024
:1040800099450000994500009945000099450000B8
:10409000994500001D4F000099450000994500001A
:1040A0009945000099450000994500009945000098
:1040B00099450000592E0200994500002138020060
:1040C000C5370200C1370200FD2F02001D38020073
:1040D000C9370200E1370200CD370200BD160200E9
:1040E000613802009945000099450000994500009B
:1040F0009945000095CF00009945000099450000C2
:104100009945000099450000994500009945000037
:104110009945000099450000994500009945000027
:104120009945000099450000994500009945000017
:104130009945000010B5054C237833B9044B13B1F1
:10414000044800E000BF0123237010BDA81F002019
:10415000000000003C78040008B5034B1BB1034984
:10416000034800E000BF08BD00000000AC1F0020B5
:104170003C780400A3F5803A704700BF174B002B32
:1041800008BF134B9D46FFF7F5FF00218B460F46F6
:104190001348144A121A3EF0E0FA0E4B002B00D0DE
:1041A00098470D4B002B00D09847002000210400B9
:1041B0000D000D48002802D00C4800E000BF3EF082
:1041C00061FA2000290000F037F83EF035FA00BF10
:1041D00000000800000000000000000000100020A7
:1041E0004019002030F10020000000000000000015
:1041F00028F0E0BE014B1868704700BFC41F0020C4
:1042000008B510F097FD054B186028B94F21044BF5
:10421000044A05483EF0EAF908BD00BFC41F00206B
:10422000583804006B38040062380400014B1868E9
:1042300014F0CCBEC41F002008B50AF01EFB0AF023
:1042400029FB002008BD08B50421002001F094FAE4
:104250000421062001F090FA0821072001F08CFAD1
:104260000821084601F088FA08211C2001F084FA90
:104270000821242001F080FA0821252001F07CFA91
:10428000002008BD07B501A801F012FF9DF8053018
:10429000012B27D1254A936DDB0313D4536B23F4F1
:1042A000FF0323F4FE4343F4BC1343F4A0635363BE
:1042B000136B23F4704343F440431363136B43F4D1
:1042C000E06313639DF8043063B94FF000531B683B
:1042D000174B1B68174B1B68174B1B68174B1B684A
:1042E000174B1B68174AD2F8803043F00303C2F81B
:1042F000803005F051F808F071FD08F031FD08F04C
:104300008BFD08F035FDFFF79EFF08F017FD00F06C
:1043100091FB08F09BFF00F03BFE02F083F802F0F7
:1043200083F803B05DF804EB09F0DEBB00C0005079
:10433000004000200080002000C00020000001207C
:10434000004001200080005002F0A2B800F096BCAE
:1043500008B509F09BFF08F061FD06F0CBF90FF0FE
:1043600091FD09F08FFA0FF00BFEBDE8084008F050
:1043700095BE08B505F05CFF05F078FF05F088FFF5
:1043800005F095FF0DF0AAFF0CF077FCBDE80840A2
:104390000DF050BF0CF0AEBC08B5FFF731FFFFF7D2
:1043A00045FFBDE808400CF047BC0000014B187801
:1043B000704700BFC81F002008B505F0BBFA0022F7
:1043C000014B1A7008BD00BFC81F0020FF207047B6
:1043D00008B5FFF7FBFF002008BD70477047704726
:1043E000704710B5044623F043FF204639F0ECFE39
:1043F0002046BDE810403AF021BC39F04FBF10B55F
:10440000044623F0EDFF204639F078FF2046BDE852
:1044100010403AF047BC10B504461FF069FF204633
:1044200023F036FE20463AF0BBF820463AF062FC14
:104430002046BDE810403DF085BEFFF7ECBF10B54B
:1044400004461FF06DFF204623F050FE20463BF04F
:1044500049FF20463AF0D4F820463AF07FFC204647
:10446000BDE810403DF088BE10B504461FF058FF6F
:10447000204623F079FE20463BF044FF20463AF0E8
:104480000DF920463AF092FC2046BDE810403DF080
:1044900073BE1FF0CBBD3AF0DFBA10B49DF80440F4
:1044A00001945DF8044B3AF0BFB9704724F0FCBDAD
:1044B0007047704710B49DF8044001945DF8044BB8
:1044C0003BF036BF70473BF03DBF24F081BD24F088
:1044D00095BD3AF06BB93AF095B924F0A1BD3AF028
:1044E000FBB97047704739F0ADBA39F0CBBA3AF042
:1044F00029BA3AF04ABA3AF05CBA10B49DF80440CE
:1045000001945DF8044B3BF01EBF3AF009BA24F069
:10451000A9BD24F099BD3AF060BA3AF0F7BC3AF080
:1045200003BD3AF04ABB3AF066BA3DF043BE3DF0F7
:104530007DBE3DF089BE3DF0B7BE3AF021BB22F012
:1045400057BD7047704782B06B4683E8060093E81A
:10455000060002B025F0CAB870472DE9F0419DF879
:1045600018409DF81C509DF820609DF824709DF81F
:104570002CC09DF834E09DF83880CDE90867CDE97E
:104580000DE8CDE90645CDF82CC0BDE8F04122F09C
:10459000B9BC0DF089BE7047FEE7000008B500F019
:1045A0002DF8124B12498B4212D30020114B1249A5
:1045B0008B4218D3FFF7E2FD186850F82240586884
:1045C00040F82240013298688242F5D30C33EAE782
:1045D0000022F8E71C6844F8220001325C68A2421D
:1045E000F8D30833E4E70022F8E700BF447804007A
:1045F0005078040050780400507804006FF00100F7
:10460000104B114A10B59A60D3F888200F4942F434
:104610007002C3F8882001F50052106641F2FF7065
:1046200050660220C3F8D000BFF34F8FBFF36F8FE7
:1046300008244FF440330648C0F88041D36004603A
:104640000B6110BD00ED00E0004000000080004460
:1046500000E100E0014B1868704700BF9C1000208B
:10466000014B1860704700BF9C100020084B1B6F67
:1046700003F00703022B04D0032B05D0012B05D038
:10468000FEE7044B18687047034BFBE7034870478D
:10469000008000509C100020A0100020002D31014F
:1046A00008B5FFF7E3FF054B1B6FC3F3013301337D
:1046B000B0FBF3F0024B186008BD00BF0080005053
:1046C000981000200048704700B4C404014B1868DB
:1046D000704700BFA0100020054B1860054B1B6FF2
:1046E00003F00703032B01D1FFF7DABF704700BFC8
:1046F000A010002000800050002070470048704744
:10470000002D3101174B9868C0F304400C2822D8C3
:10471000DFE800F0092121212121071719211B1DA4
:104720001F00114870479B6803F04073B3F1807F0E
:1047300013D0B3F1007F12D00C4A002B08BF1046F3
:1047400070470B4870470B4870470B4870470B4841
:1047500070470B487047002070470A4870470A4866
:10476000704700BF0040015A405DC60000093D008F
:104770000024F400C0EA210180BA8C010048E8015D
:10478000005A620280841E0040420F004FF4004035
:1047900070474FF47A707047014B1868704700BF3C
:1047A000A4100020BFF34F8F0549064BCA6802F4DE
:1047B000E0621343CB60BFF34F8F00BFFDE700BF44
:1047C00000ED00E00400FA0500239B6AB3F5804F7A
:1047D00003D21968064A914203D000230370836014
:1047E0007047012202709A689B694260F7E700BF38
:1047F00007B0CD5E30B50024A36A87B0B3F5804F13
:10480000054601910FD2012303A88DF80C30CDE9A4
:104810000444FFF7D9FF059B5B0504D5A36A28462E
:104820001B6C0199984707B030BD000073B5464B2B
:1048300004461A781AB102221A7002B070BDCDE98E
:1048400000220028F9D001261E7001F0BEF93F4D6C
:104850003F4B18601CF070FD2B785BB900F098FBA3
:1048600040B93C4808233C4A3C49006816F064FAC9
:1048700000B92E703A4B5A68A2603A4A9A601A6E92
:1048800022605A6E62601B6E5C043DD5364AD36866
:10489000D807FCD4354B1A68531C3AD04FF4801318
:1048A0009340334A13660423314C23664FF48063EC
:1048B000236600F03DF901300BD000F039F940F2E9
:1048C000011398421FBF4FF4804323664FF4004307
:1048D00023661023264C4FF0804223664FF400538A
:1048E0006846236601A922666366FFF783FF009B83
:1048F0002366019B63662B78002B9ED0164B1A68AB
:1049000022665B68636698E71A4AD368D907FCD4C5
:10491000C0E7194B1B78002BC5D1184B5A68144BB4
:1049200012B94FF480121A66154A526812B94FF440
:1049300000121A66134B5B68002BB4D14FF480024F
:104940000B4B1A66AFE700BFE21F0020E01F0020FC
:10495000E41F0020B0100020D81F002000710800C4
:104960000080004455CEAC0000000440A810002098
:104970000090004400000450E11F0020008005501A
:1049800000C005500000065038B5214D04462B7874
:10499000012B02D001232B7038BD0028FCD000F081
:1049A000C7F8013009D000F0C3F840F20113984273
:1049B00003D0184AD368DB07FCD42268164B1A666A
:1049C00062685A66A268D40744BF00229A60134BFB
:1049D0001A68013213D1124A127882B91149496812
:1049E000C80748BF1A60104A5268D10744BF012265
:1049F0001A600E4A5268D20744BF02221A601CF0A5
:104A0000B3FC0B4B186801F0E6F80023C3E700BFC6
:104A1000E21F00200000044000800044A810002095
:104A2000E11F00200080055000C005500000065026
:104A3000E41F002070B50024A36AB3F5804F1ED296
:104A4000104E337813F0FD0517D10F48FFF7EEFE37
:104A500008214FF480330D4A0D48C2F88011C3601D
:104A600011600C4A1361AB6ADB699847044606483B
:104A7000FFF78AFF0CB901233370204670BD4FF455
:104A80008174FAE7E11F0020CC1F002000E100E064
:104A900000A000440090004413B51F4B1B7803B9DD
:104AA000FEE700231D4CCDE900336A4608231C496C
:104AB000206816F041F9F0B91A4AD2F84031D2F81C
:104AC00040211F2B4FF0010310D9203A9340019A47
:104AD0001343019308236A461149206816F0E2F84F
:104AE0004FF00053104A1A60FFF75CFE9340009AA3
:104AF00013430093EEE70D4B9842F1D1094AD2F8E7
:104B00004031D2F840211F2B4FF0010302D9203A47
:104B10009340DEE79340ECE7E21F0020B010002056
:104B200000710800008000440B020FF00BE000F061
:104B30001FB500239A6AB2F5804F04D340F20110EA
:104B400005B05DF804FB126BB2F5804FF6D201227E
:104B500001A8CDE902338DF80420FFF735FE039B51
:104B6000DB03EBD5029B1A0EE8D0012A03D1C3F375
:104B700007430A2BE2D900239B6A1B6B1B6C9847E7
:104B8000DEE700230360704703680B600160704735
:104B9000036813B90B60016070471846F8E70346D5
:104BA000006818B102681A60002303607047036848
:104BB00003B970478B4202D10B68036070471846F7
:104BC000F5E72DE9F04106460F4635464FF000085F
:104BD000286830B9B8F1000FF7D1BDE8F0811D4663
:104BE000F6E70468002CF5D02146B8472B6800286A
:104BF000F5D122684FF0010823601A602C60254629
:104C0000E6E71FB5044650B1684603F0D7FB2070B5
:104C10009DF80000003818BF012004B010BD01202D
:104C2000FBE71FB5144652B16A4603F095FB2060BE
:104C30009DF80000003818BF012004B010BD01200D
:104C4000FBE71FB56B4603F0E5FB9DF8000000385D
:104C500018BF012005B05DF804FB000005490A6893
:104C60001318054883428CBF4FF0FF320B6010468B
:104C7000704700BFAC1000200000012008B50422DE
:104C800001230321002001F00DF8002001F009F8B4
:104C900001221B4B0521C3F844240C2000F06CFDBD
:104CA0000C2000F017FC174B00F5D520D3F8F020AE
:104CB00000F2FC4042F00102C3F8F020D3F8FC20DF
:104CC00042F08072C3F8FC200F4AA3F55D431A60DE
:104CD0000E4B0222B0FBF3F00D4B01381861C3F804
:104CE000F0204FF48072C3F804234FF06043094A68
:104CF0000020C3F8B02F084AC3F8802E08BD00BFBB
:104D000000D0035000ED00E0FF030040F8590D0013
:104D1000000004E055CEACC5090001004FF0604230
:104D20000123D2F8001E03FA00F00843C2F8000E77
:104D3000002070474FF06043D3F8802E30B5D20783
:104D400015D501240B4D8440D5F8FC2042F080722B
:104D5000C5F8FC20D3F8002E2243C3F8002E53F8E8
:104D60002020002AF0D003F82010002030BD1120B0
:104D7000FCE700BF00ED00E038B5124B05461B789C
:104D8000DBB1E0B100F021FF0F4A00231146147B94
:104D900054B92B6001251A0101EB03131D738C50CC
:104DA00000F019FF204638BD0133082B02F1100234
:104DB000EDD100F010FF0548F5E70548F3E7054899
:104DC000F1E700BF68210020E81F0020048000F008
:104DD000028000F0018000F0154B13B51868002325
:104DE00001908DF8043000F0F0FE124B1C7824B1D5
:104DF00000F0F1FE104802B010BD01221A7000F060
:104E0000EAFE0E4B01A81C731C7783F82C4083F834
:104E10003C4083F84C4083F85C4083F86C4083F856
:104E20007C4008238DF8073000F07EFF2046E2E743
:104E3000D438040068210020038000F0E81F00201F
:104E4000F8B50D4D2D7885B1072810DC0B4D060106
:104E500005EB0014277B67B1AB510025069BA560CD
:104E6000636000F08BFF2846F8BD0548FCE7054865
:104E7000FAE70548F8E700BF68210020E81F002096
:104E8000028000F0018000F0078000F00A4A08B5B7
:104E9000127852B107280AD8084A02EB00131B7B8C
:104EA0003BB100F0B9FF002008BD0548FCE705480C
:104EB000FAE70548F8E700BF68210020E81F002056
:104EC000028000F0018000F0078000F00D4B1B789D
:104ED00093B1072812D889B10B4B03EB00131B7B4E
:104EE00073B10A4BDA6A012303FA00F010401ABFCB
:104EF00000200B70087070470548704705487047E0
:104F00000548704768210020E81F00200000045079
:104F1000028000F0018000F0078000F02DE9F843E6
:104F2000174B1F6D5B6D1F4000D5FEE70126002566
:104F3000144CDFF85480DFF85490374217D02368C0
:104F4000C8F850609BB1A168284601316268A16031
:104F50009847637B012B0AD148B909EB45131A7BAB
:104F600060F341021A731A7F60F341021A77013528
:104F7000082D4FEA460604F11004DED1BDE8F8839F
:104F800000000450E81F002000200450682000208A
:104F9000024B1968024B186815F0AEBDB410002022
:104FA000B01000207047000037B5920004460D464F
:104FB00001923EF049FC431C0BD060B929462046C3
:104FC000019A3DF093FB0028044808BF002003B07D
:104FD00030BD0348FBE70348F9E700BF10E000F0ED
:104FE00021E000F024E000F013B5044601A801F030
:104FF0005FF89DF80630012223804FF48073002073
:105000006380054B9B680A3303F01F0302FA03F326
:10501000636002B010BD00BF0080E00F00F01ABF57
:1050200008B500F00BFF002008BD10B5044644EAA7
:10503000010313F00303084609D1934201D1002074
:1050400010BD54F8231040F823100133F5E7214632
:1050500092003DF05BFBF2E710B504463EF0ECFB3E
:10506000431C15D0B0B90C4B20469B680A3303F0A3
:105070001F020123934023F003032344984201D1EC
:10508000002010BD50F8042B0132F7D00348F8E798
:105090000348F6E70348F4E70080E00F0EE000F075
:1050A00021E000F024E000F008B500F07FFD014BA6
:1050B000186008BD00280020014B186800F07ABD78
:1050C000002800200A460139014408F037BC0000DE
:1050D00041F6713310B5104C104AA0428CBF4FF40A
:1050E00080140024D169D363936801F4803123F4E0
:1050F0004013234393600A4B98420A4BD3F818227B
:105100008CBF42F0020222F00202C3F8182211B151
:105110000022024BDA6310BD005A62020000035005
:1051200080F0FA0200C007502E4B98424AD022D895
:105130002D4B984240D014D82C4B984239D00AD8E5
:105140002B4B984232D02B4B98422FD02A4B98426F
:105150002CD000207047294B9842FAD1284B186F69
:105160007047284B98422AD0274B9842F1D1244BC4
:10517000D3F880007047254B98422BD009D8244B98
:10518000984223D0234B9842E3D11D4BD3F88C0097
:105190007047214B984221D003F5740303F5105357
:1051A0009842D6D1164BD3F898007047144B986D9F
:1051B0007047134B586E7047114B586F7047104B28
:1051C000986F70470E4BD3F8840070470C4BD3F8A0
:1051D000880070470A4BD3F890007047084BD3F80B
:1051E000940070470048E8010024F400C0CF6A0032
:1051F00080841E0000093D0040420F00405DC60053
:105200000080E00FC0EA210180BA8C01007E5603C5
:1052100080D54302006CDC020090D00308B5FFF794
:1052200051FABDE808400021FFF752BF38B5124BD4
:105230000546D3F820310C4603F00703013B032B4E
:1052400017D8DFE803F0020A0E12FFF703FA04236F
:1052500005B1286004B1236038BDFFF737FA032396
:10526000F6E7FFF74FFA0523F2E7FFF747FA0223C5
:10527000EEE700231846EBE70080005037B50C46F8
:105280000021124A0191D2F88021054602F0030262
:10529000022A0ED0032A11D0012A14D101A8FFF747
:1052A000C5FF0D230DB1019A2A6004B1236003B03C
:1052B00030BDFFF727FA05230190F3E7FFF71EFA49
:1052C00002230190EEE70B46ECE700BF00800050A0
:1052D00038B5104B0546D3F840310C4603F00303B4
:1052E000022B0BD0032B0DD0012B0FD1FFF74EFA61
:1052F000082305B1286004B1236038BDFFF74CFADC
:105300000723F6E7FFF745FA0923F2E700231846DB
:10531000EFE700BF0080005038B5104B0546D3F8CA
:1053200060310C4603F00303022B0BD0032B0DD08E
:10533000012B0FD1FFF72AFA082305B1286004B129
:10534000236038BDFFF728FA0723F6E7FFF721FAB5
:105350000923F2E700231846EFE700BF0080005062
:1053600038B5134B0546D3F800320C4603F007035B
:10537000013B032B18D8DFE803F0020A0E12FFF7F7
:1053800005FA082305B1286004B1236038BDFFF792
:1053900003FA0723F6E7FFF7FCF90923F2E7FFF723
:1053A0007FF90C23800AEDE700231846EAE700BFE7
:1053B0000080005038B5134B0546D3F808320C4630
:1053C00003F00703013B032B18D8DFE803F0020AC0
:1053D0000E12FFF7DBF9082305B1286004B1236042
:1053E00038BDFFF7D9F90723F6E7FFF7D2F909230C
:1053F000F2E7FFF755F90C23800AEDE70023184682
:10540000EAE700BF0080005038B5104B0546D3F8DE
:1054100040320C4603F00303022B0BD0032B0DD0BC
:10542000012B0FD1FFF7B2F9082305B1286004B1B1
:10543000236038BDFFF7B0F90723F6E7FFF7A9F9B6
:105440000923F2E700231846EFE700BF0080005071
:1054500038B5104B0546D3F800310C4603F0030372
:10546000022B0BD0032B0DD0012B0FD1FFF72EF900
:10547000032305B1286004B1236038BDFFF78CF920
:105480000723F6E7FFF738F90623F2E701230020A8
:10549000EFE700BF00800050032814D005D8012892
:1054A00005D0022809D0002005E00F28FBD1084BC9
:1054B000186FC0F3013001307047054BD3F89000EE
:1054C000C0F30460F7E7024B186FC0F38020F2E7E7
:1054D000008000501FB500230193252817D8DFE86E
:1054E00000F0131A1D262B353A50555A5F64697720
:1054F000161A3F1616551A262B26351A5026773AB5
:105500003A3A3A2626265A5FFFF7B0F801900198FA
:1055100005B05DF804FBFFF7C3F8F7E7FFF7A6F85F
:1055200002460220FFF7B8FFB2FBF0F0EEE7FFF70C
:10553000B7F802460320F5E7FFF7B2F8024603206A
:10554000FFF7AAFFB2FBF0F04008DFE7002101A857
:10555000FFF794FEDBE7002101A8FFF767FED6E71F
:1055600002934FF0E0231B695B0705D5FFF798F81E
:105570000290029B0193CAE703A902A8FFF7A8FEC5
:10558000F7E7002101A8FFF7A3FEC0E7002101A86B
:10559000FFF7C2FEBBE7002101A8FFF7E1FEB6E777
:1055A000002101A8FFF706FFB1E7002101A8FFF7DE
:1055B0004FFFACE7094BD3F8803003F00303022B15
:1055C000A9D0032B01D00020A0E7FFF79BF89DE7AF
:1055D000002101A8FFF718FF99E700BF00800050E5
:1055E00008B50120FFF776FFBDE80840034988426F
:1055F0008CBF02210121032000F002B880F0FA02E2
:10560000032810B50C4627D004D8012804D002285E
:1056100017D010BD0F28FCD1FFF700FE00F028F8CE
:10562000124B013C196F21F4405141EA04341C67CC
:10563000FFF736F80021FFF74BFDBDE81040FFF7FC
:10564000CFBF0A4B013CD3F8901021F0F85141EA4A
:105650000464C3F89040DCE7044B013C196F21F46B
:10566000806141EA84241C67D3E700BF00800050BA
:1056700002210320FFF7C4BF1FB500230193252893
:1056800021D8DFE800F013202020202A2F454A4FA0
:1056900054595E7120203420204A202020202A20C6
:1056A0004520712F2F2F2F2020204F54314B1B6F5F
:1056B00003F00703013B032B05D8DFE803F00C02DE
:1056C000080A04230193019805B05DF804FB032345
:1056D000F8E70623F6E70223F4E7002001A9FFF725
:1056E000CDFDF0E7002001A9FFF7A0FDEBE7029355
:1056F0004FF0E0231B695B0705D5FEF7D1FF0B23B5
:105700000393039BDEE703A902A8FFF7E1FDF8E797
:10571000002001A9FFF7DCFDD5E7002001A9FFF774
:10572000FBFDD0E7002001A9FFF71AFECBE7002020
:1057300001A9FFF73FFEC6E7002001A9FFF788FE99
:10574000C1E70C4BD3F8803003F00303022B03D0E6
:10575000032B05D00023B5E7FEF7A2FF0B23B1E72B
:10576000FEF7D0FF0523ADE7002001A9FFF74CFEAF
:10577000A9E700BF0080005070B50C46252848D826
:10578000DFE810F0260047004700470047005B00B5
:105790006B009B00AB00BB00CB00DB00EB00FC0010
:1057A000470047007B0047004700AB004700470029
:1057B000470047005B0047009B004700FC006B0070
:1057C0006B006B006B00470047004700BB00CB003D
:1057D0008B1E042B2ED8DFE803F02A1D032D270093
:1057E00000250226FFF71AFDFFF742FF6B4A136FF1
:1057F00023F0070333431367FEF752FF0021FFF73F
:1058000067FCFFF7EDFE25B9032C02D10122644BA2
:105810009A6270BD0122634B0E469D6A03F5805368
:10582000C5F340059A62DDE700250426DAE7002586
:105830000126D7E700252E46D4E78C1E0B2C8CBF03
:105840000021594B554A98BF195DD2F8803123F099
:1058500003030B43C2F88031DBE78C1E032C8CBFA3
:105860000021524B4D4A98BF195DD2F8203123F0E8
:1058700007030B43C2F82031CBE70B2912D00ED817
:10588000CC1F022CC5D84A4A536A43F00103536225
:105890004FF0E022136923F004031361B9E70E29E6
:1058A000B7D1F0E7424A536A23F0010353624FF045
:1058B000E022136943F00403EFE7CC1F022C8CBFF6
:1058C00000213C4B354A98BF195DD2F8403123F096
:1058D00003030B43C2F840319BE7CC1F022C8CBF63
:1058E0000021354B2D4A98BF195DD2F8603123F065
:1058F00003030B43C2F860318BE7CC1F052C8CBF30
:1059000000212E4B254A98BF195DD2F8003223F0B2
:1059100007030B43C2F800327BE7CC1F052C8CBF7A
:105920000021274B1D4A98BF195DD2F8083223F099
:1059300007030B43C2F808326BE7CC1E042C8CBF64
:105940000021204B154A98BF195DD2F8003123F091
:1059500003030B43C2F800315BE705290CD00B2988
:1059600014BF002102210D4AD2F8803023F0030336
:105970000B43C2F880304CE70321F4E7CC1F022C24
:105980008CBF0021104B054A98BF195DD2F84032F8
:1059900023F003030B43C2F840323AE70080005083
:1059A00000E0005000C00050FC380400083904003A
:1059B00000C007500C3904000C3904000F390400F2
:1059C0000F390400153904000C39040038B50546B8
:1059D000FFF7AAFB214B04465A68012A04D120494B
:1059E0004A609A699207FCD10020FFF745FE04281F
:1059F00003D1FFF713FCFFF73BFE1A4A24F0407374
:105A0000954221D0184A954221D0184AD16811F008
:105A1000060FFBD190689360916803F4F81301F4CA
:105A2000F8118B4216D12846FEF71AFE0020FFF728
:105A300023FE042810D1FEF733FE0021FFF748FBB8
:105A4000BDE83840FFF7CCBD43F00073DDE743F01D
:105A50008073DAE79060E9E738BD00BF00C001500D
:105A600000E0015040420F0080841E000000015001
:105A700070B504460020FFF7FFFD03287CD045F6F3
:105A80000E030221414AC2F88030414B9962012144
:105A900003F580539962936DD903FCD4D4E90013C4
:105AA0001B0543EA0163E17B94F822500B43217B01
:105AB00094F8236043EA0143617B43EA0133A17B0D
:105AC00043EA811313619169D4E904031B0643EA95
:105AD000806301F000410B43A17EE07E0B43217EF9
:105AE00043EA0143617E43EA01239361136AE26959
:105AF00023F00D03002A0CBF0021082143EA020312
:105B000043EA8003214A43EA0103136294F82030F8
:105B10004FEA431331D1906A94F8211020F03300FA
:105B200043EA0113034343F001039362194B916D60
:105B300033EA0101FBD10221154B9962936D5B00A1
:105B4000FCD41069A36820F4700040EA035010618F
:105B50004FF000420E4B9A611DB9022203F58053AB
:105B60009A6216B901220C4B9A6294F824301BB148
:105B7000064B0A4AC3F8802070BD916A21F03301B8
:105B800031430B4343EA45039362EEE700C0005004
:105B900000D000500300014000E00050F1A7FFFFDB
:105BA000014B93F900007047B4280020EFF31080F8
:105BB00072B6704700B962B67047302383F311881C
:105BC0007047002383F311887047EFF3118030236F
:105BD00083F31188704780F311887047034B58682E
:105BE000C0F30800003818BF0120704700ED00E046
:105BF000EFF31083DB0706D4EFF311802F2894BF57
:105C00000020012070470120704770477047000056
:105C10000A4A10B51369044643F00403136108F0FF
:105C2000B1F9FFF7F2FF30BFFFF7F0FF08F0BEF960
:105C30001CB9BDE81040FEF733BD10BD00ED00E01B
:105C4000084A10B51369044643F00403136108F0D1
:105C500099F930BF08F0AAF91CB9BDE81040FEF769
:105C60001FBD10BD00ED00E070477047034A017989
:105C7000D36E23F030030B43D366704700400050CF
:105C800070B5054614460E46FFF790FF296881EA75
:105C9000040202EA06044C402C60BDE87040FFF7A5
:105CA00089BF7047F8B504460D461F4616464AB1EF
:105CB00001238B403021194A01FB0022FFB141F240
:105CC0001001535004EB4403072D4FF00F014FEA2E
:105CD000031317D8A80006FA00F2814010481844B0
:105CE000FFF7CEFF56B9012130230C4801FA05F524
:105CF00003FB040077B141F21003C550F8BD42F236
:105D00001001DEE7A5F10800800006FA00F28140EC
:105D10000448E4E742F21003EFE700BF00C003507D
:105D200004C003500CC0035030B504784578817826
:105D3000C27801200F4B41EA0541240658609C605F
:105D40009961FF2199620021996319644FF0004124
:105D500059654FF0FF314FF4001003F500531965FA
:105D600005491301DBB2C1F8800181F815330860E1
:105D700030BD00BF0000045000E100E02DE9F0411B
:105D800001250C46C3B2DFF888E0D1F800809D40C1
:105D90008F7ACB7A94F80DC0097BCEF850500EF56F
:105DA000005E4EF820804FF0300E184E1B050EFBA3
:105DB000006043EA074343EA415322F00302C0F87C
:105DC00060C0C3650267FFF700FF736D2B43736507
:105DD000237A13B1336C2B433364637A13B1B36BFF
:105DE0002B43B3632279A37943EA0243084A9361C0
:105DF0006179E37943EA014306498B61034B5563BB
:105E00009D64BDE8F041FFF7E6BE00BF000004500E
:105E1000002004500010045010B50124C0B284408A
:105E2000FFF7D3FE044B5A6D22EA04025A659C62C6
:105E3000BDE81040FFF7CFBE0000045041F67132BC
:105E4000034BDA63012203F50053DA60704700BFA9
:105E50000000035041F671320121044BDA6303F56F
:105E60000052D1600022DA63704700BF0000035087
:105E7000013825289ABF024B185C0020704700BFEC
:105E80001A3904002338032803D804299CBF024B85
:105E9000595C0846704700BF40390400021E30B507
:105EA0004FF000000CBF0C25042547F60774084985
:105EB00052B9831D51F82330234023B1013085426C
:105EC000F6D14FF0FF3030BD00F11203F2E700BF12
:105ED0000080035038B5C2F30625044602F00702DD
:105EE00041B90C4B42EA052242F44022063443F801
:105EF000242038BD11462846FFF7C4FF0146284636
:105F0000FFF7B6FF034B41EA0020123443F82400A8
:105F1000EFE700BF008003500A4392B20021FFF771
:105F2000D9BF3AB122F0030202F1A04202F5603279
:105F300009B9106070470002FBE74FF050234FF49F
:105F400000321A6770470000014BD3F89400704785
:105F5000004000504FF0B0435A6812B19A6A002ACC
:105F6000FAD17047CB784A7810B55B010C7843EAD8
:105F700082030A79234343EA02130C22424302F1CB
:105F8000B0421363012C02BF8A78024B43F82020F1
:105F900010BD00BFD080035008B54FF0B0435A6821
:105FA00002B960B15B680BB1FFF7D4FF4FF0B041AD
:105FB00030B10120074B5860FFF7CCFFC86008BD27
:105FC000FFF7C8FF0223CB60FFF7C4FF0122024B9B
:105FD0005A60F4E700100058002000584FF0B0431A
:105FE0005B6870B50BB1FFF7B5FF0121104B457829
:105FF000596083780679002BC37814BF02240024EB
:10600000002B14BF042200224379DB0043EA06136D
:106010002B43234313434FF0B0429360054B596029
:106020000378002B14BF0B460223D36070BD00BF62
:106030000020005800100058436813B941607047B1
:106040005B685A68012AFBD159607047836813B9AD
:10605000816070475B685A68012AFBD159607047BC
:10606000C369032B9FBF00EB83020133D160C3617F
:106070007047C369042B15D84FF09842116CC902C0
:10608000FCD504339B0013650168103B1160416827
:106090000C30116050F8041C034411604FF098421A
:1060A000984200D1704750F8041B1160F8E70000D7
:1060B000054B5B69C3F38512827003F03F021B0B33
:1060C00042700370704700BF00C007500D4B9842EC
:1060D00008D1A3F50033C3F88411C36D43F08003E6
:1060E000C3657047084B984204D1A3F51033C3F839
:1060F0009411F2E7054B984204BFA3F52033C3F88F
:10610000A411EAE70080055000C0055000000650C9
:1061100070B5054616461C4619B90320FFF7DAF993
:106120000146402C1BD003D8DCB1202C1BD070BD05
:10613000602CFCD1042303FB06F2560806EB411346
:10614000B3FBF2F3094A203B02EAC303AA6822F038
:106150006002AA60AA681443AC60EB61E7E706231B
:10616000E9E71023E7E70823E5E700BFF8FF7F0032
:10617000012200F580535A60CB43934003F00A0399
:106180004361416111B900F5005042607047000061
:10619000012200F5805310B55A6040F6AA6341F21F
:1061A00005024361002312498360C365C26000F5A4
:1061B00000520361C361C36491640E4983658842E0
:1061C00006D00D4CA04203D004F58044A0420BD170
:1061D0008842036506D0084B984203D003F58043FC
:1061E000984201D1002343650123536010BD00BFD5
:1061F000FFFF01000080055000C0055070B50D463E
:10620000FFF7C6FF012300F580567360AB7C0446A0
:106210001BB1836843F080438360EB7C1BB1204655
:10622000297DFFF753FF2A8A6B7B20461343EA89B7
:106230001343E3602B7BD5E90112FFF769FF6B7D08
:106240001BB1A36843F48033A360AB7D1BB1A3688B
:1062500043F40043A360EB7D2A7E1B07120502F482
:10626000E00203F0E0431343A3656A7E931E012B13
:10627000214B20D89C421AD003F580439C4218D071
:1062800003F580439C420CBF02234FF0FF3341F2E1
:10629000AC5102205B0103F1A04303F57033585069
:1062A000032A23D10423F3652B78636170BD002397
:1062B000EDE70123EBE79C4214D0104B9C4213D036
:1062C00003F580439C420CBF02234FF0FF3342F2A0
:1062D000AC5102205B0103F1A04303F57033585029
:1062E000012ADEE70023F2E70123F0E7042204F5A8
:1062F0000053DA65D8E700BF0080055000C00550A4
:106300002DE9F0470646DDE90884154699468A4698
:10631000344F41B9082323704FF4D963A360324B43
:106320006760E360FEE75AB1531E134208D00823AA
:10633000237040F2CB63A3602B4B6760E360FEE702
:10634000FFF743FC002D08BF04254D4538BF4D46DF
:10635000D6F808E06B1E13EA0E0FC5F1000208BF65
:10636000002502EA0E02154409F1FF33AA4413EA9C
:106370000A0FC9F1000208BF4FF0000902EA0A0241
:1063800002EB0903726884460132A2EB0E01A3EB13
:106390000E0E714515491AD2B8F1000F02D09B1AA2
:1063A000C8F80030162540F222732570C4E9023186
:1063B00060466760FFF70FFC40F2D7632570002549
:1063C000A360094B6760E3602846BDE8F087B360CF
:1063D000002323704FF4E5636760C4E90231FFF7DF
:1063E000FAFBF1E745390400B73904009F3904008E
:1063F00030B50C461D46114685B01BB9039200F01E
:1064000012F8039900230648009304220123002C6C
:1064100018BF20460195FFF773FF05B030BD00BFE0
:10642000D41000207047FEE71FB50C4B1B78012BE2
:106430000AD1FFF7D3FB002814BF6FF005004FF01F
:10644000FF3005B05DF804FB684600F0DBFC9DF80A
:106450000000003818BF01204042F2E7044F00203E
:10646000084B187801280AD1074B1B78012B07D15C
:10647000064B1B78002B14BF03200220704700201E
:10648000704700BFF44C0020044F0020054F00204F
:106490001FB5FFF7A3FB48B9074B1B78012B02D0B0
:1064A000684600F0E9FB4FF0FF3001E06FF00500B7
:1064B00005B05DF804FB00BF044F00201FB5FFF7D7
:1064C0008DFB70B9094B1B7873B9684600F042FB2D
:1064D0009DF80000003818BF0120404205B05DF86B
:1064E00004FB6FF00500F9E70120F7E7054F0020F6
:1064F00030B585B00546FFF771FB044688B9002D1D
:1065000068460ADD00F026FB01209DF80030002BD4
:1065100018BF4FF0FF3005B030BD00F05FFB2046E4
:10652000F3E76FF00500F6E71FB5684602F0D8F90B
:1065300005B05DF804FB000030B585B00546FFF7F7
:106540004DFB18B10024204605B030BDB5B91C2064
:106550003CF0BCF804460028F4D001231749037628
:106560006A46204601F080F99DF80030EBB1237EA9
:10657000012BE7D120463CF0B1F8E3E7AC686CB9F9
:106580001C203CF0A3F804460028DBD0012323762E
:1065900029680A4B002908BF1946E1E7EB681B2B65
:1065A000D0D914F00303F2D0CCE72DB16B68DB0730
:1065B00002D501236376C6E70023FBE7CC3904004C
:1065C00030B589B005460C46FFF708FB024610BB04
:1065D00025B3B4B1631C00D1044604AB009321463B
:1065E00003AB284601F07EF99DF81030222B18D01D
:1065F000232B09D0002B14BF6FF00200002009B03C
:1066000030BD4FF40042E8E76B7E002B14BF002042
:106610006FF00200F3E76FF00500F0E76FF00300A2
:10662000EDE76FF00100EAE71FB50446FFF7D6FA81
:10663000014670B984B120466A4601F01FFB9DF8FF
:10664000000020B1232814BF6FF00200002004B026
:1066500010BD6FF00500FAE76FF00300F7E730B503
:1066600085B00546FFF7BAFA80B99DB16A460121A7
:10667000284601F05DFA9DF8004074B92B7E012B8D
:1066800002D128463CF02AF8204601E06FF00500D0
:1066900005B030BD6FF00300FAE76FF00200F7E7D6
:1066A0007FB504460E461546FFF798FA18B1002448
:1066B000204604B070BD002CF9D0C5B918203CF0BC
:1066C00005F804460028F2D00123144903746B46F0
:1066D0003246204601F004FC9DF80030002BE7D044
:1066E000237C012BE3D120463BF0F8FFDFE7AC68C9
:1066F0006CB918203BF0EAFF04460028D7D00123EC
:1067000023742968054B002908BF1946DFE7EB68A9
:10671000172BCCD914F00303F2D0C8E7D239040008
:1067200030B50C46054689B018B96FF0030009B0C2
:1067300030BD89B94FF4004204AB009303AB01F0C4
:106740000FFC9DF810000028F1D0222814BF6FF034
:1067500002006FF00100EAE7FFF740FA0246002866
:10676000E3D1631C04AB009314BF214600212846EB
:1067700003ABE4E71FB568B16A46002101F0CAFC2B
:106780009DF80030002B0CBF00206FF0020005B018
:106790005DF804FB6FF00300F9E730B585B00546FE
:1067A000FFF71CFA80B99DB16A460121284601F025
:1067B00047FD9DF8004074B92B7C012B02D128467F
:1067C0003BF08CFF204601E06FF0050005B030BDC6
:1067D0006FF00300FAE76FF00200F7E72DE9F04FE2
:1067E0008FB081468A461646FFF7F8F908B10024B3
:1067F0003FE0B9F1000FFAD0002E3ED1C4203BF0AB
:1068000065FF04460028F2D0012680F8BC604FF4F2
:1068100080603BF05BFF05460028E8D084F8BD604F
:106820004FF480681F263F4F0DF1280B00225B4676
:106830003D4904F1940000F063FD9DF82820002AF2
:1068400050D10723CDE90623384BCDE9042203EAD2
:106850009803CDE90223394653464A462046CDE9FE
:106860000065CDF820B001F025FE9DF82830002B02
:1068700038D120460FB0BDE8F08FB468DCB9C42031
:106880003BF024FF04460028B1D0012384F8BC303B
:10689000D6F81480B8F1000F2CD14FF480603BF093
:1068A00015FF054670B994F8BC30012B9FD12046E6
:1068B0003BF014FF9BE7F368C32B98D914F0030354
:1068C000E4D094E701234FF4806884F8BD30376842
:1068D000144BB669002F08BF1F46FEB1731C1FD0B2
:1068E000372E17DD94F8BD30012BDCD128463BF064
:1068F000F5FED8E735694DB940463BF0E7FE054661
:106900000028D0D0012384F8BD30E0E715F007035C
:10691000F9D0C8E7C6F13706F6B285E71F2683E748
:10692000402681E7DC390400E6390400FEFFFF3F22
:10693000034B1B78012B06BF024B186800207047E1
:10694000044F0020084F00201FB5FFF747F910B98A
:10695000694601F0F7FEFEE730B585B00446FFF763
:106960003DF900BB14B369462046656901F0EAFEB3
:106970009DF800303BB1082B14BF6FF002006FF0A0
:10698000030005B030BD94F8BD30012B02D128467C
:106990003BF0A4FE94F8BC30012B02D120463BF022
:1069A0009DFE0020EDE76FF00500EAE76FF00300C1
:1069B000E7E7F0B50F46054685B0A0B3002932DB06
:1069C000FFF703F9D5F8A040D5F898603C43C5F827
:1069D000A0408EB9FFF7FFF86B463246394605F105
:1069E000940000F069FE9DF80030002B18BF6FF096
:1069F0000204204605B0F0BDB6F87C30DA0505D5B6
:106A000003F00F03042B03D0082B08D0B669E0E78E
:106A1000736F33EA0402F9D124EA0304F6E7736FD3
:106A20002340F3D0F8E76FF00304E2E770B588B0D5
:106A300006460C461546FFF7D1F80346002835D127
:106A4000002E36DB681C2AD0002D0CBF4FF400430B
:106A50000023E10754BF43F0080343F00403A207F7
:106A6000174A58BF43F48073106804AAD0F8A040B6
:106A7000019203AA009231462A46943000F090FC1D
:106A80009DF8102003461D2A44EA000009D0222A5E
:106A900012D0002A18BF6FF0020008B070BD1D466A
:106AA000D7E7002B08BF6FF00200F6E76FF0050094
:106AB000F3E76FF00300F0E76FF00100EDE700BFD0
:106AC000084F0020704700002DE9F0411B4B1B7858
:106AD000012B00D0FEE71A4B1F7867BBFFF775F854
:106AE000184D044695F8008001F0BCF94028164E78
:106AF000287012D0154AB8F1400F52F83030336088
:106B000001D100E000BF124B32681B689A4208D1E5
:106B10002046BDE8F041FFF75EB8376000E000BFF7
:106B200002E02B78402BF9D001F0C7FF2046FFF799
:106B300052F8BFF36F8FBDE8F08100BF044F002013
:106B4000054F0020014D00200C4F0020044D002077
:106B5000084F00202DE9F041044608B9FFF763FC17
:106B6000FFF73CF8194E0746194D38B12023237022
:106B700040F22133C4E902356660FEE7154B1B780D
:106B8000012B08D00223237040F225336660C4E94C
:106B90000235BDE8F081DFF8408098F80030F92B2D
:106BA00005D91E236660237040F22A33EFE7FFF712
:106BB0000CF898F80030013388F80030FFF70BF834
:106BC00040F2353327706660E1E700BFF839040012
:106BD000893A0400044F0020054F00202DE9F041C0
:106BE000044608B9FFF71FFCFEF7F8FF1E4F1F4EC3
:106BF00038B12023237040F24D33C4E90236676078
:106C0000FEE71B4B1B78012B08D00223237040F2B8
:106C100051336760C4E90236BDE8F081DFF8548083
:106C200098F800302BB91F236760237040F2563369
:106C3000F0E7FEF7CAFF98F80050013DEDB288F882
:106C400000503DB1FEF7C7FF2D236760237040F26F
:106C50005E33DFE7FEF7BFFFFFF736FF4FF45A73EF
:106C600025706760D6E700BFF83904007B3A04005E
:106C7000044F0020054F002070B5044608B9FFF707
:106C8000D2FB244B1E78012E09D013232370224BF4
:106C9000636040F2FE33A360204BE360FEE7204BCD
:106CA0001B884BB9092323701B4B636040F20943D7
:106CB000A3601A4BE360FEE71A4D2B784BB11F23FC
:106CC0002370154B636040F20C43A360134BE360E9
:106CD000FEE7FEF78DFF48B11F2323700E4B636064
:106CE00040F20F43A3600D4BE360FEE701F0BAF8FA
:106CF0000D4B0E4A18700E4B2E7018700D4B53F83A
:106D0000303013600C4A136001F090FEBDE8704013
:106D1000FFF789BBF44C0020F8390400733A0400F3
:106D2000104F0020044F0020014D00200C4F002088
:106D3000004D0020044D0020084F002008B501F050
:106D400091F8A0F140035842584108BD0023C0E922
:106D500000337047036810B523B9C1E906330160F9
:106D6000416019E091F8272093F8274094420CD80D
:106D70009B69002BF8D18B614368CB619961EFE788
:106D8000C1E906329161D96106E0DA69002AF7D1DA
:106D9000C1E90632D961016010BD016A41B14B6899
:106DA0009B6933B9C1E901330023C0E906330362AB
:106DB0007047D0E9063212B9DA614B60F4E79361AB
:106DC0000BB98A60F0E7DA61EEE738B5056A6B68FF
:106DD0009B6943B1FFF7E1FF05620146281DBDE84D
:106DE0003840FFF7B7BF38BD00231946044A0133C6
:106DF000402BC2E9001102F10802F8D1704700BF30
:106E0000044D002070B5044608B9FFF70CFB564D41
:106E10006A68D2B12B68554E4BB92346296B54484A
:106E20009200FFF7E5FA306023780BB170BD336054
:106E30003268504B50491A606B68504A1360504A90
:106E40009B0013600A6813440B602A89BAB10C26B0
:106E500023467243296B4B48FFF7CAFA4A4B186026
:106E60002378002BE2D1494B494A18602B894249CB
:106E700013807343474A13600A6813440B606B6BBB
:106E8000454E336001F056FD07F000FA054648B163
:106E900001232370414B63604FF4DA73A360404BCE
:106EA000E360C3E707F00CFB36683E4BB042024696
:106EB000186009D209232370384B63604FF4DD73E7
:106EC000A360374BE360FEE73CD02B460020012156
:106ED0003BF0FCF97043344BB6F57A7F186008D963
:106EE00032460023002001213BF0F0F94FF47A757F
:106EF000454300212D4B1D602D4B19702D4B1970F2
:106F00002D4B19602D4B19602D4B19702D4B19709D
:106F10001A4B1A68C2B900222B4B1A7000F09AFF64
:106F2000FFF762FF1A4B1B88B3B9204601F0A4FAA1
:106F30002378002B7FF47AAFFFF7C4FD0122234BA7
:106F40001A7073E72846C6E70A4B18680028E2D093
:106F500092003BF002FCDEE7204600F053FC237871
:106F6000002BE2D062E700BFE8100020BC4C0020FC
:106F70004E3A0400C04C0020B84C0020C44C002005
:106F8000C84C0020613A0400CC4C0020D04C0020BA
:106F9000D44C0020D84C0020DC4C0020F8390400F0
:106FA000953A0400E84C0020E44C0020E04C00201E
:106FB000044F0020054F0020084F00200C4F0020F8
:106FC000004D0020014D0020124F0020F44C002005
:106FD00090F82710094B10B553F83120C26032B930
:106FE000026143F8310003EBC103586010BD002477
:106FF0000461106143F83100F8E700BF044D002040
:1070000090F82720094B10B553F83210D40031B94D
:10701000C0E9031143F832002344586010BD002238
:107020002344C2605A680261D060F6E7044D002034
:1070300010B5044690F8270000F024FF074B94F8A1
:1070400027201B7820469A4203D1BDE81040FFF765
:10705000D7BFBDE81040FFF7BBBF00BF004D002009
:1070600038B590F8263004461546072B37D8DFE8A8
:1070700003F01E1E04041E1E1F1F00230366A0F83B
:107080006430FFF78AFE90F82630032B05D1443098
:1070900007F036F908B1FFF7C6F92046FFF7C8FF39
:1070A000002384F8255084F8263084F8243038BD35
:1070B00000230366A0F86430FFF76FFE90F82630D7
:1070C000072B05D1443007F01BF908B1FFF7ABF9E6
:1070D000042384F8255084F826300023E5E7BDE832
:1070E0003840FFF7A0B910B50C4691F826100729D3
:1070F00007D80239052906D8DFE801F0060605059C
:107100002020FF2930D110BD2266A4F8643010B1D0
:107110002046FFF742FE94F82630032B06D104F1F7
:10712000440007F0EDF808B1FFF77DF92046FFF7BE
:107130007FFF0023A38484F82630E4E72266A4F8C6
:10714000643010B12046FFF728FE94F82630072B54
:1071500006D104F1440007F0D3F808B1FFF763F952
:107160000023A3840423E6E7BDE81040FFF75BB9E2
:10717000F8B50C46FEF729FD94F826300746013B8A
:10718000062B39D8DFE803F0453804384C380400C2
:10719000002694F824302046042B0ABF236A354683
:1071A0001D692666A4F86460FFF7F7FD94F82630A1
:1071B000032B28D1FFF73CFF84F826604FF440737F
:1071C000A384CDB195F8273095F828209A4213D0A2
:1071D00094F827209A420FD1284600F09BFC95F89E
:1071E0002830834228BF0346D9B295F827308B4216
:1071F00002D0284601F038FA3846FEF7ECFCBDE82C
:10720000F840FFF761BC072B04BF042384F8263045
:10721000D4E70023204684F82630FFF709FFEBE788
:10722000042384F82630E7E710B5044690F82700D9
:10723000D4E9033282B90D4953B941F8303001EB3A
:10724000C0014B6000F034FE0023C4E9033310BDDD
:107250001A6141F83030F7E7D36023B9034B03EBF1
:10726000C0004260F0E71A61EEE700BF044D002065
:10727000F7B504460D4611B3002607F021F9114B6E
:107280001A683346571E46F1FF31E5FB0071384658
:107290003BF01CF823460146CDE900660A4A04F19A
:1072A000440007F08BF808B1FFF7BDF80323204630
:1072B00084F8263003B0BDE8F040FFF7B5BF0223E5
:1072C000F5E700BFDC4C00207171000038B50023E9
:1072D00004460A4D286880F8241080F825301146AD
:1072E000FFF7C6FF34B12968201D0C62BDE83840A5
:1072F000FFF730BD2B681C6238BD00BF084F00206F
:107300002DE9F047054692461C460BB9FFF78BF86E
:10731000FEF764FCDFF864800646164F38B1202380
:1073200023705523C4E90237C4F80480FEE73DB951
:107330000A2323705823C4E90237C4F80480FEE707
:10734000FEF743FC81461022314628463BF005FA01
:10735000094B281D2B60C5F80CA0FFF7F7FC484629
:10736000FEF739FC70232670C4E90237C4F80480A4
:10737000BDE8F087083B0400464C41479C3A0400B6
:1073800010B4064C2468A4F87C2000226167A26730
:1073900001211A465DF8044BFFF798BF084F002003
:1073A0002DE9F74F0D9C05468B4617469A460CB9BA
:1073B000FFF739F80FFA8AF3002B0093C0F23581FA
:1073C000FEF70CFC002800F02B8120232370A04B3B
:1073D000636040F23513A3609E4BE360FEE71F231A
:1073E00023709B4B636040F23913A360994BE360B9
:1073F000FEE702232370964B63604FF49F73A360F4
:10740000944BE3604FF0000856E047F6FF630AEA4A
:107410000303581E01280DD9042B0BD0082B09D0CB
:10742000082323708A4B63604FF4A373A360894BD6
:10743000E360FEE72868884B984209D00C2323704C
:10744000834B63604FF4AC73A360824BE360FEE751
:107450000AF4807301930C9B13B100230C9A136000
:10746000FEF7B3FB0AF00F09B9F1040F064607D087
:10747000B9F1080F3DD0FEF7AEFBFEF7D4FF71E087
:10748000EA683BEA020302EA0B0819D1019B13B137
:1074900022EA0802EA60714A12680AB1C2F87880EA
:1074A0003046FEF798FB00222270694A62604FF472
:1074B000BB72A260674AE260404603B0BDE8F08F4D
:1074C000009B002B08DAFEF786FB1D232370604B20
:1074D000636040F27D1392E7614B1B78002B38D03C
:1074E000FEF779FB2D232370594B63604FF4C27371
:1074F00085E7EA6812EA0B0813D0019B13B122EA70
:107500000802EA60554A12680AB1C2F8788030462B
:10751000FEF761FB002222704D4A62604FF4D17287
:10752000C7E7009B002B08DAFEF755FB1D222270EF
:10753000474A626040F2A912BBE7494B1B7843B14E
:10754000FEF749FB2D222270414A62604FF4D87247
:10755000AFE728463B4652465946FFF711FF3046F3
:10756000FEF739FB3D4EFFF7AFFAFEF72EFB33680F
:1075700093F825200023032A41D8DFE802F00222F5
:10758000372B2370324B636040F22D23A360314BC5
:10759000E3603368D3F87880019B4BB1B9F1040FF5
:1075A00002D0B9F1080F34D1EA6822EA0802EA6091
:1075B000FEF711FB00222270254A626040F26F2222
:1075C00077E7FEF708FB21232370214B63604FF41C
:1075D0000E7314E70C9A02B11360FEF7FCFA222333
:1075E00023701B4B636040F2412308E7FEF7F3FA78
:1075F00031232370164B63604FF41373FFE6009042
:10760000FEF7E9FAFEF70FFF23780098002BC0D0B1
:10761000F8E60090FEF7DFFAFEF705FF0098C7E7EF
:10762000FEF7E6FA00287FF4DAAE0E4B1B78012B4A
:107630007FF4DFAE002D7FF4E8AE0A232370044B05
:10764000636040F24313A360024BE360FEE700BFB8
:107650009C3A0400FD3A0400464C4147084F002084
:10766000054F0020044F0020002310B5838490F8BC
:10767000263004468167072B1AD8DFE803F0121280
:10768000040412121717032B05D1443006F038FEFC
:1076900008B1FEF7C8FE2046FFF7CAFC002384F8B5
:1076A00026302046BDE81040FFF777BB0423F6E7FD
:1076B000FEF7B9FEF5E700002DE9F04105460F465B
:1076C00016461C460BB9FEF7AEFE4A4B1B78012B43
:1076D0000CD002232370484B0025636040F2323304
:1076E000A360464BE3602846BDE8F0814DB90A230C
:1076F0002370414B636040F23733A3603F4BE3603C
:10770000FEE747F6FE731E4209D0082323703A4B6A
:10771000636040F23A33A360384BE360FEE72A68C7
:10772000374B9A4209D00C232370334B63604FF4DC
:107730005073A360314BE360FEE7FEF746FAB6F5FF
:10774000004F80460BD048F201039E4219D036B15B
:10775000012E16D0FEF73FFAFEF765FE02E0E9685B
:107760003943E9606F6887B94046FEF734FA224B27
:107770002770636040F26233A360204BED68E360E2
:10778000B1E7E96821EA0701EBE73846B0F87C3059
:10779000BF6903F00F03042B07D0082B0ED040461F
:1077A000FEF719FAFEF73FFE0CE0416FEB6831EA95
:1077B000030307D10022FFF757FF03E0E968436F97
:1077C0001940F7D1002FE0D14046FEF704FA330408
:1077D00001D4FFF779F9FEF7F8F9ED68FEF7FBF948
:1077E00000232370044B636040F2A333A360034B78
:1077F000E36078E7044F00209C3A0400F23A04006A
:10780000464C4147F0B50025124B1C68124B04F161
:107810000C011E882B46721E92B2AFB2BA4211D82A
:107820000C214A43A350A1180C4A4B600B81D38012
:107830009680146003700A4B43605D238360094B9C
:10784000C360F0BD41E9031321F8043C01350C315C
:10785000E3E700BFD04C0020D44C0020F84C0020BF
:10786000153B04006A3B04002DE9F8430546144625
:107870000AB9FEF7D8FDFEF7B1F9DFF864800646D5
:10788000154F38B1202323705223C4E90237C4F8BE
:107890000480FEE73DB90A2323705523C4E902376B
:1078A000C4F80480FEE7FEF790F9182231468146BD
:1078B00028463AF052FF2846084B40F8043BFFF7B1
:1078C00045FA4846FEF787F96C232670C4E902376B
:1078D000C4F80480BDE8F883F33B04004D555458C8
:1078E000793B04002DE9F74F0C9C05468946164666
:1078F0000CB9FEF798FDFEF771F948B1202323700B
:10790000724B636040F23313A360714BE360FEE798
:107910004DB90A2323706D4B63604FF49B73A360D2
:107920006B4BE360FEE7C6F30E034BB108232370F5
:10793000664B636040F23913A360654BE360FEE77A
:107940002A68644B9A4209D00C2323705F4B636012
:1079500040F23D13A3605E4BE360FEE736B2002EBB
:107960000CDBFEF745F948B11F232370574B6360CA
:107970004FF4A073A360564BE360FEE7564B93F8B9
:1079800000B0BBF1010F16D1FEF71FF92F7D824623
:10799000DFF84C81CFB9D8F8003085F814B0DA6A36
:1079A0002B61EA60DD62FEF716F9484B27706360D1
:1079B0004FF4AA7305E002232370444B636040F246
:1079C0004513A360424BE36013E02B69D8F8002015
:1079D00093421CD1FF2FDFF8F4803D4E0CD1FEF70F
:1079E000FAF81E23237040F25D13C4F80480C4E942
:1079F000023603B0BDE8F08F01372F75FEF7EBF8C4
:107A00002323C4F80480237040F26913EFE7002EAB
:107A100008DAFEF7E0F81D2323702C4B63604FF467
:107A2000BB73CEE72D49097841B1FEF7D4F82D2379
:107A30002370264B63604FF4C173C2E792F827109E
:107A400093F827208A4202D9184600F00DFE4A46D4
:107A500004212846FFF73AFC5046FEF7BCF8FFF732
:107A600033F8FEF7B2F8D8F8003093F82530032B3E
:107A700026D8DFE803F002101E1700232370134BF3
:107A800063604FF4D073A360114BE36003B0BDE8B3
:107A9000F04FFEF7A0B8212323700C4B63604FF426
:107AA000D573F0E722232370084B63604FF4DA7339
:107AB000E9E731232370054B63604FF4DF73E2E79E
:107AC0000190FEF7B0FC0198E0E700BF793B0400AD
:107AD000DC3B04004D555458044F0020054F002056
:107AE000084F0020044B03600023C0E903330375F3
:107AF0000430FFF72BB900BF4E4F4E45C36A00F16B
:107B00002C028B42D86801D11060704703F10C023F
:107B10000346F6E7C36A3F2003B970475A6822B1AB
:107B200092F82720904228BF1046DB68F4E7000057
:107B30002DE9F84305460F4614460AB9FEF773FCD3
:107B4000FEF74CF8064640B120232370474B636094
:107B5000A523A360464BE360FEE745B90A232370E3
:107B6000424B6360A823A360414BE360FEE72A68B1
:107B7000404B9A4208D00C2323703C4B6360AB23EC
:107B8000A3603B4BE360FEE73B4B1B78012B0BD024
:107B900002232370354B07466360AF23A360344B49
:107BA000E3603846BDE8F883FEF70FF8804667B11A
:107BB000012F2ED0FEF70FF8082323702B4B6360A4
:107BC000F323A3602A4BE360FEE76B68DFF89C9029
:107BD000274E93B9286910B12946FFF78FFF284631
:107BE000FFF780FF4046FDF7F6FF00232370C32315
:107BF000C4F80490C4E90236D3E7FDF7ECFF2E2366
:107C0000C4F804902370C623F4E702220021FFF792
:107C100027FA6868B7B201360028F6D12E699EB1FE
:107C200029463046FFF76AFF96F8281096F8273065
:107C30008B4209D03046FFF76DFF814228BF0146D5
:107C40003046C9B200F010FD2846FFF74BFF404612
:107C5000FDF7C1FFFEF738FF00232370034B63607D
:107C6000EE23A360024BE3609BE700BF793B040077
:107C7000E83B04004D555458044F00202DE9F04FC7
:107C800005468946144685B00AB9FEF7CCFBFDF7D8
:107C9000A5FF594F594E38B12023237040F2572386
:107CA000C4E902366760FEE73DB90A23237040F25B
:107CB0005A23C4E902366760FEE7C9F30E033BB1FD
:107CC0000823237040F25D23C4E902366760FEE7B3
:107CD0002A684B4B9A4207D00C23237040F2612351
:107CE000C4E902366760FEE7464B1B78012B09D0DA
:107CF0000223237040F265236760C4E9023605B0B1
:107D0000BDE8F08FFDF761FFDFF800B12A69DBF80D
:107D1000003082469A4207D0FDF75DFF1B23676063
:107D200023704FF41B73E8E72B7D013BDBB22B750F
:107D30003BB1FDF750FF23236760237040F27D23A2
:107D4000DBE729461046FFF7D9FED5F80480B8F1E5
:107D5000000F0CD15046C5F8108085F81480FDF74F
:107D60003AFF40F28A2384F800806760C5E7DBF8B9
:107D7000003093F8272093F8281003928A421DD0F0
:107D800018460293FFF7C6FE884228BF0846039AAA
:107D90005FFA80F84245029B10D21846FFF744FA7A
:107DA000DBF80030404683F8278000F06BF8DBF802
:107DB0000000FFF725F9144B83F8008001234FF0F2
:107DC000000869682B75CB6A2961EB604246CD6279
:107DD00043462846CDF80080FFF785F95046FDF769
:107DE000FAFE19F4004F01D1FEF76EFE40F2AD230A
:107DF00084F80080676080E7793B0400D03B040092
:107E00004D555458044F0020004D0020084F0020CD
:107E10002DE9F341054601260027C46A14B902B0D2
:107E2000BDE8F08121462846D4F80C80FFF766FEB5
:107E3000616819B9217521614446EFE72675CB6A5F
:107E40002561E3600023CC621A4620460097FFF7C5
:107E50004AF9F1E70022024BC3E90022704700BF54
:107E6000EC4C002008B5064B186828B9586800F09B
:107E7000D1FD2030C0B208BD00F0CCFDFAE700BF54
:107E8000EC4C00201F28094A07D84FF0004323FA82
:107E900000F013680343136070470123C0F13F00F3
:107EA00003FA00F05368184350607047EC4C002010
:107EB0001F280A4B08D84FF0004222FA00F01A6837
:107EC00022EA00021A6070470122C0F13F0002FA64
:107ED00000F05A6822EA00025A607047EC4C002019
:107EE0002DE9F047054692461C460BB9FEF79BFA72
:107EF000FDF774FEDFF864800646164F38B1202384
:107F000023705823C4E90237C4F80480FEE73DB962
:107F10000A2323705B23C4E90237C4F80480FEE718
:107F2000FDF753FE81461022314628463AF015FCF3
:107F3000094B281D2B60C5F80CA0FEF707FF48462B
:107F4000FDF749FE73232670C4E90237C4F80480A4
:107F5000BDE8F087733C040053454D41013C0400EB
:107F60002DE9F7430A9C0546884616460CB9FEF7EC
:107F70005AFA0FFA86F9B9F1000F0ADABDB90A23E5
:107F800023705E4B63604FF49373A3605C4BE360BC
:107F9000FEE7FDF723FE0028F0D020232370574B87
:107FA00063604FF49173A360554BE360FEE7C6F343
:107FB0000E064EB108232370504B636040F2291324
:107FC000A3604F4BE360FEE72A684E4B9A4209D00C
:107FD0000C232370494B636040F22D13A360484B80
:107FE000E360FEE7B9F1000F0CDBFDF701FE48B1DD
:107FF0001F232370414B63604FF49873A360404B81
:10800000E360FEE7404B1B78012B12D1FDF7DDFD4D
:10801000EE680746DEB1013EEE60FDF7DCFD0023B1
:108020002370364B636040F24313A360344BE3602C
:1080300009E002232370314B0026636040F23513C0
:10804000A3602F4BE360304603B0BDE8F083B9F185
:10805000000F08DAFDF7BFFD1D232370274B636077
:1080600040F25113E1E7294B1B7843B1FDF7B3FD13
:108070002D232370214B636040F25D13D5E7424608
:1080800006212846FFF722F93846FDF7A4FDFEF742
:108090001BFDFDF79AFD1E4B1B6893F82530032B43
:1080A00025D8DFE803F0020F1D1600232370134BC1
:1080B00063604FF4BA73A360114BE360EE68FDF7A1
:1080C0008AFDC0E7212323700C4B63604FF4BF731C
:1080D000F1E722232370094B63604FF4C473EAE78E
:1080E00031232370054B63604FF4C973E3E70190BC
:1080F000FDF771FDFEF797F90198DFE7013C0400F9
:10810000603C040053454D41044F0020054F0020C2
:10811000084F00202DE9F3470646894614460AB960
:10812000FEF781F94EB90A2323703C4B636040F29D
:108130002623A3603A4BE360FEE747F6FF5519EAB2
:10814000050509D008232370344B636040F22923CE
:10815000A360334BE360FEE73268324B9A4209D0AA
:108160000C2323702D4B636040F22F23A3602C4B14
:10817000E360FEE72C4B1B78012B09D00223237010
:10818000264B636040F23323A360254BE36034E069
:10819000FDF71BFD77688046EFB109F4007A0023F4
:1081A00039461A46BF6930460095FEF79CFFBAF182
:1081B000000F01D0002FF2D14046FDF70CFD19F45D
:1081C000004F01D1FEF780FC0025144B2570636041
:1081D00040F26523D8E7F568DFF840906B1CDFF8C4
:1081E00040800ED1FDF7F7FC1E2323704FF411736E
:1081F0003D46C4E90238C4F80490284602B0BDE800
:10820000F0870135F560FDF7E6FC40F24F2327705B
:10821000C4E90238C4F80490EFE700BF013C040051
:10822000563C040053454D41044F0020034B04309D
:1082300040F8043C00238360FEF788BD4E4F4E4556
:108240002DE9F84307460E4614460AB9FEF7EBF847
:10825000FDF7C4FC054640B1202323703A4B636010
:10826000A923A360394BE360FEE747B90A232370D3
:10827000354B6360AC23A360344BE360FEE73A68A0
:10828000334B9A4208D00C2323702F4B6360AF23EB
:10829000A3602E4BE360FEE72E4B1B78012B0BD027
:1082A00002232370284B06466360B323A360274B49
:1082B000E3603046BDE8F883FDF787FC804666B191
:1082C000012E29D0FDF787FC082323701E4B636025
:1082D000E523A3601D4BE360FEE77B68DFF8689051
:1082E0001A4D63B93846FFF7A1FF4046FDF773FC0E
:1082F000C4232670C4F80490C4E90235D9E7FDF719
:108300006AFC2E23C4F804902370C723F4E70222EA
:1083100000214846FEF7A4FED7F80490AEB201351E
:10832000B9F1000FF3D13846FFF780FF4046FDF763
:1083300052FCFEF7C9FB044B84F800906360E02315
:10834000A360024BE360B4E7013C04006A3C040014
:1083500053454D41044F00202DE9F04106460D469E
:1083600014460AB9FEF75FF8022DDFF84C80104F73
:1083700008D90823237040F2FD33C4E90237C4F85A
:108380000480FEE7FDF721FC0EB90A4B1E681A3582
:1083900056F82550FDF71FFC0023237040F20543DB
:1083A0002846C4E90237C4F80480BDE8F08100BF64
:1083B000E13C0400084F00207F3C0400F8B504466F
:1083C00008B9FEF730F8FDF700FC0F4B0F4F1D7892
:1083D0000F4E022D0BD9FDF7FEFB1123237040F247
:1083E00022430325C4E9023667602846F8BD6A1CAB
:1083F0001A70FDF7F0FB0023237040F229436760F9
:10840000C4E90236F1E700BF124F00207F3C0400B0
:10841000123D04002DE9F84306460D4617461C465A
:108420000BB9FEF700F8022DDFF84490DFF8448026
:1084300008D90823237040F24B43C4E90238C4F83A
:108440000490FEE7FDF7C1FB0EB9084B1E681A3514
:1084500046F82570FDF7BFFB0023237040F253431D
:10846000C4F80490C4E90238BDE8F883084F00203E
:108470007F3C0400053D04000023054A138003707F
:10848000044B436040F61F038360034BC360704797
:10849000104F00207F3C0400D53C040010B594220E
:1084A000002104463AF059F9402384F8273084F833
:1084B000283010BD2DE9F04F2DED028B87B008EE6E
:1084C000103A9DF848301A9C0293DDE91383039318
:1084D000189B05469346DDF85490BDF864A00493BC
:1084E0000CB9FDF7A0FFFDF779FB5A4F5A4E30B19A
:1084F00020232370F023C4E902366760FEE735B914
:108500000A232370F323C4E902366760FEE7BBF158
:10851000000F06D10A232370F623C4E902366760F0
:10852000FEE7B8F1000F06D10A232370F923C4E94E
:1085300002366760FEE7494B1B684B4506D90823A6
:108540002370FC23C4E902366760FEE7039B99456C
:1085500006D808232370FF23C4E902366760FEE7CC
:10856000029B3F2B07D9082323704FF48173C4E982
:1085700002366760FEE705902846FFF78FFF40F25E
:108580000B1305991AF0030FC4E9023621706760D6
:108590004DD1039B584623F0070308EB8303424663
:1085A00018EE101ACDE9009A039300F0E5F9804522
:1085B0008346039B0AD9322222704FF4947267607B
:1085C000C4E902260393FDF72EFF039BAB60049BD7
:1085D000029A6B60002385F82720C5E91A3385F8D5
:1085E00028202B672846C5F800B0C5F81480C5F8C8
:1085F0003090A5F834A000F0BBF9FDF7E6FA044688
:1086000095F82700FFF73EFC2846FEF7F9FC144AD0
:108610002046138801331380124B1B78012B0FD097
:1086200007B0BDEC028BBDE8F04FFDF7D4BA1AF0ED
:10863000020FAED040464FEA89023AF08EF8A8E722
:10864000FDF7C9FA07B0BDEC028BBDE8F04FFEF7AD
:108650003BBA00BF7F3C0400F83C0400F43904003E
:10866000104F0020044F002070B504460D4694F8CA
:108670002630072B08D8013B062B0BD8DFE803F088
:108680001F22221F1F222200FF2B1AD0BDE870409C
:10869000FDF7C9BE2046FEF7C7FD284684F82750DF
:1086A000FFF7F0FB264B20461B68A34203D1BDE831
:1086B0007040FEF78DBCBDE87040FEF7A1BC84F8A9
:1086C000275070BD94F8243094F82760013B84F85B
:1086D0002750072BDAD801A252F823F0FD860000BC
:1086E000C38600008D86000007870000FD8600001D
:1086F000FD860000C3860000FD8600002046BDE820
:108700007040FEF762BB2046FEF75FFB236AB5426E
:108710001C6994F8273002D2AB42A8D8D1E7B34203
:10872000A5D12046FFF7F6F994F82830984228BFE3
:10873000184694F82730C5B2AB4298D1C1E700BFC4
:10874000084F00202DE9F04104460D4609B9FDF718
:108750006AFEFDF743FA48B120232B70544B6B603F
:108760004FF4DA73AB60534BEB60FEE7524B1B7870
:10877000012B0AD002232B704D4B6B604FF4DC733E
:10878000AB604C4BEB60BDE8F0812CB9FDF71DFAF6
:108790004A4B1C68FDF71FFAFDF717FA94F82630CC
:1087A0008046072B08D8013B062B0DD8DFE803F0E5
:1087B0004531310F45313100FF2B70D0FDF70BFAF9
:1087C000BDE8F041FDF72FBE2046FEF72DFDE36A20
:1087D00013B12046FFF71CFB204600F0CAF8384AC8
:1087E00020461388013B1380FFF758FEFF234046C5
:1087F00084F82630FDF7EFF900232B702C4B6B60CB
:1088000040F23123AB602B4BEB60BDE8F041FEF74B
:108810005BB994F82430082B3ED8DFE803F0080554
:10882000083D1705050805002046FEF7B6FA94F83E
:10883000263003F0FB03032BC9D104F1440005F0FB
:108840005FFD0028C3D0FDF7EEFDC0E7236A204698
:108850001E6996F82770FEF7A0FA96F8273096F86A
:1088600028209A420CD094F827209A4208D130460A
:10887000FFF750F996F82810814228BF0146CFB281
:10888000002384F8243096F82730BB42CFD03946F5
:108890003046FFF7E9FECAE7FDF7C5FDC7E7FDF77C
:1088A0009AF91F232B70024B6B6040F2072367E796
:1088B0007F3C0400EE3C0400044F0020084F0020E1
:1088C000104F00201FB5054B186800F053F869469B
:1088D0000020FFF737FF05B05DF804FB084F0020CC
:1088E00000230370044B436041238360034BC36048
:1088F000034B1868704700BF213D0400773D04001A
:10890000DC4C00201FB56846FEF724F99DF80030C6
:1089100003B1FEE705F0BEF96846FEF75FF99DF882
:10892000003003B1FEE705B05DF804FB08B5FFF7C2
:10893000E9FF08BD0B4B1A680B4B02F180421B6824
:10894000013A03EB8203094A23F0070313604FF057
:10895000E023D3F8343F03F04043B3F1404F00D05D
:10896000FEE77047C44C0020C04C0020144F00208C
:10897000704770477047000010B5029C6FF0020C02
:1089800002EB84024FF0807422F0070242E90204F5
:1089900015484FF0123442F80C0C4FF0033042E906
:1089A00005044FF0023042E907304FF0113342F82E
:1089B000201C42E90A3C4FF010314FF009334FF0D0
:1089C000083042E90C314FF007334FF0063442E9EA
:1089D0000E304FF00533104642E910344FF00433A7
:1089E00040F8443D10BD00BFC5880000704708B581
:1089F000FEF7A4F9003818BF012008BD08B5FFF73D
:108A0000F6FF08BD08B5FEF799F9003818BF012038
:108A100008BD0000B0FA80F0704790FAA0F0B0FAFC
:108A200080F0704790FAA0F0704700BF72B64EF623
:108A30002250CEF2000040F2FF01C0F200010170AE
:108A4000002080F3098844F61470C2F20000016827
:108A500081F30888FFF7CAFF44F60050C2F2000015
:108A600044F60151C2F200010A78027044F608701F
:108A7000C2F2000044F60C71C2F200010A68026002
:108A8000002080F30B88106880F3098802F1080247
:108A9000116881F30B88EFF3148040F0020020F09E
:108AA000040080F31488BFF36F8FBDE8F04F0FBC54
:108AB000BDE8005006BC62B608473A484FF0805106
:108AC0000160704737484FF0805101607047302097
:108AD00080F3118844F60872C2F20002116800297E
:108AE00001BF314A136823F0010313600ED0EFF386
:108AF00009801EF0100F08BF20ED108A20E9F04F0A
:108B000044F60875C2F20005296808607446FFF74C
:108B10006DFF44F60871C2F2000144F60C70C2F217
:108B2000000003680B6044F60052C2F2000244F6F3
:108B30000151C2F200010878107044F0040E0020C8
:108B400080F30B88002B0DD01868B0E8F04F1EF0B2
:108B5000100F08BFB0EC108A80F30988996881F380
:108B60000B881BE044F61471C2F200010868A0F102
:108B70001C0080F3088840F20001C0F20011C161BE
:108B800048F62D11C0F20001816148F6C501C0F21E
:108B9000000141614FF6F97ECFF6FF7E002080F3A1
:108BA0001188704704ED00E034EF00E0054B984277
:108BB00005D0A83398420CBF0120FF207047002049
:108BC000704700BF204F0020064B1A8B104206D181
:108BD000B3F8C030184214BF0120002070470120B4
:108BE000704700BF204F00204FF6FF720023028025
:108BF000C280C360036142800281436183618280DD
:108C00004281C3610362704708B50F4B1A68C2B155
:108C1000188B00F01800B0FA80F040094042C0B252
:108C2000D3F8A82062B1B3F8C03003F018033BB109
:108C3000FF2804D040F22D61044804F02BFC0120F1
:108C400008BDFF20ECE700BF204F00208B3D040053
:108C500070B51046FFF7AAFF01281446054604D94F
:108C600040F20C61064804F015FCA823054803FBFC
:108C70000505AB6B1BB12046BDE87040184770BDC1
:108C80008B3D0400204F0020F8B5064617460D46E0
:108C9000FCF78CFFA823084C03FB06431A8B92B207
:108CA00037B142EA05011983BDE8F840FCF782BFFD
:108CB00022EA0501F7E700BF204F00200F4B104AC2
:108CC000B3F91C10B3F9C430FF2908BF1146FF2BBC
:108CD00010B502D09942B8BF19460A4CB4F9003019
:108CE0008B420AD01820FFF76FFF30B9064B218066
:108CF0001868BDE8104013F0DCB910BD204F00200B
:108D00000080FFFF20110020184F0020494A2DE964
:108D1000F04F106851684FF6FF7291B005AB03C376
:108D2000454B1B889342019300F081804FF000086F
:108D300007AC2046414EFFF757FF41F2111345465D
:108D4000B146ADF81030B2464FF0000B06F14807BF
:108D5000738B019A934232D14FF6FF71BAF84220D9
:108D6000BAF83C3002921A408A4207D108223846AB
:108D700005A9039339F0BAFC039B00B310AA02EBD8
:108D8000450222F8243C029B396822F81E3C6A1CEA
:108D9000D3000433E1507968E018416001210535C2
:108DA00001FA02F301FA05F51D4304AB13F808308C
:108DB0001D4304AB03F80850D5B2032D0FD00BF1BF
:108DC000010BBBF1030F07F108070AF1020ABFD13B
:108DD000A836B8F1000F02D14FF00108B3E79DF8B3
:108DE000106099F861309DF81150B34209D199F89B
:108DF0000931AB4205D124222146114839F076FCD5
:108E0000A8B10F4B89F8095189F861600FAD22466E
:108E100003CAAA4218605960144603F10803F6D148
:108E2000106807491860074B186813F093FD11B0DC
:108E3000BDE8F08FE03D040034110020204F0020F9
:108E400070500020184F0020F7B51820FFF7BCFE27
:108E50000546002873D1FFF731FF904C904EA821B2
:108E600001FB05410B8BEFB29B0640F190804FF464
:108E70000040FFF7A9FE60B10B8B180409D44FF036
:108E800080520023306800F00FF9002D57D10125E2
:108E9000E5E7A82606FB0546338B99070AD58048E7
:108EA000B6F86630B6F86420B16E006813F02DFA9B
:108EB000A6F86600A8266E43012240213846FFF737
:108EC000E3FEA31993F86C20032A3BD14FF0A80CC2
:108ED000734A0CFB05FC1068B3F86E101A6F1B8BFD
:108EE00013F4806318BF06F1800304EB0C06368B85
:108EF00018BF1B1916F4807618BF0CF174064FF0DA
:108F0000A80C0CFB05F504EB050CBCF818C018BF49
:108F100036191CF4007C0EBF644688356419CDE90F
:108F2000006412F009FD0446002220213846FFF7B4
:108F3000ABFE24B140F2F4615A4804F0ABFA0020D1
:108F400003B0F0BDE2B9564AB3F86E1010681A6F5C
:108F50001B8B13F4806318BF06F180034FF0A80643
:108F600006FB05F504EB0506368B18BF1B1916F436
:108F700000761CBF88356619009612F0A9FCD2E76E
:108F800040F2EE61474804F085FA0024CCE70B8BF1
:108F90005A077FF57AAF4FF40040FFF715FE18B17E
:108FA0000B8B1B047FF56BAFA821694363181B8BE8
:108FB00018060AD53A4B94312144186813F034F856
:108FC000002280213846FFF75FFEA82606FB0546F3
:108FD000338B9A070AD53248B6F86630B6F8642063
:108FE000B16E006813F091F9A6F86600012208211D
:108FF0003846FFF749FEA82303FB05431B6FDB0739
:1090000004D5012210213846FFF73EFEA82303FBBA
:1090100005F6A31993F86C20022A27D1204AB3F849
:109020006E1010681A6F1B8B13F4807318BF06F153
:1090300074034FF0A80606FB05F504EB0506368B16
:1090400018BF1B1916F400761CBF883566190096E8
:1090500012F064FC0446002204213846FFF714FE97
:10906000002C3FF46CAF40F22D7165E7012A0ED160
:109070000B4A1D8BB3F86E1010681A6F15F400734D
:109080001CBF06F188031B1912F014FCE2E740F242
:109090002771044804F0FEF90024DCE7204F00208B
:1090A000184F00208B3D04002DE9F04F934697B0F8
:1090B00004460293FFF7A8FD1BF0080F814610D06D
:1090C000844D032107AA286813F03EF911AA01462E
:1090D000286813F044F920B140F243617E4804F05F
:1090E000D9F91BF4001F03D020460CA913F030F966
:1090F0004FF00008794DCDF80480029BD5E9044675
:109100001E402B685FFA88F70BEA0404002B6AD034
:1091100004F0AA4306F02202134305D0B94570D0EB
:1091200024F0AA4426F022061BF4005F11D0A823E5
:109130006A4A03FB08231B8B5B0640F1A7800122D0
:1091400008213846FFF7A0FD002240213846FFF7EE
:109150009BFD1BF4804F0DD0A823604A03FB08231E
:109160001B8B180540F1958000224FF400613846B2
:10917000FFF78AFD210711D5594B6A8B1B889A424C
:1091800040F08C809DF84DA0BAF1000F40F0848033
:109190009DF82C2095F861301A427FD004F002032C
:1091A00006F04002134306D0B94500F0828024F057
:1091B000020426F04006A3020CD5494B6A8B1B889B
:1091C0009A4205D19DF8402095F861301A4204D1A9
:1091D00024F4001454EA060305D02B6822461968CB
:1091E000284633468847A835B8F1000F06D0019BC2
:1091F0000BB1FFF729FE17B0BDE8F08F4FF0010863
:109200007BE7B5F86620B5F86410531A9BB2039358
:10921000304BCDE90421186813F0C0F8DDE90421D2
:10922000039B824683420AD2891AA86EB5F866303B
:109230005144A3EB0A0210FA81F139F074FAB5F83F
:109240006600244BA0EB0A0AA5F864A0186812F087
:1092500069FF024648B9082103903846FFF714FD1C
:1092600040213846039AFFF70FFDE10104F08072B8
:1092700003D410213846FFF707FD1820FFF7A4FCA0
:109280000028019B08BF012301934DE724F40054FB
:109290005FE724F480446DE7B94502D024F0080468
:1092A0007CE7002210214846FFF7EEFCCDF804A031
:1092B00074E7A823094A03FB08231B8BDA067FF512
:1092C0007AAF002210214846FFF7DEFC012301930C
:1092D00071E700BF184F00208B3D0400204F002095
:1092E0003411002038B5002205460C46FFF7CCFCAF
:1092F000A820074B00FB0530038B1C4205D1038BD4
:109300001C420CBF0120002038BD0020FCE700BF3C
:10931000204F002010B50446FCF748FC04490A8899
:1093200092B242EA0403BDE810400B80FCF742BC55
:109330001C4F002010B5144C2388D80704D440F2E9
:10934000F451124804F0A6F82388990704D540F296
:10935000F5510E4804F09EF80D4C0220FFF7DAFF9D
:10936000238BDA0703D563680BB120469847B4F81E
:10937000C030DB0706D5D4F8AC301BB1BDE81040D7
:109380000448184710BD00BF1C4F00208B3D04004F
:10939000204F0020C84F00202DE9F84300244FF64D
:1093A000FF754FF000084FF000094FF400474FF4ED
:1093B00088561649C1E904890C600C834C664D83BC
:1093C000A1F894408F8301F13C00FFF70DFCC1E947
:1093D0002E89A1F86060C1F8A840A1F8C040C1F88A
:1093E0000C41A1F8C250A1F83C41A1F8C47001F1B0
:1093F000E400FFF7F9FB064BA1F808611C80054B60
:1094000005481D80BDE8F843FFF7EEBB204F002064
:109410001C4F002034110020705000202DE9F8432B
:1094200006468846FCF7C2FBDFF8B0900746D9F83D
:109430000050AE4209D085B1D9F8A8309E4209D07B
:1094400053B100242046BDE8F8830024A82303FB81
:109450000494F7E70124F9E70125A82404FB05F3A8
:1094600009EB0302C2F8048001222846114649F89C
:109470000360FFF709FC144B05FB04941A88D2071C
:1094800014D40120FFF746FF1049114812F038F9B3
:10949000104A106018B9CC210F4803F0FBFF384682
:1094A000FCF788FB012012F0B5F9CBE71B889B077E
:1094B000F5D5002201212846FFF7E6FBB8F1000FA1
:1094C000EDD02046C047EAE71C4F0020359300004E
:1094D00024110020184F00208B3D0400204F002055
:1094E00010B5FCF763FB0B4B04461B885B070CD4E1
:1094F000094B0A49186813F0EFF918B1EF21084831
:1095000003F0C8FF0420FFF705FF2046FCF752FBDD
:10951000002010BD1C4F0020184F0020F03D04001B
:109520008B3D04002DE9F041FFF740FB0128064682
:1095300003D9FE212D4803F0ADFFFCF737FB0746AA
:109540004FF40040FFF740FB044638B1A822284BF7
:1095500002FB06331B8B190446D50024DFF89080EC
:10956000244DB44231D0A82303FB04831B8B1A057E
:1095700014D501222868114612F027F91E4B1988CC
:109580004FF6FF73994203D00022286812F00AFABE
:109590004FF4804200232868FFF786FDA82303FBD1
:1095A00004831B8B5B060FD50121286812F0ECF9B0
:1095B0004FF4005200232868FFF776FD4FF08052E9
:1095C00000232868FFF770FD64B101224FF40041C9
:1095D0003046FFF759FB00243846FCF7EBFA2046EB
:1095E000BDE8F0810124BCE70124F5E78B3D0400D0
:1095F000204F0020184F00203411002038B5FFF70D
:10960000D5FA0128044604D940F22D110F4803F081
:1096100041FFFCF7CBFA05464FF40040FFF7D4FAC0
:1096200030B1A8220A4B02FB04331B8B1B040BD561
:10963000204600224FF40041FFF726FB0024284675
:10964000FCF7B8FA204638BD0124F8E78B3D04004A
:10965000204F00202DE9F7439846DDE90A65FFF722
:10966000A5FA01289146074604D94FF4A4711E4873
:1096700003F010FFA8231D4C03FB0743D3E9042389
:1096800082EA060083EA050101EA080500EA090604
:1096900056405D40FCF78AFA804637B1D4E90403AE
:1096A000012F04D130432B4305E030462B46D4E94B
:1096B0002E1208431343CDE900030D494FF0FF324A
:1096C0004FF0FF33086812F0B4FC814620B9A8209F
:1096D00000FB0744C4E904654046FCF76BFA4846C2
:1096E00003B0BDE8F08300BF8B3D0400204F002095
:1096F000184F002008B5074B1B881B0707D408200C
:10970000FFF708FE044B0821186812F02BFA00201E
:1097100008BD00BF1C4F0020184F002073B5FFF795
:1097200045FA01280E461446054604D94FF4C17186
:109730000C4803F0AFFE022C12D8FCF737FA542283
:1097400002FB0544084A019002EB4404A4F842607D
:10975000FFF7DCFA0198FCF72DFA002002B070BD8B
:109760000120FBE78B3D0400204F0020F8B5FFF7F8
:109770001DFA01280D461446064604D94FF4CD7152
:109780000D4803F087FE022C14D8FCF70FFA0746A9
:1097900015200934E4B210FB0646084C28686968B5
:1097A00004EBC60403C4FFF7B1FA3846FCF702FA2B
:1097B0000020F8BD0120FCE78B3D0400204F002075
:1097C00073B5FFF7F3F901280E461446054604D990
:1097D0004FF4D9710C4803F05DFE022C11D8FCF750
:1097E000E5F9542202FB0544084A019002EB4404C7
:1097F000A687FFF78BFA0198FCF7DCF9002002B08E
:1098000070BD0120FBE700BF8B3D0400204F00200E
:10981000F8B5FFF7CBF901280C461746054604D9E1
:1098200040F2FB11124803F035FEFCF7BFF9A82106
:10983000104B064601FB05314FF400404C83FFF707
:10984000C3F910B10B8B1B040FD50B4B1C80FFF71A
:109850005DFA0A4B21463A46186812F0A3F804460E
:109860003046FCF7A7F92046F8BD0024F8E700BF12
:109870008B3D0400204F002034110020184F0020A1
:10988000F8B5FFF793F901280E461746044604D9A8
:1098900040F21A211D4803F0FDFDA8204FF6FF738A
:1098A0001B4D1C4900FB04544FF400406383FFF739
:1098B0008BF9194C60B94FF6FF726B8B93420AD04B
:1098C0000B8020681946BDE8F840002212F06AB803
:1098D0002B8B1A04EFD44FF40040FFF775F978B9D9
:1098E0004FF6FF72B5F8C2309342E9D14FF6FF73DD
:1098F0003A460B8020683146BDE8F84011F065BF5C
:10990000B5F8C0301B04EBD4F0E700BF8B3D04007A
:10991000204F002034110020184F0020014B186800
:1099200012F08EBB184F0020014B186811F018BFC1
:10993000184F0020014B186813F006B8184F00208C
:10994000014B186812F034BB184F0020014B186807
:1099500012F001BD184F0020014B186812F016BC20
:10996000184F0020014B186812F079BC184F0020E6
:10997000014B186811F036BF184F0020014B1868D2
:1099800012F040B9184F0020014B186812F03EB891
:10999000184F0020014B186812F000B9184F002032
:1099A000014B186812F0FEB8184F0020014B1868E0
:1099B00012F041BB184F00202DE9F34180461C46B0
:1099C000FFF7F4F801280E461746054604D940F281
:1099D000A3210D4803F05EFDA8230C48002C03FBD7
:1099E000050294634FF0200213FB05253146084B16
:1099F0003A4608BF2346CDF80080284411F043FFC3
:109A000002B0BDE8F08100BF8B3D0400204F002074
:109A1000518C000010B5FFF7C9F80128044604D99D
:109A200040F2B121064803F035FDA820202310FBA9
:109A3000043404482044BDE8104011F031BF00BF99
:109A40008B3D0400204F0020014B186812F09CBB96
:109A5000184F0020014B186812F0F0BB184F00207F
:109A6000014B186812F070BC184F0020014B1868A9
:109A700012F075BC184F0020014B186812F071BC31
:109A8000184F0020BDF8000000900248006812F056
:109A900087BC00BF184F0020014B186812F0A2BF0E
:109AA000184F0020014B186812F052BC184F0020CC
:109AB000014B186812F09CBC184F0020014B18682D
:109AC00012F08EBF184F0020014B186811F046BEEF
:109AD000184F0020014B186812F013BC184F0020DB
