:1000000000100020B901000075010000150B000070
:100010007501000075010000750100007501000008
:1000200075010000750100007C2A000075010000C8
:1000300075010000C42A0000750100007501000070
:1000400075010000750100007501000075010000D8
:1000500075010000750100007501000075010000C8
:1000600075010000750100007501000075010000B8
:1000700075010000750100007501000075010000A8
:100080007501000075010000750100007501000098
:100090007501000075010000750100007501000088
:1000A0007501000075010000750100007501000078
:1000B0007501000075010000750100007501000068
:1000C0007501000075010000750100007501000058
:1000D0007501000075010000750100007501000048
:1000E0007501000075010000750100007501000038
:1000F0007501000075010000750100007501000028
:100100007501000075010000750100007501000017
:100110007501000075010000750100007501000007
:1001200075010000750100007501000075010000F7
:100130007501000010B5054C237833B9044B13B199
:10014000044800E000BF0123237010BD68100020A8
:1001500000000000882B000008B5034B1BB10349C9
:10016000034800E000BF08BD000000006C10002044
:10017000882B0000FEE70000054B064A06498B422B
:1001800000D3704752F8040B43F8040BF7E700BFA5
:1001900008100020942B0000681000200021044B60
:1001A000044A934200D3704743F8041BF9E700BFA9
:1001B000681000204013002008B5084B83F30A881C
:1001C000074B084AC3E9002200F00EF800F014FDC6
:1001D000FFF7D2FFFFF7E2FF00F0A0FC00000020D5
:1001E00000100020A5EDF5FE044B054A9A60D3F8F7
:1001F000882042F47002C3F88820704700ED00E0C8
:100200000000000070B50024A36A06461A69556B09
:10021000AA4201D3012070BD5B69AB42FAD92846DE
:1002200000F0F4FA0028F5D02B6913F0FE0F0AD184
:10023000102205F1280106F10C0002F079FBB0FA5A
:1002400080F04009E7E72046E5E700000023024A86
:100250001370024A1370704784100020851000202C
:1002600038B503780546042B0C4650D008D8012B2E
:100270000AD0032B50D0182340F6031023700DE052
:10028000182B49D0432BF5E7264B42781978D9B97A
:10029000012A04D0152340F60410237038BD1A70CB
:1002A000AB781A44FF2AF5D100228021E81C01F026
:1002B000EEFD95F88320C0F30F239A4216D0152344
:1002C00040F602102370E9E7174B1B78934204D1E4
:1002D000062340F606102370E0E70133DBB29342B9
:1002E000DED0152340F605102370D7E795F884304B
:1002F000C0B2834204D0152340F601102370CDE72D
:100300006A78094B00201A7006232370C6E706237B
:1003100040F607100B70C1E7182340F60810237051
:10032000BCE700BF851000208410002000F01AB840
:1003300000F01AB80149024800F04CB894290000B6
:1003400088100020704710B5044600F0C9FE182C34
:1003500007D1204600F0C4FE2046BDE8104000F062
:10036000BFBE10BD00F0D0BD10B592B047221849F5
:10037000684602F0EDFA00F081FB0A22C0F3036345
:10038000092B8CBF373330338DF81430C0F303435F
:10039000B3FBF2F102FB113300F00F0030338DF8A4
:1003A0001730B0FBF2F302FB130001F130043030E0
:1003B00003F130018DF819108DF81A000122472140
:1003C00068468DF8164000F053FE002012B010BDB4
:1003D000A42900002DE9F04F0024ADF5277D4FF44E
:1003E0009472064688465CA821468DF8134002F0B8
:1003F000BCFA2146682206A802F0B7FA2146682214
:1004000020A802F0B2FA3C2700F01EFD01244FF0B4
:10041000FF35DFF82C93DFF82CA3DFF82CB3062C84
:10042000FDD8DFE814F00B000F00200043005D0052
:100430005301BF000424F2E70446F0E7FFF794FFFE
:100440000124ECE74FF47A7105A800F0D3FE40B91F
:100450009DF81430313BDBB2022B8EBF0446B44A08
:10046000D45C3C27DBE701221121B24800F000FEFA
:100470002C220021304602F078FA202320AA06A977
:100480005CA801F081F80024FF230121052073708E
:10049000748000F0F9FC00F037FE18B1012120460D
:1004A00000F0B2FEFFF7D2FE0324B8E74320FFF7C7
:1004B0004AFF00214FF47A7000F0E6FC00F024FEC1
:1004C00018B900F007FD0028F8D000F01DFE002844
:1004D000B0D1013FA3D11820FFF735FF00249EE7DC
:1004E000002185220DF1E90002F03FFA002140F6DB
:1004F000B83000F0C9FC00F007FE78B34FF47A730F
:100500000093012305AA19460DF1E90000F020FE31
:100510009DF8E930012B0DD140F6B83284210092CC
:100520000DF1EA0005AA00F013FE059B0546842B99
:1005300018D1C8B90DF113010DF1E900FFF790FED4
:1005400040F607139842054614D1B3780BB1F378FF
:1005500013B918238DF8133006241DE000F0BAFCFF
:100560000028C8D040F2047515208DF81300FFF75D
:10057000EAFE54E780B99DF8E930012B0CD18023C5
:100580003146CDF800803BAA5CA801F041F8054651
:1005900010B118238DF813309DF81300182808BFE8
:1005A0000624E4E70121002000F02EFE01210A20AC
:1005B00000F06AFC9DF813300122062B08D140F6AA
:1005C00007139D4204D11B215B4800F051FD85E7D4
:1005D0001A21504600F04CFDA5F51063B3F5E06F0D
:1005E0004FF0010222D21121544800F041FD40F6A3
:1005F00006139D4222DD9DF813309F2B4FEA131006
:100600008CBF3730303000F06BFD9DF8130000F0E8
:100610000F0009288CBF3730303000F061FD0D200D
:1006200000F05EFD0A2000F05BFD57E71021584600
:1006300000F01EFD40F606139D420BDCB5F5106F71
:10064000D9DDA5F60213042B2CD8DFE803F02D2505
:10065000292F3100A5F58053013B092BCBD8A5F5F7
:100660008053013B092BC6D801A252F823F000BFEA
:10067000C5060000F7050000F7050000C9060000E8
:10068000B9060000C1060000C5060000BD06000056
:10069000B5060000C506000021238DF81330AAE737
:1006A0002223FAE72323F8E72423F6E72523F4E7B8
:1006B0002723F2E74123F0E74323EEE74423ECE767
:1006C0004523EAE74F23E8E75023E6E7B3784BB347
:1006D000F3783BB3337813F004040AD0B06A00F027
:1006E000F3F900283FF4A8AE4FF4004000F096F96B
:1006F000F4E69B0711D57368039300F0BFF9039BE1
:10070000834204D94FF40040716A00F045F9012298
:100710001321484600F0ACFC81E640F2012000F0D5
:100720004BFBF4E740F2032000F046FBD6E600BFA7
:10073000EB290000462A00002B2A0000572A00005F
:10074000EE290000112A0000012A00004FF0984312
:100750005A6CD202FCD5586D00F470207047C0F37B
:100760000C032DE9F04105460F4616460BB900F083
:100770004CFB05F5005424F4FF5424F01F0405EB52
:100780000608A04507D8324639462846BDE8F0415C
:10079000022300F041BB204600F037FB04F5005473
:1007A000EFE770B40025AD6A03462E69864206D88D
:1007B0006C6913449C4202D370BCFFF7D0BF70BC7D
:1007C00070471FB510F5004F00F500431446039322
:1007D0001AD2039BB3F5FC2F16D2039BC3F5FC235F
:1007E000934211D348B9836A5A69B2F5004F04D9CC
:1007F0001869019100F009FB01992246039804B0A1
:10080000BDE81040FFF7ABBF04B010BDF0B5421E0D
:10081000D11C034685B019D86E460D4C04F1100763
:10082000354620686168083403C5BC422E46F7D1BE
:100830000DF10F010F3311F8010912F8014F844235
:1008400004D19A42F7D1012005B0F0BD0020FBE7AA
:10085000682A0000036913F0FE0F0CBF012000207E
:10086000704738B504460D46FFF7D0FF48B16369BD
:10087000012B09D12046FFF7EDFF08B1A3692B60DA
:1008800038BD01202C60FBE70020F9E72DE9F0419D
:100890000368044603F16043B3F5803F4FF0000066
:1008A000A0B029D8826A636816699E4224D8B3F53D
:1008B000002F21D8656B06F14003AB4268D8B5F52F
:1008C000002F65D82846FFF7A1FF002860D02846F2
:1008D000FFF7C0FF80B16B6973B1022B0FD1AB6919
:1008E000C4F1040119444FF0FF32204601F0DCFA54
:1008F000284BC31A5842584120B0BDE8F08140F25D
:10090000046328460493FFF781FF08B90020F3E74A
:100910002846FFF79FFF0028F8D00027D7F834803B
:100920004046FFF773FF0028F0D0503EB045EDD8A9
:10093000284605A9FFF795FF0028E7D0BA6A059B6E
:1009400012699A42E2D89C42E0D8B3F5002FDDD874
:1009500006A801F069FB059A2146121B06A801F0C2
:100960006DFB06A801F06CFB059C01F06DFB03908C
:1009700001F082FB21460090039B04F1200206A8AF
:1009800001F0D8FA04900498B0FA80F04009B3E777
:100990000120B1E7E320BBDE70B54FF0FF3290B02D
:1009A00005460C4601F080FA194B98422DD11C22C5
:1009B000002101A801F0D9FF164B29466846009393
:1009C00001F0BFFD2146684601F0BBFD684601F01D
:1009D000C1FDFFF7BBFE0646B8B940F2022000F0A9
:1009E000DFF91C22314609A801F0BFFF0A4B294656
:1009F00008A8089301F0A5FD08A8214601F0A1FD73
:100A000008A801F0A7FDFFF7A1FE002010B070BDFF
:100A1000E320BBDE010005430100064330B5044678
:100A200091B01C22002101A801F09FFF114B21462B
:100A30006846009301F085FD684601F08BFDFFF7E5
:100A400085FE054698B940F2022000F0A9F91C2263
:100A5000294609A801F089FF074B08A821460893F9
:100A600001F06FFD08A801F075FDFFF76FFE002093
:100A700011B030BD000002430000034300239B6A15
:100A80009868704710B58CB01C220446002105A858
:100A900001F06BFF0A4B0194049301230293094B6D
:100AA00001A904A8039301F042FD04A801F052FD3E
:100AB000FFF74CFEB0FA80F040090CB010BD00BF4B
:100AC00000000843040000204FF0FF3313B5044634
:100AD00001A80193FFF7D6FF20B1019BA3422CBFD1
:100AE0000020012002B010BD4FF4004070470020EC
:100AF000704700207047000040B139B100230B60FF
:100B0000034B03600B6843F400530B60704700BF56
:100B1000142400404FF4017000F04EB913B501A841
:100B200001F05CFD9DF80530012B27D12B4A936D18
:100B3000DB0313D4536B23F4FF0323F4FE4343F48A
:100B4000BC1343F4A0635363136B23F4704343F467
:100B500040431363136B43F4E06313639DF8043065
:100B600063B94FF000531B681D4B1B681D4B1B687E
:100B70001D4B1B681D4B1B681D4B1B681D4AD2F883
:100B8000803043F00303C2F88030FFF7B0FF00F07D
:100B9000F5F8FFF7CBFBFFF7CBFB18B14FF4017073
:100BA00000F00AF9FFF7C6FB0446FFF7CBFB1CB1C8
:100BB00040F203739C4203D140F2012000F0FCF8A4
:100BC000A4F20574012C94BF40F203204FF401708D
:100BD00000F0F2F8002002B010BD00BF00C00040DD
:100BE000004000200080002000C000200000012004
:100BF000004001200080004013B501244FF0402345
:100C00008DF806408DF80740D3F894305B060BD57D
:100C100000F0E6F8A0F2022080B2072804D804FA17
:100C200000F010F0C90F02D100F050FB20B10023FA
:100C30008DF806308DF807304FF480435B68013340
:100C400008D14FF4027000F0ABF800238DF80630A5
:100C50008DF807309DF8073063B14FF48040FFF7FF
:100C600015FE8DF806009DF806301BB94FF4027092
:100C700000F096F89DF8063063B14FF48043064AC1
:100C800093601846016881F3088881F309884068F9
:100C90008746FEE702B010BD00ED00E0B1F50D7F24
:100CA00010B5044610D34FF40D72002101F05DFE23
:100CB000002304F5DE72637004F5AA7104F12C00C0
:100CC000BDE8104000F060BC40F2052010BD13B537
:100CD0000446009101462C3000F09AFCC4F8300222
:100CE00018B141F20703984209D1A3784BB140F201
:100CF000032040F20223E278002A08BF184602B01F
:100D000010BD40F20120FAE72DE9F04387B00DF164
:100D1000080904460E4617460021102248461D4683
:100D2000DDF8388001F021FE00211C22C8F80010F7
:100D3000284601F01AFE32463B462146CDF8009087
:100D400004F12C0000F064FC23789A0744BF626829
:100D5000C8F80020DB0705D51C22284604F108014D
:100D600001F0F6FD237840F20640002B18BF00206A
:100D700007B0BDE8F0834FF40D7070474FF000539B
:100D80004CF23C325A8070474FF000534AF6C03064
:100D90005B8823F00F039BB21B1A584258417047DF
:100DA0004FF0005208B51080FFF7EEFF10B94FF278
:100DB0000F03538008BD000008B5FFF7F1FFBFF334
:100DC0004F8F0549054BCA6802F4E0621343CB60BC
:100DD000BFF34F8F00BFFDE700ED00E00400FA0510
:100DE0004FF000534FF20F015A888A4201D1188800
:100DF00070473AB91B8840F20220012B18BF4FF40C
:100E0000007070474FF40070704708B501F0EEFABB
:100E1000B0FA80F0400908BD072B10B5044618460B
:100E20000FD862B142EA04039B070AD113460A466F
:100E3000214601F0FFFAB0FA80F0400910BD012010
:100E4000FCE70020FAE700001FB500F0FBF94FF4C3
:100E50007A23B0FBF3F00A4B0E221860002168469B
:100E600001F083FD01238DF8003040F2FF33694625
:100E70000448ADF8023001F0C6FB05B05DF804FB94
:100E8000B81000200080044030B50D4D0D4A2D688B
:100E9000536A15FB00F010FA83F09CB280B2A042B6
:100EA0002CBF00240124084B1880084B1C7011B182
:100EB000536A8342FCD1012305494B61936130BDE4
:100EC000B810002000800440B4100020B6100020AC
:100ED00000A00440094B0A4A5869127800F001004A
:100EE0000AB108B9704738B9586A064B1B8898424E
:100EF00034BF00200120704701207047008004406B
:100F0000B6100020B41000202DE9F8430125DFF8C9
:100F10003081424BD8F80020414F02F13C019960EA
:100F200002F124037B627B6002F580535D6040F632
:100F3000AA630024536141F205033A4E3A4802F590
:100F400000519460D465D3601461D461D464886422
:100F5000C6F8CC45C6F8E445C6F8DC45C6F8D44525
:100F6000C6F8D845D36093684FF4A029936000F089
:100F700069F92E4B06211A6F4FF4E113C2F3802258
:100F80002A44B0FBF2F202F5E1425201B2FBF3F265
:100F9000274B203A03EAC202D8F800302046DA6133
:100FA0002B46042201F0B6F92B462A46052120469D
:100FB00001F0B0F914230422C6F8CC354FF4C02355
:100FC0001146C6F8E43528462B46C6F8DC9501F0F4
:100FD000A1F90522D8F8003016495A614FF0F053B4
:100FE000154A55609360154B5462946314645465BC
:100FF000C3F800901466D465176759600321A3F500
:101000000053C2F89040C2F88C40596302239564A3
:1010100002F580521361BDE8F88300BF481000203C
:101020000810002000C00340FFFF010000800040C6
:10103000F8FF7F000200050000000440004004406B
:1010400058100020084B586B10F0020006D0022206
:101050009A6203F5005301205A637047DB6A9B07CD
:10106000FBD40222014BF6E70000044000200440BC
:101070007F2938B50446154624D8FFF7E3FF20B38F
:101080002046134B621890420DD1124B01391A8839
:1010900061F30E121A80104AC2F8A0300223936442
:1010A00035B9002038BD10F8014B03F8014BEAE7D1
:1010B000FFF7C8FF0028FBD0084B1A6893699B060E
:1010C000FCD5EEE741F20310ECE741F20620E9E738
:1010D000C0120020481000200000044058100020DA
:1010E000014608B5FFF7AEFF0028FBD0054B1B6893
:1010F0009A695006FCD5D9639A699206FCD50020FE
:1011000008BD00BF581000200E4BD86E40F20113EE
:1011100098420FD040F2022398420DD00A4BC01AD9
:101120000A4B1B6883420AD02ABFC3F50073C01A5A
:10113000C01870470020F3E74FF48070F0E70020FC
:10114000704700BF00000440BC100020BC1200200B
:101150002DE9F843089F04460D461646F3B9FFF7FC
:10116000D3FFA84228BF284600214FF001084FF0C6
:1011700002091D4ADFF878E013681C4F04EB000CED
:1011800064451DD101B1136006B1306041F2042302
:10119000A84234BF18460020BDE8F8832FB1FFF7FE
:1011A00053FE00213846FFF76FFEFFF7ADFFA84260
:1011B000D5D2002FF9D0FFF78DFE0028F5D0CEE76D
:1011C0001EF803100133B3F5007F04F8011B04D1AE
:1011D0000023C7F810900121D2E7B3F5807F08BF44
:1011E000C7F81080F7E700BFBC12002000100440D1
:1011F000BC100020012307B5002200911946FFF71B
:10120000A7FF03B05DF804FB10B10222094B9A62FC
:1012100071B101220020074B07499A624A630749CE
:101220001967074908609A64022203F580531A611E
:1012300000207047000004400020044008100020F7
:10124000BC12002030B51A4B87B001AA03F110057B
:10125000144618685968083303C4AB422246F7D1D4
:101260001B782370134B1B6F03F00703032B1BD05A
:10127000114A9368C3F30443102B17D818336B44F7
:1012800013F8143C0D480E4943438B4203D1926836
:10129000C2F30162D340074A106FC0F3013001303E
:1012A000B3FBF0F007B030BD064BF4E7064BF2E7B6
:1012B000142B0000008000400000014040420F005D
:1012C00000093D0000F04902C0EA2101012313B5E5
:1012D00004221846002101F01DF800230093009B12
:1012E000632B18DD012302221846002101F012F8B9
:1012F00000230193019BB3F5FA7F0FDB094B00221A
:101300005C6C01231146184601F004F8E04300F03C
:10131000010002B010BD009B0133DFE7019B0133E8
:10132000E7E700BF00C0034000207047002070477F
:1013300070B5D1E90152AA4205D290F840302B4451
:101340009B1A402B10D9002012E00A6890F8404008
:10135000D65C90F841200133224402F03F02013470
:1013600086548B6080F840408B689D42EDD8012008
:1013700070BD2DE9F8431D461746D1E901329B1A8D
:1013800090F84020044613449D420E469DF820905C
:101390009DF8248056D9FFF7CBFF00285CD1142399
:1013A00041F2020084F84630BDE8F88394F8412009
:1013B000A25CFA5494F841200133013202F03F025A
:1013C00084F8412094F84020013A84F8402094F8B1
:1013D00040200AB19D42E9D1D6E90121914201D2D2
:1013E0009D4231D89D42DAD129463846D4F888202A
:1013F00000F05AFDC4F88800B9F1000F04D02A4665
:101400003946E06C00F01AFEB8F1000F08D094F8ED
:1014100043308BB12B463A463946A06C00F078FD3C
:1014200094F8433043B1E36DA26D2B449342E365DE
:1014300024BF002384F84330636D41F203002B4442
:101440006365B1E70023C2E73268525CFA54B268C0
:1014500001330132B260BFE70020A5E77FB500236A
:10146000CDE90033082315460DEB03020446FFF7D0
:1014700080FF41F203039842064626D194F8433098
:1014800063B10822E06C0DEB020100F0D7FD0823E8
:101490000DEB03021146A06C00F03AFD039A029B8B
:1014A0006A6094F843202B605AB9094A934208D0E5
:1014B000084A934205D00822E06C0DEB020100F0CF
:1014C000BDFD6B68236500236365304604B070BDC5
:1014D000F70A0AF7FC0404FC2DE9F74304465868B0
:1014E0000D4617469846002848D011F0030348D10E
:1014F0009B6A216E1B6902EB010C1E1D66451CD800
:101500001C33994219D28E42304638BF08469C455A
:1015100094BFC0EB0C02C0EB0302411AC6F168068F
:1015200005EB0109304449462044019201F010FACC
:10153000FF214846019A01F018FA48F20406236E8A
:10154000B34211D848F20702F91891420CD9F61AA1
:101550002E440422314604F1800001F0F9F90422FE
:10156000FF21304601F001FAD8E900363A46206EF4
:101570002946B0470020226E3A44226603B0BDE8F7
:10158000F08341F20200F9E72DE9F04100254FF028
:10159000FF3804460F46164603F0200380F8423019
:1015A0001822FF21C0E91855A0F8405080F8435098
:1015B000A0F8445080F84650C0F88880683001F0A8
:1015C000D4F90422FF2104F1800001F0CEF90422B5
:1015D000FF2104F1840001F0C8F988222946C4E9FA
:1015E000127604F1900001F0C0F940F20113A4F862
:1015F00024310123C4E9475884F8185184F826316E
:1016000016B1E06C00F010FD0020BDE8F081000094
:101610002DE9F04FA7B0CDE9132302930023044630
:101620000E46309DDFF8B8931593159A029B9A42A7
:1016300001D30020C7E094F84630142BF6D8DFE839
:1016400013F06700AE00A800520039002E005602C9
:1016500039004E023900080239004E02A20311047B
:1016600015008C0149034903DB0211044FF0000807
:10167000636D0F2B00F291800127102316AA2046DC
:10168000CDF80480009713A9FFF773FE41F203031E
:101690000990099A9A4200F05281099B44E001277F
:1016A000D4E91432934200F25E8184F8467041F22C
:1016B000030339E04FF0FF0BD4E91437BB426CD978
:1016C000DB1BDDE91472BF1A94F84020032B17448A
:1016D00040F21182032F00F21182204613A9FFF776
:1016E00027FE002320E00127636D072BDFD80823A6
:1016F00016AA2046CDE9007713A9FFF73AFE41F27A
:1017000003030C900C9A9A4200F0B8810C9B0BE0FA
:1017100016AA204613A9FFF7A1FE41F20302069084
:10172000069B934202D0069B059345E0179A1699B3
:101730002265002262659F4A914240F0AA810222FE
:1017400084F84620F0E7012316AA009320460823D8
:10175000019713A9FFF70DFE41F203030790079AC3
:101760009A4201D0079BDFE7169B03F07F43B3F15A
:10177000407F05D0142384F8463041F20903D3E7B3
:10178000179BD80706D594F8423043F0010384F83C
:1017900042300027636D072BD5D90123A4E12046F1
:1017A00016AA13A9FFF75AFE41F203030890089FF7
:1017B0009F420BD0089F059741F20303059A9A4276
:1017C0003FF433AF059827B0BDE8F08F94F844207C
:1017D000169B2AB1784A934240F087800D2336E069
:1017E00094F84220D10741D594F84320002A3DD1F6
:1017F00072498B4233D022D8714A934275D014D8A3
:10180000704A934200F0888004D86A4A93426CD0B0
:101810004B456AD0142316A884F84630FFF784FDA0
:10182000002865D141F20807C5E7674A934279D09D
:10183000F0D8664A934258D0654A9342E9E75E4A37
:101840009342CBD006D8634A9342E3D10F2384F866
:101850004630B0E7604A934247D0604AEDE7102334
:1018600084F84630236DC4E91632A4E7584A9342FF
:101870004AD02BD8524A934244D022D84B453FD02D
:10188000504A934244D016A8FFF74EFD00284BD093
:101890001323169884F84630C4F88C00FFF746FDF1
:1018A00094F842309A0686D5002884D04368002BED
:1018B00081D0204698470890089B002B3FF47BAFCF
:1018C00016E0424A9342DED10323C0E7424A9342E4
:1018D0001CD010D83C4A934220D0374A9342D2D1F0
:1018E00094F84330002B3FF479AF142384F846304A
:1018F00041F201075FE7394A9342C4D10823A6E7C2
:101900000A23A4E70523A2E70623A0E70C239EE70A
:1019100094F84330002BE8D1112398E794F8433032
:10192000002BE2D1122392E7142384F8463094F876
:101930004330002B3FF476AF41F204073BE7D4F885
:1019400048A000F0B1FB80230221CDE9000317AAD3
:101950003B46504600F0BCFA8AE6012384F8433047
:1019600084F8463061E616AA2046CDE9007713A92F
:10197000FFF7FFFC41F203030A900A9A9A4201D052
:101980000A9BD1E606F108081C22404616A900F081
:10199000DFFF3378404643F001033370FEF732FC3B
:1019A00000287FF47DAE142384F8463041F20C0306
:1019B000BAE600BFEB17A603FC0404FCF90707F91D
:1019C000F40A0AF4F30B0BF3F70A0AF7F50909F521
:1019D000F60808F6FA0606FAFD0303FDFE0101FE0D
:1019E000EB17A65E337843F004033370199BB362A0
:1019F00073785B072AD5EB238DF8583017238DF8C1
:101A00005930A6238DF85A305E23042204F1500188
:101A100004F184008DF85B3000F09AFF002094F808
:101A20004530606643F0020384F84530EF686FB1DB
:101A300004222B6816A9B8470822606E2B68EF684D
:101A400018A91044B847636E103363660B2384F8FB
:101A50004630636D072B3FF62AAE012318AACDE965
:101A600000332046082313A9FFF783FC41F2030348
:101A70000B900B9A9A42B5D00B9B55E63378179A88
:101A800043F002033370169B7360236D083B73624F
:101A90002AB1142384F8463041F2010344E60423BA
:101AA00084F8463094F84530626643F0010384F8C8
:101AB000453019E6042316AA2046CDE9007713A97C
:101AC000FFF757FC41F203030D900D9A9A4201D0A3
:101AD0000D9B29E6236D042B02D9169B2366012753
:101AE000636D032BE6D9092384F84630DFE5002334
:101AF0006366072334E79F42FFF4EFAD402B28BF16
:101B000040239F4228BF1F460123032F88BF27F091
:101B100003070DF158084246CDE9003320463B4605
:101B200013A9FFF726FC41F203030E900E9A9A4286
:101B300001D00E9BF8E594F84620072A27D1D5F866
:101B400008A0BAF1000F22D02B683A464146606ED9
:101B5000D047636E3B446366AEE508F803B00133DB
:101B6000032BFAD9042FC7F1040A88BF4FF0000AEB
:101B7000092ABA440DD12B46524641462046FFF76A
:101B8000ABFC0E900E9B002B3FF496ADD1E73B468D
:101B9000E6E7042A25D173789F077FF58DADEB68C2
:101BA000002B3FF489AD636E042B10D80AEB0301C0
:101BB00006290CD917AFFF1A394604F184000392A5
:101BC00000F0C6FEFF213846039A00F0CEFEEF6813
:101BD000524641462B68606EB847676E5744676649
:101BE0006AE50B2A7FF468AD737858077FF564AD1A
:101BF000EF68002FECD15FE594F8427017F02007F2
:101C000007D0D4F88C00FFF791FB074600283FF47B
:101C100043AF4FF0010A42E04BB347B33B6933B3E4
:101C200020469847DDE9143294F840809B1A4344DB
:101C30008342FFF452ADD4E91421A2EB0108B8F1BC
:101C4000400F28BF4FF04008984528BF984616AA75
:101C500043462046CDE900AA13A9FFF78AFB41F2CB
:101C600003030F900F9A9A4203D00F9B5CE501206B
:101C7000D8E794F84230990611D5002F3FF40CAF05
:101C8000D7F808B0BBF1000F3FF406AF2B46424631
:101C9000204616A9D8470F900F9B002BE5D1D4E919
:101CA000142194F84230914203F02003B4D3002B66
:101CB0003FF473AD002F3FF470ADFB68002B3FF491
:101CC0006CAD2946204698470F900F9B002B3FF4A0
:101CD00064ADCAE700218A6A496B1269503A9142A1
:101CE0003FF6DAAE112B0FD194F81831002B7FF4A8
:101CF00054AD41F206031093109A9A4202D1142374
:101D000084F84630109B0FE594F84430002B7FF4A4
:101D100044ADCDE9003316AA4023204613A9FFF7AE
:101D200028FB41F203031090109A9A42EAD1E06C2A
:101D300000F086F994F81831A3B104F1B403E06C13
:101D400000931EAA04F1940316A900F0F3F8109072
:101D5000109B9BB10023F370142384F8463041F2AA
:101D60000603E1E4E76C00F06FF9039000F084F9FA
:101D7000039B00901EAA384616A9E6E70123F370DC
:101D800084F8443009E5002316AACDE90033204643
:101D9000042313A9FFF7EDFA41F203031190119AFE
:101DA0009A4202D0119B05930CE5D4F888202F4B62
:101DB0009A4205D0142384F8463041F20503F2E735
:101DC0000123F37094F84530DA0707D5EF682FB197
:101DD00004222B68104604F18401B84794F845307A
:101DE0009B0707D5EF682FB104222B68104604F13A
:101DF0008401B847236E73B36B6863B34FF0FF334E
:101E000004F18001042212A81293029100F090FDC7
:101E100030B1D5E90037042248F204000299B847EE
:101E200004F168090422494612A800F081FD90B12E
:101E300000239B6A1422D3F8108004F16C0108F18E
:101E40000800D5E90037B847D5E9003704224946EC
:101E500008EB0200B8470123B3700E2384F8463024
:101E60000023A0E741F20700ADE400BFE320BBDEA2
:101E700049BA89B24840C0F30313584003B283EA19
:101E80000033580100F4FF509BB25840704738B5FA
:101E9000044645181046AC4200D138BD014614F83E
:101EA000010BFFF7E5FFF6E730B501240025074BEE
:101EB00001445C609D601A61DC60884201D1586A0F
:101EC00030BD10F8012B1A62F7E700BF0080084010
:101ED000F7B5044620301D460F461646019000F027
:101EE000E3FBDDE90812019800F0E2FB00230C227D
:101EF0006364314684F8587004F1590000F028FDFD
:101F00002B0C6DBA84F86530A4F8665003B0F0BDB0
:101F10001FB50C46194600F14803CDE90142009374
:101F200000F1440200F15803203000F03DFC04B001
:101F300010BD00002DE9F04399B00E4615461C4631
:101F40000746DDF88090002861D000295FD0002A84
:101F50005DD0002B58D02F4B2F4AB9F1000F14BF82
:101F6000984690461C22002111A800F0FEFC2B4B45
:101F7000414610A8109300F0E4FA202110A800F0C8
:101F8000E0FA0122264B019402920393CDF81090BF
:101F90000592069354B1B9F1000F07D001A910A81A
:101FA00000F0BBFA04A910A800F0B7FA07970127C0
:101FB0001B4C07A910A80897099400F0AEFA0AA9CB
:101FC00010A80A960B970C940D950E970F9400F09D
:101FD000A4FA0DA910A800F0A0FA10A800F0BAFA0F
:101FE000104B00934FF098435A6CD202FCD55B6DB6
:101FF00040F2046003F470230093009B002B08BFA1
:10200000002019B0BDE8F083DFF80C80AAE740F2A9
:102010000160F6E71F2400801F24FC8400000106F5
:10202000200000207856341210B5044600F0EEF877
:102030002046BDE81040002100F0ECB800F0EFB8F9
:10204000014600F0F9B8000000B591B0002340222D
:1020500069464FF4807000F09BFAB0F5A02F07D0CE
:10206000B0F5302F034818BF002011B05DF804FB15
:102070000048FAE74CE3070000B591B00023402286
:1020800069464FF4807000F083FAB0F5A02F07D0B6
:10209000B0F5302F034818BF002011B05DF804FBE5
:1020A0000048FAE76CE307000048704786E2070043
:1020B0002DE9F34799460A9B0C46196805463F29C6
:1020C000164642D85A68002A41D0224A002E14BF30
:1020D000B046904601F03F07091928BF5A681960B9
:1020E00024BF01325A60AFB1C7F1400AA24521D8DE
:1020F0002946524609EB070000F02AFC012341461D
:1021000000934A463346002000F09EF8B046403C1B
:1021100055443C443F2C0CD9A3092A460093414620
:102120003346002000F090F824F03F031D4404F0F3
:102130003F0400272CB12246294609EB070000F096
:1021400007FC002002B0BDE8F0879046C2E7DFF848
:102150000480BFE7252B000030B405460846114631
:102160001A46DDE9023425B931B1029430BCFFF7DB
:102170009FBF024830BC70470846FBE780AFFFFFB7
:102180002DE9F0431546146887B09946E3008DF8B1
:102190000F30630956688DF80E30630B8DF80D30E3
:1021A000630D8DF80C30F30003EB54738DF80B3096
:1021B00004F03F047309372C8DF80A304FEA563388
:1021C00094BFC4F13802C4F1780207468846CDE9CD
:1021D00000158DF809300C490346760D00208DF866
:1021E0000860FFF7B9FF082143463A460DEB0100AE
:1021F0000095FFF75DFF20223946484600F0A8FB16
:10220000002007B0BDE8F083452B000068220021C4
:1022100000F0ABBB0023C0E900331846704707B598
:1022200000F128030190009300F108030020FFF75C
:1022300093FF03B05DF804FB02460B4600F1280152
:102240000830FFF79DBF0000F0B593B00E4617466B
:102250000446202200210AA81D4600F086FB01202A
:102260004FF0005201970290039204960590069257
:10227000079508900992002C2FD1189C184BA401A7
:1022800021460AA80A9300F05CF903990AA80C43B6
:102290000394069B04A943F020030693099B43F093
:1022A0002003099300F039F901A90AA800F035F9D3
:1022B00007A90AA800F03BF90AA800F04BF94FF073
:1022C00098435A6CD202FCD55B6D13F4702F0CBF8F
:1022D00000206FF06F0013B0F0BD6FF07100FAE7EF
:1022E00000040103EFF3108072B6704700B962B6C4
:1022F000704770B5054614460E46FFF7F3FF296890
:1023000081EA040202EA06044C402C60BDE87040F9
:10231000FFF7ECBFF8B504460D461F4616464AB116
:1023200001238B403021194A01FB0022FFB141F209
:102330001001535004EB4403072D4FF00F014FEAF7
:10234000031317D8A80006FA00F281401048184479
:10235000FFF7CFFF56B9012130230C4801FA05F5EC
:1023600003FB040077B141F21003C550F8BD42F2FF
:102370001001DEE7A5F10800800006FA00F28140B6
:102380000448E4E742F21003EFE700BF00C0034057
:1023900004C003400CC00340F0B5114A114C124E6A
:1023A00000F00105E3695F0713D40DB9334213D17F
:1023B00003EA00078F4207D10B4A1A40002A14BFD4
:1023C0006FF001000020F0BD013AEBD16FF0020088
:1023D000F9E74FF0FF30F6E76FF00100F3E700BFD9
:1023E00080969800000003400200010038B541F6D5
:1023F000713301220C4C0021E569E3630B4B05F4BA
:102400008035DA600223606121202361FFF7C4FF79
:1024100010B92120FFF7C0FF0122054BDA600DB192
:102420000023E36338BD00BF0000034000100340F9
:10243000002003402DE9F04F06464FF450250120BF
:102440002A4CDFF8B4C041F67137CCF8040044F8E8
:10245000265030250024DFF8A4E0DFF8A49005FB27
:1024600006E5EC652C662C67214CDFF898A0D4F8C3
:102470001C80E763E76800FA06F60743E7604BB99C
:10248000E26818F4803F22F00102E26000D0E363CA
:10249000184628E001F5005000EA0900401A984269
:1024A00028BF18466161D4F81CB087081BF0040FE0
:1024B00017D1013F3F0147F060576F66AA66C5F824
:1024C0006CA0CCF82460DEF834703E42FBD0094F9B
:1024D00001447E630427CCF82860024427611B1A5C
:1024E000CDE74FF0FF30BDE8F08F00BF0040044063
:1024F000000003400020044000100440000004409D
:1025000000E0FFFF180003404FF098435A6CD202DE
:10251000FCD5586D00F470207047436813B94160D2
:1025200070475B685A68012AFBD15960704783681D
:1025300013B9816070475B685A68012AFBD1596002
:102540007047C369032B9FBF00EB83020133D16047
:10255000C3617047C369042B15D84FF09842116CC2
:10256000C902FCD504339B0013650168103B116060
:1025700041680C30116050F8041C034411604FF0A6
:102580009842984200D1704750F8041B1160F8E758
:10259000F0B507460F4D10488DB0002B08BF05461B
:1025A0000E46144600211C2205A800F0DEF9012386
:1025B00004A801A93D4344F00054019604950293F8
:1025C0000394FFF7B4FFFFF7C5FFFFF79DFF0DB0C2
:1025D000F0BD00BF01000AFF010008FF054B5B6969
:1025E000C3F38512827003F03F021B0B427003702D
:1025F000704700BF00C00740036BDA0702D50369CC
:102600005B06F9D4704710B5FFF7F6FF012200F51D
:1026100000531A630B79044648881B0243EA80433F
:10262000487A03434878002814BF40200020034321
:10263000887A002814BF802000200343C87A00282D
:1026400014BF202000200343087B002814BF102063
:1026500000200343487B002814BF082000200343C8
:102660008879002814BF4FF4803000200343636052
:1026700004F580531A630A780AB90223E360002341
:102680006362C8790B7A497943EA8003002914BF51
:10269000102100210B43A3600AB10123E36010BDA8
:1026A00000207047002070472422002100F05DB90F
:1026B00070B515460E4624220021044600F055F957
:1026C00025F04003802B02D0B5F5807F08D120464D
:1026D000314640F8045BEA0800F03AF9002070BD8A
:1026E0006FF01F00FBE700002DE9F04104681E4673
:1026F00024F04003802B05468846174692B002D04E
:10270000B4F5807F43D11C2200210BA800F02DF9E5
:10271000224A234B0121B8F1010F18BF13460A9337
:102720002B1D0193E4081F4B44F0005402910AA8AA
:1027300003940497059106930796089101A90993BC
:10274000FFF7EBFE04A90AA8FFF7E7FE07A90AA80E
:10275000FFF7EDFE29680AA8C908FFF7F2FE10216D
:102760000AA8FFF7EEFEFFF79BFF98B90AA8FFF74C
:10277000F1FE4FF098435A6CD202FCD55C6DFFF726
:1027800091FF04F47024204612B0BDE8F0816FF090
:102790007100F9E74FF0FF30F6E700BF00010104D8
:1027A00000010004100000202DE9F04F9BB0074607
:1027B000894698461646DDF894B072B115683B68B4
:1027C00023F04002802A03D0B3F5807F40F0A6803A
:1027D0000BEB0903002400930DE01546EFE795B1DC
:1027E000249A1BF80430525D01355340269A05F0B7
:1027F0000F05135501344C45F1D3002E00F09180A4
:102800000020356067E0A9EB040ABAF10F0F57D931
:102810001C22294613A800F0A8F8434B3A681293EB
:102820003B1D03930123D20842F00052049305920A
:102830003E4A2699CDF818802AF00F0A079308928D
:10284000CDF824800A930B920BEB04020C922144E6
:102850004AF000520D9312A80E920F9103A9109303
:102860001192FFF75AFE06A912A8FFF756FE0CA90F
:1028700012A8FFF752FE0FA912A8FFF758FE09A9E8
:1028800012A8FFF754FE396812A8C908FFF759FECD
:10289000514612A8FFF755FEFFF702FFC8B912A86C
:1028A000FFF758FE4FF098435A6CD202FCD55B6D8F
:1028B000544403F470230193FFF7F4FE019B5BBBC8
:1028C000269B0BEB040A1C44009B9A4506D14C4600
:1028D00091E74FF0FF301BB0BDE8F08F8DB9424655
:1028E00001213846249BFFF7FFFE0028F3D108F1B1
:1028F000100212F8013D0133DBB213700BB99045A1
:10290000F7D1249A1AF8013B525D0135534004F87F
:10291000013B05F00F05D7E71846DCE76FF01F0015
:10292000D9E73046D7E700BF0303000410000020BA
:102930000139024410B5904201D1002005E003782E
:1029400011F8014FA34201D0181B10BD0130F2E76E
:102950000A44431E914200D1704710B511F8014B53
:10296000914203F8014FF9D110BD0244034693424E
:1029700000D1704703F8011BF9E70000F8B500BF6C
:10298000F8BC08BC9E467047F8B500BFF8BC08BC50
:102990009E46704700000000A307000000000000F2
:1029A000C30700000D0A4765636B6F20426F6F74A9
:1029B0006C6F616465722076582E59592E5A5A0DE3
:1029C0000A312E2075706C6F61642067626C0D0A8D
:1029D000322E2072756E0D0A332E2065626C2069CE
:1029E0006E666F0D0A424C203E20000205000D0A63
:1029F0004661696C656420746F20626F6F740D0AA4
:102A0000000D0A66696C65206572726F72203078FD
:102A1000000D0A53657269616C2075706C6F61649A
:102A20002061626F727465640D0A000D0A5365724D
:102A300069616C2075706C6F616420636F6D706C80
:102A40006574650D0A000D0A626567696E20757010
:102A50006C6F61640D0A000D0A626C6F636B206518
:102A600072726F7220307800B814B6F1E0CFF3AD17
:102A7000B7DD25C9FA79B7130000000007B0CD5EB5
:102A80000200000000000102F82B000000400000DE
:102A900000000800F0041000EF0A0000F30A000034
:102AA0008D0800009D0C0000CF0C0000000000000D
:102AB000090D0000770D000000000000F90A000079
:102AC000E90A000013B779FAC925DDB7ADF3CFE005
:102AD000F1B614B80102000000000000F42B000061
:102AE00040000000000001020000000000000000A3
:102AF00000000000000000000000000000000000D6
:102B000000000000000000000000000000000000C5
:102B1000000000000400000700000D1013001A2040
:102B200026303840506A09E667BB67AE853C6EF3D5
:102B300072A54FF53A510E527F9B05688C1F83D9C1
:102B4000AB5BE0CD19800000000000000000000039
:102B50000000000000000000000000000000000075
:102B60000000000000000000000000000000000065
:102B70000000000000000000000000000000000055
:082B800000000000000000004D
:0C2B8800942B0000081000201800000032
:102B9400F00F100300000000BC1000201300000020
:102BA4000900000000010000020200001300000000
:102BB400F00F100300000000BC11002013000000FF
:102BC400090000000002000001010000D3FFFFFF24
:102BD400F07F1030C0120020000000000000000050
:102BE40000C005402200000059010000350100002A
:04000003000001B93F
:00000001FF
