:020000040000FA
:1000000000100020B901000075010000190B00006C
:100010007501000075010000750100007501000008
:100020007501000075010000802A000075010000C4
:1000300075010000C82A000075010000750100006C
:1000400075010000750100007501000075010000D8
:1000500075010000750100007501000075010000C8
:1000600075010000750100007501000075010000B8
:1000700075010000750100007501000075010000A8
:100080007501000075010000750100007501000098
:100090007501000075010000750100007501000088
:1000A0007501000075010000750100007501000078
:1000B0007501000075010000750100007501000068
:1000C0007501000075010000750100007501000058
:1000D0007501000075010000750100007501000048
:1000E0007501000075010000750100007501000038
:1000F0007501000075010000750100007501000028
:100100007501000075010000750100007501000017
:100110007501000075010000750100007501000007
:1001200075010000750100007501000075010000F7
:100130007501000010B5054C237833B9044B13B199
:10014000044800E000BF0123237010BD68100020A8
:10015000000000008C2B000008B5034B1BB10349C5
:10016000034800E000BF08BD000000006C10002044
:100170008C2B0000FEE70000054B064A06498B4227
:1001800000D3704752F8040B43F8040BF7E700BFA5
:1001900008100020982B0000681000200021044B5C
:1001A000044A934200D3704743F8041BF9E700BFA9
:1001B000681000204013002008B5084B83F30A881C
:1001C000074B084AC3E9002200F00EF800F016FDC4
:1001D000FFF7D2FFFFF7E2FF00F0A2FC00000020D3
:1001E00000100020A5EDF5FE044B054A9A60D3F8F7
:1001F000882042F47002C3F88820704700ED00E0C8
:100200000000000070B50024A36A06461A69556B09
:10021000AA4201D3012070BD5B69AB42FAD92846DE
:1002200000F0F4FA0028F5D02B6913F0FE0F0AD184
:10023000102205F1280106F10C0002F07BFBB0FA58
:1002400080F04009E7E72046E5E700000023024A86
:100250001370024A1370704784100020851000202C
:1002600038B503780546042B0C4650D008D8012B2E
:100270000AD0032B50D0182340F6031023700DE052
:10028000182B49D0432BF5E7264B42781978D9B97A
:10029000012A04D0152340F60410237038BD1A70CB
:1002A000AB781A44FF2AF5D100228021E81C01F026
:1002B000F0FD95F88320C0F30F239A4216D0152342
:1002C00040F602102370E9E7174B1B78934204D1E4
:1002D000062340F606102370E0E70133DBB29342B9
:1002E000DED0152340F605102370D7E795F884304B
:1002F000C0B2834204D0152340F601102370CDE72D
:100300006A78094B00201A7006232370C6E706237B
:1003100040F607100B70C1E7182340F60810237051
:10032000BCE700BF851000208410002000F01AB840
:1003300000F01AB80149024800F04CB898290000B2
:1003400088100020704710B5044600F0CBFE182C32
:1003500007D1204600F0C6FE2046BDE8104000F060
:10036000C1BE10BD00F0D2BD10B592B047221849F1
:10037000684602F0EFFA00F083FB0A22C0F3036341
:10038000092B8CBF373330338DF81430C0F303435F
:10039000B3FBF2F102FB113300F00F0030338DF8A4
:1003A0001730B0FBF2F302FB130001F130043030E0
:1003B00003F130018DF819108DF81A000122472140
:1003C00068468DF8164000F055FE002012B010BDB2
:1003D000A82900002DE9F04F0024ADF5277D4FF44A
:1003E0009472064688465CA821468DF8134002F0B8
:1003F000BEFA2146682206A802F0B9FA2146682210
:1004000020A802F0B4FA3C2700F020FD01244FF0B0
:10041000FF35DFF82C93DFF82CA3DFF82CB3062C84
:10042000FDD8DFE814F00B000F00200043005D0052
:100430005301BF000424F2E70446F0E7FFF794FFFE
:100440000124ECE74FF47A7105A800F0D5FE40B91D
:100450009DF81430313BDBB2022B8EBF0446B44A08
:10046000D45C3C27DBE701221121B24800F002FEF8
:100470002C220021304602F07AFA202320AA06A975
:100480005CA801F083F80024FF230121052073708C
:10049000748000F0FBFC00F039FE18B10121204609
:1004A00000F0B4FEFFF7D2FE0324B8E74320FFF7C5
:1004B0004AFF00214FF47A7000F0E8FC00F026FEBD
:1004C00018B900F009FD0028F8D000F01FFE002840
:1004D000B0D1013FA3D11820FFF735FF00249EE7DC
:1004E000002185220DF1E90002F041FA002140F6D9
:1004F000B83000F0CBFC00F009FE78B34FF47A730B
:100500000093012305AA19460DF1E90000F022FE2F
:100510009DF8E930012B0DD140F6B83284210092CC
:100520000DF1EA0005AA00F015FE059B0546842B97
:1005300018D1C8B90DF113010DF1E900FFF790FED4
:1005400040F607139842054614D1B3780BB1F378FF
:1005500013B918238DF8133006241DE000F0BCFCFD
:100560000028C8D040F2047515208DF81300FFF75D
:10057000EAFE54E780B99DF8E930012B0CD18023C5
:100580003146CDF800803BAA5CA801F043F805464F
:1005900010B118238DF813309DF81300182808BFE8
:1005A0000624E4E70121002000F030FE01210A20AA
:1005B00000F06CFC9DF813300122062B08D140F6A8
:1005C00007139D4204D11B215B4800F053FD85E7D2
:1005D0001A21504600F04EFDA5F51063B3F5E06F0B
:1005E0004FF0010222D21121544800F043FD40F6A1
:1005F00006139D4222DD9DF813309F2B4FEA131006
:100600008CBF3730303000F06DFD9DF8130000F0E6
:100610000F0009288CBF3730303000F063FD0D200B
:1006200000F060FD0A2000F05DFD57E710215846FC
:1006300000F020FD40F606139D420BDCB5F5106F6F
:10064000D9DDA5F60213042B2CD8DFE803F02D2505
:10065000292F3100A5F58053013B092BCBD8A5F5F7
:100660008053013B092BC6D801A252F823F000BFEA
:10067000C5060000F7050000F7050000C9060000E8
:10068000B9060000C1060000C5060000BD06000056
:10069000B5060000C506000021238DF81330AAE737
:1006A0002223FAE72323F8E72423F6E72523F4E7B8
:1006B0002723F2E74123F0E74323EEE74423ECE767
:1006C0004523EAE74F23E8E75023E6E7B3784BB347
:1006D000F3783BB3337813F004040AD0B06A00F027
:1006E000F5F900283FF4A8AE4FF4004000F098F967
:1006F000F4E69B0711D57368039300F0C1F9039BDF
:10070000834204D94FF40040716A00F045F9012298
:100710001321484600F0AEFC81E640F2012000F0D3
:100720004DFBF4E740F2032000F048FBD6E600BFA3
:10073000EF2900004A2A00002F2A00005B2A00004F
:10074000F2290000152A0000052A00004FF0984306
:100750005A6CD202FCD5586D00F470207047C0F37B
:100760000C032DE9F04105460F4616460BB900F083
:100770004EFB05F5005424F4FF5424F01F0405EB50
:100780000608A04507D8324639462846BDE8F0415C
:10079000022300F043BB204600F039FB04F500546F
:1007A000EFE770B40025AD6A03462E69864206D88D
:1007B0006C6913449C4202D370BCFFF7D0BF70BC7D
:1007C00070471FB510F5004F00F500431446039322
:1007D0001AD2039BB3F5FC2F16D2039BC3F5FC235F
:1007E000934211D348B9836A5A69B2F5004F04D9CC
:1007F0001869019100F00BFB01992246039804B09F
:10080000BDE81040FFF7ABBF04B010BDF0B5421E0D
:10081000D11C034685B019D86E460D4C04F1100763
:10082000354620686168083403C5BC422E46F7D1BE
:100830000DF10F010F3311F8010912F8014F844235
:1008400004D19A42F7D1012005B0F0BD0020FBE7AA
:100850006C2A0000036913F0FE0F0CBF012000207A
:10086000704738B504460D46FFF7D0FF48B16369BD
:10087000012B09D12046FFF7EDFF08B1A3692B60DA
:1008800038BD01202C60FBE70020F9E72DE9F0419D
:100890000368044603F16043B3F5803F4FF0000066
:1008A000A0B029D8826A636816699E4224D8B3F53D
:1008B000002F21D8656B06F14003AB4268D8B5F52F
:1008C000002F65D82846FFF7A1FF002860D02846F2
:1008D000FFF7C0FF80B16B6973B1022B0FD1AB6919
:1008E000C4F1040119444FF0FF32204601F0DEFA52
:1008F000284BC31A5842584120B0BDE8F08140F25D
:10090000046328460493FFF781FF08B90020F3E74A
:100910002846FFF79FFF0028F8D00027D7F834803B
:100920004046FFF773FF0028F0D0503EB045EDD8A9
:10093000284605A9FFF795FF0028E7D0BA6A059B6E
:1009400012699A42E2D89C42E0D8B3F5002FDDD874
:1009500006A801F06BFB059A2146121B06A801F0C0
:100960006FFB06A801F06EFB059C01F06FFB039086
:1009700001F084FB21460090039B04F1200206A8AD
:1009800001F0DAFA04900498B0FA80F04009B3E775
:100990000120B1E7E320BBDE70B54FF0FF3290B02D
:1009A00005460C4601F082FA1A4B98422ED11C22C1
:1009B000002101A801F0DBFF174B29466846043CE3
:1009C000009301F0C0FD2146684601F0BCFD684679
:1009D00001F0C2FDFFF7BAFE0646B8B940F20220A8
:1009E00000F0E0F91C22314609A801F0C0FF0B4BD2
:1009F000294608A8089301F0A6FD08A8214601F0A1
:100A0000A2FD08A801F0A8FDFFF7A0FE002010B08D
:100A100070BD00BFE320BBDE0100054301000643BB
:100A200030B5044691B01C22002101A801F09FFFBF
:100A3000114B21466846009301F085FD684601F0A0
:100A40008BFDFFF783FE054698B940F2022000F0C7
:100A5000A9F91C22294609A801F089FF074B08A81B
:100A60002146089301F06FFD08A801F075FDFFF71E
:100A70006DFE002011B030BD0000024300000343B2
:100A800000239B6A9868704710B58CB01C220446FE
:100A9000002105A801F06BFF0A4B01940493012388
:100AA0000293094B01A904A8039301F042FD04A895
:100AB00001F052FDFFF74AFEB0FA80F040090CB099
:100AC00010BD00BF00000843040000204FF0FF33BA
:100AD00013B5044601A80193FFF7D6FF20B1019B8F
:100AE000A3422CBF0020012002B010BD4FF40040F3
:100AF00070470020704700207047000040B139B1B6
:100B000000230B60034B03600B6843F400530B603E
:100B1000704700BF142400404FF4017000F04EB93C
:100B200013B501A801F05CFD9DF80530012B27D11C
:100B30002B4A936DDB0313D4536B23F4FF0323F48D
:100B4000FE4343F4BC1343F4A0635363136B23F4D9
:100B5000704343F440431363136B43F4E063136344
:100B60009DF8043063B94FF000531B681D4B1B68A0
:100B70001D4B1B681D4B1B681D4B1B681D4B1B68C9
:100B80001D4AD2F8803043F00303C2F88030FFF7EB
:100B9000B0FF00F0F5F8FFF7C9FBFFF7C9FB18B18C
:100BA0004FF4017000F00AF9FFF7C4FB0446FFF7A9
:100BB000C9FB1CB140F203739C4203D140F20120F7
:100BC00000F0FCF8A4F20574012C94BF40F203205D
:100BD0004FF4017000F0F2F8002002B010BD00BF29
:100BE00000C00040004000200080002000C0002025
:100BF00000000120004001200080004013B50124C6
:100C00004FF040238DF806408DF80740D3F894301C
:100C10005B060BD500F0E6F8A0F2022080B20728B0
:100C200004D804FA00F010F0C90F02D100F050FB14
:100C300020B100238DF806308DF807304FF4804343
:100C40005B68013308D14FF4027000F0ABF8002369
:100C50008DF806308DF807309DF8073063B14FF4FA
:100C60008040FFF713FE8DF806009DF806301BB993
:100C70004FF4027000F096F89DF8063063B14FF41F
:100C80008043064A93601846016881F3088881F31F
:100C9000098840688746FEE702B010BD00ED00E01D
:100CA000B1F50D7F10B5044610D34FF40D7200213D
:100CB00001F05DFE002304F5DE72637004F5AA7195
:100CC00004F12C00BDE8104000F060BC40F20520AB
:100CD00010BD13B50446009101462C3000F09AFC7B
:100CE000C4F8300218B141F20703984209D1A37841
:100CF0004BB140F2032040F20223E278002A08BF01
:100D0000184602B010BD40F20120FAE72DE9F04389
:100D100087B00DF1080904460E461746002110223F
:100D200048461D46DDF8388001F021FE00211C22D6
:100D3000C8F80010284601F01AFE32463B4621460C
:100D4000CDF8009004F12C0000F064FC23789A07A1
:100D500044BF6268C8F80020DB0705D51C2228467E
:100D600004F1080101F0F6FD237840F20640002B63
:100D700018BF002007B0BDE8F0834FF40D70704736
:100D80004FF000534CF23C325A8070474FF0005302
:100D90004AF6C0305B8823F00F039BB21B1A5842FF
:100DA000584170474FF0005208B51080FFF7EEFF32
:100DB00010B94FF20F03538008BD000008B5FFF7CC
:100DC000F1FFBFF34F8F0549054BCA6802F4E0629B
:100DD0001343CB60BFF34F8F00BFFDE700ED00E092
:100DE0000400FA054FF000534FF20F015A888A426F
:100DF00001D1188870473AB91B8840F20220012BB4
:100E000018BF4FF4007070474FF40070704708B57A
:100E100001F0EEFAB0FA80F0400908BD072B10B5DA
:100E2000044618460FD862B142EA04039B070AD170
:100E300013460A46214601F0FFFAB0FA80F0400955
:100E400010BD0120FCE70020FAE700001FB500F00C
:100E5000FBF94FF47A23B0FBF3F00A4B0E22186033
:100E60000021684601F083FD01238DF8003040F237
:100E7000FF3369460448ADF8023001F0C6FB05B007
:100E80005DF804FBB81000200080044030B50D4D23
:100E90000D4A2D68536A15FB00F010FA83F09CB2DE
:100EA00080B2A0422CBF00240124084B1880084BBC
:100EB0001C7011B1536A8342FCD1012305494B6177
:100EC000936130BDB810002000800440B4100020B1
:100ED000B610002000A00440094B0A4A5869127855
:100EE00000F001000AB108B9704738B9586A064BDA
:100EF0001B88984234BF00200120704701207047B2
:100F000000800440B6100020B41000202DE9F84302
:100F10000125DFF83081424BD8F80020414F02F123
:100F20003C01996002F124037B627B6002F58053EF
:100F30005D6040F6AA630024536141F205033A4E16
:100F40003A4802F500519460D465D3601461D461CD
:100F5000D4648864C6F8CC45C6F8E445C6F8DC45D8
:100F6000C6F8D445C6F8D845D36093684FF4A02995
:100F7000936000F069F92E4B06211A6F4FF4E113CC
:100F8000C2F380222A44B0FBF2F202F5E1425201A0
:100F9000B2FBF3F2274B203A03EAC202D8F8003042
:100FA0002046DA612B46042201F0B6F92B462A4688
:100FB0000521204601F0B0F914230422C6F8CC35EF
:100FC0004FF4C0231146C6F8E43528462B46C6F830
:100FD000DC9501F0A1F90522D8F8003016495A61D4
:100FE0004FF0F053154A55609360154B546294636B
:100FF00014645465C3F800901466D465176759608B
:101000000321A3F50053C2F89040C2F88C40596305
:101010000223956402F580521361BDE8F88300BF96
:10102000481000200810002000C00340FFFF01000E
:1010300000800040F8FF7F0002000500000004402F
:101040000040044058100020084B586B10F002007C
:1010500006D002229A6203F5005301205A637047BA
:10106000DB6A9B07FBD40222014BF6E70000044039
:10107000002004407F2938B50446154624D8FFF7E0
:10108000E3FF20B32046134B621890420DD1124B60
:1010900001391A8861F30E121A80104AC2F8A03082
:1010A0000223936435B9002038BD10F8014B03F8D2
:1010B000014BEAE7FFF7C8FF0028FBD0084B1A688E
:1010C00093699B06FCD5EEE741F20310ECE741F291
:1010D0000620E9E7C012002048100020000004406C
:1010E00058100020014608B5FFF7AEFF0028FBD0DE
:1010F000054B1B689A695006FCD5D9639A6992061C
:10110000FCD5002008BD00BF581000200E4BD86E43
:1011100040F2011398420FD040F2022398420DD0C2
:101120000A4BC01A0A4B1B6883420AD02ABFC3F578
:101130000073C01AC01870470020F3E74FF48070A6
:10114000F0E70020704700BF00000440BC10002002
:10115000BC1200202DE9F843089F04460D461646B0
:10116000F3B9FFF7D3FFA84228BF284600214FF06C
:1011700001084FF002091D4ADFF878E013681C4FA0
:1011800004EB000C64451DD101B1136006B1306061
:1011900041F20423A84234BF18460020BDE8F8837A
:1011A0002FB1FFF753FE00213846FFF76FFEFFF720
:1011B000ADFFA842D5D2002FF9D0FFF78DFE002851
:1011C000F5D0CEE71EF803100133B3F5007F04F825
:1011D000011B04D10023C7F810900121D2E7B3F519
:1011E000807F08BFC7F81080F7E700BFBC1200205F
:1011F00000100440BC100020012307B5002200911C
:101200001946FFF7A7FF03B05DF804FB10B10222F7
:10121000094B9A6271B101220020074B07499A627B
:101220004A6307491967074908609A64022203F56F
:1012300080531A61002070470000044000200440E1
:1012400008100020BC12002030B51A4B87B001AA4C
:1012500003F11005144618685968083303C4AB42FB
:101260002246F7D11B782370134B1B6F03F0070343
:10127000032B1BD0114A9368C3F30443102B17D8D8
:1012800018336B4413F8143C0D480E4943438B420A
:1012900003D19268C2F30162D340074A106FC0F3D2
:1012A00001300130B3FBF0F007B030BD064BF4E77E
:1012B000064BF2E7182B00000080004000000140C0
:1012C00040420F0000093D0000F04902C0EA210140
:1012D000012313B504221846002101F01DF8002354
:1012E0000093009B632B18DD012302221846002186
:1012F00001F012F800230193019BB3F5FA7F0FDB95
:10130000094B00225C6C01231146184601F004F8D9
:10131000E04300F0010002B010BD009B0133DFE7A5
:10132000019B0133E7E700BF00C003400020704786
:101330000020704770B5D1E90152AA4205D290F859
:1013400040302B449B1A402B10D9002012E00A6831
:1013500090F84040D65C90F841200133224402F0DE
:101360003F02013486548B6080F840408B689D4278
:10137000EDD8012070BD2DE9F8431D461746D1E98F
:1013800001329B1A90F84020044613449D420E46B9
:101390009DF820909DF8248056D9FFF7CBFF0028B8
:1013A0005CD1142341F2020084F84630BDE8F88392
:1013B00094F84120A25CFA5494F8412001330132A0
:1013C00002F03F0284F8412094F84020013A84F86A
:1013D000402094F840200AB19D42E9D1D6E901218C
:1013E000914201D29D4231D89D42DAD129463846F8
:1013F000D4F8882000F05AFDC4F88800B9F1000F35
:1014000004D02A463946E06C00F01AFEB8F1000F0D
:1014100008D094F843308BB12B463A463946A06C3D
:1014200000F078FD94F8433043B1E36DA26D2B4496
:101430009342E36524BF002384F84330636D41F297
:1014400003002B446365B1E70023C2E73268525CB6
:10145000FA54B26801330132B260BFE70020A5E759
:101460007FB50023CDE90033082315460DEB0302B9
:101470000446FFF780FF41F203039842064626D157
:1014800094F8433063B10822E06C0DEB020100F0E8
:10149000D7FD08230DEB03021146A06C00F03AFDC6
:1014A000039A029B6A6094F843202B605AB9094A58
:1014B000934208D0084A934205D00822E06C0DEB15
:1014C000020100F0BDFD6B682365002363653046B3
:1014D00004B070BDF70A0AF7FC0404FC2DE9F743D9
:1014E000044658680D4617469846002848D011F023
:1014F000030348D19B6A216E1B6902EB010C1E1D80
:1015000066451CD81C33994219D28E42304638BFEA
:1015100008469C4594BFC0EB0C02C0EB0302411A85
:10152000C6F1680605EB01093044494620440192A2
:1015300001F010FAFF214846019A01F018FA48F22A
:101540000406236EB34211D848F20702F9189142FB
:101550000CD9F61A2E440422314604F1800001F021
:10156000F9F90422FF21304601F001FAD8E90036EA
:101570003A46206E2946B0470020226E3A44226641
:1015800003B0BDE8F08341F20200F9E72DE9F04134
:1015900000254FF0FF3804460F46164603F020039F
:1015A00080F842301822FF21C0E91855A0F84050B9
:1015B00080F84350A0F8445080F84650C0F8888026
:1015C000683001F0D4F90422FF2104F1800001F019
:1015D000CEF90422FF2104F1840001F0C8F9882229
:1015E0002946C4E9127604F1900001F0C0F940F2F6
:1015F0000113A4F824310123C4E9475884F8185191
:1016000084F8263116B1E06C00F010FD0020BDE832
:10161000F08100002DE9F04FA7B0CDE9132302932C
:10162000002304460E46309DDFF8B8931593159AB3
:10163000029B9A4201D30020C7E094F84630142B55
:10164000F6D8DFE813F06700AE00A80052003900BA
:101650002E00560239004E023900080239004E02AF
:10166000A203110415008C0149034903DB02110494
:101670004FF00008636D0F2B00F2918001271023BB
:1016800016AA2046CDF80480009713A9FFF773FE31
:1016900041F203030990099A9A4200F05281099B92
:1016A00044E00127D4E91432934200F25E8184F8C9
:1016B000467041F2030339E04FF0FF0BD4E91437D1
:1016C000BB426CD9DB1BDDE91472BF1A94F84020D1
:1016D000032B174440F21182032F00F2118220469F
:1016E00013A9FFF727FE002320E00127636D072BD6
:1016F000DFD8082316AA2046CDE9007713A9FFF703
:101700003AFE41F203030C900C9A9A4200F0B88121
:101710000C9B0BE016AA204613A9FFF7A1FE41F28D
:1017200003020690069B934202D0069B059345E078
:10173000179A16992265002262659F4A914240F0ED
:10174000AA81022284F84620F0E7012316AA00931A
:1017500020460823019713A9FFF70DFE41F203036A
:101760000790079A9A4201D0079BDFE7169B03F088
:101770007F43B3F1407F05D0142384F8463041F213
:101780000903D3E7179BD80706D594F8423043F0F6
:10179000010384F842300027636D072BD5D901235C
:1017A000A4E1204616AA13A9FFF75AFE41F203034B
:1017B0000890089F9F420BD0089F059741F20303B2
:1017C000059A9A423FF433AF059827B0BDE8F08FF1
:1017D00094F84420169B2AB1784A934240F08780BF
:1017E0000D2336E094F84220D10741D594F84320E8
:1017F000002A3DD172498B4233D022D8714A93429C
:1018000075D014D8704A934200F0888004D86A4A90
:1018100093426CD04B456AD0142316A884F8463006
:10182000FFF784FD002865D141F20807C5E7674A44
:10183000934279D0F0D8664A934258D0654A934291
:10184000E9E75E4A9342CBD006D8634A9342E3D19C
:101850000F2384F84630B0E7604A934247D0604A8D
:10186000EDE7102384F84630236DC4E91632A4E76F
:10187000584A93424AD02BD8524A934244D022D855
:101880004B453FD0504A934244D016A8FFF74EFD37
:1018900000284BD01323169884F84630C4F88C00E7
:1018A000FFF746FD94F842309A0686D5002884D08A
:1018B0004368002B81D0204698470890089B002B56
:1018C0003FF47BAF16E0424A9342DED10323C0E7E8
:1018D000424A93421CD010D83C4A934220D0374A07
:1018E0009342D2D194F84330002B3FF479AF1423C4
:1018F00084F8463041F201075FE7394A9342C4D188
:101900000823A6E70A23A4E70523A2E70623A0E706
:101910000C239EE794F84330002BE8D1112398E77D
:1019200094F84330002BE2D1122392E7142384F879
:10193000463094F84330002B3FF476AF41F2040771
:101940003BE7D4F848A000F0B1FB80230221CDE9A9
:10195000000317AA3B46504600F0BCFA8AE6012372
:1019600084F8433084F8463061E616AA2046CDE973
:10197000007713A9FFF7FFFC41F203030A900A9ACC
:101980009A4201D00A9BD1E606F108081C22404683
:1019900016A900F0DFFF3378404643F001033370AF
:1019A000FEF730FC00287FF47DAE142384F8463027
:1019B00041F20C03BAE600BFEB17A603FC0404FCDB
:1019C000F90707F9F40A0AF4F30B0BF3F70A0AF71D
:1019D000F50909F5F60808F6FA0606FAFD0303FD0F
:1019E000FE0101FEEB17A65E337843F0040333706B
:1019F000199BB36273785B072AD5EB238DF85830B7
:101A000017238DF85930A6238DF85A305E2304220F
:101A100004F1500104F184008DF85B3000F09AFF6E
:101A2000002094F84530606643F0020384F84530A6
:101A3000EF686FB104222B6816A9B8470822606EC0
:101A40002B68EF6818A91044B847636E10336366BB
:101A50000B2384F84630636D072B3FF62AAE012333
:101A600018AACDE900332046082313A9FFF783FC09
:101A700041F203030B900B9A9A42B5D00B9B55E6AB
:101A80003378179A43F002033370169B7360236D0B
:101A9000083B73622AB1142384F8463041F20103F3
:101AA00044E6042384F8463094F84530626643F0F7
:101AB000010384F8453019E6042316AA2046CDE92F
:101AC000007713A9FFF757FC41F203030D900D9A1D
:101AD0009A4201D00D9B29E6236D042B02D9169B57
:101AE00023660127636D032BE6D9092384F846306A
:101AF000DFE500236366072334E79F42FFF4EFAD81
:101B0000402B28BF40239F4228BF1F460123032F9D
:101B100088BF27F003070DF158084246CDE900338E
:101B200020463B4613A9FFF726FC41F203030E9023
:101B30000E9A9A4201D00E9BF8E594F84620072AA7
:101B400027D1D5F808A0BAF1000F22D02B683A4669
:101B50004146606ED047636E3B446366AEE508F86D
:101B600003B00133032BFAD9042FC7F1040A88BF4D
:101B70004FF0000A092ABA440DD12B46524641467D
:101B80002046FFF7ABFC0E900E9B002B3FF496AD6A
:101B9000D1E73B46E6E7042A25D173789F077FF516
:101BA0008DADEB68002B3FF489AD636E042B10D82C
:101BB0000AEB030106290CD917AFFF1A394604F1C5
:101BC0008400039200F0C6FEFF213846039A00F01D
:101BD000CEFEEF68524641462B68606EB847676E8E
:101BE000574467666AE50B2A7FF468AD7378580737
:101BF0007FF564ADEF68002FECD15FE594F842709B
:101C000017F0200707D0D4F88C00FFF791FB0746A8
:101C100000283FF443AF4FF0010A42E04BB347B313
:101C20003B6933B320469847DDE9143294F840808D
:101C30009B1A43448342FFF452ADD4E91421A2EB32
:101C40000108B8F1400F28BF4FF04008984528BF61
:101C5000984616AA43462046CDE900AA13A9FFF7E5
:101C60008AFB41F203030F900F9A9A4203D00F9B15
:101C70005CE50120D8E794F84230990611D5002F91
:101C80003FF40CAFD7F808B0BBF1000F3FF406AF3C
:101C90002B464246204616A9D8470F900F9B002B93
:101CA000E5D1D4E9142194F84230914203F02003A5
:101CB000B4D3002B3FF473AD002F3FF470ADFB683D
:101CC000002B3FF46CAD2946204698470F900F9BA0
:101CD000002B3FF464ADCAE700218A6A496B1269A0
:101CE000503A91423FF6DAAE112B0FD194F81831E9
:101CF000002B7FF454AD41F206031093109A9A42E0
:101D000002D1142384F84630109B0FE594F8443038
:101D1000002B7FF444ADCDE9003316AA40232046C2
:101D200013A9FFF728FB41F203031090109A9A427F
:101D3000EAD1E06C00F086F994F81831A3B104F10F
:101D4000B403E06C00931EAA04F1940316A900F0FA
:101D5000F3F81090109B9BB10023F370142384F8C8
:101D6000463041F20603E1E4E76C00F06FF90390BE
:101D700000F084F9039B00901EAA384616A9E6E7F6
:101D80000123F37084F8443009E5002316AACDE955
:101D900000332046042313A9FFF7EDFA41F20303B1
:101DA0001190119A9A4202D0119B05930CE5D4F838
:101DB00088202F4B9A4205D0142384F8463041F2F4
:101DC0000503F2E70123F37094F84530DA0707D5ED
:101DD000EF682FB104222B68104604F18401B84744
:101DE00094F845309B0707D5EF682FB104222B6884
:101DF000104604F18401B847236E73B36B6863B374
:101E00004FF0FF3304F18001042212A812930291D3
:101E100000F090FD30B1D5E90037042248F204000B
:101E20000299B84704F168090422494612A800F053
:101E300081FD90B100239B6A1422D3F8108004F135
:101E40006C0108F10800D5E90037B847D5E900373B
:101E50000422494608EB0200B8470123B3700E2361
:101E600084F846300023A0E741F20700ADE400BF4C
:101E7000E320BBDE49BA89B24840C0F3031358409F
:101E800003B283EA0033580100F4FF509BB258407C
:101E9000704738B5044645181046AC4200D138BDED
:101EA000014614F8010BFFF7E5FFF6E730B5012412
:101EB0000025074B01445C609D601A61DC6088422C
:101EC00001D1586A30BD10F8012B1A62F7E700BF44
:101ED00000800840F7B5044620301D460F461646E0
:101EE000019000F0E3FBDDE90812019800F0E2FB4D
:101EF00000230C226364314684F8587004F15900C1
:101F000000F028FD2B0C6DBA84F86530A4F86650FB
:101F100003B0F0BD1FB50C46194600F14803CDE9EA
:101F20000142009300F1440200F15803203000F018
:101F30003DFC04B010BD00002DE9F04399B00E4601
:101F400015461C460746DDF88090002861D0002920
:101F50005FD0002A5DD0002B58D02F4B2F4AB9F10B
:101F6000000F14BF984690461C22002111A800F0D3
:101F7000FEFC2B4B414610A8109300F0E4FA202100
:101F800010A800F0E0FA0122264B0194029203937C
:101F9000CDF810900592069354B1B9F1000F07D017
:101FA00001A910A800F0BBFA04A910A800F0B7FA24
:101FB000079701271B4C07A910A80897099400F060
:101FC000AEFA0AA910A80A960B970C940D950E97D5
:101FD0000F9400F0A4FA0DA910A800F0A0FA10A820
:101FE00000F0BAFA104B00934FF098435A6CD202AB
:101FF000FCD55B6D40F2046003F470230093009BFA
:10200000002B08BF002019B0BDE8F083DFF80C807A
:10201000AAE740F20160F6E71F2400801F24FC8439
:1020200000000106200000207856341210B5044646
:1020300000F0EEF82046BDE81040002100F0ECB8BA
:1020400000F0EFB8014600F0F9B8000000B591B01B
:102050000023402269464FF4807000F09BFAB0F5EF
:10206000A02F07D0B0F5302F034818BF002011B0C3
:102070005DF804FB0048FAE74CE3070000B591B0B7
:102080000023402269464FF4807000F083FAB0F5D7
:10209000A02F07D0B0F5302F034818BF002011B093
:1020A0005DF804FB0048FAE76CE30700004870475E
:1020B00086E207002DE9F34799460A9B0C4619680A
:1020C00005463F29164642D85A68002A41D0224A7E
:1020D000002E14BFB046904601F03F07091928BFF3
:1020E0005A68196024BF01325A60AFB1C7F1400A83
:1020F000A24521D82946524609EB070000F02AFCE8
:102100000123414600934A463346002000F09EF8E2
:10211000B046403C55443C443F2C0CD9A3092A46C8
:10212000009341463346002000F090F824F03F032E
:102130001D4404F03F0400272CB12246294609EB38
:10214000070000F007FC002002B0BDE8F0879046D1
:10215000C2E7DFF80480BFE7292B000030B4054652
:10216000084611461A46DDE9023425B931B1029418
:1021700030BCFFF79FBF024830BC70470846FBE702
:1021800080AFFFFF2DE9F0431546146887B09946EC
:10219000E3008DF80F30630956688DF80E30630B3D
:1021A0008DF80D30630D8DF80C30F30003EB547394
:1021B0008DF80B3004F03F047309372C8DF80A308A
:1021C0004FEA563394BFC4F13802C4F1780207468F
:1021D0008846CDE900158DF809300C490346760D87
:1021E00000208DF80860FFF7B9FF082143463A4602
:1021F0000DEB01000095FFF75DFF202239464846B0
:1022000000F0A8FB002007B0BDE8F083492B0000D8
:102210006822002100F0ABBB0023C0E90033184660
:10222000704707B500F128030190009300F10803FF
:102230000020FFF793FF03B05DF804FB02460B4656
:1022400000F128010830FFF79DBF0000F0B593B002
:102250000E4617460446202200210AA81D4600F01B
:1022600086FB01204FF000520197029003920496E2
:1022700005900692079508900992002C2FD1189C82
:10228000184BA40121460AA80A9300F05CF90399AF
:102290000AA80C430394069B04A943F02003069369
:1022A000099B43F02003099300F039F901A90AA81A
:1022B00000F035F907A90AA800F03BF90AA800F0D8
:1022C0004BF94FF098435A6CD202FCD55B6D13F476
:1022D000702F0CBF00206FF06F0013B0F0BD6FF0D7
:1022E0007100FAE700040103EFF3108072B6704743
:1022F00000B962B6704770B5054614460E46FFF742
:10230000F3FF296881EA040202EA06044C402C60CB
:10231000BDE87040FFF7ECBFF8B504460D461F4618
:1023200016464AB101238B403021194A01FB002295
:10233000FFB141F21001535004EB4403072D4FF05D
:102340000F014FEA031317D8A80006FA00F28140E4
:1023500010481844FFF7CFFF56B9012130230C482D
:1023600001FA05F503FB040077B141F21003C550F3
:10237000F8BD42F21001DEE7A5F10800800006FA80
:1023800000F281400448E4E742F21003EFE700BFA7
:1023900000C0034004C003400CC00340F0B5114A24
:1023A000114C124E00F00105E3695F0713D40DB91B
:1023B000334213D103EA00078F4207D10B4A1A4078
:1023C000002A14BF6FF001000020F0BD013AEBD1EC
:1023D0006FF00200F9E74FF0FF30F6E76FF0010011
:1023E000F3E700BF80969800000003400200010060
:1023F00038B541F6713301220C4C0021E569E363E5
:102400000B4B05F48035DA600223606121202361E3
:10241000FFF7C4FF10B92120FFF7C0FF0122054BD1
:10242000DA600DB10023E36338BD00BF0000034054
:1024300000100340002003402DE9F04F06464FF402
:10244000502501202A4CDFF8B4C041F67137CCF892
:10245000040044F8265030250024DFF8A4E0DFF81B
:10246000A49005FB06E5EC652C662C67214CDFF893
:1024700098A0D4F81C80E763E76800FA06F60743E3
:10248000E7604BB9E26818F4803F22F00102E26095
:1024900000D0E363184628E001F5005000EA090087
:1024A000401A984228BF18466161D4F81CB08708CA
:1024B0001BF0040F17D1013F3F0147F060576F66D3
:1024C000AA66C5F86CA0CCF82460DEF834703E42F1
:1024D000FBD0094F01447E630427CCF828600244F6
:1024E00027611B1ACDE74FF0FF30BDE8F08F00BF2A
:1024F000004004400000034000200440001004405D
:102500000000044000E0FFFF180003404FF0984334
:102510005A6CD202FCD5586D00F4702070474368A5
:1025200013B9416070475B685A68012AFBD1596052
:102530007047836813B9816070475B685A68012AE5
:10254000FBD159607047C369032B9FBF00EB830227
:102550000133D160C3617047C369042B15D84FF0B4
:102560009842116CC902FCD504339B0013650168C5
:10257000103B116041680C30116050F8041C03449A
:1025800011604FF09842984200D1704750F8041BF8
:102590001160F8E7F0B507460F4D10488DB0002BDD
:1025A00008BF05460E46144600211C2205A800F06F
:1025B000DEF9012304A801A93D4344F0005401962B
:1025C000049502930394FFF7B4FFFFF7C5FFFFF7ED
:1025D0009DFF0DB0F0BD00BF01000AFF010008FF24
:1025E000054B5B69C3F38512827003F03F021B0B3E
:1025F00042700370704700BF00C00740036BDA07EA
:1026000002D503695B06F9D4704710B5FFF7F6FFF2
:10261000012200F500531A630B79044648881B0217
:1026200043EA8043487A03434878002814BF402097
:1026300000200343887A002814BF80200020034331
:10264000C87A002814BF202000200343087B0028FC
:1026500014BF102000200343487B002814BF08202B
:10266000002003438879002814BF4FF480300020F5
:102670000343636004F580531A630A780AB902239E
:10268000E36000236362C8790B7A497943EA8003E7
:10269000002914BF102100210B43A3600AB10123BC
:1026A000E36010BD00207047002070472422002105
:1026B00000F05DB970B515460E462422002104468F
:1026C00000F055F925F04003802B02D0B5F5807F4E
:1026D00008D12046314640F8045BEA0800F03AF998
:1026E000002070BD6FF01F00FBE700002DE9F041F6
:1026F00004681E4624F04003802B05468846174692
:1027000092B002D0B4F5807F43D11C2200210BA8E7
:1027100000F02DF9224A234B0121B8F1010F18BF17
:1027200013460A932B1D0193E4081F4B44F00054F9
:1027300002910AA8039404970591069307960891BD
:1027400001A90993FFF7EBFE04A90AA8FFF7E7FE2A
:1027500007A90AA8FFF7EDFE29680AA8C908FFF72C
:10276000F2FE10210AA8FFF7EEFEFFF79BFF98B9D3
:102770000AA8FFF7F1FE4FF098435A6CD202FCD53D
:102780005C6DFFF791FF04F47024204612B0BDE8A1
:10279000F0816FF07100F9E74FF0FF30F6E700BF0E
:1027A0000001010400010004100000202DE9F04F99
:1027B0009BB00746894698461646DDF894B072B13C
:1027C00015683B6823F04002802A03D0B3F5807F70
:1027D00040F0A6800BEB0903002400930DE01546A2
:1027E000EFE795B1249A1BF80430525D0135534050
:1027F000269A05F00F05135501344C45F1D3002EF0
:1028000000F091800020356067E0A9EB040ABAF17E
:102810000F0F57D91C22294613A800F0A8F8434BE4
:102820003A6812933B1D03930123D20842F00052F1
:10283000049305923E4A2699CDF818802AF00F0A93
:1028400007930892CDF824800A930B920BEB0402B5
:102850000C9221444AF000520D9312A80E920F914F
:1028600003A910931192FFF75AFE06A912A8FFF7C9
:1028700056FE0CA912A8FFF752FE0FA912A8FFF7E7
:1028800058FE09A912A8FFF754FE396812A8C90812
:10289000FFF759FE514612A8FFF755FEFFF702FF5A
:1028A000C8B912A8FFF758FE4FF098435A6CD202ED
:1028B000FCD55B6D544403F470230193FFF7F4FEE1
:1028C000019B5BBB269B0BEB040A1C44009B9A45B7
:1028D00006D14C4691E74FF0FF301BB0BDE8F08FBA
:1028E0008DB9424601213846249BFFF7FFFE0028A0
:1028F000F3D108F1100212F8013D0133DBB213707D
:102900000BB99045F7D1249A1AF8013B525D013575
:10291000534004F8013B05F00F05D7E71846DCE704
:102920006FF01F00D9E73046D7E700BF030300046C
:10293000100000200139024410B5904201D100205E
:1029400005E0037811F8014FA34201D0181B10BD18
:102950000130F2E70A44431E914200D1704710B59E
:1029600011F8014B914203F8014FF9D110BD024417
:102970000346934200D1704703F8011BF9E70000BA
:10298000F8B500BFF8BC08BC9E467047F8B500BF5C
:10299000F8BC08BC9E46704700000000A30700007A
:1029A00000000000C30700000D0A4765636B6F203D
:1029B000426F6F746C6F616465722076582E59593E
:1029C0002E5A5A0D0A312E2075706C6F6164206783
:1029D000626C0D0A322E2072756E0D0A332E206540
:1029E000626C20696E666F0D0A424C203E20000228
:1029F00005000D0A4661696C656420746F20626F82
:102A00006F740D0A000D0A66696C65206572726F3D
:102A100072203078000D0A53657269616C20757000
:102A20006C6F61642061626F727465640D0A000DE1
:102A30000A53657269616C2075706C6F6164206304
:102A40006F6D706C6574650D0A000D0A62656769CB
:102A50006E2075706C6F61640D0A000D0A626C6FF8
:102A6000636B206572726F7220307800B814B6F113
:102A7000E0CFF3ADB7DD25C9FA79B7130000000048
:102A800007B0CD5E0200000001000102FC2B000037
:102A90000040000000000800F0041000F30A0000ED
:102AA000F70A00008D080000A10C0000D30C000004
:102AB000000000000D0D00007B0D00000000000074
:102AC000FD0A0000ED0A000013B779FAC925DDB749
:102AD000ADF3CFE0F1B614B8010200000000000031
:102AE000F82B00004000000001000102000000007F
:102AF00000000000000000000000000000000000D6
:102B000000000000000000000000000000000000C5
:102B100000000000000000000400000700000D108D
:102B200013001A2026303840506A09E667BB67AEAA
:102B3000853C6EF372A54FF53A510E527F9B0568A6
:102B40008C1F83D9AB5BE0CD198000000000000032
:102B50000000000000000000000000000000000075
:102B60000000000000000000000000000000000065
:102B70000000000000000000000000000000000055
:102B8000000000000000000000000000982B000082
:102B90000810002018000000F00F100300000000D3
:102BA000BC1000201300000009000000000100001C
:102BB0000202000013000000F00F100300000000EC
:102BC000BC110020130000000900000000020000FA
:102BD00001010000D3FFFFFFF07F1030C012002082
:102BE000000000000000000000C0054022000000BE
:082BF00059010000350100004D
:1040000000100020A946000081760000857600009F
:10401000A74600008976000091760000A7460000C0
:10402000A7460000A7460000A7460000A7460000DC
:1040300095760000686A0300A7460000A7460000C6
:10404000A7460000A7460000A7460000A54B0000B9
:10405000A7460000A7460000A7460000A7460000AC
:10406000A7460000A746000021940000114400006C
:104070001D440000A7460000A7460000A746000018
:10408000A7460000A7460000A7460000A74600007C
:10409000A7460000A7460000A7460000A74600006C
:1040A000A7460000A7460000A7460000A74600005C
:1040B000A74600009D610100A7460000656B010056
:1040C000096B0100056B010041630100616B010098
:1040D0000D6B0100256B0100116B0100E551010022
:1040E000A56B0100A7460000A7460000A7460000F8
:1040F000A7460000F1630000A7460000A7460000A5
:10410000A7460000A7460000A7460000A7460000FB
:10411000A7460000A7460000A7460000A7460000EB
:10412000A7460000A7460000A7460000A7460000DB
:10413000A746000010B5054C237833B9044B13B1E2
:10414000044800E000BF0123237010BDA824002014
:10415000000000006C98030008B5034B1BB1034935
:10416000034800E000BF08BD00000000AC240020B0
:104170006C980300A3F5803A704700BF174B002BE3
:1041800008BF134B9D46FFF7F5FF00218B460F46F6
:104190001348144A121A32F0EEFA0E4B002B00D0DC
:1041A00098470D4B002B00D09847002000210400B9
:1041B0000D000D48002802D00C4800E000BF32F08E
:1041C00077FA2000290000F015F832F05DFA00BF00
:1041D00000000800000000000000000000100020A7
:1041E0008C180020786E0020000000000000000005
:1041F0001CF05CBA08B505F030F905F03BF904F0A5
:1042000023FBFAE708B50421002001F0C5F90421D9
:10421000062001F0C1F90821072001F0BDF90821AD
:10422000084601F0B9F908211C2001F0B5F9082170
:10423000242001F0B1F90821252001F0ADF900207A
:1042400008BD000007B501A801F03AFD9DF8053052
:10425000012B27D1224A936DDB0313D4536B23F434
:10426000FF0323F4FE4343F4BC1343F4A0635363FE
:10427000136B23F4704343F440431363136B43F411
:10428000E06313639DF8043063B94FF000531B687B
:10429000144B1B68144B1B68144B1B68144B1B6896
:1042A000144B1B68144AD2F8803043F00303C2F861
:1042B000803001F0C1FF01F081FF01F0DBFF01F070
:1042C00085FFFFF79FFF01F067FF00F039FC02F068
:1042D000E5FE00F071FD03B05DF804EB04F0DEB91B
:1042E00000C00050004000200080002000C00020DE
:1042F00000000120004001200080005000F0DEBCE2
:1043000008B501F009FF01F025FF01F035FF13F0BA
:1043100059FB06F0A3FE06F0B7FE06F0EFFEBDE87F
:10432000084017F0DFBA70477047704708B506F0CD
:10433000A3FE06F0BBFEBDE8084017F0DDBA7047EB
:1043400008B502F0CDF800F055F8BDE8084002F0DD
:10435000BBBC08B504F084FD01F08EFF08F01CFA28
:10436000BDE80840FFF7ECBF70B5114E92B035467E
:104370000BAC0FCD0FC495E80700032384E80700BA
:1043800003AD8DF8453006F11C030FCB07AC85E873
:104390000F0006F12C030FCB84E80F00054B2146DC
:1043A00000930BAA2B46044802F08EFB12B070BD9E
:1043B0002C6A0300C42400204C250020831E012BFE
:1043C0000AD8012908D80422094B1B69C3F38013BA
:1043D0000621002001F05EBB0239012907D801281F
:1043E00005D8034B00221B69C3F38013F0E7704725
:1043F00000C0035008B50449044804F003FABDE8BE
:104400000840FFF7B1BF00BFA41000200425002022
:10441000014B186802F016BC4C250020FFF7F8BFCE
:10442000014B1A6A186810474C250020012070477C
:104430000120704710B502F020FE044606F0E0FEB1
:10444000002808BF002403F0FBFE002808BF00245A
:10445000FFF7ECFF002814BF2046002010BD38B540
:1044600004F0E2FA0446FFF7DBFF04281ED002281E
:104470004FF0000508BF012402F001FE042817D008
:10448000022808BF012406F0DFFE042812D002280B
:1044900008BF0124FFF7CCFF04280DD0022808BF75
:1044A0000124002D18BF0024204638BD0125E3E774
:1044B0000125E8E70125EDE70024F5E7014B187831
:1044C000704700BF7025002008B50CF089FC002261
:1044D000014B1A7008BD00BF70250020FF207047F7
:1044E00008B5FFF7FBFF002008BD70477047704715
:1044F000704710B5044617F093FB20462DF00CFAD8
:104500002046BDE810402DF041BF2DF06FBA10B528
:10451000044617F03DFC20462DF098FA2046BDE8F1
:1045200010402DF067BF10B5044613F00FF9204678
:1045300017F08CFA20462DF0DBFB20462DF082FF91
:104540002046BDE8104031F0A5B9FFF7ECBF10B52B
:10455000044613F013F9204617F0A6FA20462FF070
:1045600069FA20462DF0F4FB20462DF09FFF2046EF
:10457000BDE8104031F0A8B910B5044613F0FEF8BC
:10458000204617F0CFFA20462FF064FA20462DF08F
:104590002DFC20462DF0B2FF2046BDE8104031F042
:1045A00093B912F071BF2DF0FFBD10B49DF8044017
:1045B00001945DF8044B2DF0DFBC704718F04CBA45
:1045C0007047704710B49DF8044001945DF8044BA7
:1045D0002FF056BA70472FF05DBA18F0D1B918F025
:1045E000E5B92DF08BBC2DF0B5BC18F0F1B92DF06C
:1045F0001BBD704770472CF0CDBD2CF0EBBD2DF0EE
:1046000049BD2DF06ABD2DF07CBD10B49DF804406D
:1046100001945DF8044B2FF03EBA2DF029BD18F03F
:10462000F9B918F0E9B92DF080BD2EF017B82EF0C9
:1046300023B82DF06ABE2DF086BD31F063B931F09C
:104640009DB931F0A9B931F0D7B92DF041BE16F0BE
:1046500019B87047704782B06B4683E8060093E84C
:10466000060002B018F01ABD70472DE9F0419DF820
:1046700018409DF81C509DF820609DF824709DF80E
:104680002CC09DF834E09DF83880CDE90867CDE96D
:104690000DE8CDE90645CDF82CC0BDE8F04115F098
:1046A0007BBF70477047FEE708B500F02DF8124B4E
:1046B00012498B4212D30020114B12498B4218D35E
:1046C000FFF75CFD186850F82240586840F8224017
:1046D000013298688242F5D30C33EAE70022F8E70A
:1046E0001C6844F8220001325C68A242F8D3083307
:1046F000E4E70022F8E700BF749803008098030005
:1047000080980300809803006FF00100104B114A5D
:1047100010B59A60D3F888200F4942F47002C3F8AC
:10472000882001F50052106641F2FF7050660220A9
:10473000C3F8D000BFF34F8FBFF36F8F08244FF43F
:1047400040330648C0F88041D36004600B6110BD5F
:1047500000ED00E0004000000080004400E100E0C7
:10476000014B1868704700BFC0100020014B186053
:10477000704700BFC0100020084B1B6F03F00703F9
:10478000022B04D0032B05D0012B05D0FEE7044BF0
:1047900018687047034BFBE70348704700800050E0
:1047A000C0100020C4100020002D310108B5FFF713
:1047B000E3FF054B1B6FC3F301330133B0FBF3F091
:1047C000024B186008BD00BF00800050BC100020E4
:1047D0000048704700B4C404014B1868704700BF1C
:1047E000C4100020054B1860054B1B6F03F0070336
:1047F000032B01D1FFF7DABF704700BFC4100020C0
:10480000008000500020704700487047002D3101A3
:10481000174B9868C0F304400C2822D8DFE800F05A
:10482000092121212121071719211B1D1F001148D2
:1048300070479B6803F04073B3F1807F13D0B3F1EE
:10484000007F12D00C4A002B08BF104670470B485F
:1048500070470B4870470B4870470B4870470B4830
:104860007047002070470A4870470A48704700BFE9
:104870000040015A405DC60000093D000024F400DC
:10488000C0EA210180BA8C010048E801005A6202A6
:1048900080841E0040420F004FF4004070474FF4E8
:1048A0007A707047014B1868704700BFC81000202D
:1048B000BFF34F8F0549064BCA6802F4E062134309
:1048C000CB60BFF34F8F00BFFDE700BF00ED00E0FE
:1048D0000400FA0500239B6AB3F5804F03D21968E0
:1048E000064A914203D0002303708360704701227F
:1048F00002709A689B694260F7E700BF07B0CD5E1F
:1049000030B50024A36A87B0B3F5804F0546019106
:104910000FD2012303A88DF80C30CDE90444FFF732
:10492000D9FF059B5B0504D5A36A28461B6C01993A
:10493000984707B030BD000073B5464B04461A785F
:104940001AB102221A7002B070BDCDE9002200280F
:10495000F9D001261E7001F048F83F4D3F4B18601A
:1049600010F03CFA2B785BB900F026FA40B93C48CD
:1049700008233C4A3C4900680BF0CAF800B92E7085
:104980003A4B5A68A2603A4A9A601A6E22605A6E8E
:1049900062601B6E5C043DD5364AD368D807FCD4F0
:1049A000354B1A68531C3AD04FF480139340334A66
:1049B00013660423314C23664FF48063236600F0B2
:1049C0003DF901300BD000F039F940F20113984263
:1049D0001FBF4FF4804323664FF400432366102328
:1049E000264C4FF0804223664FF4005368462366FE
:1049F00001A922666366FFF783FF009B2366019B84
:104A000063662B78002B9ED0164B1A6822665B6873
:104A1000636698E71A4AD368D907FCD4C0E7194BF4
:104A20001B78002BC5D1184B5A68144B12B94FF4A0
:104A300080121A66154A526812B94FF400121A66AB
:104A4000134B5B68002BB4D14FF480020B4B1A66FA
:104A5000AFE700BF8A250020882500208C25002094
:104A6000D410002080250020007108000080004440
:104A700055CEAC0000000440CC1000200090004453
:104A800000000450892500200080055000C005501A
:104A90000000065038B5214D04462B78012B02D07A
:104AA00001232B7038BD0028FCD000F0C7F801307E
:104AB00009D000F0C3F840F20113984203D0184A1D
:104AC000D368DB07FCD42268164B1A6662685A6604
:104AD000A268D40744BF00229A60134B1A680132BF
:104AE00013D1124A127882B911494968C80748BFE0
:104AF0001A60104A5268D10744BF01221A600E4A58
:104B00005268D20744BF02221A6010F07FF90B4BA3
:104B1000186800F070FF0023C3E700BF8A2500205B
:104B20000000044000800044CC10002089250020B3
:104B30000080055000C00550000006508C25002064
:104B400070B50024A36AB3F5804F1ED2104E33789F
:104B500013F0FD0517D10F48FFF7EEFE08214FF4C3
:104B600080330D4A0D48C2F88011C36011600C4AB1
:104B70001361AB6ADB69984704460648FFF78AFF72
:104B80000CB901233370204670BD4FF48174FAE7ED
:104B9000892500207425002000E100E000A00044E9
:104BA0000090004413B51F4B1B7803B9FEE70023A8
:104BB0001D4CCDE900336A4608231C4920680AF0E1
:104BC000A7FFF0B91A4AD2F84031D2F840211F2B82
:104BD0004FF0010310D9203A9340019A13430193F7
:104BE00008236A46114920680AF048FF4FF0005335
:104BF000104A1A60FFF75CFE9340009A134300933B
:104C0000EEE70D4B9842F1D1094AD2F84031D2F883
:104C100040211F2B4FF0010302D9203A9340DEE7D9
:104C20009340ECE78A250020D41000200071080092
:104C3000008000440B020FF00BE000F01FB50023D2
:104C40009A6AB2F5804F04D340F2011005B05DF8C6
:104C500004FB126BB2F5804FF6D2012201A8CDE918
:104C600002338DF80420FFF735FE039BDB03EBD501
:104C7000029B1A0EE8D0012A03D1C3F307430A2B83
:104C8000E2D900239B6A1B6B1B6C9847DEE700236D
:104C90000360704703680B600160704705490A684C
:104CA0001318054883428CBF4FF0FF320B6010464B
:104CB000704700BFD01000200000012008B504227A
:104CC00001230321002000F0E5FE002000F0E1FEBA
:104CD00001221B4B0521C3F844240C2000F05CFC8E
:104CE0000C2000F007FB174B00F5D520D3F8F0207F
:104CF00000F2FC4042F00102C3F8F020D3F8FC209F
:104D000042F08072C3F8FC200F4AA3F55D431A609D
:104D10000E4B0222B0FBF3F00D4B01381861C3F8C3
:104D2000F0204FF48072C3F804234FF06043094A27
:104D30000020C3F8B02F084AC3F8802E08BD00BF7A
:104D400000D0035000ED00E0FF030040F8590D00D3
:104D5000000004E055CEACC5090001004FF06042F0
:104D60000123D2F8001E03FA00F00843C2F8000E37
:104D7000002070474FF06043D3F8802E30B5D20743
:104D800015D501240B4D8440D5F8FC2042F08072EB
:104D9000C5F8FC20D3F8002E2243C3F8002E53F8A8
:104DA0002020002AF0D003F82010002030BD112070
:104DB000FCE700BF00ED00E0024B1968024B1868E9
:104DC0000AF086BDD8100020D410002070470000E3
:104DD00037B5920004460D46019231F011FE431C96
:104DE0000BD060B929462046019A31F08DFC00288D
:104DF000044808BF002003B030BD0348FBE7034868
:104E0000F9E700BF10E000F021E000F024E000F03E
:104E100013B5044601A800F053FF9DF806300122A7
:104E200023804FF4807300206380054B9B680A3316
:104E300003F01F0302FA03F3636002B010BD00BF6A
:104E40000080E00F00F074BE08B500F065FE0020A1
:104E500008BD10B5044644EA010313F003030846F5
:104E600009D1934201D1002010BD54F8231040F81D
:104E700023100133F5E72146920031F055FCF2E7AB
:104E800010B5044631F0C4FD431C15D0B0B90C4B2D
:104E900020469B680A3303F01F020123934023F04E
:104EA00003032344984201D1002010BD50F8042B85
:104EB0000132F7D00348F8E70348F6E70348F4E780
:104EC0000080E00F0EE000F021E000F024E000F0B0
:104ED00008B500F07BFD014B186008BD202C0020B8
:104EE000014B186800F076BD202C002070470000B0
:104EF00041F6713310B5104C104AA0428CBF4FF4EC
:104F000080140024D169D363936801F4803123F4C1
:104F10004013234393600A4B98420A4BD3F818225C
:104F20008CBF42F0020222F00202C3F8182211B133
:104F30000022024BDA6310BD005A620200000350E7
:104F400080F0FA0200C007502E4B98424AD022D877
:104F50002D4B984240D014D82C4B984239D00AD8C7
:104F60002B4B984232D02B4B98422FD02A4B984251
:104F70002CD000207047294B9842FAD1284B186F4B
:104F80007047284B98422AD0274B9842F1D1244BA6
:104F9000D3F880007047254B98422BD009D8244B7A
:104FA000984223D0234B9842E3D11D4BD3F88C0079
:104FB0007047214B984221D003F5740303F5105339
:104FC0009842D6D1164BD3F898007047144B986D81
:104FD0007047134B586E7047114B586F7047104B0A
:104FE000986F70470E4BD3F8840070470C4BD3F882
:104FF000880070470A4BD3F890007047084BD3F8ED
:10500000940070470048E8010024F400C0CF6A0013
:1050100080841E0000093D0040420F00405DC60034
:105020000080E00FC0EA210180BA8C01007E5603A7
:1050300080D54302006CDC020090D00308B5FFF776
:10504000C7FBBDE808400021FFF752BF38B5124B3F
:105050000546D3F820310C4603F00703013B032B30
:1050600017D8DFE803F0020A0E12FFF779FB0423DA
:1050700005B1286004B1236038BDFFF7ADFB032301
:10508000F6E7FFF7C5FB0523F2E7FFF7BDFB0223B9
:10509000EEE700231846EBE70080005037B50C46DA
:1050A0000021124A0191D2F88021054602F0030244
:1050B000022A0ED0032A11D0012A14D101A8FFF729
:1050C000C5FF0D230DB1019A2A6004B1236003B01E
:1050D00030BDFFF79DFB05230190F3E7FFF794FB3D
:1050E00002230190EEE70B46ECE700BF0080005082
:1050F00038B5104B0546D3F840310C4603F0030396
:10510000022B0BD0032B0DD0012B0FD1FFF7C4FBCB
:10511000082305B1286004B1236038BDFFF7C2FB46
:105120000723F6E7FFF7BBFB0923F2E70023184646
:10513000EFE700BF0080005038B5104B0546D3F8AC
:1051400060310C4603F00303022B0BD0032B0DD070
:10515000012B0FD1FFF7A0FB082305B1286004B194
:10516000236038BDFFF79EFB0723F6E7FFF797FBA9
:105170000923F2E700231846EFE700BF0080005044
:1051800038B5134B0546D3F800320C4603F007033D
:10519000013B032B18D8DFE803F0020A0E12FFF7D9
:1051A0007BFB082305B1286004B1236038BDFFF7FD
:1051B00079FB0723F6E7FFF772FB0923F2E7FFF716
:1051C000F5FA0C23800AEDE700231846EAE700BF52
:1051D0000080005038B5134B0546D3F808320C4612
:1051E00003F00703013B032B18D8DFE803F0020AA2
:1051F0000E12FFF751FB082305B1286004B12360AC
:1052000038BDFFF74FFB0723F6E7FFF748FB0923FD
:10521000F2E7FFF7CBFA0C23800AEDE700231846EC
:10522000EAE700BF0080005038B5104B0546D3F8C0
:1052300040320C4603F00303022B0BD0032B0DD09E
:10524000012B0FD1FFF728FB082305B1286004B11B
:10525000236038BDFFF726FB0723F6E7FFF71FFBA8
:105260000923F2E700231846EFE700BF0080005053
:1052700038B5104B0546D3F800310C4603F0030354
:10528000022B0BD0032B0DD0012B0FD1FFF7A4FA6B
:10529000032305B1286004B1236038BDFFF702FB8A
:1052A0000723F6E7FFF7AEFA0623F2E70123002013
:1052B000EFE700BF00800050032814D005D8012874
:1052C00005D0022809D0002005E00F28FBD1084BAB
:1052D000186FC0F3013001307047054BD3F89000D0
:1052E000C0F30460F7E7024B186FC0F38020F2E7C9
:1052F000008000501FB500230193252817D8DFE850
:1053000000F0131A1D262B353A50555A5F64697701
:10531000161A3F1616551A262B26351A5026773A96
:105320003A3A3A2626265A5FFFF726FA0190019864
:1053300005B05DF804FBFFF739FAF7E7FFF71CFA51
:1053400002460220FFF7B8FFB2FBF0F0EEE7FFF7EE
:105350002DFA02460320F5E7FFF728FA024603205C
:10536000FFF7AAFFB2FBF0F04008DFE7002101A839
:10537000FFF794FEDBE7002101A8FFF767FED6E701
:1053800002934FF0E0231B695B0705D5FFF70EFA88
:105390000290029B0193CAE703A902A8FFF7A8FEA7
:1053A000F7E7002101A8FFF7A3FEC0E7002101A84D
:1053B000FFF7C2FEBBE7002101A8FFF7E1FEB6E759
:1053C000002101A8FFF706FFB1E7002101A8FFF7C0
:1053D0004FFFACE7094BD3F8803003F00303022BF7
:1053E000A9D0032B01D00020A0E7FFF711FA9DE719
:1053F000002101A8FFF718FF99E700BF00800050C7
:1054000008B50120FFF776FFBDE808400349884250
:105410008CBF02210121032000F002B880F0FA02C3
:10542000032810B50C4627D004D8012804D0022840
:1054300017D010BD0F28FCD1FFF700FE00F028F8B0
:10544000124B013C196F21F4405141EA04341C67AE
:10545000FFF7ACF90021FFF74BFDBDE81040FFF767
:10546000CFBF0A4B013CD3F8901021F0F85141EA2C
:105470000464C3F89040DCE7044B013C196F21F44D
:10548000806141EA84241C67D3E700BF008000509C
:1054900002210320FFF7C4BF1FB500230193252875
:1054A00021D8DFE800F013202020202A2F454A4F82
:1054B00054595E7120203420204A202020202A20A8
:1054C0004520712F2F2F2F2020204F54314B1B6F41
:1054D00003F00703013B032B05D8DFE803F00C02C0
:1054E000080A04230193019805B05DF804FB032327
:1054F000F8E70623F6E70223F4E7002001A9FFF707
:10550000CDFDF0E7002001A9FFF7A0FDEBE7029336
:105510004FF0E0231B695B0705D5FFF747F90B2325
:105520000393039BDEE703A902A8FFF7E1FDF8E779
:10553000002001A9FFF7DCFDD5E7002001A9FFF756
:10554000FBFDD0E7002001A9FFF71AFECBE7002002
:1055500001A9FFF73FFEC6E7002001A9FFF788FE7B
:10556000C1E70C4BD3F8803003F00303022B03D0C8
:10557000032B05D00023B5E7FFF718F90B23B1E79C
:10558000FFF746F90523ADE7002001A9FFF74CFE20
:10559000A9E700BF0080005070B50C46252848D808
:1055A000DFE810F0260047004700470047005B0097
:1055B0006B009B00AB00BB00CB00DB00EB00FC00F2
:1055C000470047007B0047004700AB00470047000B
:1055D000470047005B0047009B004700FC006B0052
:1055E0006B006B006B00470047004700BB00CB001F
:1055F0008B1E042B2ED8DFE803F02A1D032D270075
:1056000000250226FFF71AFDFFF742FF6B4A136FD2
:1056100023F0070333431367FFF7C8F80021FFF7B0
:1056200067FCFFF7EDFE25B9032C02D10122644B84
:105630009A6270BD0122634B0E469D6A03F580534A
:10564000C5F340059A62DDE700250426DAE7002568
:105650000126D7E700252E46D4E78C1E0B2C8CBFE5
:105660000021594B554A98BF195DD2F8803123F07B
:1056700003030B43C2F88031DBE78C1E032C8CBF85
:105680000021524B4D4A98BF195DD2F8203123F0CA
:1056900007030B43C2F82031CBE70B2912D00ED8F9
:1056A000CC1F022CC5D84A4A536A43F00103536207
:1056B0004FF0E022136923F004031361B9E70E29C8
:1056C000B7D1F0E7424A536A23F0010353624FF027
:1056D000E022136943F00403EFE7CC1F022C8CBFD8
:1056E00000213C4B354A98BF195DD2F8403123F078
:1056F00003030B43C2F840319BE7CC1F022C8CBF45
:105700000021354B2D4A98BF195DD2F8603123F046
:1057100003030B43C2F860318BE7CC1F052C8CBF11
:1057200000212E4B254A98BF195DD2F8003223F094
:1057300007030B43C2F800327BE7CC1F052C8CBF5C
:105740000021274B1D4A98BF195DD2F8083223F07B
:1057500007030B43C2F808326BE7CC1E042C8CBF46
:105760000021204B154A98BF195DD2F8003123F073
:1057700003030B43C2F800315BE705290CD00B296A
:1057800014BF002102210D4AD2F8803023F0030318
:105790000B43C2F880304CE70321F4E7CC1F022C06
:1057A0008CBF0021104B054A98BF195DD2F84032DA
:1057B00023F003030B43C2F840323AE70080005065
:1057C00000E0005000C00050DC6A0300E86A0300FB
:1057D00000C00750EC6A0300EC6A0300EF6A0300A4
:1057E000EF6A0300F56A0300EC6A030038B505466A
:1057F000FFF7AAFB214B04465A68012A04D120492D
:105800004A609A699207FCD10020FFF745FE042800
:1058100003D1FFF713FCFFF73BFE1A4A24F0407355
:10582000954221D0184A954221D0184AD16811F0EA
:10583000060FFBD190689360916803F4F81301F4AC
:10584000F8118B4216D12846FEF790FF0020FFF793
:1058500023FE042810D1FEF7A9FF0021FFF748FB23
:10586000BDE83840FFF7CCBD43F00073DDE743F0FF
:105870008073DAE79060E9E738BD00BF00C00150EF
:1058800000E0015040420F0080841E0000000150E3
:1058900070B504460020FFF7FFFD03287CD045F6D5
:1058A0000E030221414AC2F88030414B9962012126
:1058B00003F580539962936DD903FCD4D4E90013A6
:1058C0001B0543EA0163E17B94F822500B43217BE3
:1058D00094F8236043EA0143617B43EA0133A17BEF
:1058E00043EA811313619169D4E904031B0643EA77
:1058F000806301F000410B43A17EE07E0B43217EDB
:1059000043EA0143617E43EA01239361136AE2693A
:1059100023F00D03002A0CBF0021082143EA0203F3
:1059200043EA8003214A43EA0103136294F82030DA
:105930004FEA431331D1906A94F8211020F03300DC
:1059400043EA0113034343F001039362194B916D42
:1059500033EA0101FBD10221154B9962936D5B0083
:10596000FCD41069A36820F4700040EA0350106171
:105970004FF000420E4B9A611DB9022203F580538D
:105980009A6216B901220C4B9A6294F824301BB12A
:10599000064B0A4AC3F8802070BD916A21F033019A
:1059A00031430B4343EA45039362EEE700C00050E6
:1059B00000D000500300014000E00050F1A7FFFFBD
:1059C000014B93F900007047D42C0020EFF31080B6
:1059D00072B6704700B962B67047302383F31188FE
:1059E0007047002383F311887047EFF31180302351
:1059F00083F31188704780F31188704770477047B0
:105A00000A4A10B51369044643F00403136103F016
:105A1000A3F8FFF7F3FF30BFFFF7F1FF03F0B0F893
:105A20001CB9BDE81040FEF7C1BE10BD00ED00E09E
:105A3000084A10B51369044643F00403136103F0E8
:105A40008BF830BF03F09CF81CB9BDE81040FEF79E
:105A5000ADBE10BD00ED00E070477047034A01790C
:105A6000D36E23F030030B43D366704700400050E1
:105A700070B5054614460E46FFF7A8FF296881EA6F
:105A8000040202EA06044C402C60BDE87040FFF7B7
:105A9000A1BF7047F8B504460D461F4616464AB1E9
:105AA00001238B403021194A01FB0022FFB141F252
:105AB0001001535004EB4403072D4FF00F014FEA40
:105AC000031317D8A80006FA00F2814010481844C2
:105AD000FFF7CEFF56B9012130230C4801FA05F536
:105AE00003FB040077B141F21003C550F8BD42F248
:105AF0001001DEE7A5F10800800006FA00F28140FF
:105B00000448E4E742F21003EFE700BF00C003508F
:105B100004C003500CC0035041F67132034BDA63EA
:105B2000012203F50053DA60704700BF0000035004
:105B300041F671320121044BDA6303F50052D16062
:105B40000022DA63704700BF000003504FF050237B
:105B50004FF400321A677047014BD3F89400704736
:105B6000004000504FF0B0435A6812B19A6A002AC0
:105B7000FAD17047CB784A7810B55B010C7843EACC
:105B800082030A79234343EA02130C22424302F1BF
:105B9000B0421363012C02BF8A78024B43F82020E5
:105BA00010BD00BFD080035008B54FF0B0435A6815
:105BB00002B960B15B680BB1FFF7D4FF4FF0B041A1
:105BC00030B10120074B5860FFF7CCFFC86008BD1B
:105BD000FFF7C8FF0223CB60FFF7C4FF0122024B8F
:105BE0005A60F4E700100058002000584FF0B0430E
:105BF0005B6870B50BB1FFF7B5FF0121104B45781D
:105C0000596083780679002BC37814BF02240024DE
:105C1000002B14BF042200224379DB0043EA061361
:105C20002B43234313434FF0B0429360054B59601D
:105C30000378002B14BF0B460223D36070BD00BF56
:105C40000020005800100058436813B941607047A5
:105C50005B685A68012AFBD159607047836813B9A1
:105C6000816070475B685A68012AFBD159607047B0
:105C7000C369032B9FBF00EB83020133D160C36173
:105C80007047C369042B15D84FF09842116CC902B4
:105C9000FCD504339B0013650168103B116041681B
:105CA0000C30116050F8041C034411604FF098420E
:105CB000984200D1704750F8041B1160F8E70000CB
:105CC000054B5B69C3F38512827003F03F021B0B27
:105CD00042700370704700BF00C007500D4B9842E0
:105CE00008D1A3F50033C3F88411C36D43F08003DA
:105CF000C3657047084B984204D1A3F51033C3F82D
:105D00009411F2E7054B984204BFA3F52033C3F882
:105D1000A411EAE70080055000C0055000000650BD
:105D200070B5054616461C4619B90320FFF7E2FA7E
:105D30000146402C1BD003D8DCB1202C1BD070BDF9
:105D4000602CFCD1042303FB06F2560806EB41133A
:105D5000B3FBF2F3094A203B02EAC303AA6822F02C
:105D60006002AA60AA681443AC60EB61E7E706230F
:105D7000E9E71023E7E70823E5E700BFF8FF7F0026
:105D8000012200F580535A60CB43934003F00A038D
:105D90004361416111B900F5005042607047000055
:105DA000012200F5805310B55A6040F6AA6341F213
:105DB00005024361002312498360C365C26000F598
:105DC00000520361C361C36491640E4983658842D4
:105DD00006D00D4CA04203D004F58044A0420BD164
:105DE0008842036506D0084B984203D003F58043F0
:105DF000984201D1002343650123536010BD00BFC9
:105E0000FFFF01000080055000C0055070B50D4631
:105E1000FFF7C6FF012300F580567360AB7C044694
:105E20001BB1836843F080438360EB7C1BB1204649
:105E3000297DFFF753FF2A8A6B7B20461343EA89AB
:105E40001343E3602B7BD5E90112FFF769FF6B7DFC
:105E50001BB1A36843F48033A360AB7D1BB1A3687F
:105E600043F40043A360EB7D2A7E1B07120502F476
:105E7000E00203F0E0431343A3656A7E931E012B07
:105E8000214B20D89C421AD003F580439C4218D065
:105E900003F580439C420CBF02234FF0FF3341F2D5
:105EA000AC5102205B0103F1A04303F5703358505D
:105EB000032A23D10423F3652B78636170BD00238B
:105EC000EDE70123EBE79C4214D0104B9C4213D02A
:105ED00003F580439C420CBF02234FF0FF3342F294
:105EE000AC5102205B0103F1A04303F5703358501D
:105EF000012ADEE70023F2E70123F0E7042204F59C
:105F00000053DA65D8E700BF0080055000C0055097
:105F100083691B06FCD5406AC0B2704783695B0683
:105F2000FCD5C1637047002070470F2070470F20D9
:105F30007047002070470F207047002070470F20E7
:105F40007047002070470F207047002814BF0F20B3
:105F500000207047002070470020704738B5044685
:105F6000054D0AF035FE0FCC0FC594E80F0085E80B
:105F70000F00002038BD00BFD82C002047F6FF736B
:105F80009A42F0B563D0032963D8334BCF0003EBBB
:105F9000C10013F831108478012913D10025C3788A
:105FA0001B1B9D4202D3E018C0B2F0BD591B4668CE
:105FB000A3EB510136F911609642D4BF0D4601F1B1
:105FC000FF33EEE740680028EFD0B0F900109142AF
:105FD00004DBB0F902109142B8BF114682883B44FD
:105FE000FF2A19BFC8222826B0F90620B0F9086098
:105FF000A2EB01020CBF0125002592FBF6F25F78AF
:106000002A447B1E934228BF13464FF47A7E00EB4E
:10601000C305AE68EA88AC4611FB02621E4622EA5E
:10602000E272013302F5FA729F42B2FBFEF204D92A
:10603000BCF80CC008359445EBD200EBC600808854
:10604000904228BF1046A04238BF2046ACE7FF2050
:10605000ABE70020A9E700BFD82C00200329F0B54A
:1060600053D82B4800EBC10410F8311063680129A4
:106070000FD1E078A478904294BFC4EB0001C4EB48
:106080000201001BCAB28242C8BF002233F91200CB
:10609000F0BD002B39D0A178914202D3B3F90200B0
:1060A000F6E7E178B3F900009142F1D99988647874
:1060B000A1F1FF06013C714203F10405E4B2714114
:1060C00003F10C071FFA82FCCEB2B44216D805EBDE
:1060D000C1014FF47A756A43B1F902404968521A16
:1060E00004EBD47102EB610292FBF4F29042CFDB3D
:1060F000B3F902009042CBDC10B2C9E737F831E0C7
:106100004E1CE645E3D33146DEE70248C0E700BF58
:10611000D82C00200080FFFF08B50448FFF71EFFC1
:10612000BDE8084001200AF08FBD00BFFC6A0300F3
:1061300000207047002814BF0F2000207047012066
:10614000704701207047012814BF0F2000207047BE
:106150000F2070477FB51422002101A830F00BFBFF
:10616000044B01A94FF0FF3002930AF0C1FD07B0C4
:106170005DF804FB006A1800002307B5CDE9003381
:10618000012369464FF0FF308DF802300AF0DAFC47
:1061900003B05DF804FB000013B50024064A68460E
:1061A000536F43F00103536700948DF80440FFF7E9
:1061B00055FC204602B010BD0040005008B5024812
:1061C000FFF714FB002008BD00B4C40430B58BB049
:1061D0006C46154D0FCD0FC40FCD0FC495E80300CD
:1061E00084E80300114BD3F84C21120314D4D3F8E4
:1061F0005041E4B28DF81940FFF7E2FB204480F3F0
:1062000008008DF818000A48FEF7ECFA6846FFF718
:106210003FFB00200BB030BD064B1C884FF6FF73D0
:106220009C4208BF8C24E5E7E86B03000080E00F88
:1062300000F049020001E00F6FF00402502110B598
:106240000A480B4C12F0800FD3B21BBF03F00F03B0
:10625000043BA3181B1802F101020CBF83F80013C2
:1062600019763D2AEED1002010BD00BF00ED00E000
:1062700000E100E000F078B838B502F0F1FD044626
:10628000E0B902F007FF4FF4167343430C4803F5DF
:10629000742303F23F23B3FBF0F30A4A0A49136065
:1062A0000A220D680948013A12F0FF0240F8043B47
:1062B000F9D103EBC3022B4413440B60204638BDD5
:1062C00040420F00342D0020002D0020042D00201E
:1062D000012208B5034B1A7002F0B6FE024B18609B
:1062E00008BD00BFFC2C0020302D0020F8B5144C58
:1062F000237823B302F0A8FE124B134D1B68134EF4
:10630000C01A012838BF0120114B124F18602B789A
:1063100056F8232046F82300111A3A680E48521AFC
:106320000A213A600932B2FBF1F20133DBB20260BA
:10633000B3FBF1F201FB12332B7000232370F8BD85
:10634000FC2C0020302D00202C2D0020042D0020BE
:10635000F82C0020002D0020342D0020014B18685F
:10636000704700BF342D002020230949094A81F8D5
:106370002D33094B03F50050426702674FF400507C
:10638000C1F88401486003F580535A67704700BF25
:1063900000E100E0010000A000C00050044B9A6D35
:1063A000D20702D40028FAD170470120704700BFFD
:1063B00000C000500C4B10B51C6FE20707D501223E
:1063C00003F500531A67FFF791FF02F03DFB14F04D
:1063D00000521CBF054B1A67002CBEBF4FF0004295
:1063E000024B1A6710BD00BF00C0005000E0005013
:1063F000FFF7E0BF10B50446FFF7E8FA024B1C6058
:10640000FFF7E8FA002010BD382D002010B5FFF787
:10641000DDFA034B1C68FFF7DDFA204610BD00BF14
:10642000382D002007B530B9CDE90012FFF7EEFF97
:10643000DDE9001230B1436823B1006803B05DF8B4
:1064400004EB1847232003B05DF804FB30B51C466D
:1064500085B058B9CDE90012FFF7D8FFDDE9001289
:1064600004B903AC20B9232005B030BD03B903AC97
:106470008568002DF7D023460068A847F4E707B5E4
:1064800001228DF807100DF10701FFF7CBFF03B0D4
:106490005DF804FB0B4601461846FFF7F0BF0023EA
:1064A0000122FFF7D3BF00000EB40FB505AB53F8C0
:1064B000042B039318B90192FFF7A8FF019A014634
:1064C000039B064807F00AFD0028D4BF37200020B0
:1064D00004B05DF804EB03B0704700BF95640000A2
:1064E00010B5002400F028F80348044B8460436092
:1064F000FFF780FF204610BD402D00200165000001
:1065000007B5044B0093044B1B8800F02BF803B035
:106510005DF804FB3C2D0020F8100020014B188092
:1065200000207047F81000204FF06042D2F8803E03
:106530001B02FBD47047000008B5074B1A6842B92C
:10654000012208201A60FEF709FC0449044802F001
:1065500059F9002008BD00BF542D00201011002063
:106560004C2D00202DE9F0470F4615461E4600240D
:1065700002F1040802F109094FEA132A5FFA88F8C8
:106580004C4502D30020BDE8F0871CB3012C05D197
:1065900041460820FEF7EEFB0134F1E7022C1BD048
:1065A000032C01D1F1B2F4E7042C17D0052C04D14F
:1065B000089B13F8011B0893EBE7AB1DA3420FD018
:1065C000EB1DA3420CD005F10803A3420AD0BB1F68
:1065D000195DDEE75B21DCE7D121DAE75146D8E738
:1065E0005A21D6E75D21D4E790F82A3001223BB149
:1065F00090F82E30022B03D180F82E2018467047D9
:106600001346FBE780F82410704790F82400704789
:1066100090F82B0070470000002808DB0123420996
:1066200000F01F0003FA00F0014B43F8220070470E
:1066300000E100E0002809DB0122430900F01F000F
:1066400002FA00F0024A603342F82300704700BFAC
:1066500000E100E0F8B504460D4690F82B3081B11A
:1066600073B990F82C60FFF7B1F905460121304667
:1066700002F044F82846FFF7ADF9012384F82B30E7
:10668000F8BD002BFCD090F82C70FFF79FF9064660
:106690002946384602F032F83046FFF79BF984F875
:1066A0002B50EDE770B504460568FFF7AFFE844256
:1066B00002D10020FFF79EFE95F92800FFF7BAFFF0
:1066C00095F92830002B0DDB01215A0903F01F0337
:1066D00001FA03F31449203241F82230BFF34F8FFF
:1066E000BFF36F8F95F92900FFF7A4FF95F92930C3
:1066F000002B0DDB01215A0903F01F0301FA03F3FC
:106700000949203241F82230BFF34F8FBFF36F8F1A
:1067100000232846C4E90033C4E90433A360EB68CE
:10672000BDE87040184700BF00E100E02DE9F047E8
:10673000044616460D4690F82480FFF756F994F863
:106740002A2003469AB1FFF756F994F82D90FFF7E7
:106750003DF907460121484601F0D0FF3846FFF7D2
:1067600039F9FFF742F90022034684F82A20184637
:10677000FFF741F92E44B8F1000F23D1AE4205D105
:10678000204663680121BDE8F047184794F8263099
:10679000002BF3D02046236815F8011B98470028EA
:1067A000ECD0BDE8F08794F826305BB12B780A2B4B
:1067B00003D10D212046236898472046236815F809
:1067C000011B9847AE42EED1DAE72DE9F7434FF0CF
:1067D0000009044690461E46C3F800904F1E3368D9
:1067E000434505D2FFF701F9A269C2B9FFF703F9E2
:1067F00094F827305BB91123012220460DF10701DF
:106800008DF80730FFF792FF012384F827303368B3
:10681000002B0CBF1B20002003B0BDE8F083E16912
:1068200022698A5C07F8012F2569226A01359542A1
:1068300008BF4D46A2692561013AA261FFF7DBF866
:10684000A36820469847336801333360C7E708B52B
:10685000FFF76CFF002008BDF8B51F4653680646D9
:106860000C461546002B5BD09368002B5AD0302283
:10687000002120462FF07FFF6B682B4AE361AB6855
:10688000204623622B7B84F82430AB7B276084F87E
:10689000253040F20113E384069B00276360079BC9
:1068A000A360089BE3602B7884F828306B7884F829
:1068B00029301E4B346073601D4BB3601D4B336138
:1068C0001D4B73611D4BF3601D4B3362012384F834
:1068D0002E30B2611B4AF2619DF8282084F82D20E9
:1068E0009DF8242084F82A3084F82C20697B84F8D1
:1068F0002B70FFF7AFFE95F90100FFF79BFE95F9AE
:106900000100FFF789FE95F90000FFF793FE95F966
:106910000000FFF781FE3046FFF76CFD3846F8BDFA
:106920002220FCE72120FAE7556600004F680000AE
:10693000CB670000056600000B660000A56600003E
:10694000E96500001166000010B50446FFF74DF838
:10695000A269236A9A4203D2FFF74DF8012010BDC5
:10696000FFF749F80020FAE737B504460D4600E086
:1069700000BFFFF73AF894F8253002466BB1132DAB
:1069800007D1002384F8263003B0BDE83040FFF77C
:1069900032B8112D01D10123F4E76369E169104692
:1069A000CD54A16963690131A161216A01338B4230
:1069B000636104BF00236361FFF71DF8042384F8BB
:1069C0002E3094F825307BB1A269236A9A420BD10C
:1069D0001323012220460DF107018DF80730FFF740
:1069E000A5FE002384F8273003B030BD90F82A308C
:1069F00073B5044603F0FF01A3B9436801919847BA
:106A0000012384F82A3094F82D60FEF7DFFF054655
:106A10000199304601F072FE2846FEF7DBFF0223A3
:106A200084F82E3002B070BD026BD36C43F00403C7
:106A3000D364704710B50446026B93695906FCD5C0
:106A4000002394F836101A4694F83500FFF722F820
:106A5000002394F838101A4694F83700FFF71AF814
:106A600094F83D30DA0707D5002394F83A101A4617
:106A700094F83900FFF70EF894F83D309B0707D5DE
:106A8000002394F83C101A4694F83B00FFF702F8F4
:106A9000206B0021FFF774F9002010BD08B5006BD2
:106AA000FFF73CFA002008BD036BDA6C19B142F025
:106AB0000102DA64704722F00102DA64012203F570
:106AC00000539A64704700002DE9F0414FF001082F
:106AD0001C46574B86B00293564B0C9D0193564B68
:106AE000174600930A46CDE903882946534BFFF722
:106AF000B3FE0646002875D1236804222B63237950
:106B000085F83430A17985F83610607985F835003C
:106B1000237A85F83830E37985F83730A37A85F819
:106B20003A30637A85F83930237B85F83C30E37A54
:106B300085F83B304346FEF7ADFF43460222217AFB
:106B4000E079FEF7A7FF3E7039462068FFF75EF94F
:106B50001421627B3A4B03EB4210C0F8AC1594F859
:106B600006C061792E3203EB421341EA0C415960B1
:106B7000227AE37943EA0243C0F8BC3585F83D60E8
:106B80007B7E032B52D8DFE803F01F02314C012338
:106B9000002785F83D3000230222A17A607AFEF7B3
:106BA00079FFA17A627A637B42EA014241F2B451F1
:106BB0005B0103F1A04303F570335A5004222368AC
:106BC00003F58053DA65A7B96379052185F8353077
:106BD000A37985F836302068C36C43F00403C3649E
:106BE000FFF7CEF8304606B0BDE8F081022385F805
:106BF0003D3000230422217BE07AFEF74BFF41F277
:106C0000AC520221637B5B0103F1A04303F57033B7
:106C10009950217BE27A42EA014241F2B8515A503E
:106C2000D2E70323012785F83D30B4E72326D9E7CF
:106C3000356A0000296A0000A96A00009D6A000008
:106C400000C00350036B10B59B690446190609D5B3
:106C5000FFF77AFEB0B1206BFFF75AF901462046E4
:106C6000FFF782FE236B9A6CD20711D5012103F541
:106C7000005291649B699B060AD52046BDE81040EE
:106C8000FFF7B4BE226BD36C23F00403D364E9E7AF
:106C900010BD000010B51C46044B186807F09EF9A3
:106CA000002820600CBF1B20002010BD1811002000
:106CB00007B5044B00931123FFF754FC03B05DF8B4
:106CC00004FB00BF782D002010B5FFF735FC0F4CFA
:106CD000206007F0C3F920220D4901230D4807F079
:106CE0008BF90D4B18600D4B204663600C4BA36075
:106CF000FFF780FBFEF76AFE01210446084601F01B
:106D0000FDFC2046FEF766FE002010BD7C2D002015
:106D1000582D0020166C030018110020B16C0000E3
:106D2000956C000000F0FD03112B05D0182B03D04B
:106D3000A0F17D03012B07D80122044B80F0200035
:106D40001A70034B18707D20704700BF982D0020EB
:106D5000992D0020F8B50E461446204B00B3204A6A
:106D60002049107000221A7022700A704FF6FF72CC
:106D70001D4B1A801B4D2B78EBB91B4F30463988C1
:106D800000F0C7FA164A38801378013BDBB2137063
:106D90006BB901232B703046BDE8F840FFF7C2BF46
:106DA0001A78002AE6D01870104B1878F8BD2378AE
:106DB00001332370EFE7012B05D102232B700A4B1F
:106DC0001888000AE8E7022B04D103232B70064B36
:106DD0001878E1E7FF237E202370E7E7982D002055
:106DE000942D00209A2D0020962D0020992D002012
:106DF0002DE9F047394E8846337817465BB9384A53
:106E00001370384A1370384A1370384A13704FF6AB
:106E1000FF72374B1A807D284FD02CD8182850D0BD
:106E20001A2852D00022314B2D4D1C781A702B7825
:106E3000DFF8B490DF2B9CBF01332B702B784440DC
:106E4000022B12D9DFF8A8A099F80000BAF80010B8
:106E500000F05FFA2B78AAF80000DF2B9FBF99F8AB
:106E60000020023B88F800203B701E4B1A781C70F3
:106E700089F8002006E07E28D4D1194B1B781BB975
:106E80001A4A1370202011E0FF2B20D0184A1188D5
:106E9000154A1078134A127802EB0022914218D159
:106EA000022B18D9DF2B8CBF7A200020A0F1200202
:106EB000534253413370BDE8F08720200B4B1870CC
:106EC000F4E7FF22064B1A70DCE77420EEE7772028
:106ED000ECE77620EAE77920E8E700BF8C2D002078
