:10000000001000207901000075010000B50A000011
:100010007501000075010000750100007501000008
:100020007501000075010000E8290000750100005D
:1000300075010000282A000075010000750100000C
:1000400075010000750100007501000075010000D8
:1000500075010000750100007501000075010000C8
:1000600075010000750100007501000075010000B8
:1000700075010000750100007501000075010000A8
:100080007501000075010000750100007501000098
:100090007501000075010000750100007501000088
:1000A0007501000075010000750100007501000078
:1000B0007501000075010000750100007501000068
:1000C0007501000075010000750100007501000058
:1000D0007501000075010000750100007501000048
:1000E0007501000075010000750100007501000038
:1000F0007501000075010000750100007501000028
:100100007501000075010000750100007501000017
:100110007501000075010000750100007501000007
:1001200075010000750100007501000075010000F7
:100130007501000010B5054C237833B9044B13B199
:10014000044800E000BF0123237010BD60100020B0
:1001500000000000DC2A000008B5034B1BB1034976
:10016000034800E000BF08BD00000000641000204C
:10017000DC2A0000FEE7000008B500F021F800F0DE
:100180000BFD0A4B0A4A0B498B4206D300210A4B4E
:100190000A4A934206D300F091FC52F8040B43F84C
:1001A000040BF1E743F8041BF3E700BF0010002045
:1001B000DC2A0000601000206010002038130020AE
:1001C000044B054A9A60D3F8882042F47002C3F8C1
:1001D0008820704700ED00E00000000070B50026A8
:1001E000B36A05461A69546BA24201D3012070BD5F
:1001F0005B69A342FAD9204600F0F8FA0028F5D04E
:10020000236913F0FE030ED16968226A91420CD96A
:10021000102204F1280105F10C0002F03FFBB0FAB6
:1002200080F04009E3E73046E1E71846DFE70000E9
:100230000023024A1370024A137070477C1000209A
:100240007D10002038B503780546042B0C4650D0AD
:1002500008D8012B0AD0032B50D0182340F60310E6
:1002600023700DE0182B49D0432BF5E7264B42783D
:100270001978D9B9012A04D0152340F60410237047
:1002800038BD1A70AB781A44FF2AF5D100228021BC
:10029000E81C01F0B4FD95F88320C0F30F239A42C7
:1002A00016D0152340F602102370E9E7174B1B7890
:1002B000934204D1062340F606102370E0E7013391
:1002C000DBB29342DED0152340F605102370D7E74A
:1002D00095F88430C0B2834204D0152340F6011053
:1002E0002370CDE76A78094B00201A70062323702B
:1002F000C6E7062340F607100B70C1E7182340F647
:1003000008102370BCE700BF7D1000207C10002087
:1003100010B5044600F0B4FE182C07D1204600F0BA
:10032000AFFE2046BDE8104000F0AABE10BD0000A0
:1003300007B54FF47A710DF1070000F02BFF50B9AB
:100340009DF80730313BDBB2022B01D8034AD05C69
:1003500003B05DF804FB0120FAE700BF4729000065
:1003600000F0A2BD002310B59B6A92B047226846F8
:1003700017499C6802F0A2FA0A22C4F30363092B0E
:100380008CBF373330338DF81430C4F30343B3FBE1
:10039000F2F102FB113304F00F0430338DF8173003
:1003A000B4FBF2F302FB134401F1300003F130011E
:1003B0008DF816008DF81910012247216846303457
:1003C0008DF81A4000F024FE002012B010BD00BFCE
:1003D000002900002DE9F0430024ADF5237D4FF402
:1003E0008E7221465BA88DF80F4002F074FA6822E5
:1003F000214605A802F06FFA682221461FA802F0E4
:100400006AFA3C2700F0F0FC0125B14EDFF8D882F3
:10041000DFF8D892062DFDD8DFE815F00B000F00AD
:10042000140035004F004401B1000425F2E70546F1
:10043000F0E7FFF797FF0125ECE7FFF779FF3C278F
:100440000546E7E701221121A24800F0E1FD202343
:100450001FAA05A95BA801F067F82C2200219C487F
:1004600002F039FAFF2301210520737000F0DCFC53
:1004700000F01AFE18B10121002000F095FEFFF7F0
:10048000D7FE0325C6E74320FFF742FF00214FF4C4
:100490007A7000F0C9FC00F007FE18B900F0EAFC21
:1004A0000028F8D000F000FE0028BED1013FB1D1F5
:1004B0001820FFF72DFF0025ACE7002185220DF164
:1004C000E50002F008FA002140F6B83000F0ACFC7C
:1004D00000F0EAFD78B34FF47A730093012304AA85
:1004E00019460DF1E50000F003FE9DF8E530012B03
:1004F0000DD140F6B832842100920DF1E60004AA35
:1005000000F0F6FD049B0446842B18D1C8B90DF108
:100510000F010DF1E500FFF795FE40F60713984235
:10052000044614D1B3780BB1F37813B918238DF8BE
:100530000F3006251DE000F09DFC0028C8D040F2D9
:10054000047415208DF80F00FFF7E2FE62E780B912
:100550009DF8E530012B0CD15F4B314600933AAA50
:1005600080235BA801F018F8044610B118238DF819
:100570000F309DF80F00182808BF0625E4E7012179
:10058000002000F011FE01210A2000F04DFC9DF832
:100590000F300122062B08D140F607139C4204D1EC
:1005A0001B214E4800F034FD85E71A21484600F033
:1005B0002FFDA4F51063B3F5E06F4FF0010222D2D6
:1005C0001121474800F024FD40F606139C4222DD2D
:1005D0009DF80F309F2B4FEA13108CBF373030300F
:1005E00000F04EFD9DF80F0000F00F0009288CBFB1
:1005F0003730303000F044FD0D2000F041FD0A207E
:1006000000F03EFD57E71021364800F001FD40F6AE
:1006100006139C420BDCB4F5106FD9DDA4F602136F
:10062000042B2BD8DFE803F02C24282E3000A4F56F
:100630008053013B092BCBD8A4F58053013B092BF8
:10064000C6D801A252F823F09D060000D105000093
:10065000D1050000A10600009106000099060000E7
:100660009D060000950600008D0600009D06000016
:1006700021238DF80F30ABE72223FAE72323F8E795
:100680002423F6E72523F4E72723F2E74123F0E7C5
:100690004323EEE74423ECE74523EAE74F23E8E76B
:1006A0005023E6E7B378002B39D0F378002B36D00F
:1006B000337813F004051BD0B06A00F09DF90028D0
:1006C0003FF4B5AE4FF4004000F0C0F9F3E600BFD0
:1006D00080100020B5290000702900009A29000030
:1006E000C62900005D2900004A2900008029000079
:1006F0009B070FD5AB6A72689B689A4204D94FF486
:100700000040716A00F036F901221321404600F0E2
:100710007FFC7FE640F2012000F01EFBF4E740F290
:10072000032000F019FBC6E670474FF098435A6C5F
:10073000D202FCD5586D00F470207047C0F30C0352
:100740002DE9F04105460F4616460BB900F02DFB8A
:1007500005F5005424F4FF5424F01F0405EB0608AB
:10076000A04507D8324639462846BDE8F041022365
:1007700000F022BB204600F018FB04F50054EFE720
:1007800070B40025AD6A03462E69864206D86C69AE
:1007900013449C4202D370BCFFF7D0BF70BC7047BB
:1007A0001FB510F5004F00F50043144603931AD20D
:1007B000039BB3F5FC2F16D2039BC3F5FC23934296
:1007C00011D348B9836A5A69B2F5004F04D9186940
:1007D000019100F0EAFA01992246039804B0BDE8BD
:1007E0001040FFF7ABBF04B010BD00007FB503465B
:1007F000D0B16D460D4A02F110062C4610685168C2
:10080000083203C4B2422546F7D15A1E0DF10F013A
:100810000F3311F8010912F8014F844204D19A42B2
:10082000F7D1012004B070BD0020FBE7D7290000FC
:10083000036913F0FE0F0CBF01200020704738B58C
:1008400004460D46FFF7D2FF48B16369012B09D179
:100850002046FFF7EDFF08B1A3692B6038BD0120EA
:100860002C60FBE70020F9E72DE9F041036804461E
:1008700003F16043B3F5803F4FF00000A0B029D8EA
:10088000826A636816699E4224D8B3F5002F21D886
:10089000656B06F14003AB4268D8B5F5002F65D80B
:1008A0002846FFF7A3FF002860D02846FFF7C0FFC7
:1008B00080B16B6973B1022B0FD1AB69C4F1040134
:1008C00019444FF0FF32204601F0A6FA284BC31A14
:1008D0005842584120B0BDE8F08140F204632846F8
:1008E0000493FFF783FF08B90020F3E72846FFF7DA
:1008F0009FFF0028F8D00027D7F834804046FFF744
:1009000075FF0028F0D0403EB045EDD8284605A937
:10091000FFF795FF0028E7D0BA6A059B12699A4253
:10092000E2D89C42E0D8B3F5002FDDD806A801F04C
:1009300033FB059A2146121B06A801F037FB06A8D7
:1009400001F036FB059C01F037FB039001F04CFBF6
:1009500021460090039B04F1200206A801F0A2FAB0
:1009600004900498B0FA80F04009B3E70120B1E7A1
:10097000E320BBDE70B54FF0FF3290B005460C4669
:1009800001F04AFA194B98422DD11C22002101A8EE
:1009900001F0A1FF164B29466846009301F087FD40
:1009A0002146684601F083FD684601F089FDFFF7A6
:1009B000BCFE0646B8B940F2022000F0C1F91C2284
:1009C000314609A801F087FF0A4B294608A8089379
:1009D00001F06DFD08A8214601F069FD08A801F0AD
:1009E0006FFDFFF7A2FE002010B070BDE320BBDE5C
:1009F00001000543010006434FF0FF3310B58CB0F2
:100A00001C220021044605A8009301F064FF0D4B51
:100A1000CDF804D00493012302930B4B04A801A941
:100A2000039301F03AFD04A801F04AFDFFF77DFEB3
:100A300030B9009BA3422CBF002001200CB010BD98
:100A40000020FBE7000008430400002030B5044606
:100A500091B01C22002101A801F03DFF114B21465D
:100A60006846009301F023FD684601F029FDFFF779
:100A70005CFE054698B940F2022000F061F91C22A4
:100A8000294609A801F027FF074B08A8214608932B
:100A900001F00DFD08A801F013FDFFF746FE002050
:100AA00011B030BD00000243000003430020704736
:100AB000002070474FF4017000F04EB913B501A843
:100AC00001F042FD2D4A936DDB0313D4536B23F4E5
:100AD000FF0323F4FE4343F4BC1343F4A0635363C6
:100AE000136B23F4704343F440431363136B43F4D9
:100AF000E06313639DF80530012B0FD19DF804309E
:100B000063B94FF000531B681D4B1B681D4B1B68DE
:100B10001D4B1B681D4B1B681D4B1B681D4AD2F8E3
:100B2000803043F00303C2F88030FFF7BFFF00F0CE
:100B3000F5F8FFF715FCFFF715FC18B14FF401703D
:100B400000F00AF9FFF746FC0446FFF7EDFD1CB183
:100B500040F203739C4203D140F2012000F0FCF804
:100B6000A4F20574012C94BF40F203204FF40170ED
:100B700000F0F2F8002002B010BD00BF00C000403D
:100B8000004000200080002000C000200000012064
:100B9000004001200080004013B501244FF04023A5
:100BA0008DF806408DF80740D3F894305B060BD5DE
:100BB00000F0E6F8A0F2022080B2072804D804FA78
:100BC00000F010F0C90F02D100F050FB20B100235B
:100BD0008DF806308DF807304FF480435B680133A1
:100BE00008D14FF4027000F0ABF800238DF8063006
:100BF0008DF807309DF8073063B14FF48040FFF760
:100C000033FE8DF806009DF806301BB94FF40270D4
:100C100000F096F89DF8063063B14FF48043064A21
:100C200093601846016881F3088881F30988406859
:100C30008746FEE702B010BD00ED00E0B1F50A7F87
:100C400010B5044610D34FF40A72002101F043FEA0
:100C5000002304F5D872637004F5A47104F12C002C
:100C6000BDE8104000F060BC40F2052010BD13B597
:100C70000446009101462C3000F08EFCC4F824029A
:100C800018B141F20703984209D1A3784BB140F261
:100C9000032040F20223E278002A08BF184602B07F
:100CA00010BD40F20120FAE72DE9F04387B00DF1C5
:100CB000080904460E4617460021102248461D46E4
:100CC000DDF8388001F007FE00211C22C8F8001072
:100CD000284601F000FE32463B462146CDF8009002
:100CE00004F12C0000F058FC23789A0744BF626896
:100CF000C8F80020DB0705D51C22284604F10801AE
:100D000001F0DCFD237840F20640002B18BF0020E4
:100D100007B0BDE8F0834FF40A7070474FF00053FE
:100D20004CF23C325A8070474FF000534AF6C030C4
:100D30005B8823F00F039BB21B1A5842584170473F
:100D40004FF0005208B51080FFF7EEFF10B94FF2D8
:100D50000F03538008BD000008B5FFF7F1FFBFF394
:100D60004F8F0549054BCA6802F4E0621343CB601C
:100D7000BFF34F8F00BFFDE700ED00E00400FA0570
:100D80004FF000534FF20F015A888A4201D1188860
:100D900070473AB91B8840F20220012B18BF4FF46C
:100DA000007070474FF40070704708B501F0D4FA36
:100DB000B0FA80F0400908BD072B10B5044618466C
:100DC0000FD862B142EA04039B070AD113460A46D0
:100DD000214601F0E5FAB0FA80F0400910BD01208B
:100DE000FCE70020FAE700001FB500F0FBF94FF424
:100DF0007A23B0FBF3F00A4B0E22186000216846FC
:100E000001F069FD01238DF8003040F2FF3369469F
:100E10000448ADF8023001F0ACFB05B05DF804FB0E
:100E2000B01000200080044030B50D4D0D4A2D68F3
:100E3000536A15FB00F010FA83F09CB280B2A04216
:100E40002CBF00240124084B1880084B1C7011B1E2
:100E5000536A8342FCD1012305494B61936130BD44
:100E6000B010002000800440AC100020AE10002024
:100E700000A00440094B0A4A5869127800F00100AA
:100E80000AB108B9704738B9586A064B1B889842AE
:100E900034BF0020012070470120704700800440CB
:100EA000AE100020AC1000202DE9F8430125DFF83A
:100EB0003081424BD8F80020414F02F13C0199604B
:100EC00002F124037B627B6002F580535D6040F693
:100ED000AA630024536141F205033A4E3A4802F5F1
:100EE00000519460D465D3601461D461D464886483
:100EF000C6F8CC45C6F8E445C6F8DC45C6F8D44586
:100F0000C6F8D845D36093684FF4A029936000F0E9
:100F100069F92E4B06211A6F4FF4E113C2F38022B8
:100F20002A44B0FBF2F202F5E1425201B2FBF3F2C5
:100F3000274B203A03EAC202D8F800302046DA6193
:100F40002B46042201F09EF92B462A460521204615
:100F500001F098F914230422C6F8CC354FF4C023CD
:100F60001146C6F8E43528462B46C6F8DC9501F054
:100F700089F90522D8F8003016495A614FF0F0532C
:100F8000154A55609360154B54629463146454651C
:100F9000C3F800901466D465176759600321A3F560
:100FA0000053C2F89040C2F88C4059630223956404
:100FB00002F580521361BDE8F88300BF40100020A5
:100FC0000010002000C00340FFFF0100008000402F
:100FD000F8FF7F00020005000000044000400440CC
:100FE00050100020084B586B10F0020006D002226F
:100FF0009A6203F5005301205A637047DB6A9B072E
:10100000FBD40222014BF6E700000440002004401C
:101010007F2938B50446154624D8FFF7E3FF20B3EF
:101020002046134B621890420DD1124B01391A8899
:1010300061F30E121A80104AC2F8A03002239364A2
:1010400035B9002038BD10F8014B03F8014BEAE731
:10105000FFF7C8FF0028FBD0084B1A6893699B066E
:10106000FCD5EEE741F20310ECE741F20620E9E798
:10107000B812002040100020000004405010002052
:10108000014608B5FFF7AEFF0028FBD0054B1B68F3
:101090009A695006FCD5D9639A699206FCD500205E
:1010A00008BD00BF501000200E4BD86E40F2011357
:1010B00098420FD040F2022398420DD00A4BC01A3A
:1010C0000A4B1B6883420AD02ABFC3F50073C01ABB
:1010D000C01870470020F3E74FF48070F0E700205D
:1010E000704700BF00000440B4100020B41200207C
:1010F0002DE9F843089F04460D461646F3B9FFF75D
:10110000D3FFA84228BF284600214FF001084FF026
:1011100002091D4ADFF878E013681C4F04EB000C4D
:1011200064451DD101B1136006B1306041F2042362
:10113000A84234BF18460020BDE8F8832FB1FFF75E
:1011400053FE00213846FFF76FFEFFF7ADFFA842C0
:10115000D5D2002FF9D0FFF78DFE0028F5D0CEE7CD
:101160001EF803100133B3F5007F04F8011B04D10E
:101170000023C7F810900121D2E7B3F5807F08BFA4
:10118000C7F81080F7E700BFB41200200010044039
:10119000B4100020012307B5002200911946FFF783
:1011A000A7FF03B05DF804FB10B10222094B9A625D
:1011B00071B101220020074B07499A624A6307492F
:1011C0001967074908609A64022203F580531A617F
:1011D0000020704700000440002004400010002060
:1011E000B412002030B51A4B87B001AA03F11005E4
:1011F000144618685968083303C4AB422246F7D135
:101200001B782370134B1B6F03F00703032B1BD0BA
:10121000114A9368C3F30443102B17D806A90B4453
:1012200013F8143C0D480E4943438B4203D1926896
:10123000C2F30162D340074A106FC0F3013001309E
:10124000B3FBF0F007B030BD064BF4E7064BF2E716
:10125000682A0000008000400000014040420F006A
:1012600000093D0000F04902C0EA2101012313B545
:1012700004221846002101F005F800230093009B8A
:10128000632B18DD012302221846002100F0FAFF2B
:1012900000230193019BB3F5FA7F0FDB094B00227A
:1012A0005C6C01231146184600F0ECFFE04300F0AF
:1012B000010002B010BD009B0133DFE7019B013349
:1012C000E7E700BF00C003400020704700207047E0
:1012D00070B5D1E90152AA4205D290F840302B44B2
:1012E0009B1A402B10D9002012E00A6890F8404069
:1012F000D65C90F841200133224402F03F020134D1
:1013000086548B6080F840408B689D42EDD8012068
:1013100070BD2DE9F8431D461746D1E901329B1AED
:1013200090F84020044613449D420E469DF82090BC
:101330009DF8248056D9FFF7CBFF00285CD11423F9
:1013400041F2020084F84630BDE8F88394F8412069
:10135000A25CFA5494F841200133013202F03F02BA
:1013600084F8412094F84020013A84F8402094F811
:1013700040200AB19D42E9D1D6E90121914201D232
:101380009D4231D89D42DAD129463846D4F888208A
:1013900000F042FDC4F88800B9F1000F04D02A46DD
:1013A0003946E06C00F002FEB8F1000F08D094F866
:1013B00043308BB12B463A463946A06C00F060FDB5
:1013C00094F8433043B1E36DA26D2B449342E3653F
:1013D00024BF002384F84330636D41F203002B44A3
:1013E0006365B1E70023C2E73268525CFA54B26821
:1013F00001330132B260BFE70020A5E77FB50023CB
:10140000CDE90033082315460DEB03020446FFF730
:1014100080FF41F203039842064626D194F84330F8
:1014200063B10822E06C0DEB020100F0BFFD082360
:101430000DEB03021146A06C00F022FD039A029B03
:101440006A6094F843202B605AB9094A934208D045
:10145000084A934205D00822E06C0DEB020100F02F
:10146000A5FD6B68236500236365304604B070BD3D
:10147000F70A0AF7FC0404FC2DE9F7430446586810
:101480000D4617469846002848D011F0030348D16E
:101490009B6A216E1B6902EB010C1E1D66451CD860
:1014A0001C33994219D28E42304638BF08469C45BB
:1014B00094BFC0EB0C02C0EB0302411AC6F16806F0
:1014C00005EB0109304449462044019201F0F6F948
:1014D000FF214846019A01F0FEF948F20406236E06
:1014E000B34211D848F20702F91891420CD9F61A02
:1014F0002E440422314604F1800001F0DFF9042279
:10150000FF21304601F0E7F9D8E900363A46206E6F
:101510002946B0470020226E3A44226603B0BDE857
:10152000F08341F20200F9E7F8B503F0200300254B
:1015300080F842304FF0FF3304460F461646C0F89D
:1015400088301822FF21C0E91855A0F8405080F8D3
:101550004350A0F8445080F84650683001F0BBF981
:101560000422FF2104F1800001F0B5F90422FF21DB
:1015700004F1840001F0AFF988222946C4E912760B
:1015800004F1900001F0A7F984F8185116B1E06C4D
:1015900000F002FD0020F8BD2DE9F04FA7B0CDE925
:1015A00013230293002304460E46309DDFF8B893C0
:1015B0001593159A029B9A4201D30020C7E094F834
:1015C0004630142BF6D8DFE813F06700AE00A80011
:1015D000520039002E00560239004E02390008022E
:1015E00039004E02A203050415008C01490349038A
:1015F000DB0205044FF00008636D0F2B00F29180B1
:101600000127102316AA2046CDF80480009713A9BD
:10161000FFF77FFE41F203030990099A9A4200F016
:101620005281099B44E00127D4E91432934200F22D
:101630005E8184F8467041F2030339E04FF0FF0BFE
:10164000D4E91437BB426CD9DB1BDDE91472BF1A35
:1016500094F84020032B174440F21182032F00F22C
:101660001182204613A9FFF733FE002320E0012753
:10167000636D072BDFD8082316AA2046CDE9007733
:1016800013A9FFF746FE41F203030C900C9A9A420D
:1016900000F0B8810C9B0BE016AA204613A9FFF7B7
:1016A000ADFE41F203020690069B934202D0069BD8
:1016B000059345E0179A16992265002262659F4AB4
:1016C000914240F0AA81022284F84620F0E70123EB
:1016D00016AA009320460823019713A9FFF719FEC5
:1016E00041F203030790079A9A4201D0079BDFE774
:1016F000169B03F07F43B3F1407F05D0142384F899
:10170000463041F20903D3E7179BD90706D594F871
:10171000423043F0010384F842300027636D072B09
:10172000D5D90123A4E1204616AA13A9FFF766FE26
:1017300041F203030890089F9F420BD0089F059732
:1017400041F20303059A9A423FF433AF059827B05C
:10175000BDE8F08F94F84420169B2AB1784A934252
:1017600040F087800D2336E094F84220D20741D51F
:1017700094F84320002A3DD172498B4233D022D8BD
:10178000714A934275D014D8704A934200F0888011
:1017900004D86A4A93426CD04B456AD0142316A8E9
:1017A00084F84630FFF790FD002865D141F2080724
:1017B000C5E7674A934279D0F0D8664A934258D039
:1017C000654A9342E9E75E4A9342CBD006D8634A22
:1017D0009342E3D10F2384F84630B0E7604A934246
:1017E00047D0604AEDE7102384F84630236DC4E902
:1017F0001632A4E7584A93424AD02BD8524A934211
:1018000044D022D84B453FD0504A934244D016A8EA
:10181000FFF75AFD00284BD01323169884F8463062
:10182000C4F88C00FFF752FD94F842309B0686D531
:10183000002884D04368002B81D020469847089028
:10184000089B002B3FF47BAF16E0424A9342DED167
:101850000323C0E7424A93421CD010D83C4A93422B
:1018600020D0374A9342D2D194F84330002B3FF432
:1018700079AF142384F8463041F201075FE7394A13
:101880009342C4D10823A6E70A23A4E70523A2E7CD
:101890000623A0E70C239EE794F84330002BE8D101
:1018A000112398E794F84330002BE2D1122392E7FA
:1018B000142384F8463094F84330002B3FF476AF7D
:1018C00041F204073BE7D4F848A000F0A5FB8023D1
:1018D0000221CDE9000317AA3B46504600F0B0FABA
:1018E0008AE6012384F8433084F8463061E616AA7C
:1018F0002046CDE9007713A9FFF70BFD41F2030362
:101900000A900A9A9A4201D00A9BD1E606F1080889
:101910001C22404616A900F0D1FF3378404643F020
:1019200001033370FEF75AFC00287FF47DAE1423C8
:1019300084F8463041F20C03BAE600BFEB17A60369
:10194000FC0404FCF90707F9F40A0AF4F30B0BF39F
:10195000F70A0AF7F50909F5F60808F6FA0606FA8D
:10196000FD0303FDFE0101FEEB17A65E337843F095
:1019700004033370199BB36273785F072AD5EB2396
:101980008DF8583017238DF85930A6238DF85A302A
:101990005E23042204F1500104F184008DF85B30D1
:1019A00000F08CFF002094F84530606643F002039D
:1019B00084F84530EF686FB104222B6816A9B84748
:1019C0000822606E2B68EF6818A91044B847636E50
:1019D000103363660B2384F84630636D072B3FF6A4
:1019E0002AAE012318AACDE900332046082313A903
:1019F000FFF78FFC41F203030B900B9A9A42B5D08C
:101A00000B9B55E63378179A43F002033370169B0D
:101A10007360236D083B73622AB1142384F8463047
:101A200041F2010344E6042384F8463094F845303B
:101A3000626643F0010384F8453019E6042316AAD0
:101A40002046CDE9007713A9FFF763FC41F20303B9
:101A50000D900D9A9A4201D00D9B29E6236D042B1F
:101A600002D9169B23660127636D032BE6D9092350
:101A700084F84630DFE500236366072334E79F429E
:101A8000FFF4EFAD402B28BF40239F4228BF1F46E5
:101A90000123032F88BF27F003070DF158084246A2
:101AA000CDE9003320463B4613A9FFF732FC41F253
:101AB00003030E900E9A9A4201D00E9BF8E594F81B
:101AC0004620072A27D1D5F808A0BAF1000F22D066
:101AD0002B683A464146606ED047636E3B4463666E
:101AE000AEE508F803B00133032BFAD9042FC7F190
:101AF000040A88BF4FF0000A092ABA440DD12B46C8
:101B0000524641462046FFF7B7FC0E900E9B002B35
:101B10003FF496ADD1E73B46E6E7042A25D173783A
:101B200098077FF58DADEB68002B3FF489AD636EB0
:101B3000042B10D80AEB030106290CD917AFFF1AA2
:101B4000394604F18400039200F0B8FEFF213846C4
:101B5000039A00F0C0FEEF68524641462B68606E63
:101B6000B847676E574467666AE50B2A7FF468AD2D
:101B7000737859077FF564ADEF68002FECD15FE50E
:101B800094F8427017F0200707D0D4F88C00FFF7C4
:101B90009DFB074600283FF443AF4FF0010A42E0A7
:101BA0004BB347B33B6933B320469847DDE9143262
:101BB00094F840809B1A43448342FFF452ADD4E929
:101BC0001421A2EB0108B8F1400F28BF4FF04008E4
:101BD000984528BF984616AA43462046CDE900AA54
:101BE00013A9FFF796FB41F203030F900F9A9A4255
:101BF00003D00F9B5CE50120D8E794F842309A06A9
:101C000011D5002F3FF40CAFD7F808B0BBF1000F8F
:101C10003FF406AF2B464246204616A9D8470F9000
:101C20000F9B002BE5D1D4E9142194F84230914266
:101C300003F02003B4D3002B3FF473AD002F3FF427
:101C400070ADFB68002B3FF46CAD294620469847E9
:101C50000F900F9B002B3FF464ADCAE700218A6A06
:101C6000496B1269403A91423FF6DAAE112B0FD11F
:101C700094F81831002B7FF454AD41F20603109311
:101C8000109A9A4202D1142384F84630109B0FE533
:101C900094F84430002B7FF444ADCDE9003316AA0C
:101CA0004023204613A9FFF734FB41F203031090B1
:101CB000109A9A42EAD1E06C00F07AF994F818315F
:101CC000A3B104F1B403E06C00931EAA04F19403E1
:101CD00016A900F0E7F81090109B9BB10023F37059
:101CE000142384F8463041F20603E1E4E76C00F087
:101CF00063F9039000F078F9039B00901EAA384620
:101D000016A9E6E70123F37084F8443009E50023BF
:101D100016AACDE900332046042313A9FFF7F9FAE8
:101D200041F203031190119A9A4202D0119B05933C
:101D30000CE5D4F88820294B9A4205D0142384F866
:101D4000463041F20503F2E70123F37094F8453081
:101D50009B0707D0EF682FB104222B68104604F1CF
:101D60008401B847236E73B36B6863B34FF0FF33DE
:101D700004F18001042212A81293029100F08EFD5A
:101D800030B1D5E90037042248F204000299B8477F
:101D900004F168090422494612A800F07FFD90B1C1
:101DA00000239B6A1422D3F8108004F16C0108F11F
:101DB0000800D5E90037B847D5E90037042249467D
:101DC00008EB0200B8470123B3700E2384F84630B5
:101DD0000023ACE741F20700B9E400BFE320BBDE1B
:101DE00049BA89B24840C0F30313584003B283EAAA
:101DF0000033580100F4FF509BB25840704738B58B
:101E0000044645181046AC4200D138BD014614F8CE
:101E1000010BFFF7E5FFF6E730B501240025074B7E
:101E200001445C609D601A61DC60884201D1586A9F
:101E300030BD10F8012B1A62F7E700BF00800840A0
:101E4000F7B5044620301D460F461646019000F0B7
:101E5000E1FBDDE90812019800F0E0FB00230C2211
:101E60006364314684F8587004F1590000F026FD8F
:101E70002B0C6DBA84F86530A4F8665003B0F0BD41
:101E80001FB50C46194600F14803CDE90142009305
:101E900000F1440200F15803203000F03BFC04B094
:101EA00010BD00002DE9F04399B00E4615461C46C2
:101EB0000746DDF88090002861D000295FD0002A15
:101EC0005DD0002B58D02F4B2F4AB9F1000F14BF13
:101ED000984690461C22002111A800F0FCFC2B4BD8
:101EE000414610A8109300F0E2FA202110A800F05B
:101EF000DEFA0122264B019402920393CDF8109052
:101F00000592069354B1B9F1000F07D001A910A8AA
:101F100000F0B9FA04A910A800F0B5FA0797012754
:101F20001B4C07A910A80897099400F0ACFA0AA95D
:101F300010A80A960B970C940D950E970F9400F02D
:101F4000A2FA0DA910A800F09EFA10A800F0B8FAA5
:101F5000104B00934FF098435A6CD202FCD55B6D46
:101F600040F2046003F470230093009B002B08BF31
:101F7000002019B0BDE8F083DFF80C80AAE740F23A
:101F80000160F6E71F2400801F24FC840000010686
:101F9000200000207856341210B5044600F0EEF808
:101FA0002046BDE81040002100F0ECB800F0EFB88A
:101FB000014600F0F9B8000000B591B000234022BE
:101FC00069464FF4807000F099FAB0F5A02F07D061
:101FD000B0F5302F034818BF002011B05DF804FBA6
:101FE0000048FAE74CE3070000B591B00023402217
:101FF00069464FF4807000F081FAB0F5A02F07D049
:10200000B0F5302F034818BF002011B05DF804FB75
:102010000048FAE76CE307000048704786E20700D3
:102020002DE9F34799460A9B0C46196805463F2956
:10203000164642D85A68002A41D0224A002E14BFC0
:10204000B046904601F03F07091928BF5A68196049
:1020500024BF01325A60AFB1C7F1400AA24521D86E
:102060002946524609EB070000F028FC01234146AF
:1020700000934A463346002000F09EF8B046403CAC
:1020800055443C443F2C0CD9A3092A4600934146B1
:102090003346002000F090F824F03F031D4404F084
:1020A0003F0400272CB12246294609EB070000F027
:1020B00005FC002002B0BDE8F0879046C2E7DFF8DB
:1020C0000480BFE7792A000030B40546084611466F
:1020D0001A46DDE9023425B931B1029430BCFFF76C
:1020E0009FBF024830BC70470846FBE780AFFFFF48
:1020F0002DE9F0431546146887B09946E3008DF842
:102100000F30630956688DF80E30630B8DF80D3073
:10211000630D8DF80C30F30003EB54738DF80B3026
:1021200004F03F047309372C8DF80A304FEA563318
:1021300094BFC4F13802C4F1780207468846CDE95D
:1021400000158DF809300C490346760D00208DF8F6
:102150000860FFF7B9FF082143463A460DEB01003E
:102160000095FFF75DFF20223946484600F0A6FBA8
:10217000002007B0BDE8F083992A00006822002102
:1021800000F0A9BB0023C0E900331846704707B52B
:1021900000F128030190009300F108030020FFF7ED
:1021A00093FF03B05DF804FB02460B4600F12801E3
:1021B0000830FFF79DBF0000F0B593B00E461746FC
:1021C0000446202200210AA81D4600F084FB0120BD
:1021D0004FF00052019702900392049605900692E8
:1021E000079508900992002C2FD1189C184BA40138
:1021F00021460AA80A9300F05AF903990AA80C4349
:102200000394069B04A943F020030693099B43F023
:102210002003099300F037F901A90AA800F033F967
:1022200007A90AA800F039F90AA800F049F94FF007
:1022300098435A6CD202FCD55B6D13F4702F0CBF1F
:1022400000206FF06F0013B0F0BD6FF07100FAE77F
:1022500000040103EFF3108072B6704700B962B654
:10226000704770B5054614460E46FFF7F3FF296820
:1022700081EA040202EA06044C402C60BDE870408A
:10228000FFF7ECBFF8B504460D461F4616464AB1A7
:1022900001238B403021184A01FB0022F7B141F2A3
:1022A000100153503023072D4FF00F0104FB03F3AF
:1022B00017D8A80006FA00F2814010481844FFF72A
:1022C000D0FF56B9012130230B4801FA05F503FB75
:1022D000040077B141F21003C550F8BD42F210017D
:1022E000DFE7A5F10800800006FA00F2814004480B
:1022F000E4E742F21003EFE700C0034004C00340EC
:102300000CC00340F0B5114A114C124E00F001050B
:10231000E3695F0713D40DB9334213D103EA000711
:102320008F4207D10B4A1A40002A14BF6FF00100F8
:102330000020F0BD013AEBD16FF00200F9E74FF059
:10234000FF30F6E76FF00100F3E700BF80969800DA
:10235000000003400200010038B541F6713301224C
:102360000C4C0021E569E3630B4B05F48035DA6022
:102370000223606121202361FFF7C4FF10B92120EF
:10238000FFF7C0FF0122054BDA600DB10023E363C4
:1023900038BD00BF00000340001003400020034090
:1023A0002DE9F04F06464FF4502501202A4CDFF866
:1023B000B4C041F67137CCF8040044F826503025FB
:1023C0000024DFF8A4E0DFF8A49005FB06E5EC6547
:1023D0002C662C67214CDFF898A0D4F81C80E763AA
:1023E000E76800FA06F60743E7604BB9E26818F4BD
:1023F000803F22F00102E26000D0E363184628E04B
:1024000001F5005000EA0900401A984228BF18461A
:102410006161D4F81CB087081BF0040F17D1013F8D
:102420003F0147F060576F66AA66C5F86CA0CCF80C
:102430002460DEF834703E42FBD0094F01447E63D5
:102440000427CCF82860024427611B1ACDE74FF01F
:10245000FF30BDE8F08F00BF0040044000000340A3
:1024600000200440001004400000044000E0FFFF92
:10247000180003404FF098435A6CD202FCD5586DB7
:1024800000F470207047436813B9416070475B687F
:102490005A68012AFBD159607047836813B981607B
:1024A00070475B685A68012AFBD159607047C3695D
:1024B000032B9FBF00EB83020133D160C3617047E0
:1024C000C369042B15D84FF09842116CC902FCD592
:1024D00004339B0013650168103B116041680C30A8
:1024E000116050F8041C034411604FF09842984268
:1024F00000D1704750F8041B1160F8E7F0B50746AB
:102500000F4D10488DB0002B08BF05460E461446EF
:1025100000211C2205A800F0DEF9012304A801A96E
:102520003D4344F000540196049502930394FFF751
:10253000B4FFFFF7C5FFFFF79DFF0DB0F0BD00BF73
:1025400001000AFF010008FF054B5B69C3F3851218
:10255000827003F03F021B0B42700370704700BF94
:1025600000C00740036BDA0702D503695B06F9D4A4
:10257000704710B5FFF7F6FF012200F500531A630C
:102580000B79044648881B0243EA8043487A034398
:102590004878002814BF402000200343887A002890
:1025A00014BF802000200343C87A002814BF2020D5
:1025B00000200343087B002814BF102000200343A1
:1025C000487B002814BF0820002003438879002896
:1025D00014BF4FF4803000200343636004F5805340
:1025E0001A630A780AB90223E36000236362C87998
:1025F0000B7A497943EA8003002914BF1021002196
:102600000B43A3600AB10123E36010BD00207047B3
:10261000002070472422002100F05DB970B51546F6
:102620000E4624220021044600F055F925F040030F
:10263000802B02D0B5F5807F08D12046314640F886
:10264000045BEA0800F03AF9002070BD6FF01F004B
:10265000FBE700002DE9F04104681E4624F040032A
:10266000802B05468846174692B002D0B4F5807F8D
:1026700043D11C2200210BA800F02DF9224A234B44
:102680000121B8F1010F18BF13460A932B1D0193C6
:10269000E4081F4B44F0005402910AA803940497E5
:1026A000059106930796089101A90993FFF7EBFEA0
:1026B00004A90AA8FFF7E7FE07A90AA8FFF7EDFE9D
:1026C00029680AA8C908FFF7F2FE10210AA8FFF737
:1026D000EEFEFFF79BFF98B90AA8FFF7F1FE4FF057
:1026E00098435A6CD202FCD55C6DFFF791FF04F45D
:1026F0007024204612B0BDE8F0816FF07100F9E758
:102700004FF0FF30F6E700BF0001010400010004B4
:10271000100000202DE9F04F9BB0074689469846EF
:102720001646DDF894B072B115683B6823F040029C
:10273000802A03D0B3F5807F40F0A6800BEB09031D
:10274000002400930DE01546EFE795B1249A1BF89D
:102750000430525D01355340269A05F00F0513559C
:1027600001344C45F1D3002E00F0918000203560FB
:1027700067E0A9EB040ABAF10F0F57D91C222946CA
:1027800013A800F0A8F8434B3A6812933B1D03933B
:102790000123D20842F00052049305923E4A269942
:1027A000CDF818802AF00F0A07930892CDF82480FC
:1027B0000A930B920BEB04020C9221444AF0005254
:1027C0000D9312A80E920F9103A910931192FFF787
:1027D0005AFE06A912A8FFF756FE0CA912A8FFF789
:1027E00052FE0FA912A8FFF758FE09A912A8FFF779
:1027F00054FE396812A8C908FFF759FE514612A8BD
:10280000FFF755FEFFF702FFC8B912A8FFF758FE01
:102810004FF098435A6CD202FCD55B6D544403F4DC
:1028200070230193FFF7F4FE019B5BBB269B0BEB30
:10283000040A1C44009B9A4506D14C4691E74FF090
:10284000FF301BB0BDE8F08F8DB9424601213846FC
:10285000249BFFF7FFFE0028F3D108F1100212F8C5
:10286000013D0133DBB213700BB99045F7D1249AC7
:102870001AF8013B525D0135534004F8013B05F065
:102880000F05D7E71846DCE76FF01F00D9E73046A1
:10289000D7E700BF03030004100000200139024401
:1028A00010B5904201D1002005E0037811F8014FE6
:1028B000A34201D0181B10BD0130F2E70A44431EA9
:1028C000914200D1704710B511F8014B914203F8C5
:1028D000014FF9D110BD02440346934200D1704725
:1028E00003F8011BF9E70000F8B500BFF8BC08BC0D
:1028F0009E467047F8B500BFF8BC08BC9E467047BE
:102900000D0A4765636B6F20426F6F746C6F616473
:1029100065722076582E59592E5A5A0D0A312E209A
:1029200075706C6F61642067626C0D0A322E2072C4
:10293000756E0D0A332E2065626C20696E666F0D10
:102940000A424C203E20000205000D0A4661696CD7
:10295000656420746F20626F6F740D0A000D0A6643
:10296000696C65206572726F72203078000000001B
:10297000000000008107000000000000A107000027
:102980000D0A53657269616C2075706C6F6164200B
:1029900061626F727465640D0A000D0A5365726995
:1029A000616C2075706C6F616420636F6D706C6515
:1029B00074650D0A000D0A626567696E2075706C9A
:1029C0006F61640D0A000D0A626C6F636B206572A3
:1029D000726F7220307800B814B6F1E0CFF3ADB763
:1029E000DD25C9FA79B7130007B0CD5E01000000FC
:1029F00002000002402B0000004000000000080020
:102A0000F0001000AD0A0000B10A000069080000E3
:102A10003D0C00006F0C000000000000A90C00003D
:102A2000170D00000000000013B779FAC925DDB7C3
:102A3000ADF3CFE0F1B614B80101000000000000D2
:102A40003C2B0000400000000200000200000000DB
:102A50000000000000000000000000000000000076
:102A600000000000000000000400000700000D103E
:102A700013001A2026303840506A09E667BB67AE5B
:102A8000853C6EF372A54FF53A510E527F9B056857
:102A90008C1F83D9AB5BE0CD1980000000000000E3
:102AA0000000000000000000000000000000000026
:102AB0000000000000000000000000000000000016
:102AC0000000000000000000000000000000000006
:0C2AD000000000000000000000000000FA
:102ADC00F00F100300000000B410002013000000E1
:102AEC0009000000000100000202000013000000B9
:102AFC00F00F100300000000B411002013000000C0
:102B0C00090000000002000001010000D3FFFFFFDC
:102B1C00F07F1030B8120020000000000000000010
:102B2C0000C00540220000005901000035010000E2
:04000003000001797F
:00000001FF
